{
  "address": "0xa513E6E4b8f2a923D98304ec87F64353C4D5C853",
  "abi": [
    {
      "inputs": [],
      "stateMutability": "nonpayable",
      "type": "constructor"
    },
    {
      "inputs": [],
      "name": "CityCitizen__Citizen_Not_Found",
      "type": "error"
    },
    {
      "anonymous": false,
      "inputs": [
        {
          "indexed": false,
          "internalType": "uint8",
          "name": "version",
          "type": "uint8"
        }
      ],
      "name": "Initialized",
      "type": "event"
    },
    {
      "anonymous": false,
      "inputs": [
        {
          "indexed": true,
          "internalType": "address",
          "name": "citizenAddr",
          "type": "address"
        },
        {
          "indexed": false,
          "internalType": "uint256",
          "name": "timestamp",
          "type": "uint256"
        }
      ],
      "name": "NoTokenCitizen",
      "type": "event"
    },
    {
      "inputs": [
        {
          "internalType": "string",
          "name": "name",
          "type": "string"
        },
        {
          "internalType": "address",
          "name": "citizenAddr",
          "type": "address"
        },
        {
          "internalType": "uint256",
          "name": "checkedTimestamp",
          "type": "uint256"
        },
        {
          "internalType": "string",
          "name": "surname",
          "type": "string"
        },
        {
          "internalType": "string",
          "name": "email",
          "type": "string"
        },
        {
          "internalType": "string",
          "name": "dateOfBirth",
          "type": "string"
        },
        {
          "internalType": "uint256",
          "name": "telephone",
          "type": "uint256"
        },
        {
          "internalType": "string",
          "name": "physicalAddress",
          "type": "string"
        },
        {
          "internalType": "bool",
          "name": "isModify",
          "type": "bool"
        }
      ],
      "name": "addCitizen",
      "outputs": [],
      "stateMutability": "nonpayable",
      "type": "function"
    },
    {
      "inputs": [
        {
          "internalType": "address",
          "name": "citizenAddr",
          "type": "address"
        }
      ],
      "name": "checkExistingCitizen",
      "outputs": [
        {
          "internalType": "bool",
          "name": "",
          "type": "bool"
        }
      ],
      "stateMutability": "view",
      "type": "function"
    },
    {
      "inputs": [
        {
          "internalType": "address",
          "name": "citizenAddr",
          "type": "address"
        },
        {
          "internalType": "address",
          "name": "cityAddr",
          "type": "address"
        }
      ],
      "name": "checkExistingCitizenOfACity",
      "outputs": [
        {
          "internalType": "bool",
          "name": "",
          "type": "bool"
        }
      ],
      "stateMutability": "view",
      "type": "function"
    },
    {
      "inputs": [
        {
          "internalType": "uint256",
          "name": "balanceOfCitizen",
          "type": "uint256"
        }
      ],
      "name": "checkForNft",
      "outputs": [],
      "stateMutability": "nonpayable",
      "type": "function"
    },
    {
      "inputs": [
        {
          "internalType": "uint256",
          "name": "amountUsed",
          "type": "uint256"
        }
      ],
      "name": "consumePTFromCitizen",
      "outputs": [],
      "stateMutability": "nonpayable",
      "type": "function"
    },
    {
      "inputs": [
        {
          "internalType": "address",
          "name": "citizenAddr",
          "type": "address"
        }
      ],
      "name": "deleteCitizen",
      "outputs": [],
      "stateMutability": "nonpayable",
      "type": "function"
    },
    {
      "inputs": [],
      "name": "getAdminAddress",
      "outputs": [
        {
          "internalType": "address",
          "name": "",
          "type": "address"
        }
      ],
      "stateMutability": "view",
      "type": "function"
    },
    {
      "inputs": [
        {
          "internalType": "address",
          "name": "citizenAddr",
          "type": "address"
        }
      ],
      "name": "getCitizen",
      "outputs": [
        {
          "components": [
            {
              "internalType": "string",
              "name": "name",
              "type": "string"
            },
            {
              "internalType": "uint256",
              "name": "checkedTimestamp",
              "type": "uint256"
            },
            {
              "internalType": "string",
              "name": "surname",
              "type": "string"
            },
            {
              "internalType": "string",
              "name": "email",
              "type": "string"
            },
            {
              "internalType": "string",
              "name": "dateOfBirth",
              "type": "string"
            },
            {
              "internalType": "uint256",
              "name": "telephone",
              "type": "uint256"
            },
            {
              "internalType": "string",
              "name": "physicalAddress",
              "type": "string"
            },
            {
              "internalType": "uint256",
              "name": "id",
              "type": "uint256"
            }
          ],
          "internalType": "struct classes.Citizen",
          "name": "",
          "type": "tuple"
        }
      ],
      "stateMutability": "view",
      "type": "function"
    },
    {
      "inputs": [
        {
          "internalType": "contract IPollutionToken",
          "name": "ptContractAddress",
          "type": "address"
        },
        {
          "internalType": "contract IDSESCenter",
          "name": "dsesCenterAddress",
          "type": "address"
        },
        {
          "internalType": "contract IPollutionNft",
          "name": "pnftAddress",
          "type": "address"
        }
      ],
      "name": "initialize",
      "outputs": [],
      "stateMutability": "nonpayable",
      "type": "function"
    },
    {
      "inputs": [],
      "name": "tokenToBeAssigned",
      "outputs": [
        {
          "internalType": "uint256",
          "name": "",
          "type": "uint256"
        }
      ],
      "stateMutability": "pure",
      "type": "function"
    }
  ],
  "numDeployments": 1,
  "solcInputHash": "20b7fff1a2b01175cfc1e1440895e895",
  "bytecode": "0x60806040523480156200001157600080fd5b50620000226200002860201b60201c565b620001d2565b600060019054906101000a900460ff16156200007b576040517f08c379a0000000000000000000000000000000000000000000000000000000008152600401620000729062000175565b60405180910390fd5b60ff801660008054906101000a900460ff1660ff1614620000ec5760ff6000806101000a81548160ff021916908360ff1602179055507f7f26b83ff96e1f2b6a682f133852f6798a09c465da95921460cefb384740249860ff604051620000e39190620001b5565b60405180910390a15b565b600082825260208201905092915050565b7f496e697469616c697a61626c653a20636f6e747261637420697320696e69746960008201527f616c697a696e6700000000000000000000000000000000000000000000000000602082015250565b60006200015d602783620000ee565b91506200016a82620000ff565b604082019050919050565b6000602082019050818103600083015262000190816200014e565b9050919050565b600060ff82169050919050565b620001af8162000197565b82525050565b6000602082019050620001cc6000830184620001a4565b92915050565b6126a280620001e26000396000f3fe608060405234801561001057600080fd5b506004361061009e5760003560e01c8063c0c53b8b11610066578063c0c53b8b14610147578063c2411dab14610163578063c335963d14610193578063c6e92e6a146101c3578063f907306e146101df5761009e565b80637de8102b146100a35780638d68d807146100bf578063b2e6b912146100db578063b6325b15146100f9578063b7e39a4314610129575b600080fd5b6100bd60048036038101906100b89190611a76565b6101fb565b005b6100d960048036038101906100d49190611bcc565b610662565b005b6100e36109ca565b6040516100f09190611c08565b60405180910390f35b610113600480360381019061010e9190611c23565b6109f4565b6040516101209190611c72565b60405180910390f35b610131610ad8565b60405161013e9190611c9c565b60405180910390f35b610161600480360381019061015c9190611d71565b610af4565b005b61017d60048036038101906101789190611bcc565b610e4f565b60405161018a9190611f1e565b60405180910390f35b6101ad60048036038101906101a89190611bcc565b6111e0565b6040516101ba9190611c72565b60405180910390f35b6101dd60048036038101906101d89190611f40565b61123a565b005b6101f960048036038101906101f49190611f40565b6113dc565b005b6000600460009054906101000a900473ffffffffffffffffffffffffffffffffffffffff1673ffffffffffffffffffffffffffffffffffffffff1663a376e4d8336040518263ffffffff1660e01b81526004016102589190611c08565b602060405180830381865afa158015610275573d6000803e3d6000fd5b505050506040513d601f19601f820116820180604052508101906102999190611f82565b90506000600260009054906101000a900473ffffffffffffffffffffffffffffffffffffffff1673ffffffffffffffffffffffffffffffffffffffff16635e94ac058b6040518263ffffffff1660e01b81526004016102f89190611c08565b602060405180830381865afa158015610315573d6000803e3d6000fd5b505050506040513d601f19601f820116820180604052508101906103399190611fc4565b90508180156103455750825b801561037c57503373ffffffffffffffffffffffffffffffffffffffff168173ffffffffffffffffffffffffffffffffffffffff16145b806103c6575081801561038d575082155b80156103c55750600073ffffffffffffffffffffffffffffffffffffffff168173ffffffffffffffffffffffffffffffffffffffff16145b5b610405576040517f08c379a00000000000000000000000000000000000000000000000000000000081526004016103fc90612074565b60405180910390fd5b60008361053c57600260009054906101000a900473ffffffffffffffffffffffffffffffffffffffff1673ffffffffffffffffffffffffffffffffffffffff1663ea64b234338d610454610ad8565b6040518463ffffffff1660e01b815260040161047293929190612094565b600060405180830381600087803b15801561048c57600080fd5b505af11580156104a0573d6000803e3d6000fd5b50505050600260009054906101000a900473ffffffffffffffffffffffffffffffffffffffff1673ffffffffffffffffffffffffffffffffffffffff1663b5cb15f76040518163ffffffff1660e01b8152600401602060405180830381865afa158015610511573d6000803e3d6000fd5b505050506040513d601f19601f8201168201806040525081019061053591906120e0565b905061054c565b6105458b610e4f565b60e0015190505b6040518061010001604052808d81526020018b81526020018a815260200189815260200188815260200187815260200186815260200182815250600160008d73ffffffffffffffffffffffffffffffffffffffff1673ffffffffffffffffffffffffffffffffffffffff16815260200190815260200160002060008201518160000190816105da9190612319565b506020820151816001015560408201518160020190816105fa9190612319565b5060608201518160030190816106109190612319565b5060808201518160040190816106269190612319565b5060a0820151816005015560c08201518160060190816106469190612319565b5060e08201518160070155905050505050505050505050505050565b803373ffffffffffffffffffffffffffffffffffffffff16600260009054906101000a900473ffffffffffffffffffffffffffffffffffffffff1673ffffffffffffffffffffffffffffffffffffffff16635e94ac05836040518263ffffffff1660e01b81526004016106d59190611c08565b602060405180830381865afa1580156106f2573d6000803e3d6000fd5b505050506040513d601f19601f820116820180604052508101906107169190611fc4565b73ffffffffffffffffffffffffffffffffffffffff1614610763576040517f54a6a82f00000000000000000000000000000000000000000000000000000000815260040160405180910390fd5b600260009054906101000a900473ffffffffffffffffffffffffffffffffffffffff1673ffffffffffffffffffffffffffffffffffffffff1663dc5314f28333600260009054906101000a900473ffffffffffffffffffffffffffffffffffffffff1673ffffffffffffffffffffffffffffffffffffffff166370a08231876040518263ffffffff1660e01b81526004016107fe9190611c08565b602060405180830381865afa15801561081b573d6000803e3d6000fd5b505050506040513d601f19601f8201168201806040525081019061083f91906120e0565b6040518463ffffffff1660e01b815260040161085d93929190612094565b600060405180830381600087803b15801561087757600080fd5b505af115801561088b573d6000803e3d6000fd5b50505050600160008373ffffffffffffffffffffffffffffffffffffffff1673ffffffffffffffffffffffffffffffffffffffff168152602001908152602001600020600080820160006108df91906117ae565b60018201600090556002820160006108f791906117ae565b60038201600061090791906117ae565b60048201600061091791906117ae565b600582016000905560068201600061092f91906117ae565b60078201600090555050600260009054906101000a900473ffffffffffffffffffffffffffffffffffffffff1673ffffffffffffffffffffffffffffffffffffffff1663e1cd7e43836040518263ffffffff1660e01b81526004016109949190611c08565b600060405180830381600087803b1580156109ae57600080fd5b505af11580156109c2573d6000803e3d6000fd5b505050505050565b6000600360009054906101000a900473ffffffffffffffffffffffffffffffffffffffff16905090565b60008173ffffffffffffffffffffffffffffffffffffffff16600260009054906101000a900473ffffffffffffffffffffffffffffffffffffffff1673ffffffffffffffffffffffffffffffffffffffff16635e94ac05856040518263ffffffff1660e01b8152600401610a689190611c08565b602060405180830381865afa158015610a85573d6000803e3d6000fd5b505050506040513d601f19601f82011682018060405250810190610aa99190611fc4565b73ffffffffffffffffffffffffffffffffffffffff1603610acd5760019050610ad2565b600090505b92915050565b6000670de0b6b3a7640000601e610aef919061241a565b905090565b60008060019054906101000a900460ff16159050808015610b255750600160008054906101000a900460ff1660ff16105b80610b525750610b343061161e565b158015610b515750600160008054906101000a900460ff1660ff16145b5b610b91576040517f08c379a0000000000000000000000000000000000000000000000000000000008152600401610b88906124ce565b60405180910390fd5b60016000806101000a81548160ff021916908360ff1602179055508015610bce576001600060016101000a81548160ff0219169083151502179055505b33600360006101000a81548173ffffffffffffffffffffffffffffffffffffffff021916908373ffffffffffffffffffffffffffffffffffffffff16021790555083600260006101000a81548173ffffffffffffffffffffffffffffffffffffffff021916908373ffffffffffffffffffffffffffffffffffffffff16021790555081600560006101000a81548173ffffffffffffffffffffffffffffffffffffffff021916908373ffffffffffffffffffffffffffffffffffffffff16021790555082600460006101000a81548173ffffffffffffffffffffffffffffffffffffffff021916908373ffffffffffffffffffffffffffffffffffffffff160217905550600560009054906101000a900473ffffffffffffffffffffffffffffffffffffffff1673ffffffffffffffffffffffffffffffffffffffff1663c697a7c830336040518363ffffffff1660e01b8152600401610d2f9291906124ee565b600060405180830381600087803b158015610d4957600080fd5b505af1158015610d5d573d6000803e3d6000fd5b50505050600260009054906101000a900473ffffffffffffffffffffffffffffffffffffffff1673ffffffffffffffffffffffffffffffffffffffff1663c697a7c830336040518363ffffffff1660e01b8152600401610dbe9291906124ee565b600060405180830381600087803b158015610dd857600080fd5b505af1158015610dec573d6000803e3d6000fd5b505050508015610e495760008060016101000a81548160ff0219169083151502179055507f7f26b83ff96e1f2b6a682f133852f6798a09c465da95921460cefb38474024986001604051610e40919061255f565b60405180910390a15b50505050565b610e576117ee565b610e60826111e0565b610e96576040517f54a6a82f00000000000000000000000000000000000000000000000000000000815260040160405180910390fd5b600160008373ffffffffffffffffffffffffffffffffffffffff1673ffffffffffffffffffffffffffffffffffffffff16815260200190815260200160002060405180610100016040529081600082018054610ef19061213c565b80601f0160208091040260200160405190810160405280929190818152602001828054610f1d9061213c565b8015610f6a5780601f10610f3f57610100808354040283529160200191610f6a565b820191906000526020600020905b815481529060010190602001808311610f4d57829003601f168201915b5050505050815260200160018201548152602001600282018054610f8d9061213c565b80601f0160208091040260200160405190810160405280929190818152602001828054610fb99061213c565b80156110065780601f10610fdb57610100808354040283529160200191611006565b820191906000526020600020905b815481529060010190602001808311610fe957829003601f168201915b5050505050815260200160038201805461101f9061213c565b80601f016020809104026020016040519081016040528092919081815260200182805461104b9061213c565b80156110985780601f1061106d57610100808354040283529160200191611098565b820191906000526020600020905b81548152906001019060200180831161107b57829003601f168201915b505050505081526020016004820180546110b19061213c565b80601f01602080910402602001604051908101604052809291908181526020018280546110dd9061213c565b801561112a5780601f106110ff5761010080835404028352916020019161112a565b820191906000526020600020905b81548152906001019060200180831161110d57829003601f168201915b505050505081526020016005820154815260200160068201805461114d9061213c565b80601f01602080910402602001604051908101604052809291908181526020018280546111799061213c565b80156111c65780601f1061119b576101008083540402835291602001916111c6565b820191906000526020600020905b8154815290600101906020018083116111a957829003601f168201915b505050505081526020016007820154815250509050919050565b600080600160008473ffffffffffffffffffffffffffffffffffffffff1673ffffffffffffffffffffffffffffffffffffffff16815260200190815260200160002060000180546112309061213c565b9050119050919050565b670de0b6b3a7640000600561124f919061241a565b811180156112715750670de0b6b3a7640000600a61126d919061241a565b8111155b1561130b57600560009054906101000a900473ffffffffffffffffffffffffffffffffffffffff1673ffffffffffffffffffffffffffffffffffffffff166373da80103360006040518363ffffffff1660e01b81526004016112d49291906125b5565b600060405180830381600087803b1580156112ee57600080fd5b505af1158015611302573d6000803e3d6000fd5b505050506113d9565b670de0b6b3a7640000600a611320919061241a565b811180156113425750670de0b6b3a7640000601d61133e919061241a565b8111155b156113d857600560009054906101000a900473ffffffffffffffffffffffffffffffffffffffff1673ffffffffffffffffffffffffffffffffffffffff166373da80103360016040518363ffffffff1660e01b81526004016113a592919061260f565b600060405180830381600087803b1580156113bf57600080fd5b505af11580156113d3573d6000803e3d6000fd5b505050505b5b50565b6000600260009054906101000a900473ffffffffffffffffffffffffffffffffffffffff1673ffffffffffffffffffffffffffffffffffffffff166370a08231336040518263ffffffff1660e01b81526004016114399190611c08565b602060405180830381865afa158015611456573d6000803e3d6000fd5b505050506040513d601f19601f8201168201806040525081019061147a91906120e0565b90506000600260009054906101000a900473ffffffffffffffffffffffffffffffffffffffff1673ffffffffffffffffffffffffffffffffffffffff16635e94ac05336040518263ffffffff1660e01b81526004016114d99190611c08565b602060405180830381865afa1580156114f6573d6000803e3d6000fd5b505050506040513d601f19601f8201168201806040525081019061151a9190611fc4565b90506115268282611641565b600082146115c457600260009054906101000a900473ffffffffffffffffffffffffffffffffffffffff1673ffffffffffffffffffffffffffffffffffffffff1663dc5314f23383866040518463ffffffff1660e01b815260040161158d93929190612094565b600060405180830381600087803b1580156115a757600080fd5b505af11580156115bb573d6000803e3d6000fd5b50505050611619565b60004290503373ffffffffffffffffffffffffffffffffffffffff167fc4ce9a02dc70fc3595f43e3c08ce1e5b880f4be6f33a04831ea249077ece60778260405161160f9190611c9c565b60405180910390a2505b505050565b6000808273ffffffffffffffffffffffffffffffffffffffff163b119050919050565b61164b601e611796565b600160003373ffffffffffffffffffffffffffffffffffffffff1673ffffffffffffffffffffffffffffffffffffffff16815260200190815260200160002060010154426116999190612638565b10611792576116a78261123a565b600260009054906101000a900473ffffffffffffffffffffffffffffffffffffffff1673ffffffffffffffffffffffffffffffffffffffff1663dc5314f28233856116f0610ad8565b6116fa9190612638565b6040518463ffffffff1660e01b815260040161171893929190612094565b600060405180830381600087803b15801561173257600080fd5b505af1158015611746573d6000803e3d6000fd5b5050505042600160003373ffffffffffffffffffffffffffffffffffffffff1673ffffffffffffffffffffffffffffffffffffffff168152602001908152602001600020600101819055505b5050565b600062015180826117a7919061241a565b9050919050565b5080546117ba9061213c565b6000825580601f106117cc57506117eb565b601f0160209004906000526020600020908101906117ea9190611833565b5b50565b60405180610100016040528060608152602001600081526020016060815260200160608152602001606081526020016000815260200160608152602001600081525090565b5b8082111561184c576000816000905550600101611834565b5090565b6000604051905090565b600080fd5b600080fd5b600080fd5b600080fd5b6000601f19601f8301169050919050565b7f4e487b7100000000000000000000000000000000000000000000000000000000600052604160045260246000fd5b6118b78261186e565b810181811067ffffffffffffffff821117156118d6576118d561187f565b5b80604052505050565b60006118e9611850565b90506118f582826118ae565b919050565b600067ffffffffffffffff8211156119155761191461187f565b5b61191e8261186e565b9050602081019050919050565b82818337600083830152505050565b600061194d611948846118fa565b6118df565b90508281526020810184848401111561196957611968611869565b5b61197484828561192b565b509392505050565b600082601f83011261199157611990611864565b5b81356119a184826020860161193a565b91505092915050565b600073ffffffffffffffffffffffffffffffffffffffff82169050919050565b60006119d5826119aa565b9050919050565b6119e5816119ca565b81146119f057600080fd5b50565b600081359050611a02816119dc565b92915050565b6000819050919050565b611a1b81611a08565b8114611a2657600080fd5b50565b600081359050611a3881611a12565b92915050565b60008115159050919050565b611a5381611a3e565b8114611a5e57600080fd5b50565b600081359050611a7081611a4a565b92915050565b60008060008060008060008060006101208a8c031215611a9957611a9861185a565b5b60008a013567ffffffffffffffff811115611ab757611ab661185f565b5b611ac38c828d0161197c565b9950506020611ad48c828d016119f3565b9850506040611ae58c828d01611a29565b97505060608a013567ffffffffffffffff811115611b0657611b0561185f565b5b611b128c828d0161197c565b96505060808a013567ffffffffffffffff811115611b3357611b3261185f565b5b611b3f8c828d0161197c565b95505060a08a013567ffffffffffffffff811115611b6057611b5f61185f565b5b611b6c8c828d0161197c565b94505060c0611b7d8c828d01611a29565b93505060e08a013567ffffffffffffffff811115611b9e57611b9d61185f565b5b611baa8c828d0161197c565b925050610100611bbc8c828d01611a61565b9150509295985092959850929598565b600060208284031215611be257611be161185a565b5b6000611bf0848285016119f3565b91505092915050565b611c02816119ca565b82525050565b6000602082019050611c1d6000830184611bf9565b92915050565b60008060408385031215611c3a57611c3961185a565b5b6000611c48858286016119f3565b9250506020611c59858286016119f3565b9150509250929050565b611c6c81611a3e565b82525050565b6000602082019050611c876000830184611c63565b92915050565b611c9681611a08565b82525050565b6000602082019050611cb16000830184611c8d565b92915050565b6000611cc2826119ca565b9050919050565b611cd281611cb7565b8114611cdd57600080fd5b50565b600081359050611cef81611cc9565b92915050565b6000611d00826119ca565b9050919050565b611d1081611cf5565b8114611d1b57600080fd5b50565b600081359050611d2d81611d07565b92915050565b6000611d3e826119ca565b9050919050565b611d4e81611d33565b8114611d5957600080fd5b50565b600081359050611d6b81611d45565b92915050565b600080600060608486031215611d8a57611d8961185a565b5b6000611d9886828701611ce0565b9350506020611da986828701611d1e565b9250506040611dba86828701611d5c565b9150509250925092565b600081519050919050565b600082825260208201905092915050565b60005b83811015611dfe578082015181840152602081019050611de3565b60008484015250505050565b6000611e1582611dc4565b611e1f8185611dcf565b9350611e2f818560208601611de0565b611e388161186e565b840191505092915050565b611e4c81611a08565b82525050565b6000610100830160008301518482036000860152611e708282611e0a565b9150506020830151611e856020860182611e43565b5060408301518482036040860152611e9d8282611e0a565b91505060608301518482036060860152611eb78282611e0a565b91505060808301518482036080860152611ed18282611e0a565b91505060a0830151611ee660a0860182611e43565b5060c083015184820360c0860152611efe8282611e0a565b91505060e0830151611f1360e0860182611e43565b508091505092915050565b60006020820190508181036000830152611f388184611e52565b905092915050565b600060208284031215611f5657611f5561185a565b5b6000611f6484828501611a29565b91505092915050565b600081519050611f7c81611a4a565b92915050565b600060208284031215611f9857611f9761185a565b5b6000611fa684828501611f6d565b91505092915050565b600081519050611fbe816119dc565b92915050565b600060208284031215611fda57611fd961185a565b5b6000611fe884828501611faf565b91505092915050565b600082825260208201905092915050565b7f596f7520617265206e6f7420612063697479206f7220636974697a656e20616c60008201527f7265616479206578697374000000000000000000000000000000000000000000602082015250565b600061205e602b83611ff1565b915061206982612002565b604082019050919050565b6000602082019050818103600083015261208d81612051565b9050919050565b60006060820190506120a96000830186611bf9565b6120b66020830185611bf9565b6120c36040830184611c8d565b949350505050565b6000815190506120da81611a12565b92915050565b6000602082840312156120f6576120f561185a565b5b6000612104848285016120cb565b91505092915050565b7f4e487b7100000000000000000000000000000000000000000000000000000000600052602260045260246000fd5b6000600282049050600182168061215457607f821691505b6020821081036121675761216661210d565b5b50919050565b60008190508160005260206000209050919050565b60006020601f8301049050919050565b600082821b905092915050565b6000600883026121cf7fffffffffffffffffffffffffffffffffffffffffffffffffffffffffffffffff82612192565b6121d98683612192565b95508019841693508086168417925050509392505050565b6000819050919050565b600061221661221161220c84611a08565b6121f1565b611a08565b9050919050565b6000819050919050565b612230836121fb565b61224461223c8261221d565b84845461219f565b825550505050565b600090565b61225961224c565b612264818484612227565b505050565b5b818110156122885761227d600082612251565b60018101905061226a565b5050565b601f8211156122cd5761229e8161216d565b6122a784612182565b810160208510156122b6578190505b6122ca6122c285612182565b830182612269565b50505b505050565b600082821c905092915050565b60006122f0600019846008026122d2565b1980831691505092915050565b600061230983836122df565b9150826002028217905092915050565b61232282611dc4565b67ffffffffffffffff81111561233b5761233a61187f565b5b612345825461213c565b61235082828561228c565b600060209050601f8311600181146123835760008415612371578287015190505b61237b85826122fd565b8655506123e3565b601f1984166123918661216d565b60005b828110156123b957848901518255600182019150602085019450602081019050612394565b868310156123d657848901516123d2601f8916826122df565b8355505b6001600288020188555050505b505050505050565b7f4e487b7100000000000000000000000000000000000000000000000000000000600052601160045260246000fd5b600061242582611a08565b915061243083611a08565b925082820261243e81611a08565b91508282048414831517612455576124546123eb565b5b5092915050565b7f496e697469616c697a61626c653a20636f6e747261637420697320616c72656160008201527f647920696e697469616c697a6564000000000000000000000000000000000000602082015250565b60006124b8602e83611ff1565b91506124c38261245c565b604082019050919050565b600060208201905081810360008301526124e7816124ab565b9050919050565b60006040820190506125036000830185611bf9565b6125106020830184611bf9565b9392505050565b6000819050919050565b600060ff82169050919050565b600061254961254461253f84612517565b6121f1565b612521565b9050919050565b6125598161252e565b82525050565b60006020820190506125746000830184612550565b92915050565b6000819050919050565b600061259f61259a6125958461257a565b6121f1565b611a08565b9050919050565b6125af81612584565b82525050565b60006040820190506125ca6000830185611bf9565b6125d760208301846125a6565b9392505050565b60006125f96125f46125ef84612517565b6121f1565b611a08565b9050919050565b612609816125de565b82525050565b60006040820190506126246000830185611bf9565b6126316020830184612600565b9392505050565b600061264382611a08565b915061264e83611a08565b9250828203905081811115612666576126656123eb565b5b9291505056fea2646970667358221220a1e41eea13a7538dddd6984bec7f9d71d12fc79eb07b1f584e232b42576f649464736f6c63430008150033",
  "devdoc": {
    "author": "Giuseppe La Vecchia",
    "custom:experimental": "This is an experimental contract.",
    "details": "for testing the checkingForExpiredToken function, it is needed to the \"if\" statement, because it will trigger the content only once every 30 days",
    "events": {
      "Initialized(uint8)": {
        "details": "Triggered when the contract has been initialized or reinitialized."
      }
    },
    "kind": "dev",
    "methods": {
      "addCitizen(string,address,uint256,string,string,string,uint256,string,bool)": {
        "details": "all the require means that you can enter the function in 2 cases: 1)if you are a city and you are going to modify an existing citizen (added previously by the city) 2)If you are a city and you want to add a non-existing citizen, so you are not going to modifyif it is not a modify action, the getUserCount is called. In the other case, the citizen with an already id is provided (in id = getCitizen(citizenAddr).id; code line)",
        "params": {
          "isModify": "if true, it means that the caller of this function want to change something in a Citizen. Otherwise it is an addition operation."
        }
      },
      "checkExistingCitizenOfACity(address,address)": {
        "params": {
          "citizenAddr": "address of that citizen to check"
        }
      },
      "constructor": {
        "custom:oz-upgrades-unsafe-allow": "constructor"
      },
      "consumePTFromCitizen(uint256)": {
        "params": {
          "amountUsed": "the contract address of the PollutionToken contract, used by this contract."
        }
      },
      "initialize(address,address,address)": {
        "params": {
          "dsesCenterAddress": "the contract address of the DSESCenter contract, used by this contract.",
          "pnftAddress": "the contract address of the PollutionNft contract, used by this contract.",
          "ptContractAddress": "the contract address of the PollutionToken contract, used by this contract."
        }
      }
    },
    "title": "A contract to be used by Cities and Citizens",
    "version": 1
  },
  "userdoc": {
    "kind": "user",
    "methods": {
      "addCitizen(string,address,uint256,string,string,string,uint256,string,bool)": {
        "notice": "Add a new citizen instanceAllows a City to add a new citizen giving an initial amount of PollutionTokens. It can also be used for editing purpose of the Citizen's parameters."
      },
      "checkExistingCitizenOfACity(address,address)": {
        "notice": "This will return true if citizen was added by a city, otherwise false. getPreviousSender contains a mapping(addressOfEntityChildren=>addressOfEntityFather) where father is the entity that add the children, like city add citizen."
      },
      "consumePTFromCitizen(uint256)": {
        "notice": "Consume PollutionToken by Citizena Citizen equipped with a sensor will send a certain amount of data produced ('amountUsed') periodically. If its PollutionToken balance is not 0, he send back to the City that amountUsed of PT, otherwise he emit an Event notifying States that he finished his tokens. Before doing that,it is necessary to check that 1 month has not passed since the beginning of a new cycle (Start of the cycle->consumingPT->end of a month->give back to city the remaining PT->if any, give NFTs to Citizen)."
      },
      "initialize(address,address,address)": {
        "notice": "Initialize function for the proxy upgradable pattern by OpenZeppelinInitialize variables. The address of this contract is passed to the storeContractAddress function of the ptContract and pollution nft contract, allowing this contract to call its functions"
      }
    },
    "notice": "Used for CRUD operations and for consuming PT by the Citizen",
    "version": 1
  },
  "storageLayout": {
    "storage": [
      {
        "astId": 6,
        "contract": "contracts/CityCitizen.sol:CityCitizen",
        "label": "_initialized",
        "offset": 0,
        "slot": "0",
        "type": "t_uint8"
      },
      {
        "astId": 9,
        "contract": "contracts/CityCitizen.sol:CityCitizen",
        "label": "_initializing",
        "offset": 1,
        "slot": "0",
        "type": "t_bool"
      },
      {
        "astId": 515,
        "contract": "contracts/CityCitizen.sol:CityCitizen",
        "label": "citizens",
        "offset": 0,
        "slot": "1",
        "type": "t_mapping(t_address,t_struct(Citizen)1070_storage)"
      },
      {
        "astId": 523,
        "contract": "contracts/CityCitizen.sol:CityCitizen",
        "label": "pt",
        "offset": 0,
        "slot": "2",
        "type": "t_contract(IPollutionToken)1187"
      },
      {
        "astId": 525,
        "contract": "contracts/CityCitizen.sol:CityCitizen",
        "label": "admin",
        "offset": 0,
        "slot": "3",
        "type": "t_address"
      },
      {
        "astId": 528,
        "contract": "contracts/CityCitizen.sol:CityCitizen",
        "label": "dsesCenter",
        "offset": 0,
        "slot": "4",
        "type": "t_contract(IDSESCenter)1106"
      },
      {
        "astId": 531,
        "contract": "contracts/CityCitizen.sol:CityCitizen",
        "label": "pnft",
        "offset": 0,
        "slot": "5",
        "type": "t_contract(IPollutionNft)1130"
      }
    ],
    "types": {
      "t_address": {
        "encoding": "inplace",
        "label": "address",
        "numberOfBytes": "20"
      },
      "t_bool": {
        "encoding": "inplace",
        "label": "bool",
        "numberOfBytes": "1"
      },
      "t_contract(IDSESCenter)1106": {
        "encoding": "inplace",
        "label": "contract IDSESCenter",
        "numberOfBytes": "20"
      },
      "t_contract(IPollutionNft)1130": {
        "encoding": "inplace",
        "label": "contract IPollutionNft",
        "numberOfBytes": "20"
      },
      "t_contract(IPollutionToken)1187": {
        "encoding": "inplace",
        "label": "contract IPollutionToken",
        "numberOfBytes": "20"
      },
      "t_mapping(t_address,t_struct(Citizen)1070_storage)": {
        "encoding": "mapping",
        "key": "t_address",
        "label": "mapping(address => struct classes.Citizen)",
        "numberOfBytes": "32",
        "value": "t_struct(Citizen)1070_storage"
      },
      "t_string_storage": {
        "encoding": "bytes",
        "label": "string",
        "numberOfBytes": "32"
      },
      "t_struct(Citizen)1070_storage": {
        "encoding": "inplace",
        "label": "struct classes.Citizen",
        "members": [
          {
            "astId": 1055,
            "contract": "contracts/CityCitizen.sol:CityCitizen",
            "label": "name",
            "offset": 0,
            "slot": "0",
            "type": "t_string_storage"
          },
          {
            "astId": 1057,
            "contract": "contracts/CityCitizen.sol:CityCitizen",
            "label": "checkedTimestamp",
            "offset": 0,
            "slot": "1",
            "type": "t_uint256"
          },
          {
            "astId": 1059,
            "contract": "contracts/CityCitizen.sol:CityCitizen",
            "label": "surname",
            "offset": 0,
            "slot": "2",
            "type": "t_string_storage"
          },
          {
            "astId": 1061,
            "contract": "contracts/CityCitizen.sol:CityCitizen",
            "label": "email",
            "offset": 0,
            "slot": "3",
            "type": "t_string_storage"
          },
          {
            "astId": 1063,
            "contract": "contracts/CityCitizen.sol:CityCitizen",
            "label": "dateOfBirth",
            "offset": 0,
            "slot": "4",
            "type": "t_string_storage"
          },
          {
            "astId": 1065,
            "contract": "contracts/CityCitizen.sol:CityCitizen",
            "label": "telephone",
            "offset": 0,
            "slot": "5",
            "type": "t_uint256"
          },
          {
            "astId": 1067,
            "contract": "contracts/CityCitizen.sol:CityCitizen",
            "label": "physicalAddress",
            "offset": 0,
            "slot": "6",
            "type": "t_string_storage"
          },
          {
            "astId": 1069,
            "contract": "contracts/CityCitizen.sol:CityCitizen",
            "label": "id",
            "offset": 0,
            "slot": "7",
            "type": "t_uint256"
          }
        ],
        "numberOfBytes": "256"
      },
      "t_uint256": {
        "encoding": "inplace",
        "label": "uint256",
        "numberOfBytes": "32"
      },
      "t_uint8": {
        "encoding": "inplace",
        "label": "uint8",
        "numberOfBytes": "1"
      }
    }
  }
}