{
  "address": "0xa513E6E4b8f2a923D98304ec87F64353C4D5C853",
  "abi": [
    {
      "inputs": [],
      "stateMutability": "nonpayable",
      "type": "constructor"
    },
    {
      "inputs": [],
      "name": "CityCitizen__Citizen_Not_Found",
      "type": "error"
    },
    {
      "anonymous": false,
      "inputs": [
        {
          "indexed": false,
          "internalType": "uint8",
          "name": "version",
          "type": "uint8"
        }
      ],
      "name": "Initialized",
      "type": "event"
    },
    {
      "anonymous": false,
      "inputs": [
        {
          "indexed": true,
          "internalType": "address",
          "name": "citizenAddr",
          "type": "address"
        },
        {
          "indexed": false,
          "internalType": "uint256",
          "name": "timestamp",
          "type": "uint256"
        }
      ],
      "name": "NoTokenCitizen",
      "type": "event"
    },
    {
      "inputs": [
        {
          "internalType": "string",
          "name": "name",
          "type": "string"
        },
        {
          "internalType": "address",
          "name": "citizenAddr",
          "type": "address"
        },
        {
          "internalType": "uint256",
          "name": "checkedTimestamp",
          "type": "uint256"
        },
        {
          "internalType": "string",
          "name": "surname",
          "type": "string"
        },
        {
          "internalType": "string",
          "name": "email",
          "type": "string"
        },
        {
          "internalType": "string",
          "name": "dateOfBirth",
          "type": "string"
        },
        {
          "internalType": "uint256",
          "name": "telephone",
          "type": "uint256"
        },
        {
          "internalType": "string",
          "name": "physicalAddress",
          "type": "string"
        },
        {
          "internalType": "bool",
          "name": "isModify",
          "type": "bool"
        }
      ],
      "name": "addCitizen",
      "outputs": [],
      "stateMutability": "nonpayable",
      "type": "function"
    },
    {
      "inputs": [
        {
          "internalType": "address",
          "name": "citizenAddr",
          "type": "address"
        }
      ],
      "name": "checkExistingCitizen",
      "outputs": [
        {
          "internalType": "bool",
          "name": "",
          "type": "bool"
        }
      ],
      "stateMutability": "view",
      "type": "function"
    },
    {
      "inputs": [
        {
          "internalType": "uint256",
          "name": "balanceOfCitizen",
          "type": "uint256"
        }
      ],
      "name": "checkForNft",
      "outputs": [],
      "stateMutability": "nonpayable",
      "type": "function"
    },
    {
      "inputs": [
        {
          "internalType": "uint256",
          "name": "amountUsed",
          "type": "uint256"
        }
      ],
      "name": "consumePTFromCitizen",
      "outputs": [],
      "stateMutability": "nonpayable",
      "type": "function"
    },
    {
      "inputs": [
        {
          "internalType": "address",
          "name": "citizenAddr",
          "type": "address"
        }
      ],
      "name": "deleteCitizen",
      "outputs": [],
      "stateMutability": "nonpayable",
      "type": "function"
    },
    {
      "inputs": [],
      "name": "getAdminAddress",
      "outputs": [
        {
          "internalType": "address",
          "name": "",
          "type": "address"
        }
      ],
      "stateMutability": "view",
      "type": "function"
    },
    {
      "inputs": [
        {
          "internalType": "address",
          "name": "citizenAddr",
          "type": "address"
        }
      ],
      "name": "getCitizen",
      "outputs": [
        {
          "components": [
            {
              "internalType": "string",
              "name": "name",
              "type": "string"
            },
            {
              "internalType": "uint256",
              "name": "checkedTimestamp",
              "type": "uint256"
            },
            {
              "internalType": "string",
              "name": "surname",
              "type": "string"
            },
            {
              "internalType": "string",
              "name": "email",
              "type": "string"
            },
            {
              "internalType": "string",
              "name": "dateOfBirth",
              "type": "string"
            },
            {
              "internalType": "uint256",
              "name": "telephone",
              "type": "uint256"
            },
            {
              "internalType": "string",
              "name": "physicalAddress",
              "type": "string"
            },
            {
              "internalType": "uint256",
              "name": "id",
              "type": "uint256"
            }
          ],
          "internalType": "struct classes.Citizen",
          "name": "",
          "type": "tuple"
        }
      ],
      "stateMutability": "view",
      "type": "function"
    },
    {
      "inputs": [
        {
          "internalType": "address",
          "name": "citizenAddr",
          "type": "address"
        }
      ],
      "name": "getCitizenOfACity",
      "outputs": [
        {
          "components": [
            {
              "internalType": "string",
              "name": "name",
              "type": "string"
            },
            {
              "internalType": "uint256",
              "name": "checkedTimestamp",
              "type": "uint256"
            },
            {
              "internalType": "string",
              "name": "surname",
              "type": "string"
            },
            {
              "internalType": "string",
              "name": "email",
              "type": "string"
            },
            {
              "internalType": "string",
              "name": "dateOfBirth",
              "type": "string"
            },
            {
              "internalType": "uint256",
              "name": "telephone",
              "type": "uint256"
            },
            {
              "internalType": "string",
              "name": "physicalAddress",
              "type": "string"
            },
            {
              "internalType": "uint256",
              "name": "id",
              "type": "uint256"
            }
          ],
          "internalType": "struct classes.Citizen",
          "name": "",
          "type": "tuple"
        }
      ],
      "stateMutability": "view",
      "type": "function"
    },
    {
      "inputs": [
        {
          "internalType": "contract IPollutionToken",
          "name": "ptContractAddress",
          "type": "address"
        },
        {
          "internalType": "contract IDSESCenter",
          "name": "dsesCenterAddress",
          "type": "address"
        },
        {
          "internalType": "contract IPollutionNft",
          "name": "pnftAddress",
          "type": "address"
        }
      ],
      "name": "initialize",
      "outputs": [],
      "stateMutability": "nonpayable",
      "type": "function"
    },
    {
      "inputs": [],
      "name": "tokenToBeAssigned",
      "outputs": [
        {
          "internalType": "uint256",
          "name": "",
          "type": "uint256"
        }
      ],
      "stateMutability": "pure",
      "type": "function"
    }
  ],
  "numDeployments": 1,
  "solcInputHash": "2715368bcb01da5e9cbc80cf17b4e254",
  "bytecode": "0x60806040523480156200001157600080fd5b50620000226200002860201b60201c565b620001d2565b600060019054906101000a900460ff16156200007b576040517f08c379a0000000000000000000000000000000000000000000000000000000008152600401620000729062000175565b60405180910390fd5b60ff801660008054906101000a900460ff1660ff1614620000ec5760ff6000806101000a81548160ff021916908360ff1602179055507f7f26b83ff96e1f2b6a682f133852f6798a09c465da95921460cefb384740249860ff604051620000e39190620001b5565b60405180910390a15b565b600082825260208201905092915050565b7f496e697469616c697a61626c653a20636f6e747261637420697320696e69746960008201527f616c697a696e6700000000000000000000000000000000000000000000000000602082015250565b60006200015d602783620000ee565b91506200016a82620000ff565b604082019050919050565b6000602082019050818103600083015262000190816200014e565b9050919050565b600060ff82169050919050565b620001af8162000197565b82525050565b6000602082019050620001cc6000830184620001a4565b92915050565b61282e80620001e26000396000f3fe608060405234801561001057600080fd5b506004361061009e5760003560e01c8063c0c53b8b11610066578063c0c53b8b14610147578063c2411dab14610163578063c335963d14610193578063c6e92e6a146101c3578063f907306e146101df5761009e565b8063449a62e6146100a35780637de8102b146100d35780638d68d807146100ef578063b2e6b9121461010b578063b7e39a4314610129575b600080fd5b6100bd60048036038101906100b89190611a8e565b6101fb565b6040516100ca9190611c30565b60405180910390f35b6100ed60048036038101906100e89190611deb565b61064f565b005b61010960048036038101906101049190611a8e565b61099f565b005b610113610c7a565b6040516101209190611f50565b60405180910390f35b610131610ca4565b60405161013e9190611f7a565b60405180910390f35b610161600480360381019061015c919061204f565b610cc0565b005b61017d60048036038101906101789190611a8e565b61101b565b60405161018a9190611c30565b60405180910390f35b6101ad60048036038101906101a89190611a8e565b6113ac565b6040516101ba91906120b1565b60405180910390f35b6101dd60048036038101906101d891906120cc565b611406565b005b6101f960048036038101906101f491906120cc565b6115a8565b005b61020361197a565b813373ffffffffffffffffffffffffffffffffffffffff16600260009054906101000a900473ffffffffffffffffffffffffffffffffffffffff1673ffffffffffffffffffffffffffffffffffffffff16635e94ac05836040518263ffffffff1660e01b81526004016102769190611f50565b602060405180830381865afa158015610293573d6000803e3d6000fd5b505050506040513d601f19601f820116820180604052508101906102b7919061210e565b73ffffffffffffffffffffffffffffffffffffffff1614610304576040517f54a6a82f00000000000000000000000000000000000000000000000000000000815260040160405180910390fd5b600160008473ffffffffffffffffffffffffffffffffffffffff1673ffffffffffffffffffffffffffffffffffffffff1681526020019081526020016000206040518061010001604052908160008201805461035f9061216a565b80601f016020809104026020016040519081016040528092919081815260200182805461038b9061216a565b80156103d85780601f106103ad576101008083540402835291602001916103d8565b820191906000526020600020905b8154815290600101906020018083116103bb57829003601f168201915b50505050508152602001600182015481526020016002820180546103fb9061216a565b80601f01602080910402602001604051908101604052809291908181526020018280546104279061216a565b80156104745780601f1061044957610100808354040283529160200191610474565b820191906000526020600020905b81548152906001019060200180831161045757829003601f168201915b5050505050815260200160038201805461048d9061216a565b80601f01602080910402602001604051908101604052809291908181526020018280546104b99061216a565b80156105065780601f106104db57610100808354040283529160200191610506565b820191906000526020600020905b8154815290600101906020018083116104e957829003601f168201915b5050505050815260200160048201805461051f9061216a565b80601f016020809104026020016040519081016040528092919081815260200182805461054b9061216a565b80156105985780601f1061056d57610100808354040283529160200191610598565b820191906000526020600020905b81548152906001019060200180831161057b57829003601f168201915b50505050508152602001600582015481526020016006820180546105bb9061216a565b80601f01602080910402602001604051908101604052809291908181526020018280546105e79061216a565b80156106345780601f1061060957610100808354040283529160200191610634565b820191906000526020600020905b81548152906001019060200180831161061757829003601f168201915b50505050508152602001600782015481525050915050919050565b600460009054906101000a900473ffffffffffffffffffffffffffffffffffffffff1673ffffffffffffffffffffffffffffffffffffffff1663a376e4d8336040518263ffffffff1660e01b81526004016106aa9190611f50565b602060405180830381865afa1580156106c7573d6000803e3d6000fd5b505050506040513d601f19601f820116820180604052508101906106eb91906121b0565b801561070557506106fb886113ac565b15806107045750805b5b610744576040517f08c379a000000000000000000000000000000000000000000000000000000000815260040161073b90612260565b60405180910390fd5b60008161087b57600260009054906101000a900473ffffffffffffffffffffffffffffffffffffffff1673ffffffffffffffffffffffffffffffffffffffff1663ea64b234338b610793610ca4565b6040518463ffffffff1660e01b81526004016107b193929190612280565b600060405180830381600087803b1580156107cb57600080fd5b505af11580156107df573d6000803e3d6000fd5b50505050600260009054906101000a900473ffffffffffffffffffffffffffffffffffffffff1673ffffffffffffffffffffffffffffffffffffffff1663b5cb15f76040518163ffffffff1660e01b8152600401602060405180830381865afa158015610850573d6000803e3d6000fd5b505050506040513d601f19601f8201168201806040525081019061087491906122cc565b905061088b565b6108848961101b565b60e0015190505b6040518061010001604052808b815260200189815260200188815260200187815260200186815260200185815260200184815260200182815250600160008b73ffffffffffffffffffffffffffffffffffffffff1673ffffffffffffffffffffffffffffffffffffffff168152602001908152602001600020600082015181600001908161091991906124a5565b5060208201518160010155604082015181600201908161093991906124a5565b50606082015181600301908161094f91906124a5565b50608082015181600401908161096591906124a5565b5060a0820151816005015560c082015181600601908161098591906124a5565b5060e0820151816007015590505050505050505050505050565b803373ffffffffffffffffffffffffffffffffffffffff16600260009054906101000a900473ffffffffffffffffffffffffffffffffffffffff1673ffffffffffffffffffffffffffffffffffffffff16635e94ac05836040518263ffffffff1660e01b8152600401610a129190611f50565b602060405180830381865afa158015610a2f573d6000803e3d6000fd5b505050506040513d601f19601f82011682018060405250810190610a53919061210e565b73ffffffffffffffffffffffffffffffffffffffff1614610aa0576040517f54a6a82f00000000000000000000000000000000000000000000000000000000815260040160405180910390fd5b600260009054906101000a900473ffffffffffffffffffffffffffffffffffffffff1673ffffffffffffffffffffffffffffffffffffffff1663dc5314f28333600260009054906101000a900473ffffffffffffffffffffffffffffffffffffffff1673ffffffffffffffffffffffffffffffffffffffff166370a08231876040518263ffffffff1660e01b8152600401610b3b9190611f50565b602060405180830381865afa158015610b58573d6000803e3d6000fd5b505050506040513d601f19601f82011682018060405250810190610b7c91906122cc565b6040518463ffffffff1660e01b8152600401610b9a93929190612280565b600060405180830381600087803b158015610bb457600080fd5b505af1158015610bc8573d6000803e3d6000fd5b50505050600160008373ffffffffffffffffffffffffffffffffffffffff1673ffffffffffffffffffffffffffffffffffffffff16815260200190815260200160002060008082016000610c1c91906119bf565b6001820160009055600282016000610c3491906119bf565b600382016000610c4491906119bf565b600482016000610c5491906119bf565b6005820160009055600682016000610c6c91906119bf565b600782016000905550505050565b6000600360009054906101000a900473ffffffffffffffffffffffffffffffffffffffff16905090565b6000670de0b6b3a7640000601e610cbb91906125a6565b905090565b60008060019054906101000a900460ff16159050808015610cf15750600160008054906101000a900460ff1660ff16105b80610d1e5750610d00306117ea565b158015610d1d5750600160008054906101000a900460ff1660ff16145b5b610d5d576040517f08c379a0000000000000000000000000000000000000000000000000000000008152600401610d549061265a565b60405180910390fd5b60016000806101000a81548160ff021916908360ff1602179055508015610d9a576001600060016101000a81548160ff0219169083151502179055505b33600360006101000a81548173ffffffffffffffffffffffffffffffffffffffff021916908373ffffffffffffffffffffffffffffffffffffffff16021790555083600260006101000a81548173ffffffffffffffffffffffffffffffffffffffff021916908373ffffffffffffffffffffffffffffffffffffffff16021790555081600560006101000a81548173ffffffffffffffffffffffffffffffffffffffff021916908373ffffffffffffffffffffffffffffffffffffffff16021790555082600460006101000a81548173ffffffffffffffffffffffffffffffffffffffff021916908373ffffffffffffffffffffffffffffffffffffffff160217905550600560009054906101000a900473ffffffffffffffffffffffffffffffffffffffff1673ffffffffffffffffffffffffffffffffffffffff1663c697a7c830336040518363ffffffff1660e01b8152600401610efb92919061267a565b600060405180830381600087803b158015610f1557600080fd5b505af1158015610f29573d6000803e3d6000fd5b50505050600260009054906101000a900473ffffffffffffffffffffffffffffffffffffffff1673ffffffffffffffffffffffffffffffffffffffff1663c697a7c830336040518363ffffffff1660e01b8152600401610f8a92919061267a565b600060405180830381600087803b158015610fa457600080fd5b505af1158015610fb8573d6000803e3d6000fd5b5050505080156110155760008060016101000a81548160ff0219169083151502179055507f7f26b83ff96e1f2b6a682f133852f6798a09c465da95921460cefb3847402498600160405161100c91906126eb565b60405180910390a15b50505050565b61102361197a565b61102c826113ac565b611062576040517f54a6a82f00000000000000000000000000000000000000000000000000000000815260040160405180910390fd5b600160008373ffffffffffffffffffffffffffffffffffffffff1673ffffffffffffffffffffffffffffffffffffffff168152602001908152602001600020604051806101000160405290816000820180546110bd9061216a565b80601f01602080910402602001604051908101604052809291908181526020018280546110e99061216a565b80156111365780601f1061110b57610100808354040283529160200191611136565b820191906000526020600020905b81548152906001019060200180831161111957829003601f168201915b50505050508152602001600182015481526020016002820180546111599061216a565b80601f01602080910402602001604051908101604052809291908181526020018280546111859061216a565b80156111d25780601f106111a7576101008083540402835291602001916111d2565b820191906000526020600020905b8154815290600101906020018083116111b557829003601f168201915b505050505081526020016003820180546111eb9061216a565b80601f01602080910402602001604051908101604052809291908181526020018280546112179061216a565b80156112645780601f1061123957610100808354040283529160200191611264565b820191906000526020600020905b81548152906001019060200180831161124757829003601f168201915b5050505050815260200160048201805461127d9061216a565b80601f01602080910402602001604051908101604052809291908181526020018280546112a99061216a565b80156112f65780601f106112cb576101008083540402835291602001916112f6565b820191906000526020600020905b8154815290600101906020018083116112d957829003601f168201915b50505050508152602001600582015481526020016006820180546113199061216a565b80601f01602080910402602001604051908101604052809291908181526020018280546113459061216a565b80156113925780601f1061136757610100808354040283529160200191611392565b820191906000526020600020905b81548152906001019060200180831161137557829003601f168201915b505050505081526020016007820154815250509050919050565b600080600160008473ffffffffffffffffffffffffffffffffffffffff1673ffffffffffffffffffffffffffffffffffffffff16815260200190815260200160002060000180546113fc9061216a565b9050119050919050565b670de0b6b3a7640000600561141b91906125a6565b8111801561143d5750670de0b6b3a7640000600a61143991906125a6565b8111155b156114d757600560009054906101000a900473ffffffffffffffffffffffffffffffffffffffff1673ffffffffffffffffffffffffffffffffffffffff166373da80103360006040518363ffffffff1660e01b81526004016114a0929190612741565b600060405180830381600087803b1580156114ba57600080fd5b505af11580156114ce573d6000803e3d6000fd5b505050506115a5565b670de0b6b3a7640000600a6114ec91906125a6565b8111801561150e5750670de0b6b3a7640000601d61150a91906125a6565b8111155b156115a457600560009054906101000a900473ffffffffffffffffffffffffffffffffffffffff1673ffffffffffffffffffffffffffffffffffffffff166373da80103360016040518363ffffffff1660e01b815260040161157192919061279b565b600060405180830381600087803b15801561158b57600080fd5b505af115801561159f573d6000803e3d6000fd5b505050505b5b50565b6000600260009054906101000a900473ffffffffffffffffffffffffffffffffffffffff1673ffffffffffffffffffffffffffffffffffffffff166370a08231336040518263ffffffff1660e01b81526004016116059190611f50565b602060405180830381865afa158015611622573d6000803e3d6000fd5b505050506040513d601f19601f8201168201806040525081019061164691906122cc565b90506000600260009054906101000a900473ffffffffffffffffffffffffffffffffffffffff1673ffffffffffffffffffffffffffffffffffffffff16635e94ac05336040518263ffffffff1660e01b81526004016116a59190611f50565b602060405180830381865afa1580156116c2573d6000803e3d6000fd5b505050506040513d601f19601f820116820180604052508101906116e6919061210e565b90506116f2828261180d565b6000821461179057600260009054906101000a900473ffffffffffffffffffffffffffffffffffffffff1673ffffffffffffffffffffffffffffffffffffffff1663dc5314f23383866040518463ffffffff1660e01b815260040161175993929190612280565b600060405180830381600087803b15801561177357600080fd5b505af1158015611787573d6000803e3d6000fd5b505050506117e5565b60004290503373ffffffffffffffffffffffffffffffffffffffff167fc4ce9a02dc70fc3595f43e3c08ce1e5b880f4be6f33a04831ea249077ece6077826040516117db9190611f7a565b60405180910390a2505b505050565b6000808273ffffffffffffffffffffffffffffffffffffffff163b119050919050565b611817601e611962565b600160003373ffffffffffffffffffffffffffffffffffffffff1673ffffffffffffffffffffffffffffffffffffffff168152602001908152602001600020600101544261186591906127c4565b1061195e5761187382611406565b600260009054906101000a900473ffffffffffffffffffffffffffffffffffffffff1673ffffffffffffffffffffffffffffffffffffffff1663dc5314f28233856118bc610ca4565b6118c691906127c4565b6040518463ffffffff1660e01b81526004016118e493929190612280565b600060405180830381600087803b1580156118fe57600080fd5b505af1158015611912573d6000803e3d6000fd5b5050505042600160003373ffffffffffffffffffffffffffffffffffffffff1673ffffffffffffffffffffffffffffffffffffffff168152602001908152602001600020600101819055505b5050565b6000620151808261197391906125a6565b9050919050565b60405180610100016040528060608152602001600081526020016060815260200160608152602001606081526020016000815260200160608152602001600081525090565b5080546119cb9061216a565b6000825580601f106119dd57506119fc565b601f0160209004906000526020600020908101906119fb91906119ff565b5b50565b5b80821115611a18576000816000905550600101611a00565b5090565b6000604051905090565b600080fd5b600080fd5b600073ffffffffffffffffffffffffffffffffffffffff82169050919050565b6000611a5b82611a30565b9050919050565b611a6b81611a50565b8114611a7657600080fd5b50565b600081359050611a8881611a62565b92915050565b600060208284031215611aa457611aa3611a26565b5b6000611ab284828501611a79565b91505092915050565b600081519050919050565b600082825260208201905092915050565b60005b83811015611af5578082015181840152602081019050611ada565b60008484015250505050565b6000601f19601f8301169050919050565b6000611b1d82611abb565b611b278185611ac6565b9350611b37818560208601611ad7565b611b4081611b01565b840191505092915050565b6000819050919050565b611b5e81611b4b565b82525050565b6000610100830160008301518482036000860152611b828282611b12565b9150506020830151611b976020860182611b55565b5060408301518482036040860152611baf8282611b12565b91505060608301518482036060860152611bc98282611b12565b91505060808301518482036080860152611be38282611b12565b91505060a0830151611bf860a0860182611b55565b5060c083015184820360c0860152611c108282611b12565b91505060e0830151611c2560e0860182611b55565b508091505092915050565b60006020820190508181036000830152611c4a8184611b64565b905092915050565b600080fd5b600080fd5b7f4e487b7100000000000000000000000000000000000000000000000000000000600052604160045260246000fd5b611c9482611b01565b810181811067ffffffffffffffff82111715611cb357611cb2611c5c565b5b80604052505050565b6000611cc6611a1c565b9050611cd28282611c8b565b919050565b600067ffffffffffffffff821115611cf257611cf1611c5c565b5b611cfb82611b01565b9050602081019050919050565b82818337600083830152505050565b6000611d2a611d2584611cd7565b611cbc565b905082815260208101848484011115611d4657611d45611c57565b5b611d51848285611d08565b509392505050565b600082601f830112611d6e57611d6d611c52565b5b8135611d7e848260208601611d17565b91505092915050565b611d9081611b4b565b8114611d9b57600080fd5b50565b600081359050611dad81611d87565b92915050565b60008115159050919050565b611dc881611db3565b8114611dd357600080fd5b50565b600081359050611de581611dbf565b92915050565b60008060008060008060008060006101208a8c031215611e0e57611e0d611a26565b5b60008a013567ffffffffffffffff811115611e2c57611e2b611a2b565b5b611e388c828d01611d59565b9950506020611e498c828d01611a79565b9850506040611e5a8c828d01611d9e565b97505060608a013567ffffffffffffffff811115611e7b57611e7a611a2b565b5b611e878c828d01611d59565b96505060808a013567ffffffffffffffff811115611ea857611ea7611a2b565b5b611eb48c828d01611d59565b95505060a08a013567ffffffffffffffff811115611ed557611ed4611a2b565b5b611ee18c828d01611d59565b94505060c0611ef28c828d01611d9e565b93505060e08a013567ffffffffffffffff811115611f1357611f12611a2b565b5b611f1f8c828d01611d59565b925050610100611f318c828d01611dd6565b9150509295985092959850929598565b611f4a81611a50565b82525050565b6000602082019050611f656000830184611f41565b92915050565b611f7481611b4b565b82525050565b6000602082019050611f8f6000830184611f6b565b92915050565b6000611fa082611a50565b9050919050565b611fb081611f95565b8114611fbb57600080fd5b50565b600081359050611fcd81611fa7565b92915050565b6000611fde82611a50565b9050919050565b611fee81611fd3565b8114611ff957600080fd5b50565b60008135905061200b81611fe5565b92915050565b600061201c82611a50565b9050919050565b61202c81612011565b811461203757600080fd5b50565b60008135905061204981612023565b92915050565b60008060006060848603121561206857612067611a26565b5b600061207686828701611fbe565b935050602061208786828701611ffc565b92505060406120988682870161203a565b9150509250925092565b6120ab81611db3565b82525050565b60006020820190506120c660008301846120a2565b92915050565b6000602082840312156120e2576120e1611a26565b5b60006120f084828501611d9e565b91505092915050565b60008151905061210881611a62565b92915050565b60006020828403121561212457612123611a26565b5b6000612132848285016120f9565b91505092915050565b7f4e487b7100000000000000000000000000000000000000000000000000000000600052602260045260246000fd5b6000600282049050600182168061218257607f821691505b6020821081036121955761219461213b565b5b50919050565b6000815190506121aa81611dbf565b92915050565b6000602082840312156121c6576121c5611a26565b5b60006121d48482850161219b565b91505092915050565b600082825260208201905092915050565b7f596f7520617265206e6f7420612063697479206f7220636974697a656e20616c60008201527f7265616479206578697374000000000000000000000000000000000000000000602082015250565b600061224a602b836121dd565b9150612255826121ee565b604082019050919050565b600060208201905081810360008301526122798161223d565b9050919050565b60006060820190506122956000830186611f41565b6122a26020830185611f41565b6122af6040830184611f6b565b949350505050565b6000815190506122c681611d87565b92915050565b6000602082840312156122e2576122e1611a26565b5b60006122f0848285016122b7565b91505092915050565b60008190508160005260206000209050919050565b60006020601f8301049050919050565b600082821b905092915050565b60006008830261235b7fffffffffffffffffffffffffffffffffffffffffffffffffffffffffffffffff8261231e565b612365868361231e565b95508019841693508086168417925050509392505050565b6000819050919050565b60006123a261239d61239884611b4b565b61237d565b611b4b565b9050919050565b6000819050919050565b6123bc83612387565b6123d06123c8826123a9565b84845461232b565b825550505050565b600090565b6123e56123d8565b6123f08184846123b3565b505050565b5b81811015612414576124096000826123dd565b6001810190506123f6565b5050565b601f8211156124595761242a816122f9565b6124338461230e565b81016020851015612442578190505b61245661244e8561230e565b8301826123f5565b50505b505050565b600082821c905092915050565b600061247c6000198460080261245e565b1980831691505092915050565b6000612495838361246b565b9150826002028217905092915050565b6124ae82611abb565b67ffffffffffffffff8111156124c7576124c6611c5c565b5b6124d1825461216a565b6124dc828285612418565b600060209050601f83116001811461250f57600084156124fd578287015190505b6125078582612489565b86555061256f565b601f19841661251d866122f9565b60005b8281101561254557848901518255600182019150602085019450602081019050612520565b86831015612562578489015161255e601f89168261246b565b8355505b6001600288020188555050505b505050505050565b7f4e487b7100000000000000000000000000000000000000000000000000000000600052601160045260246000fd5b60006125b182611b4b565b91506125bc83611b4b565b92508282026125ca81611b4b565b915082820484148315176125e1576125e0612577565b5b5092915050565b7f496e697469616c697a61626c653a20636f6e747261637420697320616c72656160008201527f647920696e697469616c697a6564000000000000000000000000000000000000602082015250565b6000612644602e836121dd565b915061264f826125e8565b604082019050919050565b6000602082019050818103600083015261267381612637565b9050919050565b600060408201905061268f6000830185611f41565b61269c6020830184611f41565b9392505050565b6000819050919050565b600060ff82169050919050565b60006126d56126d06126cb846126a3565b61237d565b6126ad565b9050919050565b6126e5816126ba565b82525050565b600060208201905061270060008301846126dc565b92915050565b6000819050919050565b600061272b61272661272184612706565b61237d565b611b4b565b9050919050565b61273b81612710565b82525050565b60006040820190506127566000830185611f41565b6127636020830184612732565b9392505050565b600061278561278061277b846126a3565b61237d565b611b4b565b9050919050565b6127958161276a565b82525050565b60006040820190506127b06000830185611f41565b6127bd602083018461278c565b9392505050565b60006127cf82611b4b565b91506127da83611b4b565b92508282039050818111156127f2576127f1612577565b5b9291505056fea26469706673582212206c73b9677b0426e5cb119e7fa942f6822a65b3cb0a077996092a6ba99cebc11864736f6c63430008150033",
  "devdoc": {
    "author": "Giuseppe La Vecchia",
    "custom:experimental": "This is an experimental contract.",
    "details": "for testing the checkingForExpiredToken function, it is needed to the \"if\" statement, because it will trigger the content only once every 30 days",
    "events": {
      "Initialized(uint8)": {
        "details": "Triggered when the contract has been initialized or reinitialized."
      }
    },
    "kind": "dev",
    "methods": {
      "addCitizen(string,address,uint256,string,string,string,uint256,string,bool)": {
        "details": "if it is not a modify action, the getUserCount is called. In the other case, the citizen with an already id is provider (in id = getCitizen(citizenAddr).id; code line)",
        "params": {
          "isModify": "if true, it means that the caller of this function want to change something in a Citizen. Otherwise it is an addition operation."
        }
      },
      "constructor": {
        "custom:oz-upgrades-unsafe-allow": "constructor"
      },
      "consumePTFromCitizen(uint256)": {
        "params": {
          "amountUsed": "the contract address of the PollutionToken contract, used by this contract."
        }
      },
      "initialize(address,address,address)": {
        "params": {
          "dsesCenterAddress": "the contract address of the DSESCenter contract, used by this contract.",
          "pnftAddress": "the contract address of the PollutionNft contract, used by this contract.",
          "ptContractAddress": "the contract address of the PollutionToken contract, used by this contract."
        }
      }
    },
    "title": "A contract to be used by Cities and Citizens",
    "version": 1
  },
  "userdoc": {
    "kind": "user",
    "methods": {
      "addCitizen(string,address,uint256,string,string,string,uint256,string,bool)": {
        "notice": "Add a new citizen instanceAllows a City to add a new citizen giving an initial amount of PollutionTokens. It can also be used for editing purpose of the Citizen's parameters."
      },
      "consumePTFromCitizen(uint256)": {
        "notice": "Consume PollutionToken by Citizena Citizen equipped with a sensor will send a certain amount of data produced ('amountUsed') periodically. If its PollutionToken balance is not 0, he send back to the City that amountUsed of PT, otherwise he emit an Event notifying States that he finished his tokens. Before doing that,it is necessary to check that 1 month has not passed since the beginning of a new cycle (Start of the cycle->consumingPT->end of a month->give back to city the remaining PT->if any, give NFTs to Citizen)."
      },
      "initialize(address,address,address)": {
        "notice": "Initialize function for the proxy upgradable pattern by OpenZeppelinInitialize variables. The address of this contract is passed to the storeContractAddress function of the ptContract and pollution nft contract, allowing this contract to call its functions"
      }
    },
    "notice": "Used for CRUD operations and for consuming PT by the Citizen",
    "version": 1
  },
  "storageLayout": {
    "storage": [
      {
        "astId": 6,
        "contract": "contracts/CityCitizen.sol:CityCitizen",
        "label": "_initialized",
        "offset": 0,
        "slot": "0",
        "type": "t_uint8"
      },
      {
        "astId": 9,
        "contract": "contracts/CityCitizen.sol:CityCitizen",
        "label": "_initializing",
        "offset": 1,
        "slot": "0",
        "type": "t_bool"
      },
      {
        "astId": 515,
        "contract": "contracts/CityCitizen.sol:CityCitizen",
        "label": "citizens",
        "offset": 0,
        "slot": "1",
        "type": "t_mapping(t_address,t_struct(Citizen)1046_storage)"
      },
      {
        "astId": 523,
        "contract": "contracts/CityCitizen.sol:CityCitizen",
        "label": "pt",
        "offset": 0,
        "slot": "2",
        "type": "t_contract(IPollutionToken)2274"
      },
      {
        "astId": 525,
        "contract": "contracts/CityCitizen.sol:CityCitizen",
        "label": "admin",
        "offset": 0,
        "slot": "3",
        "type": "t_address"
      },
      {
        "astId": 528,
        "contract": "contracts/CityCitizen.sol:CityCitizen",
        "label": "dsesCenter",
        "offset": 0,
        "slot": "4",
        "type": "t_contract(IDSESCenter)2198"
      },
      {
        "astId": 531,
        "contract": "contracts/CityCitizen.sol:CityCitizen",
        "label": "pnft",
        "offset": 0,
        "slot": "5",
        "type": "t_contract(IPollutionNft)2222"
      }
    ],
    "types": {
      "t_address": {
        "encoding": "inplace",
        "label": "address",
        "numberOfBytes": "20"
      },
      "t_bool": {
        "encoding": "inplace",
        "label": "bool",
        "numberOfBytes": "1"
      },
      "t_contract(IDSESCenter)2198": {
        "encoding": "inplace",
        "label": "contract IDSESCenter",
        "numberOfBytes": "20"
      },
      "t_contract(IPollutionNft)2222": {
        "encoding": "inplace",
        "label": "contract IPollutionNft",
        "numberOfBytes": "20"
      },
      "t_contract(IPollutionToken)2274": {
        "encoding": "inplace",
        "label": "contract IPollutionToken",
        "numberOfBytes": "20"
      },
      "t_mapping(t_address,t_struct(Citizen)1046_storage)": {
        "encoding": "mapping",
        "key": "t_address",
        "label": "mapping(address => struct classes.Citizen)",
        "numberOfBytes": "32",
        "value": "t_struct(Citizen)1046_storage"
      },
      "t_string_storage": {
        "encoding": "bytes",
        "label": "string",
        "numberOfBytes": "32"
      },
      "t_struct(Citizen)1046_storage": {
        "encoding": "inplace",
        "label": "struct classes.Citizen",
        "members": [
          {
            "astId": 1031,
            "contract": "contracts/CityCitizen.sol:CityCitizen",
            "label": "name",
            "offset": 0,
            "slot": "0",
            "type": "t_string_storage"
          },
          {
            "astId": 1033,
            "contract": "contracts/CityCitizen.sol:CityCitizen",
            "label": "checkedTimestamp",
            "offset": 0,
            "slot": "1",
            "type": "t_uint256"
          },
          {
            "astId": 1035,
            "contract": "contracts/CityCitizen.sol:CityCitizen",
            "label": "surname",
            "offset": 0,
            "slot": "2",
            "type": "t_string_storage"
          },
          {
            "astId": 1037,
            "contract": "contracts/CityCitizen.sol:CityCitizen",
            "label": "email",
            "offset": 0,
            "slot": "3",
            "type": "t_string_storage"
          },
          {
            "astId": 1039,
            "contract": "contracts/CityCitizen.sol:CityCitizen",
            "label": "dateOfBirth",
            "offset": 0,
            "slot": "4",
            "type": "t_string_storage"
          },
          {
            "astId": 1041,
            "contract": "contracts/CityCitizen.sol:CityCitizen",
            "label": "telephone",
            "offset": 0,
            "slot": "5",
            "type": "t_uint256"
          },
          {
            "astId": 1043,
            "contract": "contracts/CityCitizen.sol:CityCitizen",
            "label": "physicalAddress",
            "offset": 0,
            "slot": "6",
            "type": "t_string_storage"
          },
          {
            "astId": 1045,
            "contract": "contracts/CityCitizen.sol:CityCitizen",
            "label": "id",
            "offset": 0,
            "slot": "7",
            "type": "t_uint256"
          }
        ],
        "numberOfBytes": "256"
      },
      "t_uint256": {
        "encoding": "inplace",
        "label": "uint256",
        "numberOfBytes": "32"
      },
      "t_uint8": {
        "encoding": "inplace",
        "label": "uint8",
        "numberOfBytes": "1"
      }
    }
  }
}