{
  "address": "0xa513E6E4b8f2a923D98304ec87F64353C4D5C853",
  "abi": [
    {
      "inputs": [],
      "stateMutability": "nonpayable",
      "type": "constructor"
    },
    {
      "inputs": [],
      "name": "CityCitizen__Citizen_Not_Found",
      "type": "error"
    },
    {
      "anonymous": false,
      "inputs": [
        {
          "indexed": false,
          "internalType": "uint8",
          "name": "version",
          "type": "uint8"
        }
      ],
      "name": "Initialized",
      "type": "event"
    },
    {
      "anonymous": false,
      "inputs": [
        {
          "indexed": true,
          "internalType": "address",
          "name": "citizenAddr",
          "type": "address"
        },
        {
          "indexed": false,
          "internalType": "uint256",
          "name": "timestamp",
          "type": "uint256"
        }
      ],
      "name": "NoTokenCitizen",
      "type": "event"
    },
    {
      "inputs": [
        {
          "internalType": "string",
          "name": "name",
          "type": "string"
        },
        {
          "internalType": "address",
          "name": "citizenAddr",
          "type": "address"
        },
        {
          "internalType": "uint256",
          "name": "checkedTimestamp",
          "type": "uint256"
        },
        {
          "internalType": "string",
          "name": "surname",
          "type": "string"
        },
        {
          "internalType": "string",
          "name": "email",
          "type": "string"
        },
        {
          "internalType": "string",
          "name": "dateOfBirth",
          "type": "string"
        },
        {
          "internalType": "uint256",
          "name": "telephone",
          "type": "uint256"
        },
        {
          "internalType": "string",
          "name": "physicalAddress",
          "type": "string"
        },
        {
          "internalType": "bool",
          "name": "isModify",
          "type": "bool"
        }
      ],
      "name": "addCitizen",
      "outputs": [],
      "stateMutability": "nonpayable",
      "type": "function"
    },
    {
      "inputs": [
        {
          "internalType": "address",
          "name": "citizenAddr",
          "type": "address"
        }
      ],
      "name": "checkExistingCitizen",
      "outputs": [
        {
          "internalType": "bool",
          "name": "",
          "type": "bool"
        }
      ],
      "stateMutability": "view",
      "type": "function"
    },
    {
      "inputs": [
        {
          "internalType": "uint256",
          "name": "balanceOfCitizen",
          "type": "uint256"
        }
      ],
      "name": "checkForNft",
      "outputs": [],
      "stateMutability": "nonpayable",
      "type": "function"
    },
    {
      "inputs": [
        {
          "internalType": "uint256",
          "name": "amountUsed",
          "type": "uint256"
        }
      ],
      "name": "consumePTFromCitizen",
      "outputs": [],
      "stateMutability": "nonpayable",
      "type": "function"
    },
    {
      "inputs": [
        {
          "internalType": "address",
          "name": "citizenAddr",
          "type": "address"
        }
      ],
      "name": "deleteCitizen",
      "outputs": [],
      "stateMutability": "nonpayable",
      "type": "function"
    },
    {
      "inputs": [],
      "name": "getAdminAddress",
      "outputs": [
        {
          "internalType": "address",
          "name": "",
          "type": "address"
        }
      ],
      "stateMutability": "view",
      "type": "function"
    },
    {
      "inputs": [
        {
          "internalType": "address",
          "name": "citizenAddr",
          "type": "address"
        }
      ],
      "name": "getCitizen",
      "outputs": [
        {
          "components": [
            {
              "internalType": "string",
              "name": "name",
              "type": "string"
            },
            {
              "internalType": "uint256",
              "name": "checkedTimestamp",
              "type": "uint256"
            },
            {
              "internalType": "string",
              "name": "surname",
              "type": "string"
            },
            {
              "internalType": "string",
              "name": "email",
              "type": "string"
            },
            {
              "internalType": "string",
              "name": "dateOfBirth",
              "type": "string"
            },
            {
              "internalType": "uint256",
              "name": "telephone",
              "type": "uint256"
            },
            {
              "internalType": "string",
              "name": "physicalAddress",
              "type": "string"
            },
            {
              "internalType": "uint256",
              "name": "id",
              "type": "uint256"
            }
          ],
          "internalType": "struct classes.Citizen",
          "name": "",
          "type": "tuple"
        }
      ],
      "stateMutability": "view",
      "type": "function"
    },
    {
      "inputs": [],
      "name": "getPreviousSender",
      "outputs": [
        {
          "internalType": "address",
          "name": "",
          "type": "address"
        }
      ],
      "stateMutability": "view",
      "type": "function"
    },
    {
      "inputs": [
        {
          "internalType": "contract IPollutionToken",
          "name": "ptContractAddress",
          "type": "address"
        },
        {
          "internalType": "contract IDSESCenter",
          "name": "dsesCenterAddress",
          "type": "address"
        },
        {
          "internalType": "contract IPollutionNft",
          "name": "pnftAddress",
          "type": "address"
        }
      ],
      "name": "initialize",
      "outputs": [],
      "stateMutability": "nonpayable",
      "type": "function"
    },
    {
      "inputs": [],
      "name": "tokenToBeAssigned",
      "outputs": [
        {
          "internalType": "uint256",
          "name": "",
          "type": "uint256"
        }
      ],
      "stateMutability": "pure",
      "type": "function"
    }
  ],
  "numDeployments": 1,
  "solcInputHash": "bd4ce233a854cf9bd22b45333879fffb",
  "bytecode": "0x60806040523480156200001157600080fd5b50620000226200002860201b60201c565b620001d2565b600060019054906101000a900460ff16156200007b576040517f08c379a0000000000000000000000000000000000000000000000000000000008152600401620000729062000175565b60405180910390fd5b60ff801660008054906101000a900460ff1660ff1614620000ec5760ff6000806101000a81548160ff021916908360ff1602179055507f7f26b83ff96e1f2b6a682f133852f6798a09c465da95921460cefb384740249860ff604051620000e39190620001b5565b60405180910390a15b565b600082825260208201905092915050565b7f496e697469616c697a61626c653a20636f6e747261637420697320696e69746960008201527f616c697a696e6700000000000000000000000000000000000000000000000000602082015250565b60006200015d602783620000ee565b91506200016a82620000ff565b604082019050919050565b6000602082019050818103600083015262000190816200014e565b9050919050565b600060ff82169050919050565b620001af8162000197565b82525050565b6000602082019050620001cc6000830184620001a4565b92915050565b61246080620001e26000396000f3fe608060405234801561001057600080fd5b506004361061009e5760003560e01c8063c0c53b8b11610066578063c0c53b8b14610135578063c2411dab14610151578063c335963d14610181578063c6e92e6a146101b1578063f907306e146101cd5761009e565b80632b86a449146100a35780637de8102b146100c15780638d68d807146100dd578063b2e6b912146100f9578063b7e39a4314610117575b600080fd5b6100ab6101e9565b6040516100b891906115fd565b60405180910390f35b6100db60048036038101906100d6919061180c565b61028c565b005b6100f760048036038101906100f29190611962565b6105dc565b005b610101610890565b60405161010e91906115fd565b60405180910390f35b61011f6108ba565b60405161012c919061199e565b60405180910390f35b61014f600480360381019061014a9190611a73565b6108d6565b005b61016b60048036038101906101669190611962565b610c31565b6040516101789190611c20565b60405180910390f35b61019b60048036038101906101969190611962565b610fc2565b6040516101a89190611c51565b60405180910390f35b6101cb60048036038101906101c69190611c6c565b61101c565b005b6101e760048036038101906101e29190611c6c565b6111be565b005b6000600260009054906101000a900473ffffffffffffffffffffffffffffffffffffffff1673ffffffffffffffffffffffffffffffffffffffff16635e94ac05336040518263ffffffff1660e01b815260040161024691906115fd565b602060405180830381865afa158015610263573d6000803e3d6000fd5b505050506040513d601f19601f820116820180604052508101906102879190611cae565b905090565b600460009054906101000a900473ffffffffffffffffffffffffffffffffffffffff1673ffffffffffffffffffffffffffffffffffffffff1663a376e4d8336040518263ffffffff1660e01b81526004016102e791906115fd565b602060405180830381865afa158015610304573d6000803e3d6000fd5b505050506040513d601f19601f820116820180604052508101906103289190611cf0565b8015610342575061033888610fc2565b15806103415750805b5b610381576040517f08c379a000000000000000000000000000000000000000000000000000000000815260040161037890611da0565b60405180910390fd5b6000816104b857600260009054906101000a900473ffffffffffffffffffffffffffffffffffffffff1673ffffffffffffffffffffffffffffffffffffffff1663ea64b234338b6103d06108ba565b6040518463ffffffff1660e01b81526004016103ee93929190611dc0565b600060405180830381600087803b15801561040857600080fd5b505af115801561041c573d6000803e3d6000fd5b50505050600260009054906101000a900473ffffffffffffffffffffffffffffffffffffffff1673ffffffffffffffffffffffffffffffffffffffff1663b5cb15f76040518163ffffffff1660e01b8152600401602060405180830381865afa15801561048d573d6000803e3d6000fd5b505050506040513d601f19601f820116820180604052508101906104b19190611e0c565b90506104c8565b6104c189610c31565b60e0015190505b6040518061010001604052808b815260200189815260200188815260200187815260200186815260200185815260200184815260200182815250600160008b73ffffffffffffffffffffffffffffffffffffffff1673ffffffffffffffffffffffffffffffffffffffff16815260200190815260200160002060008201518160000190816105569190612045565b506020820151816001015560408201518160020190816105769190612045565b50606082015181600301908161058c9190612045565b5060808201518160040190816105a29190612045565b5060a0820151816005015560c08201518160060190816105c29190612045565b5060e0820151816007015590505050505050505050505050565b600460009054906101000a900473ffffffffffffffffffffffffffffffffffffffff1673ffffffffffffffffffffffffffffffffffffffff1663a376e4d8336040518263ffffffff1660e01b815260040161063791906115fd565b602060405180830381865afa158015610654573d6000803e3d6000fd5b505050506040513d601f19601f820116820180604052508101906106789190611cf0565b6106b7576040517f08c379a00000000000000000000000000000000000000000000000000000000081526004016106ae90612189565b60405180910390fd5b600260009054906101000a900473ffffffffffffffffffffffffffffffffffffffff1673ffffffffffffffffffffffffffffffffffffffff1663dc5314f28233600260009054906101000a900473ffffffffffffffffffffffffffffffffffffffff1673ffffffffffffffffffffffffffffffffffffffff166370a08231866040518263ffffffff1660e01b815260040161075291906115fd565b602060405180830381865afa15801561076f573d6000803e3d6000fd5b505050506040513d601f19601f820116820180604052508101906107939190611e0c565b6040518463ffffffff1660e01b81526004016107b193929190611dc0565b600060405180830381600087803b1580156107cb57600080fd5b505af11580156107df573d6000803e3d6000fd5b50505050600160008273ffffffffffffffffffffffffffffffffffffffff1673ffffffffffffffffffffffffffffffffffffffff16815260200190815260200160002060008082016000610833919061151a565b600182016000905560028201600061084b919061151a565b60038201600061085b919061151a565b60048201600061086b919061151a565b6005820160009055600682016000610883919061151a565b6007820160009055505050565b6000600360009054906101000a900473ffffffffffffffffffffffffffffffffffffffff16905090565b6000670de0b6b3a7640000601e6108d191906121d8565b905090565b60008060019054906101000a900460ff161590508080156109075750600160008054906101000a900460ff1660ff16105b80610934575061091630611400565b1580156109335750600160008054906101000a900460ff1660ff16145b5b610973576040517f08c379a000000000000000000000000000000000000000000000000000000000815260040161096a9061228c565b60405180910390fd5b60016000806101000a81548160ff021916908360ff16021790555080156109b0576001600060016101000a81548160ff0219169083151502179055505b33600360006101000a81548173ffffffffffffffffffffffffffffffffffffffff021916908373ffffffffffffffffffffffffffffffffffffffff16021790555083600260006101000a81548173ffffffffffffffffffffffffffffffffffffffff021916908373ffffffffffffffffffffffffffffffffffffffff16021790555081600560006101000a81548173ffffffffffffffffffffffffffffffffffffffff021916908373ffffffffffffffffffffffffffffffffffffffff16021790555082600460006101000a81548173ffffffffffffffffffffffffffffffffffffffff021916908373ffffffffffffffffffffffffffffffffffffffff160217905550600560009054906101000a900473ffffffffffffffffffffffffffffffffffffffff1673ffffffffffffffffffffffffffffffffffffffff1663c697a7c830336040518363ffffffff1660e01b8152600401610b119291906122ac565b600060405180830381600087803b158015610b2b57600080fd5b505af1158015610b3f573d6000803e3d6000fd5b50505050600260009054906101000a900473ffffffffffffffffffffffffffffffffffffffff1673ffffffffffffffffffffffffffffffffffffffff1663c697a7c830336040518363ffffffff1660e01b8152600401610ba09291906122ac565b600060405180830381600087803b158015610bba57600080fd5b505af1158015610bce573d6000803e3d6000fd5b505050508015610c2b5760008060016101000a81548160ff0219169083151502179055507f7f26b83ff96e1f2b6a682f133852f6798a09c465da95921460cefb38474024986001604051610c22919061231d565b60405180910390a15b50505050565b610c3961155a565b610c4282610fc2565b610c78576040517f54a6a82f00000000000000000000000000000000000000000000000000000000815260040160405180910390fd5b600160008373ffffffffffffffffffffffffffffffffffffffff1673ffffffffffffffffffffffffffffffffffffffff16815260200190815260200160002060405180610100016040529081600082018054610cd390611e68565b80601f0160208091040260200160405190810160405280929190818152602001828054610cff90611e68565b8015610d4c5780601f10610d2157610100808354040283529160200191610d4c565b820191906000526020600020905b815481529060010190602001808311610d2f57829003601f168201915b5050505050815260200160018201548152602001600282018054610d6f90611e68565b80601f0160208091040260200160405190810160405280929190818152602001828054610d9b90611e68565b8015610de85780601f10610dbd57610100808354040283529160200191610de8565b820191906000526020600020905b815481529060010190602001808311610dcb57829003601f168201915b50505050508152602001600382018054610e0190611e68565b80601f0160208091040260200160405190810160405280929190818152602001828054610e2d90611e68565b8015610e7a5780601f10610e4f57610100808354040283529160200191610e7a565b820191906000526020600020905b815481529060010190602001808311610e5d57829003601f168201915b50505050508152602001600482018054610e9390611e68565b80601f0160208091040260200160405190810160405280929190818152602001828054610ebf90611e68565b8015610f0c5780601f10610ee157610100808354040283529160200191610f0c565b820191906000526020600020905b815481529060010190602001808311610eef57829003601f168201915b5050505050815260200160058201548152602001600682018054610f2f90611e68565b80601f0160208091040260200160405190810160405280929190818152602001828054610f5b90611e68565b8015610fa85780601f10610f7d57610100808354040283529160200191610fa8565b820191906000526020600020905b815481529060010190602001808311610f8b57829003601f168201915b505050505081526020016007820154815250509050919050565b600080600160008473ffffffffffffffffffffffffffffffffffffffff1673ffffffffffffffffffffffffffffffffffffffff168152602001908152602001600020600001805461101290611e68565b9050119050919050565b670de0b6b3a7640000600561103191906121d8565b811180156110535750670de0b6b3a7640000600a61104f91906121d8565b8111155b156110ed57600560009054906101000a900473ffffffffffffffffffffffffffffffffffffffff1673ffffffffffffffffffffffffffffffffffffffff166373da80103360006040518363ffffffff1660e01b81526004016110b6929190612373565b600060405180830381600087803b1580156110d057600080fd5b505af11580156110e4573d6000803e3d6000fd5b505050506111bb565b670de0b6b3a7640000600a61110291906121d8565b811180156111245750670de0b6b3a7640000601d61112091906121d8565b8111155b156111ba57600560009054906101000a900473ffffffffffffffffffffffffffffffffffffffff1673ffffffffffffffffffffffffffffffffffffffff166373da80103360016040518363ffffffff1660e01b81526004016111879291906123cd565b600060405180830381600087803b1580156111a157600080fd5b505af11580156111b5573d6000803e3d6000fd5b505050505b5b50565b6000600260009054906101000a900473ffffffffffffffffffffffffffffffffffffffff1673ffffffffffffffffffffffffffffffffffffffff166370a08231336040518263ffffffff1660e01b815260040161121b91906115fd565b602060405180830381865afa158015611238573d6000803e3d6000fd5b505050506040513d601f19601f8201168201806040525081019061125c9190611e0c565b90506000600260009054906101000a900473ffffffffffffffffffffffffffffffffffffffff1673ffffffffffffffffffffffffffffffffffffffff16635e94ac05336040518263ffffffff1660e01b81526004016112bb91906115fd565b602060405180830381865afa1580156112d8573d6000803e3d6000fd5b505050506040513d601f19601f820116820180604052508101906112fc9190611cae565b90506113088282611423565b600082146113a657600260009054906101000a900473ffffffffffffffffffffffffffffffffffffffff1673ffffffffffffffffffffffffffffffffffffffff1663dc5314f23383866040518463ffffffff1660e01b815260040161136f93929190611dc0565b600060405180830381600087803b15801561138957600080fd5b505af115801561139d573d6000803e3d6000fd5b505050506113fb565b60004290503373ffffffffffffffffffffffffffffffffffffffff167fc4ce9a02dc70fc3595f43e3c08ce1e5b880f4be6f33a04831ea249077ece6077826040516113f1919061199e565b60405180910390a2505b505050565b6000808273ffffffffffffffffffffffffffffffffffffffff163b119050919050565b61142c8261101c565b600260009054906101000a900473ffffffffffffffffffffffffffffffffffffffff1673ffffffffffffffffffffffffffffffffffffffff1663dc5314f28233856114756108ba565b61147f91906123f6565b6040518463ffffffff1660e01b815260040161149d93929190611dc0565b600060405180830381600087803b1580156114b757600080fd5b505af11580156114cb573d6000803e3d6000fd5b5050505042600160003373ffffffffffffffffffffffffffffffffffffffff1673ffffffffffffffffffffffffffffffffffffffff168152602001908152602001600020600101819055505050565b50805461152690611e68565b6000825580601f106115385750611557565b601f016020900490600052602060002090810190611556919061159f565b5b50565b60405180610100016040528060608152602001600081526020016060815260200160608152602001606081526020016000815260200160608152602001600081525090565b5b808211156115b85760008160009055506001016115a0565b5090565b600073ffffffffffffffffffffffffffffffffffffffff82169050919050565b60006115e7826115bc565b9050919050565b6115f7816115dc565b82525050565b600060208201905061161260008301846115ee565b92915050565b6000604051905090565b600080fd5b600080fd5b600080fd5b600080fd5b6000601f19601f8301169050919050565b7f4e487b7100000000000000000000000000000000000000000000000000000000600052604160045260246000fd5b61167f82611636565b810181811067ffffffffffffffff8211171561169e5761169d611647565b5b80604052505050565b60006116b1611618565b90506116bd8282611676565b919050565b600067ffffffffffffffff8211156116dd576116dc611647565b5b6116e682611636565b9050602081019050919050565b82818337600083830152505050565b6000611715611710846116c2565b6116a7565b90508281526020810184848401111561173157611730611631565b5b61173c8482856116f3565b509392505050565b600082601f8301126117595761175861162c565b5b8135611769848260208601611702565b91505092915050565b61177b816115dc565b811461178657600080fd5b50565b60008135905061179881611772565b92915050565b6000819050919050565b6117b18161179e565b81146117bc57600080fd5b50565b6000813590506117ce816117a8565b92915050565b60008115159050919050565b6117e9816117d4565b81146117f457600080fd5b50565b600081359050611806816117e0565b92915050565b60008060008060008060008060006101208a8c03121561182f5761182e611622565b5b60008a013567ffffffffffffffff81111561184d5761184c611627565b5b6118598c828d01611744565b995050602061186a8c828d01611789565b985050604061187b8c828d016117bf565b97505060608a013567ffffffffffffffff81111561189c5761189b611627565b5b6118a88c828d01611744565b96505060808a013567ffffffffffffffff8111156118c9576118c8611627565b5b6118d58c828d01611744565b95505060a08a013567ffffffffffffffff8111156118f6576118f5611627565b5b6119028c828d01611744565b94505060c06119138c828d016117bf565b93505060e08a013567ffffffffffffffff81111561193457611933611627565b5b6119408c828d01611744565b9250506101006119528c828d016117f7565b9150509295985092959850929598565b60006020828403121561197857611977611622565b5b600061198684828501611789565b91505092915050565b6119988161179e565b82525050565b60006020820190506119b3600083018461198f565b92915050565b60006119c4826115dc565b9050919050565b6119d4816119b9565b81146119df57600080fd5b50565b6000813590506119f1816119cb565b92915050565b6000611a02826115dc565b9050919050565b611a12816119f7565b8114611a1d57600080fd5b50565b600081359050611a2f81611a09565b92915050565b6000611a40826115dc565b9050919050565b611a5081611a35565b8114611a5b57600080fd5b50565b600081359050611a6d81611a47565b92915050565b600080600060608486031215611a8c57611a8b611622565b5b6000611a9a868287016119e2565b9350506020611aab86828701611a20565b9250506040611abc86828701611a5e565b9150509250925092565b600081519050919050565b600082825260208201905092915050565b60005b83811015611b00578082015181840152602081019050611ae5565b60008484015250505050565b6000611b1782611ac6565b611b218185611ad1565b9350611b31818560208601611ae2565b611b3a81611636565b840191505092915050565b611b4e8161179e565b82525050565b6000610100830160008301518482036000860152611b728282611b0c565b9150506020830151611b876020860182611b45565b5060408301518482036040860152611b9f8282611b0c565b91505060608301518482036060860152611bb98282611b0c565b91505060808301518482036080860152611bd38282611b0c565b91505060a0830151611be860a0860182611b45565b5060c083015184820360c0860152611c008282611b0c565b91505060e0830151611c1560e0860182611b45565b508091505092915050565b60006020820190508181036000830152611c3a8184611b54565b905092915050565b611c4b816117d4565b82525050565b6000602082019050611c666000830184611c42565b92915050565b600060208284031215611c8257611c81611622565b5b6000611c90848285016117bf565b91505092915050565b600081519050611ca881611772565b92915050565b600060208284031215611cc457611cc3611622565b5b6000611cd284828501611c99565b91505092915050565b600081519050611cea816117e0565b92915050565b600060208284031215611d0657611d05611622565b5b6000611d1484828501611cdb565b91505092915050565b600082825260208201905092915050565b7f596f7520617265206e6f7420612063697479206f7220636974697a656e20616c60008201527f7265616479206578697374000000000000000000000000000000000000000000602082015250565b6000611d8a602b83611d1d565b9150611d9582611d2e565b604082019050919050565b60006020820190508181036000830152611db981611d7d565b9050919050565b6000606082019050611dd560008301866115ee565b611de260208301856115ee565b611def604083018461198f565b949350505050565b600081519050611e06816117a8565b92915050565b600060208284031215611e2257611e21611622565b5b6000611e3084828501611df7565b91505092915050565b7f4e487b7100000000000000000000000000000000000000000000000000000000600052602260045260246000fd5b60006002820490506001821680611e8057607f821691505b602082108103611e9357611e92611e39565b5b50919050565b60008190508160005260206000209050919050565b60006020601f8301049050919050565b600082821b905092915050565b600060088302611efb7fffffffffffffffffffffffffffffffffffffffffffffffffffffffffffffffff82611ebe565b611f058683611ebe565b95508019841693508086168417925050509392505050565b6000819050919050565b6000611f42611f3d611f388461179e565b611f1d565b61179e565b9050919050565b6000819050919050565b611f5c83611f27565b611f70611f6882611f49565b848454611ecb565b825550505050565b600090565b611f85611f78565b611f90818484611f53565b505050565b5b81811015611fb457611fa9600082611f7d565b600181019050611f96565b5050565b601f821115611ff957611fca81611e99565b611fd384611eae565b81016020851015611fe2578190505b611ff6611fee85611eae565b830182611f95565b50505b505050565b600082821c905092915050565b600061201c60001984600802611ffe565b1980831691505092915050565b6000612035838361200b565b9150826002028217905092915050565b61204e82611ac6565b67ffffffffffffffff81111561206757612066611647565b5b6120718254611e68565b61207c828285611fb8565b600060209050601f8311600181146120af576000841561209d578287015190505b6120a78582612029565b86555061210f565b601f1984166120bd86611e99565b60005b828110156120e5578489015182556001820191506020850194506020810190506120c0565b8683101561210257848901516120fe601f89168261200b565b8355505b6001600288020188555050505b505050505050565b7f596f7520617265206e6f7420616c6c6f77656420746f20646f20746861742e2060008201527f596f7520617265206e6f74206120636974790000000000000000000000000000602082015250565b6000612173603283611d1d565b915061217e82612117565b604082019050919050565b600060208201905081810360008301526121a281612166565b9050919050565b7f4e487b7100000000000000000000000000000000000000000000000000000000600052601160045260246000fd5b60006121e38261179e565b91506121ee8361179e565b92508282026121fc8161179e565b91508282048414831517612213576122126121a9565b5b5092915050565b7f496e697469616c697a61626c653a20636f6e747261637420697320616c72656160008201527f647920696e697469616c697a6564000000000000000000000000000000000000602082015250565b6000612276602e83611d1d565b91506122818261221a565b604082019050919050565b600060208201905081810360008301526122a581612269565b9050919050565b60006040820190506122c160008301856115ee565b6122ce60208301846115ee565b9392505050565b6000819050919050565b600060ff82169050919050565b60006123076123026122fd846122d5565b611f1d565b6122df565b9050919050565b612317816122ec565b82525050565b6000602082019050612332600083018461230e565b92915050565b6000819050919050565b600061235d61235861235384612338565b611f1d565b61179e565b9050919050565b61236d81612342565b82525050565b600060408201905061238860008301856115ee565b6123956020830184612364565b9392505050565b60006123b76123b26123ad846122d5565b611f1d565b61179e565b9050919050565b6123c78161239c565b82525050565b60006040820190506123e260008301856115ee565b6123ef60208301846123be565b9392505050565b60006124018261179e565b915061240c8361179e565b9250828203905081811115612424576124236121a9565b5b9291505056fea2646970667358221220543827299767adda8e3bc105cb09685b87f8ea9970131ea0e265748b3c7909d664736f6c63430008150033",
  "devdoc": {
    "author": "Giuseppe La Vecchia",
    "custom:experimental": "This is an experimental contract.",
    "details": "for testing the checkingForExpiredToken function, it is needed to the \"if\" statement, because it will trigger the content only once every 30 days",
    "events": {
      "Initialized(uint8)": {
        "details": "Triggered when the contract has been initialized or reinitialized."
      }
    },
    "kind": "dev",
    "methods": {
      "addCitizen(string,address,uint256,string,string,string,uint256,string,bool)": {
        "details": "if it is not a modify action, the getUserCount is called. In the other case, the citizen with an already id is provider (in id = getCitizen(citizenAddr).id; code line)",
        "params": {
          "isModify": "if true, it means that the caller of this function want to change something in a Citizen. Otherwise it is an addition operation."
        }
      },
      "constructor": {
        "custom:oz-upgrades-unsafe-allow": "constructor"
      },
      "consumePTFromCitizen(uint256)": {
        "params": {
          "amountUsed": "the contract address of the PollutionToken contract, used by this contract."
        }
      },
      "initialize(address,address,address)": {
        "params": {
          "dsesCenterAddress": "the contract address of the DSESCenter contract, used by this contract.",
          "pnftAddress": "the contract address of the PollutionNft contract, used by this contract.",
          "ptContractAddress": "the contract address of the PollutionToken contract, used by this contract."
        }
      }
    },
    "title": "A contract to be used by Cities and Citizens",
    "version": 1
  },
  "userdoc": {
    "kind": "user",
    "methods": {
      "addCitizen(string,address,uint256,string,string,string,uint256,string,bool)": {
        "notice": "Add a new citizen instanceAllows a City to add a new citizen giving an initial amount of PollutionTokens. It can also be used for editing purpose of the Citizen's parameters."
      },
      "consumePTFromCitizen(uint256)": {
        "notice": "Consume PollutionToken by Citizena Citizen equipped with a sensor will send a certain amount of data produced ('amountUsed') periodically. If its PollutionToken balance is not 0, he send back to the City that amountUsed of PT, otherwise he emit an Event notifying States that he finished his tokens. Before doing that,it is necessary to check that 1 month has not passed since the beginning of a new cycle (Start of the cycle->consumingPT->end of a month->give back to city the remaining PT->if any, give NFTs to Citizen)."
      },
      "initialize(address,address,address)": {
        "notice": "Initialize function for the proxy upgradable pattern by OpenZeppelinInitialize variables. The address of this contract is passed to the storeContractAddress function of the ptContract and pollution nft contract, allowing this contract to call its functions"
      }
    },
    "notice": "Used for CRUD operations and for consuming PT by the Citizen",
    "version": 1
  },
  "storageLayout": {
    "storage": [
      {
        "astId": 6,
        "contract": "contracts/CityCitizen.sol:CityCitizen",
        "label": "_initialized",
        "offset": 0,
        "slot": "0",
        "type": "t_uint8"
      },
      {
        "astId": 9,
        "contract": "contracts/CityCitizen.sol:CityCitizen",
        "label": "_initializing",
        "offset": 1,
        "slot": "0",
        "type": "t_bool"
      },
      {
        "astId": 3767,
        "contract": "contracts/CityCitizen.sol:CityCitizen",
        "label": "citizens",
        "offset": 0,
        "slot": "1",
        "type": "t_mapping(t_address,t_struct(Citizen)4259_storage)"
      },
      {
        "astId": 3775,
        "contract": "contracts/CityCitizen.sol:CityCitizen",
        "label": "pt",
        "offset": 0,
        "slot": "2",
        "type": "t_contract(IPollutionToken)6254"
      },
      {
        "astId": 3777,
        "contract": "contracts/CityCitizen.sol:CityCitizen",
        "label": "admin",
        "offset": 0,
        "slot": "3",
        "type": "t_address"
      },
      {
        "astId": 3780,
        "contract": "contracts/CityCitizen.sol:CityCitizen",
        "label": "dsesCenter",
        "offset": 0,
        "slot": "4",
        "type": "t_contract(IDSESCenter)6178"
      },
      {
        "astId": 3783,
        "contract": "contracts/CityCitizen.sol:CityCitizen",
        "label": "pnft",
        "offset": 0,
        "slot": "5",
        "type": "t_contract(IPollutionNft)6202"
      }
    ],
    "types": {
      "t_address": {
        "encoding": "inplace",
        "label": "address",
        "numberOfBytes": "20"
      },
      "t_bool": {
        "encoding": "inplace",
        "label": "bool",
        "numberOfBytes": "1"
      },
      "t_contract(IDSESCenter)6178": {
        "encoding": "inplace",
        "label": "contract IDSESCenter",
        "numberOfBytes": "20"
      },
      "t_contract(IPollutionNft)6202": {
        "encoding": "inplace",
        "label": "contract IPollutionNft",
        "numberOfBytes": "20"
      },
      "t_contract(IPollutionToken)6254": {
        "encoding": "inplace",
        "label": "contract IPollutionToken",
        "numberOfBytes": "20"
      },
      "t_mapping(t_address,t_struct(Citizen)4259_storage)": {
        "encoding": "mapping",
        "key": "t_address",
        "label": "mapping(address => struct classes.Citizen)",
        "numberOfBytes": "32",
        "value": "t_struct(Citizen)4259_storage"
      },
      "t_string_storage": {
        "encoding": "bytes",
        "label": "string",
        "numberOfBytes": "32"
      },
      "t_struct(Citizen)4259_storage": {
        "encoding": "inplace",
        "label": "struct classes.Citizen",
        "members": [
          {
            "astId": 4244,
            "contract": "contracts/CityCitizen.sol:CityCitizen",
            "label": "name",
            "offset": 0,
            "slot": "0",
            "type": "t_string_storage"
          },
          {
            "astId": 4246,
            "contract": "contracts/CityCitizen.sol:CityCitizen",
            "label": "checkedTimestamp",
            "offset": 0,
            "slot": "1",
            "type": "t_uint256"
          },
          {
            "astId": 4248,
            "contract": "contracts/CityCitizen.sol:CityCitizen",
            "label": "surname",
            "offset": 0,
            "slot": "2",
            "type": "t_string_storage"
          },
          {
            "astId": 4250,
            "contract": "contracts/CityCitizen.sol:CityCitizen",
            "label": "email",
            "offset": 0,
            "slot": "3",
            "type": "t_string_storage"
          },
          {
            "astId": 4252,
            "contract": "contracts/CityCitizen.sol:CityCitizen",
            "label": "dateOfBirth",
            "offset": 0,
            "slot": "4",
            "type": "t_string_storage"
          },
          {
            "astId": 4254,
            "contract": "contracts/CityCitizen.sol:CityCitizen",
            "label": "telephone",
            "offset": 0,
            "slot": "5",
            "type": "t_uint256"
          },
          {
            "astId": 4256,
            "contract": "contracts/CityCitizen.sol:CityCitizen",
            "label": "physicalAddress",
            "offset": 0,
            "slot": "6",
            "type": "t_string_storage"
          },
          {
            "astId": 4258,
            "contract": "contracts/CityCitizen.sol:CityCitizen",
            "label": "id",
            "offset": 0,
            "slot": "7",
            "type": "t_uint256"
          }
        ],
        "numberOfBytes": "256"
      },
      "t_uint256": {
        "encoding": "inplace",
        "label": "uint256",
        "numberOfBytes": "32"
      },
      "t_uint8": {
        "encoding": "inplace",
        "label": "uint8",
        "numberOfBytes": "1"
      }
    }
  }
}