{
  "address": "0x5FC8d32690cc91D4c39d9d3abcBD16989F875707",
  "abi": [
    {
      "inputs": [],
      "stateMutability": "nonpayable",
      "type": "constructor"
    },
    {
      "inputs": [],
      "name": "DSESCenter__City_Not_Found",
      "type": "error"
    },
    {
      "inputs": [],
      "name": "DSESCenter__Only_Admin_Allowed",
      "type": "error"
    },
    {
      "inputs": [],
      "name": "DSESCenter__State_Not_Found",
      "type": "error"
    },
    {
      "anonymous": false,
      "inputs": [
        {
          "indexed": false,
          "internalType": "uint8",
          "name": "version",
          "type": "uint8"
        }
      ],
      "name": "Initialized",
      "type": "event"
    },
    {
      "inputs": [
        {
          "internalType": "string",
          "name": "name",
          "type": "string"
        },
        {
          "internalType": "uint256",
          "name": "population",
          "type": "uint256"
        },
        {
          "internalType": "uint256",
          "name": "numberOfIndustries",
          "type": "uint256"
        },
        {
          "internalType": "address",
          "name": "cityAddr",
          "type": "address"
        },
        {
          "internalType": "string",
          "name": "attorneyName",
          "type": "string"
        },
        {
          "internalType": "string",
          "name": "attorneySurname",
          "type": "string"
        },
        {
          "internalType": "string",
          "name": "attorneyEmail",
          "type": "string"
        },
        {
          "internalType": "uint256",
          "name": "telephone",
          "type": "uint256"
        },
        {
          "internalType": "string",
          "name": "physicalAddress",
          "type": "string"
        },
        {
          "internalType": "bool",
          "name": "isModify",
          "type": "bool"
        }
      ],
      "name": "addCity",
      "outputs": [],
      "stateMutability": "nonpayable",
      "type": "function"
    },
    {
      "inputs": [
        {
          "internalType": "string",
          "name": "name",
          "type": "string"
        },
        {
          "internalType": "string",
          "name": "iso",
          "type": "string"
        },
        {
          "internalType": "address",
          "name": "stateAddr",
          "type": "address"
        },
        {
          "internalType": "uint256",
          "name": "numberOfCities",
          "type": "uint256"
        },
        {
          "internalType": "string",
          "name": "attorneyName",
          "type": "string"
        },
        {
          "internalType": "string",
          "name": "attorneySurname",
          "type": "string"
        },
        {
          "internalType": "string",
          "name": "attorneyEmail",
          "type": "string"
        },
        {
          "internalType": "uint256",
          "name": "telephone",
          "type": "uint256"
        },
        {
          "internalType": "string",
          "name": "physicalAddress",
          "type": "string"
        },
        {
          "internalType": "bool",
          "name": "isModify",
          "type": "bool"
        }
      ],
      "name": "addState",
      "outputs": [],
      "stateMutability": "nonpayable",
      "type": "function"
    },
    {
      "inputs": [
        {
          "internalType": "address",
          "name": "addr",
          "type": "address"
        }
      ],
      "name": "checkExistingAdmin",
      "outputs": [
        {
          "internalType": "bool",
          "name": "",
          "type": "bool"
        }
      ],
      "stateMutability": "view",
      "type": "function"
    },
    {
      "inputs": [
        {
          "internalType": "address",
          "name": "cityAddr",
          "type": "address"
        }
      ],
      "name": "checkExistingCity",
      "outputs": [
        {
          "internalType": "bool",
          "name": "",
          "type": "bool"
        }
      ],
      "stateMutability": "view",
      "type": "function"
    },
    {
      "inputs": [
        {
          "internalType": "address",
          "name": "addr",
          "type": "address"
        }
      ],
      "name": "checkExistingState",
      "outputs": [
        {
          "internalType": "bool",
          "name": "",
          "type": "bool"
        }
      ],
      "stateMutability": "view",
      "type": "function"
    },
    {
      "inputs": [
        {
          "internalType": "address",
          "name": "cityAddr",
          "type": "address"
        }
      ],
      "name": "deleteCity",
      "outputs": [],
      "stateMutability": "nonpayable",
      "type": "function"
    },
    {
      "inputs": [
        {
          "internalType": "address",
          "name": "stateAddr",
          "type": "address"
        }
      ],
      "name": "deleteState",
      "outputs": [],
      "stateMutability": "nonpayable",
      "type": "function"
    },
    {
      "inputs": [
        {
          "internalType": "address",
          "name": "cityAddr",
          "type": "address"
        }
      ],
      "name": "getCity",
      "outputs": [
        {
          "components": [
            {
              "internalType": "string",
              "name": "name",
              "type": "string"
            },
            {
              "internalType": "uint256",
              "name": "population",
              "type": "uint256"
            },
            {
              "internalType": "uint256",
              "name": "numberOfIndustries",
              "type": "uint256"
            },
            {
              "internalType": "string",
              "name": "attorneyName",
              "type": "string"
            },
            {
              "internalType": "string",
              "name": "attorneySurname",
              "type": "string"
            },
            {
              "internalType": "string",
              "name": "attorneyEmail",
              "type": "string"
            },
            {
              "internalType": "uint256",
              "name": "telephone",
              "type": "uint256"
            },
            {
              "internalType": "string",
              "name": "physicalAddress",
              "type": "string"
            }
          ],
          "internalType": "struct classes.City",
          "name": "",
          "type": "tuple"
        }
      ],
      "stateMutability": "view",
      "type": "function"
    },
    {
      "inputs": [
        {
          "internalType": "address",
          "name": "cityAddr",
          "type": "address"
        }
      ],
      "name": "getCityByAddr",
      "outputs": [
        {
          "components": [
            {
              "internalType": "string",
              "name": "name",
              "type": "string"
            },
            {
              "internalType": "uint256",
              "name": "population",
              "type": "uint256"
            },
            {
              "internalType": "uint256",
              "name": "numberOfIndustries",
              "type": "uint256"
            },
            {
              "internalType": "string",
              "name": "attorneyName",
              "type": "string"
            },
            {
              "internalType": "string",
              "name": "attorneySurname",
              "type": "string"
            },
            {
              "internalType": "string",
              "name": "attorneyEmail",
              "type": "string"
            },
            {
              "internalType": "uint256",
              "name": "telephone",
              "type": "uint256"
            },
            {
              "internalType": "string",
              "name": "physicalAddress",
              "type": "string"
            }
          ],
          "internalType": "struct classes.City",
          "name": "",
          "type": "tuple"
        }
      ],
      "stateMutability": "view",
      "type": "function"
    },
    {
      "inputs": [
        {
          "internalType": "address",
          "name": "cityAddr",
          "type": "address"
        }
      ],
      "name": "getCityOfAState",
      "outputs": [
        {
          "components": [
            {
              "internalType": "string",
              "name": "name",
              "type": "string"
            },
            {
              "internalType": "uint256",
              "name": "population",
              "type": "uint256"
            },
            {
              "internalType": "uint256",
              "name": "numberOfIndustries",
              "type": "uint256"
            },
            {
              "internalType": "string",
              "name": "attorneyName",
              "type": "string"
            },
            {
              "internalType": "string",
              "name": "attorneySurname",
              "type": "string"
            },
            {
              "internalType": "string",
              "name": "attorneyEmail",
              "type": "string"
            },
            {
              "internalType": "uint256",
              "name": "telephone",
              "type": "uint256"
            },
            {
              "internalType": "string",
              "name": "physicalAddress",
              "type": "string"
            }
          ],
          "internalType": "struct classes.City",
          "name": "",
          "type": "tuple"
        }
      ],
      "stateMutability": "view",
      "type": "function"
    },
    {
      "inputs": [],
      "name": "getContractAddress",
      "outputs": [
        {
          "internalType": "address",
          "name": "",
          "type": "address"
        }
      ],
      "stateMutability": "view",
      "type": "function"
    },
    {
      "inputs": [
        {
          "internalType": "address",
          "name": "stateAddr",
          "type": "address"
        }
      ],
      "name": "getState",
      "outputs": [
        {
          "components": [
            {
              "internalType": "string",
              "name": "name",
              "type": "string"
            },
            {
              "internalType": "string",
              "name": "iso",
              "type": "string"
            },
            {
              "internalType": "uint256",
              "name": "numberOfCities",
              "type": "uint256"
            },
            {
              "internalType": "string",
              "name": "attorneyName",
              "type": "string"
            },
            {
              "internalType": "string",
              "name": "attorneySurname",
              "type": "string"
            },
            {
              "internalType": "string",
              "name": "attorneyEmail",
              "type": "string"
            },
            {
              "internalType": "uint256",
              "name": "telephone",
              "type": "uint256"
            },
            {
              "internalType": "string",
              "name": "physicalAddress",
              "type": "string"
            }
          ],
          "internalType": "struct classes.State",
          "name": "",
          "type": "tuple"
        }
      ],
      "stateMutability": "view",
      "type": "function"
    },
    {
      "inputs": [
        {
          "internalType": "contract IPollutionToken",
          "name": "ptContractAddress",
          "type": "address"
        }
      ],
      "name": "initialize",
      "outputs": [],
      "stateMutability": "nonpayable",
      "type": "function"
    }
  ],
  "numDeployments": 1,
  "solcInputHash": "2715368bcb01da5e9cbc80cf17b4e254",
  "bytecode": "0x60806040523480156200001157600080fd5b50620000226200002860201b60201c565b620001d2565b600060019054906101000a900460ff16156200007b576040517f08c379a0000000000000000000000000000000000000000000000000000000008152600401620000729062000175565b60405180910390fd5b60ff801660008054906101000a900460ff1660ff1614620000ec5760ff6000806101000a81548160ff021916908360ff1602179055507f7f26b83ff96e1f2b6a682f133852f6798a09c465da95921460cefb384740249860ff604051620000e39190620001b5565b60405180910390a15b565b600082825260208201905092915050565b7f496e697469616c697a61626c653a20636f6e747261637420697320696e69746960008201527f616c697a696e6700000000000000000000000000000000000000000000000000602082015250565b60006200015d602783620000ee565b91506200016a82620000ff565b604082019050919050565b6000602082019050818103600083015262000190816200014e565b9050919050565b600060ff82169050919050565b620001af8162000197565b82525050565b6000602082019050620001cc6000830184620001a4565b92915050565b612ff980620001e26000396000f3fe608060405234801561001057600080fd5b50600436106100cf5760003560e01c806352a3ca021161008c578063a376e4d811610066578063a376e4d814610222578063b8f2eac114610252578063c4d66de814610282578063fc64137a1461029e576100cf565b806352a3ca02146101ba5780635a9c0e8c146101ea578063a0e3720a14610206576100cf565b80631142bd4e146100d45780631bab58f5146100f05780631fef660914610120578063259ed8a11461015057806332a2c5d01461018057806338a2b9f91461019e575b600080fd5b6100ee60048036038101906100e991906122bc565b6102ce565b005b61010a60048036038101906101059190612443565b610545565b60405161011791906125d1565b60405180910390f35b61013a60048036038101906101359190612443565b61091f565b6040516101479190612602565b60405180910390f35b61016a60048036038101906101659190612443565b610979565b60405161017791906126e9565b60405180910390f35b610188610ccb565b604051610195919061271a565b60405180910390f35b6101b860048036038101906101b39190612443565b610cf5565b005b6101d460048036038101906101cf9190612443565b611015565b6040516101e191906126e9565b60405180910390f35b61020460048036038101906101ff9190612735565b611367565b005b610220600480360381019061021b9190612443565b61158f565b005b61023c60048036038101906102379190612443565b61183c565b6040516102499190612602565b60405180910390f35b61026c60048036038101906102679190612443565b611896565b6040516102799190612602565b60405180910390f35b61029c600480360381019061029791906128de565b6118f0565b005b6102b860048036038101906102b39190612443565b611b38565b6040516102c591906126e9565b60405180910390f35b600060029054906101000a900473ffffffffffffffffffffffffffffffffffffffff1673ffffffffffffffffffffffffffffffffffffffff163373ffffffffffffffffffffffffffffffffffffffff16148015610339575061032f88611896565b15806103385750805b5b610378576040517f08c379a000000000000000000000000000000000000000000000000000000000815260040161036f906129b4565b60405180910390fd5b6040518061010001604052808b81526020018a815260200188815260200187815260200186815260200185815260200184815260200183815250600260008a73ffffffffffffffffffffffffffffffffffffffff1673ffffffffffffffffffffffffffffffffffffffff16815260200190815260200160002060008201518160000190816104069190612be0565b50602082015181600101908161041c9190612be0565b5060408201518160020155606082015181600301908161043c9190612be0565b5060808201518160040190816104529190612be0565b5060a08201518160050190816104689190612be0565b5060c0820151816006015560e08201518160070190816104889190612be0565b509050508061053957600160009054906101000a900473ffffffffffffffffffffffffffffffffffffffff1673ffffffffffffffffffffffffffffffffffffffff1663ea64b234338a670de0b6b3a7640000620493e06104e89190612ce1565b6040518463ffffffff1660e01b815260040161050693929190612d32565b600060405180830381600087803b15801561052057600080fd5b505af1158015610534573d6000803e3d6000fd5b505050505b50505050505050505050565b61054d611faf565b600260008373ffffffffffffffffffffffffffffffffffffffff1673ffffffffffffffffffffffffffffffffffffffff168152602001908152602001600020604051806101000160405290816000820180546105a890612a03565b80601f01602080910402602001604051908101604052809291908181526020018280546105d490612a03565b80156106215780601f106105f657610100808354040283529160200191610621565b820191906000526020600020905b81548152906001019060200180831161060457829003601f168201915b5050505050815260200160018201805461063a90612a03565b80601f016020809104026020016040519081016040528092919081815260200182805461066690612a03565b80156106b35780601f10610688576101008083540402835291602001916106b3565b820191906000526020600020905b81548152906001019060200180831161069657829003601f168201915b50505050508152602001600282015481526020016003820180546106d690612a03565b80601f016020809104026020016040519081016040528092919081815260200182805461070290612a03565b801561074f5780601f106107245761010080835404028352916020019161074f565b820191906000526020600020905b81548152906001019060200180831161073257829003601f168201915b5050505050815260200160048201805461076890612a03565b80601f016020809104026020016040519081016040528092919081815260200182805461079490612a03565b80156107e15780601f106107b6576101008083540402835291602001916107e1565b820191906000526020600020905b8154815290600101906020018083116107c457829003601f168201915b505050505081526020016005820180546107fa90612a03565b80601f016020809104026020016040519081016040528092919081815260200182805461082690612a03565b80156108735780601f1061084857610100808354040283529160200191610873565b820191906000526020600020905b81548152906001019060200180831161085657829003601f168201915b505050505081526020016006820154815260200160078201805461089690612a03565b80601f01602080910402602001604051908101604052809291908181526020018280546108c290612a03565b801561090f5780601f106108e45761010080835404028352916020019161090f565b820191906000526020600020905b8154815290600101906020018083116108f257829003601f168201915b5050505050815250509050919050565b60008173ffffffffffffffffffffffffffffffffffffffff16600060029054906101000a900473ffffffffffffffffffffffffffffffffffffffff1673ffffffffffffffffffffffffffffffffffffffff16149050919050565b610981611ff4565b600360008373ffffffffffffffffffffffffffffffffffffffff1673ffffffffffffffffffffffffffffffffffffffff168152602001908152602001600020604051806101000160405290816000820180546109dc90612a03565b80601f0160208091040260200160405190810160405280929190818152602001828054610a0890612a03565b8015610a555780601f10610a2a57610100808354040283529160200191610a55565b820191906000526020600020905b815481529060010190602001808311610a3857829003601f168201915b505050505081526020016001820154815260200160028201548152602001600382018054610a8290612a03565b80601f0160208091040260200160405190810160405280929190818152602001828054610aae90612a03565b8015610afb5780601f10610ad057610100808354040283529160200191610afb565b820191906000526020600020905b815481529060010190602001808311610ade57829003601f168201915b50505050508152602001600482018054610b1490612a03565b80601f0160208091040260200160405190810160405280929190818152602001828054610b4090612a03565b8015610b8d5780601f10610b6257610100808354040283529160200191610b8d565b820191906000526020600020905b815481529060010190602001808311610b7057829003601f168201915b50505050508152602001600582018054610ba690612a03565b80601f0160208091040260200160405190810160405280929190818152602001828054610bd290612a03565b8015610c1f5780601f10610bf457610100808354040283529160200191610c1f565b820191906000526020600020905b815481529060010190602001808311610c0257829003601f168201915b5050505050815260200160068201548152602001600782018054610c4290612a03565b80601f0160208091040260200160405190810160405280929190818152602001828054610c6e90612a03565b8015610cbb5780601f10610c9057610100808354040283529160200191610cbb565b820191906000526020600020905b815481529060010190602001808311610c9e57829003601f168201915b5050505050815250509050919050565b6000600160009054906101000a900473ffffffffffffffffffffffffffffffffffffffff16905090565b803373ffffffffffffffffffffffffffffffffffffffff16600160009054906101000a900473ffffffffffffffffffffffffffffffffffffffff1673ffffffffffffffffffffffffffffffffffffffff16635e94ac05836040518263ffffffff1660e01b8152600401610d68919061271a565b602060405180830381865afa158015610d85573d6000803e3d6000fd5b505050506040513d601f19601f82011682018060405250810190610da99190612d7e565b73ffffffffffffffffffffffffffffffffffffffff1614610df6576040517ffba73c2600000000000000000000000000000000000000000000000000000000815260040160405180910390fd5b610dff8261183c565b15610fdf57600160009054906101000a900473ffffffffffffffffffffffffffffffffffffffff1673ffffffffffffffffffffffffffffffffffffffff1663dc5314f28333600160009054906101000a900473ffffffffffffffffffffffffffffffffffffffff1673ffffffffffffffffffffffffffffffffffffffff166370a08231876040518263ffffffff1660e01b8152600401610e9f919061271a565b602060405180830381865afa158015610ebc573d6000803e3d6000fd5b505050506040513d601f19601f82011682018060405250810190610ee09190612dc0565b6040518463ffffffff1660e01b8152600401610efe93929190612d32565b600060405180830381600087803b158015610f1857600080fd5b505af1158015610f2c573d6000803e3d6000fd5b50505050600360008373ffffffffffffffffffffffffffffffffffffffff1673ffffffffffffffffffffffffffffffffffffffff16815260200190815260200160002060008082016000610f809190612039565b60018201600090556002820160009055600382016000610fa09190612039565b600482016000610fb09190612039565b600582016000610fc09190612039565b6006820160009055600782016000610fd89190612039565b5050611011565b6040517ffba73c2600000000000000000000000000000000000000000000000000000000815260040160405180910390fd5b5050565b61101d611ff4565b600360008373ffffffffffffffffffffffffffffffffffffffff1673ffffffffffffffffffffffffffffffffffffffff1681526020019081526020016000206040518061010001604052908160008201805461107890612a03565b80601f01602080910402602001604051908101604052809291908181526020018280546110a490612a03565b80156110f15780601f106110c6576101008083540402835291602001916110f1565b820191906000526020600020905b8154815290600101906020018083116110d457829003601f168201915b50505050508152602001600182015481526020016002820154815260200160038201805461111e90612a03565b80601f016020809104026020016040519081016040528092919081815260200182805461114a90612a03565b80156111975780601f1061116c57610100808354040283529160200191611197565b820191906000526020600020905b81548152906001019060200180831161117a57829003601f168201915b505050505081526020016004820180546111b090612a03565b80601f01602080910402602001604051908101604052809291908181526020018280546111dc90612a03565b80156112295780601f106111fe57610100808354040283529160200191611229565b820191906000526020600020905b81548152906001019060200180831161120c57829003601f168201915b5050505050815260200160058201805461124290612a03565b80601f016020809104026020016040519081016040528092919081815260200182805461126e90612a03565b80156112bb5780601f10611290576101008083540402835291602001916112bb565b820191906000526020600020905b81548152906001019060200180831161129e57829003601f168201915b50505050508152602001600682015481526020016007820180546112de90612a03565b80601f016020809104026020016040519081016040528092919081815260200182805461130a90612a03565b80156113575780601f1061132c57610100808354040283529160200191611357565b820191906000526020600020905b81548152906001019060200180831161133a57829003601f168201915b5050505050815250509050919050565b61137033611896565b801561138a57506113808761183c565b15806113895750805b5b6113c9576040517f08c379a00000000000000000000000000000000000000000000000000000000081526004016113c090612e85565b60405180910390fd5b6040518061010001604052808b81526020018a815260200189815260200187815260200186815260200185815260200184815260200183815250600360008973ffffffffffffffffffffffffffffffffffffffff1673ffffffffffffffffffffffffffffffffffffffff16815260200190815260200160002060008201518160000190816114579190612be0565b50602082015181600101556040820151816002015560608201518160030190816114819190612be0565b5060808201518160040190816114979190612be0565b5060a08201518160050190816114ad9190612be0565b5060c0820151816006015560e08201518160070190816114cd9190612be0565b5090505080611583576000670de0b6b3a76400006127106114ee9190612ce1565b9050600160009054906101000a900473ffffffffffffffffffffffffffffffffffffffff1673ffffffffffffffffffffffffffffffffffffffff1663ea64b234338a846040518463ffffffff1660e01b815260040161154f93929190612d32565b600060405180830381600087803b15801561156957600080fd5b505af115801561157d573d6000803e3d6000fd5b50505050505b50505050505050505050565b600060029054906101000a900473ffffffffffffffffffffffffffffffffffffffff1673ffffffffffffffffffffffffffffffffffffffff163373ffffffffffffffffffffffffffffffffffffffff1614611616576040517ffc7b657100000000000000000000000000000000000000000000000000000000815260040160405180910390fd5b61161f81611896565b1561180757600160009054906101000a900473ffffffffffffffffffffffffffffffffffffffff1673ffffffffffffffffffffffffffffffffffffffff1663dc5314f28233600160009054906101000a900473ffffffffffffffffffffffffffffffffffffffff1673ffffffffffffffffffffffffffffffffffffffff166370a08231866040518263ffffffff1660e01b81526004016116bf919061271a565b602060405180830381865afa1580156116dc573d6000803e3d6000fd5b505050506040513d601f19601f820116820180604052508101906117009190612dc0565b6040518463ffffffff1660e01b815260040161171e93929190612d32565b600060405180830381600087803b15801561173857600080fd5b505af115801561174c573d6000803e3d6000fd5b50505050600260008273ffffffffffffffffffffffffffffffffffffffff1673ffffffffffffffffffffffffffffffffffffffff168152602001908152602001600020600080820160006117a09190612039565b6001820160006117b09190612039565b60028201600090556003820160006117c89190612039565b6004820160006117d89190612039565b6005820160006117e89190612039565b60068201600090556007820160006118009190612039565b5050611839565b6040517f70f1a5c200000000000000000000000000000000000000000000000000000000815260040160405180910390fd5b50565b600080600360008473ffffffffffffffffffffffffffffffffffffffff1673ffffffffffffffffffffffffffffffffffffffff168152602001908152602001600020600001805461188c90612a03565b9050119050919050565b600080600260008473ffffffffffffffffffffffffffffffffffffffff1673ffffffffffffffffffffffffffffffffffffffff16815260200190815260200160002060000180546118e690612a03565b9050119050919050565b60008060019054906101000a900460ff161590508080156119215750600160008054906101000a900460ff1660ff16105b8061194e575061193030611f8c565b15801561194d5750600160008054906101000a900460ff1660ff16145b5b61198d576040517f08c379a000000000000000000000000000000000000000000000000000000000815260040161198490612f17565b60405180910390fd5b60016000806101000a81548160ff021916908360ff16021790555080156119ca576001600060016101000a81548160ff0219169083151502179055505b33600060026101000a81548173ffffffffffffffffffffffffffffffffffffffff021916908373ffffffffffffffffffffffffffffffffffffffff16021790555081600160006101000a81548173ffffffffffffffffffffffffffffffffffffffff021916908373ffffffffffffffffffffffffffffffffffffffff160217905550600160009054906101000a900473ffffffffffffffffffffffffffffffffffffffff1673ffffffffffffffffffffffffffffffffffffffff1663c697a7c830336040518363ffffffff1660e01b8152600401611aa9929190612f37565b600060405180830381600087803b158015611ac357600080fd5b505af1158015611ad7573d6000803e3d6000fd5b505050508015611b345760008060016101000a81548160ff0219169083151502179055507f7f26b83ff96e1f2b6a682f133852f6798a09c465da95921460cefb38474024986001604051611b2b9190612fa8565b60405180910390a15b5050565b611b40611ff4565b813373ffffffffffffffffffffffffffffffffffffffff16600160009054906101000a900473ffffffffffffffffffffffffffffffffffffffff1673ffffffffffffffffffffffffffffffffffffffff16635e94ac05836040518263ffffffff1660e01b8152600401611bb3919061271a565b602060405180830381865afa158015611bd0573d6000803e3d6000fd5b505050506040513d601f19601f82011682018060405250810190611bf49190612d7e565b73ffffffffffffffffffffffffffffffffffffffff1614611c41576040517ffba73c2600000000000000000000000000000000000000000000000000000000815260040160405180910390fd5b600360008473ffffffffffffffffffffffffffffffffffffffff1673ffffffffffffffffffffffffffffffffffffffff16815260200190815260200160002060405180610100016040529081600082018054611c9c90612a03565b80601f0160208091040260200160405190810160405280929190818152602001828054611cc890612a03565b8015611d155780601f10611cea57610100808354040283529160200191611d15565b820191906000526020600020905b815481529060010190602001808311611cf857829003601f168201915b505050505081526020016001820154815260200160028201548152602001600382018054611d4290612a03565b80601f0160208091040260200160405190810160405280929190818152602001828054611d6e90612a03565b8015611dbb5780601f10611d9057610100808354040283529160200191611dbb565b820191906000526020600020905b815481529060010190602001808311611d9e57829003601f168201915b50505050508152602001600482018054611dd490612a03565b80601f0160208091040260200160405190810160405280929190818152602001828054611e0090612a03565b8015611e4d5780601f10611e2257610100808354040283529160200191611e4d565b820191906000526020600020905b815481529060010190602001808311611e3057829003601f168201915b50505050508152602001600582018054611e6690612a03565b80601f0160208091040260200160405190810160405280929190818152602001828054611e9290612a03565b8015611edf5780601f10611eb457610100808354040283529160200191611edf565b820191906000526020600020905b815481529060010190602001808311611ec257829003601f168201915b5050505050815260200160068201548152602001600782018054611f0290612a03565b80601f0160208091040260200160405190810160405280929190818152602001828054611f2e90612a03565b8015611f7b5780601f10611f5057610100808354040283529160200191611f7b565b820191906000526020600020905b815481529060010190602001808311611f5e57829003601f168201915b505050505081525050915050919050565b6000808273ffffffffffffffffffffffffffffffffffffffff163b119050919050565b60405180610100016040528060608152602001606081526020016000815260200160608152602001606081526020016060815260200160008152602001606081525090565b60405180610100016040528060608152602001600081526020016000815260200160608152602001606081526020016060815260200160008152602001606081525090565b50805461204590612a03565b6000825580601f106120575750612076565b601f0160209004906000526020600020908101906120759190612079565b5b50565b5b8082111561209257600081600090555060010161207a565b5090565b6000604051905090565b600080fd5b600080fd5b600080fd5b600080fd5b6000601f19601f8301169050919050565b7f4e487b7100000000000000000000000000000000000000000000000000000000600052604160045260246000fd5b6120fd826120b4565b810181811067ffffffffffffffff8211171561211c5761211b6120c5565b5b80604052505050565b600061212f612096565b905061213b82826120f4565b919050565b600067ffffffffffffffff82111561215b5761215a6120c5565b5b612164826120b4565b9050602081019050919050565b82818337600083830152505050565b600061219361218e84612140565b612125565b9050828152602081018484840111156121af576121ae6120af565b5b6121ba848285612171565b509392505050565b600082601f8301126121d7576121d66120aa565b5b81356121e7848260208601612180565b91505092915050565b600073ffffffffffffffffffffffffffffffffffffffff82169050919050565b600061221b826121f0565b9050919050565b61222b81612210565b811461223657600080fd5b50565b60008135905061224881612222565b92915050565b6000819050919050565b6122618161224e565b811461226c57600080fd5b50565b60008135905061227e81612258565b92915050565b60008115159050919050565b61229981612284565b81146122a457600080fd5b50565b6000813590506122b681612290565b92915050565b6000806000806000806000806000806101408b8d0312156122e0576122df6120a0565b5b60008b013567ffffffffffffffff8111156122fe576122fd6120a5565b5b61230a8d828e016121c2565b9a505060208b013567ffffffffffffffff81111561232b5761232a6120a5565b5b6123378d828e016121c2565b99505060406123488d828e01612239565b98505060606123598d828e0161226f565b97505060808b013567ffffffffffffffff81111561237a576123796120a5565b5b6123868d828e016121c2565b96505060a08b013567ffffffffffffffff8111156123a7576123a66120a5565b5b6123b38d828e016121c2565b95505060c08b013567ffffffffffffffff8111156123d4576123d36120a5565b5b6123e08d828e016121c2565b94505060e06123f18d828e0161226f565b9350506101008b013567ffffffffffffffff811115612413576124126120a5565b5b61241f8d828e016121c2565b9250506101206124318d828e016122a7565b9150509295989b9194979a5092959850565b600060208284031215612459576124586120a0565b5b600061246784828501612239565b91505092915050565b600081519050919050565b600082825260208201905092915050565b60005b838110156124aa57808201518184015260208101905061248f565b60008484015250505050565b60006124c182612470565b6124cb818561247b565b93506124db81856020860161248c565b6124e4816120b4565b840191505092915050565b6124f88161224e565b82525050565b600061010083016000830151848203600086015261251c82826124b6565b9150506020830151848203602086015261253682826124b6565b915050604083015161254b60408601826124ef565b506060830151848203606086015261256382826124b6565b9150506080830151848203608086015261257d82826124b6565b91505060a083015184820360a086015261259782826124b6565b91505060c08301516125ac60c08601826124ef565b5060e083015184820360e08601526125c482826124b6565b9150508091505092915050565b600060208201905081810360008301526125eb81846124fe565b905092915050565b6125fc81612284565b82525050565b600060208201905061261760008301846125f3565b92915050565b600061010083016000830151848203600086015261263b82826124b6565b915050602083015161265060208601826124ef565b50604083015161266360408601826124ef565b506060830151848203606086015261267b82826124b6565b9150506080830151848203608086015261269582826124b6565b91505060a083015184820360a08601526126af82826124b6565b91505060c08301516126c460c08601826124ef565b5060e083015184820360e08601526126dc82826124b6565b9150508091505092915050565b60006020820190508181036000830152612703818461261d565b905092915050565b61271481612210565b82525050565b600060208201905061272f600083018461270b565b92915050565b6000806000806000806000806000806101408b8d031215612759576127586120a0565b5b60008b013567ffffffffffffffff811115612777576127766120a5565b5b6127838d828e016121c2565b9a505060206127948d828e0161226f565b99505060406127a58d828e0161226f565b98505060606127b68d828e01612239565b97505060808b013567ffffffffffffffff8111156127d7576127d66120a5565b5b6127e38d828e016121c2565b96505060a08b013567ffffffffffffffff811115612804576128036120a5565b5b6128108d828e016121c2565b95505060c08b013567ffffffffffffffff811115612831576128306120a5565b5b61283d8d828e016121c2565b94505060e061284e8d828e0161226f565b9350506101008b013567ffffffffffffffff8111156128705761286f6120a5565b5b61287c8d828e016121c2565b92505061012061288e8d828e016122a7565b9150509295989b9194979a5092959850565b60006128ab82612210565b9050919050565b6128bb816128a0565b81146128c657600080fd5b50565b6000813590506128d8816128b2565b92915050565b6000602082840312156128f4576128f36120a0565b5b6000612902848285016128c9565b91505092915050565b600082825260208201905092915050565b7f4572726f72207768696c6520616464696e672061206e65772073746174652e2060008201527f4d6179626520796f7520617265206e6f7420746865206f776e6572206f72207460208201527f686520737461746520616c726561647920657869737400000000000000000000604082015250565b600061299e60568361290b565b91506129a98261291c565b606082019050919050565b600060208201905081810360008301526129cd81612991565b9050919050565b7f4e487b7100000000000000000000000000000000000000000000000000000000600052602260045260246000fd5b60006002820490506001821680612a1b57607f821691505b602082108103612a2e57612a2d6129d4565b5b50919050565b60008190508160005260206000209050919050565b60006020601f8301049050919050565b600082821b905092915050565b600060088302612a967fffffffffffffffffffffffffffffffffffffffffffffffffffffffffffffffff82612a59565b612aa08683612a59565b95508019841693508086168417925050509392505050565b6000819050919050565b6000612add612ad8612ad38461224e565b612ab8565b61224e565b9050919050565b6000819050919050565b612af783612ac2565b612b0b612b0382612ae4565b848454612a66565b825550505050565b600090565b612b20612b13565b612b2b818484612aee565b505050565b5b81811015612b4f57612b44600082612b18565b600181019050612b31565b5050565b601f821115612b9457612b6581612a34565b612b6e84612a49565b81016020851015612b7d578190505b612b91612b8985612a49565b830182612b30565b50505b505050565b600082821c905092915050565b6000612bb760001984600802612b99565b1980831691505092915050565b6000612bd08383612ba6565b9150826002028217905092915050565b612be982612470565b67ffffffffffffffff811115612c0257612c016120c5565b5b612c0c8254612a03565b612c17828285612b53565b600060209050601f831160018114612c4a5760008415612c38578287015190505b612c428582612bc4565b865550612caa565b601f198416612c5886612a34565b60005b82811015612c8057848901518255600182019150602085019450602081019050612c5b565b86831015612c9d5784890151612c99601f891682612ba6565b8355505b6001600288020188555050505b505050505050565b7f4e487b7100000000000000000000000000000000000000000000000000000000600052601160045260246000fd5b6000612cec8261224e565b9150612cf78361224e565b9250828202612d058161224e565b91508282048414831517612d1c57612d1b612cb2565b5b5092915050565b612d2c8161224e565b82525050565b6000606082019050612d47600083018661270b565b612d54602083018561270b565b612d616040830184612d23565b949350505050565b600081519050612d7881612222565b92915050565b600060208284031215612d9457612d936120a0565b5b6000612da284828501612d69565b91505092915050565b600081519050612dba81612258565b92915050565b600060208284031215612dd657612dd56120a0565b5b6000612de484828501612dab565b91505092915050565b7f4572726f72207768696c6520616464696e672061206e657720636974792e204d60008201527f6179626520796f7520617265206e6f742061207374617465206f72207468652060208201527f6369747920616c72656164792065786973740000000000000000000000000000604082015250565b6000612e6f60528361290b565b9150612e7a82612ded565b606082019050919050565b60006020820190508181036000830152612e9e81612e62565b9050919050565b7f496e697469616c697a61626c653a20636f6e747261637420697320616c72656160008201527f647920696e697469616c697a6564000000000000000000000000000000000000602082015250565b6000612f01602e8361290b565b9150612f0c82612ea5565b604082019050919050565b60006020820190508181036000830152612f3081612ef4565b9050919050565b6000604082019050612f4c600083018561270b565b612f59602083018461270b565b9392505050565b6000819050919050565b600060ff82169050919050565b6000612f92612f8d612f8884612f60565b612ab8565b612f6a565b9050919050565b612fa281612f77565b82525050565b6000602082019050612fbd6000830184612f99565b9291505056fea2646970667358221220c1e0f1b013020f3bdccaa27d7f1cff40e8538afeb551f112bcbc0ac49ae8b59664736f6c63430008150033",
  "devdoc": {
    "author": "Giuseppe La Vecchia",
    "custom:experimental": "This is an experimental contract.",
    "events": {
      "Initialized(uint8)": {
        "details": "Triggered when the contract has been initialized or reinitialized."
      }
    },
    "kind": "dev",
    "methods": {
      "addCity(string,uint256,uint256,address,string,string,string,uint256,string,bool)": {
        "params": {
          "isModify": "if true, it means that the caller of this function want to change something in a City. Otherwise it is an addition operation."
        }
      },
      "addState(string,string,address,uint256,string,string,string,uint256,string,bool)": {
        "params": {
          "isModify": "if true, it means that the caller of this function want to change something in a State. Otherwise it is an addition operation."
        }
      },
      "constructor": {
        "custom:oz-upgrades-unsafe-allow": "constructor"
      },
      "getCityOfAState(address)": {
        "params": {
          "cityAddr": "address of that city that you want to return"
        }
      },
      "initialize(address)": {
        "params": {
          "ptContractAddress": "the contract address of the PollutionToken contract, used by this contract."
        }
      }
    },
    "title": "A contract to be used by Admin(deployer) and States",
    "version": 1
  },
  "userdoc": {
    "kind": "user",
    "methods": {
      "addCity(string,uint256,uint256,address,string,string,string,uint256,string,bool)": {
        "notice": "Add a new city instanceAllows a State to add a new city giving an initial amount of PollutionTokens.It can also be used for editing purpose of the City's parameters."
      },
      "addState(string,string,address,uint256,string,string,string,uint256,string,bool)": {
        "notice": "Add a new state instanceAllows an Admin to add a new state giving an initial amount of PollutionTokens.It can also be used for editing purpose of the State's parameters."
      },
      "getCityOfAState(address)": {
        "notice": "This will return the city belonging to a specific state that call this method"
      },
      "initialize(address)": {
        "notice": "Initialize function for the proxy upgradable pattern by OpenZeppelinInitialize variables. The address of this contract is passed to the storeContractAddress function of the ptContract, allowing this contract to call its functions"
      }
    },
    "notice": "Used for CRUD operations by States and Admin",
    "version": 1
  },
  "storageLayout": {
    "storage": [
      {
        "astId": 6,
        "contract": "contracts/DSESCenter.sol:DSESCenter",
        "label": "_initialized",
        "offset": 0,
        "slot": "0",
        "type": "t_uint8"
      },
      {
        "astId": 9,
        "contract": "contracts/DSESCenter.sol:DSESCenter",
        "label": "_initializing",
        "offset": 1,
        "slot": "0",
        "type": "t_bool"
      },
      {
        "astId": 1057,
        "contract": "contracts/DSESCenter.sol:DSESCenter",
        "label": "admin",
        "offset": 2,
        "slot": "0",
        "type": "t_address"
      },
      {
        "astId": 1060,
        "contract": "contracts/DSESCenter.sol:DSESCenter",
        "label": "pt",
        "offset": 0,
        "slot": "1",
        "type": "t_contract(IPollutionToken)2274"
      },
      {
        "astId": 1070,
        "contract": "contracts/DSESCenter.sol:DSESCenter",
        "label": "states",
        "offset": 0,
        "slot": "2",
        "type": "t_mapping(t_address,t_struct(State)1012_storage)"
      },
      {
        "astId": 1075,
        "contract": "contracts/DSESCenter.sol:DSESCenter",
        "label": "cities",
        "offset": 0,
        "slot": "3",
        "type": "t_mapping(t_address,t_struct(City)1029_storage)"
      }
    ],
    "types": {
      "t_address": {
        "encoding": "inplace",
        "label": "address",
        "numberOfBytes": "20"
      },
      "t_bool": {
        "encoding": "inplace",
        "label": "bool",
        "numberOfBytes": "1"
      },
      "t_contract(IPollutionToken)2274": {
        "encoding": "inplace",
        "label": "contract IPollutionToken",
        "numberOfBytes": "20"
      },
      "t_mapping(t_address,t_struct(City)1029_storage)": {
        "encoding": "mapping",
        "key": "t_address",
        "label": "mapping(address => struct classes.City)",
        "numberOfBytes": "32",
        "value": "t_struct(City)1029_storage"
      },
      "t_mapping(t_address,t_struct(State)1012_storage)": {
        "encoding": "mapping",
        "key": "t_address",
        "label": "mapping(address => struct classes.State)",
        "numberOfBytes": "32",
        "value": "t_struct(State)1012_storage"
      },
      "t_string_storage": {
        "encoding": "bytes",
        "label": "string",
        "numberOfBytes": "32"
      },
      "t_struct(City)1029_storage": {
        "encoding": "inplace",
        "label": "struct classes.City",
        "members": [
          {
            "astId": 1014,
            "contract": "contracts/DSESCenter.sol:DSESCenter",
            "label": "name",
            "offset": 0,
            "slot": "0",
            "type": "t_string_storage"
          },
          {
            "astId": 1016,
            "contract": "contracts/DSESCenter.sol:DSESCenter",
            "label": "population",
            "offset": 0,
            "slot": "1",
            "type": "t_uint256"
          },
          {
            "astId": 1018,
            "contract": "contracts/DSESCenter.sol:DSESCenter",
            "label": "numberOfIndustries",
            "offset": 0,
            "slot": "2",
            "type": "t_uint256"
          },
          {
            "astId": 1020,
            "contract": "contracts/DSESCenter.sol:DSESCenter",
            "label": "attorneyName",
            "offset": 0,
            "slot": "3",
            "type": "t_string_storage"
          },
          {
            "astId": 1022,
            "contract": "contracts/DSESCenter.sol:DSESCenter",
            "label": "attorneySurname",
            "offset": 0,
            "slot": "4",
            "type": "t_string_storage"
          },
          {
            "astId": 1024,
            "contract": "contracts/DSESCenter.sol:DSESCenter",
            "label": "attorneyEmail",
            "offset": 0,
            "slot": "5",
            "type": "t_string_storage"
          },
          {
            "astId": 1026,
            "contract": "contracts/DSESCenter.sol:DSESCenter",
            "label": "telephone",
            "offset": 0,
            "slot": "6",
            "type": "t_uint256"
          },
          {
            "astId": 1028,
            "contract": "contracts/DSESCenter.sol:DSESCenter",
            "label": "physicalAddress",
            "offset": 0,
            "slot": "7",
            "type": "t_string_storage"
          }
        ],
        "numberOfBytes": "256"
      },
      "t_struct(State)1012_storage": {
        "encoding": "inplace",
        "label": "struct classes.State",
        "members": [
          {
            "astId": 997,
            "contract": "contracts/DSESCenter.sol:DSESCenter",
            "label": "name",
            "offset": 0,
            "slot": "0",
            "type": "t_string_storage"
          },
          {
            "astId": 999,
            "contract": "contracts/DSESCenter.sol:DSESCenter",
            "label": "iso",
            "offset": 0,
            "slot": "1",
            "type": "t_string_storage"
          },
          {
            "astId": 1001,
            "contract": "contracts/DSESCenter.sol:DSESCenter",
            "label": "numberOfCities",
            "offset": 0,
            "slot": "2",
            "type": "t_uint256"
          },
          {
            "astId": 1003,
            "contract": "contracts/DSESCenter.sol:DSESCenter",
            "label": "attorneyName",
            "offset": 0,
            "slot": "3",
            "type": "t_string_storage"
          },
          {
            "astId": 1005,
            "contract": "contracts/DSESCenter.sol:DSESCenter",
            "label": "attorneySurname",
            "offset": 0,
            "slot": "4",
            "type": "t_string_storage"
          },
          {
            "astId": 1007,
            "contract": "contracts/DSESCenter.sol:DSESCenter",
            "label": "attorneyEmail",
            "offset": 0,
            "slot": "5",
            "type": "t_string_storage"
          },
          {
            "astId": 1009,
            "contract": "contracts/DSESCenter.sol:DSESCenter",
            "label": "telephone",
            "offset": 0,
            "slot": "6",
            "type": "t_uint256"
          },
          {
            "astId": 1011,
            "contract": "contracts/DSESCenter.sol:DSESCenter",
            "label": "physicalAddress",
            "offset": 0,
            "slot": "7",
            "type": "t_string_storage"
          }
        ],
        "numberOfBytes": "256"
      },
      "t_uint256": {
        "encoding": "inplace",
        "label": "uint256",
        "numberOfBytes": "32"
      },
      "t_uint8": {
        "encoding": "inplace",
        "label": "uint8",
        "numberOfBytes": "1"
      }
    }
  }
}