{
  "address": "0x5FbDB2315678afecb367f032d93F642f64180aa3",
  "abi": [
    {
      "inputs": [
        {
          "internalType": "string[2]",
          "name": "industrySvg",
          "type": "string[2]"
        },
        {
          "internalType": "string[2]",
          "name": "citizenSvg",
          "type": "string[2]"
        }
      ],
      "stateMutability": "nonpayable",
      "type": "constructor"
    },
    {
      "inputs": [],
      "name": "ERC721EnumerableForbiddenBatchMint",
      "type": "error"
    },
    {
      "inputs": [
        {
          "internalType": "address",
          "name": "sender",
          "type": "address"
        },
        {
          "internalType": "uint256",
          "name": "tokenId",
          "type": "uint256"
        },
        {
          "internalType": "address",
          "name": "owner",
          "type": "address"
        }
      ],
      "name": "ERC721IncorrectOwner",
      "type": "error"
    },
    {
      "inputs": [
        {
          "internalType": "address",
          "name": "operator",
          "type": "address"
        },
        {
          "internalType": "uint256",
          "name": "tokenId",
          "type": "uint256"
        }
      ],
      "name": "ERC721InsufficientApproval",
      "type": "error"
    },
    {
      "inputs": [
        {
          "internalType": "address",
          "name": "approver",
          "type": "address"
        }
      ],
      "name": "ERC721InvalidApprover",
      "type": "error"
    },
    {
      "inputs": [
        {
          "internalType": "address",
          "name": "operator",
          "type": "address"
        }
      ],
      "name": "ERC721InvalidOperator",
      "type": "error"
    },
    {
      "inputs": [
        {
          "internalType": "address",
          "name": "owner",
          "type": "address"
        }
      ],
      "name": "ERC721InvalidOwner",
      "type": "error"
    },
    {
      "inputs": [
        {
          "internalType": "address",
          "name": "receiver",
          "type": "address"
        }
      ],
      "name": "ERC721InvalidReceiver",
      "type": "error"
    },
    {
      "inputs": [
        {
          "internalType": "address",
          "name": "sender",
          "type": "address"
        }
      ],
      "name": "ERC721InvalidSender",
      "type": "error"
    },
    {
      "inputs": [],
      "name": "ERC721Metadata__URI_QueryFor_NonExistentToken",
      "type": "error"
    },
    {
      "inputs": [
        {
          "internalType": "uint256",
          "name": "tokenId",
          "type": "uint256"
        }
      ],
      "name": "ERC721NonexistentToken",
      "type": "error"
    },
    {
      "inputs": [
        {
          "internalType": "address",
          "name": "owner",
          "type": "address"
        },
        {
          "internalType": "uint256",
          "name": "index",
          "type": "uint256"
        }
      ],
      "name": "ERC721OutOfBoundsIndex",
      "type": "error"
    },
    {
      "inputs": [],
      "name": "PollutionNft__No_Owned_Tokens",
      "type": "error"
    },
    {
      "inputs": [],
      "name": "PollutionNft__Only_Admin_Allowed",
      "type": "error"
    },
    {
      "inputs": [
        {
          "internalType": "uint256",
          "name": "value",
          "type": "uint256"
        },
        {
          "internalType": "uint256",
          "name": "length",
          "type": "uint256"
        }
      ],
      "name": "StringsInsufficientHexLength",
      "type": "error"
    },
    {
      "anonymous": false,
      "inputs": [
        {
          "indexed": true,
          "internalType": "address",
          "name": "owner",
          "type": "address"
        },
        {
          "indexed": true,
          "internalType": "address",
          "name": "approved",
          "type": "address"
        },
        {
          "indexed": true,
          "internalType": "uint256",
          "name": "tokenId",
          "type": "uint256"
        }
      ],
      "name": "Approval",
      "type": "event"
    },
    {
      "anonymous": false,
      "inputs": [
        {
          "indexed": true,
          "internalType": "address",
          "name": "owner",
          "type": "address"
        },
        {
          "indexed": true,
          "internalType": "address",
          "name": "operator",
          "type": "address"
        },
        {
          "indexed": false,
          "internalType": "bool",
          "name": "approved",
          "type": "bool"
        }
      ],
      "name": "ApprovalForAll",
      "type": "event"
    },
    {
      "anonymous": false,
      "inputs": [
        {
          "indexed": true,
          "internalType": "uint256",
          "name": "tokenId",
          "type": "uint256"
        },
        {
          "indexed": false,
          "internalType": "string",
          "name": "typeOfNft",
          "type": "string"
        },
        {
          "indexed": false,
          "internalType": "uint256",
          "name": "level",
          "type": "uint256"
        }
      ],
      "name": "CreatedNFT",
      "type": "event"
    },
    {
      "anonymous": false,
      "inputs": [
        {
          "indexed": true,
          "internalType": "address",
          "name": "from",
          "type": "address"
        },
        {
          "indexed": true,
          "internalType": "address",
          "name": "to",
          "type": "address"
        },
        {
          "indexed": true,
          "internalType": "uint256",
          "name": "tokenId",
          "type": "uint256"
        }
      ],
      "name": "Transfer",
      "type": "event"
    },
    {
      "inputs": [
        {
          "internalType": "address",
          "name": "to",
          "type": "address"
        },
        {
          "internalType": "uint256",
          "name": "tokenId",
          "type": "uint256"
        }
      ],
      "name": "approve",
      "outputs": [],
      "stateMutability": "nonpayable",
      "type": "function"
    },
    {
      "inputs": [
        {
          "internalType": "address",
          "name": "owner",
          "type": "address"
        }
      ],
      "name": "balanceOf",
      "outputs": [
        {
          "internalType": "uint256",
          "name": "",
          "type": "uint256"
        }
      ],
      "stateMutability": "view",
      "type": "function"
    },
    {
      "inputs": [
        {
          "internalType": "uint256",
          "name": "tokenId",
          "type": "uint256"
        }
      ],
      "name": "getApproved",
      "outputs": [
        {
          "internalType": "address",
          "name": "",
          "type": "address"
        }
      ],
      "stateMutability": "view",
      "type": "function"
    },
    {
      "inputs": [
        {
          "internalType": "uint256",
          "name": "i",
          "type": "uint256"
        }
      ],
      "name": "getCitizenSvg",
      "outputs": [
        {
          "internalType": "string",
          "name": "",
          "type": "string"
        }
      ],
      "stateMutability": "view",
      "type": "function"
    },
    {
      "inputs": [
        {
          "internalType": "uint256",
          "name": "i",
          "type": "uint256"
        }
      ],
      "name": "getIndustrySvg",
      "outputs": [
        {
          "internalType": "string",
          "name": "",
          "type": "string"
        }
      ],
      "stateMutability": "view",
      "type": "function"
    },
    {
      "inputs": [],
      "name": "getTokenCounter",
      "outputs": [
        {
          "internalType": "uint256",
          "name": "",
          "type": "uint256"
        }
      ],
      "stateMutability": "view",
      "type": "function"
    },
    {
      "inputs": [
        {
          "internalType": "address",
          "name": "owner",
          "type": "address"
        },
        {
          "internalType": "address",
          "name": "operator",
          "type": "address"
        }
      ],
      "name": "isApprovedForAll",
      "outputs": [
        {
          "internalType": "bool",
          "name": "",
          "type": "bool"
        }
      ],
      "stateMutability": "view",
      "type": "function"
    },
    {
      "inputs": [
        {
          "internalType": "address",
          "name": "to",
          "type": "address"
        },
        {
          "internalType": "uint256",
          "name": "level",
          "type": "uint256"
        }
      ],
      "name": "mintNftCitizen",
      "outputs": [],
      "stateMutability": "nonpayable",
      "type": "function"
    },
    {
      "inputs": [
        {
          "internalType": "address",
          "name": "to",
          "type": "address"
        },
        {
          "internalType": "uint256",
          "name": "level",
          "type": "uint256"
        }
      ],
      "name": "mintNftIndustry",
      "outputs": [],
      "stateMutability": "nonpayable",
      "type": "function"
    },
    {
      "inputs": [],
      "name": "name",
      "outputs": [
        {
          "internalType": "string",
          "name": "",
          "type": "string"
        }
      ],
      "stateMutability": "view",
      "type": "function"
    },
    {
      "inputs": [
        {
          "internalType": "uint256",
          "name": "tokenId",
          "type": "uint256"
        }
      ],
      "name": "ownerOf",
      "outputs": [
        {
          "internalType": "address",
          "name": "",
          "type": "address"
        }
      ],
      "stateMutability": "view",
      "type": "function"
    },
    {
      "inputs": [
        {
          "internalType": "address",
          "name": "from",
          "type": "address"
        },
        {
          "internalType": "address",
          "name": "to",
          "type": "address"
        },
        {
          "internalType": "uint256",
          "name": "tokenId",
          "type": "uint256"
        }
      ],
      "name": "safeTransferFrom",
      "outputs": [],
      "stateMutability": "nonpayable",
      "type": "function"
    },
    {
      "inputs": [
        {
          "internalType": "address",
          "name": "from",
          "type": "address"
        },
        {
          "internalType": "address",
          "name": "to",
          "type": "address"
        },
        {
          "internalType": "uint256",
          "name": "tokenId",
          "type": "uint256"
        },
        {
          "internalType": "bytes",
          "name": "data",
          "type": "bytes"
        }
      ],
      "name": "safeTransferFrom",
      "outputs": [],
      "stateMutability": "nonpayable",
      "type": "function"
    },
    {
      "inputs": [
        {
          "internalType": "address",
          "name": "operator",
          "type": "address"
        },
        {
          "internalType": "bool",
          "name": "approved",
          "type": "bool"
        }
      ],
      "name": "setApprovalForAll",
      "outputs": [],
      "stateMutability": "nonpayable",
      "type": "function"
    },
    {
      "inputs": [
        {
          "internalType": "address",
          "name": "contractAddr",
          "type": "address"
        },
        {
          "internalType": "address",
          "name": "sender",
          "type": "address"
        }
      ],
      "name": "storeContractAddress",
      "outputs": [],
      "stateMutability": "nonpayable",
      "type": "function"
    },
    {
      "inputs": [
        {
          "internalType": "bytes4",
          "name": "interfaceId",
          "type": "bytes4"
        }
      ],
      "name": "supportsInterface",
      "outputs": [
        {
          "internalType": "bool",
          "name": "",
          "type": "bool"
        }
      ],
      "stateMutability": "view",
      "type": "function"
    },
    {
      "inputs": [
        {
          "internalType": "string",
          "name": "svg",
          "type": "string"
        },
        {
          "internalType": "address",
          "name": "to",
          "type": "address"
        }
      ],
      "name": "svgToImageURI",
      "outputs": [
        {
          "internalType": "string",
          "name": "",
          "type": "string"
        }
      ],
      "stateMutability": "pure",
      "type": "function"
    },
    {
      "inputs": [],
      "name": "symbol",
      "outputs": [
        {
          "internalType": "string",
          "name": "",
          "type": "string"
        }
      ],
      "stateMutability": "view",
      "type": "function"
    },
    {
      "inputs": [
        {
          "internalType": "uint256",
          "name": "index",
          "type": "uint256"
        }
      ],
      "name": "tokenByIndex",
      "outputs": [
        {
          "internalType": "uint256",
          "name": "",
          "type": "uint256"
        }
      ],
      "stateMutability": "view",
      "type": "function"
    },
    {
      "inputs": [
        {
          "internalType": "address",
          "name": "owner",
          "type": "address"
        },
        {
          "internalType": "uint256",
          "name": "index",
          "type": "uint256"
        }
      ],
      "name": "tokenOfOwnerByIndex",
      "outputs": [
        {
          "internalType": "uint256",
          "name": "",
          "type": "uint256"
        }
      ],
      "stateMutability": "view",
      "type": "function"
    },
    {
      "inputs": [
        {
          "internalType": "uint256",
          "name": "tokenId",
          "type": "uint256"
        }
      ],
      "name": "tokenURI",
      "outputs": [
        {
          "internalType": "string",
          "name": "",
          "type": "string"
        }
      ],
      "stateMutability": "view",
      "type": "function"
    },
    {
      "inputs": [
        {
          "internalType": "address",
          "name": "owner",
          "type": "address"
        }
      ],
      "name": "tokensOfOwner",
      "outputs": [
        {
          "internalType": "string[]",
          "name": "",
          "type": "string[]"
        }
      ],
      "stateMutability": "view",
      "type": "function"
    },
    {
      "inputs": [],
      "name": "totalSupply",
      "outputs": [
        {
          "internalType": "uint256",
          "name": "",
          "type": "uint256"
        }
      ],
      "stateMutability": "view",
      "type": "function"
    },
    {
      "inputs": [
        {
          "internalType": "address",
          "name": "from",
          "type": "address"
        },
        {
          "internalType": "address",
          "name": "to",
          "type": "address"
        },
        {
          "internalType": "uint256",
          "name": "tokenId",
          "type": "uint256"
        }
      ],
      "name": "transferFrom",
      "outputs": [],
      "stateMutability": "nonpayable",
      "type": "function"
    }
  ],
  "transactionHash": "0x4bf4beb7bf2d7f7babd1c1e1eb49db4760b0266507dcb02c1ce606be4675726d",
  "args": [
    [
      "<svg width=\"320\" height=\"130\" xmlns=\"http://www.w3.org/2000/svg\"><rect width=\"300\" height=\"100\" x=\"10\" y=\"10\" style=\"fill:rgb(0,0,255);stroke-width:3;stroke:red\" /><text x=\"50\" y=\"50\" font-family=\"Arial\" font-size=\"20\" fill=\"green\">",
      "<svg width=\"320\" height=\"130\" xmlns=\"http://www.w3.org/2000/svg\"><rect width=\"300\" height=\"100\" x=\"10\" y=\"10\" style=\"fill:rgb(0,0,255);stroke-width:3;stroke:red\" /><text x=\"50\" y=\"50\" font-family=\"Arial\" font-size=\"20\" fill=\"black\">"
    ],
    [
      "<svg width=\"320\" height=\"130\" xmlns=\"http://www.w3.org/2000/svg\"><circle width=\"300\" height=\"100\" x=\"10\" y=\"10\" style=\"fill:rgb(0,0,255);stroke-width:3;stroke:red\" /><text x=\"50\" y=\"50\" font-family=\"Arial\" font-size=\"20\" fill=\"yellow\">",
      "<svg width=\"320\" height=\"130\" xmlns=\"http://www.w3.org/2000/svg\"><rect width=\"300\" height=\"100\" x=\"10\" y=\"10\" style=\"fill:rgb(0,0,255);stroke-width:3;stroke:red\" /><text x=\"50\" y=\"50\" font-family=\"Arial\" font-size=\"20\" fill=\"red\">"
    ]
  ],
  "numDeployments": 1,
  "solcInputHash": "bd4ce233a854cf9bd22b45333879fffb",
  "bytecode": "0x60806040523480156200001157600080fd5b506040516200448f3803806200448f833981810160405281019062000037919062000463565b6040518060400160405280600d81526020017f506f6c6c7574696f6e204e4654000000000000000000000000000000000000008152506040518060400160405280600481526020017f504e4654000000000000000000000000000000000000000000000000000000008152508160009081620000b4919062000733565b508060019081620000c6919062000733565b5050506000600a8190555033600e60006101000a81548173ffffffffffffffffffffffffffffffffffffffff021916908373ffffffffffffffffffffffffffffffffffffffff16021790555060005b600281101562000177578281600281106200013557620001346200081a565b5b6020020151600f82600281106200015157620001506200081a565b5b01908162000160919062000733565b5080806200016e9062000878565b91505062000115565b5060005b6002811015620001dd578181600281106200019b576200019a6200081a565b5b602002015160118260028110620001b757620001b66200081a565b5b019081620001c6919062000733565b508080620001d49062000878565b9150506200017b565b505050620008c5565b6000604051905090565b600080fd5b600080fd5b600080fd5b6000601f19601f8301169050919050565b7f4e487b7100000000000000000000000000000000000000000000000000000000600052604160045260246000fd5b6200024a82620001ff565b810181811067ffffffffffffffff821117156200026c576200026b62000210565b5b80604052505050565b600062000281620001e6565b90506200028f82826200023f565b919050565b600067ffffffffffffffff821115620002b257620002b162000210565b5b602082029050919050565b600080fd5b600080fd5b600067ffffffffffffffff821115620002e557620002e462000210565b5b620002f082620001ff565b9050602081019050919050565b60005b838110156200031d57808201518184015260208101905062000300565b60008484015250505050565b6000620003406200033a84620002c7565b62000275565b9050828152602081018484840111156200035f576200035e620002c2565b5b6200036c848285620002fd565b509392505050565b600082601f8301126200038c576200038b620001fa565b5b81516200039e84826020860162000329565b91505092915050565b6000620003be620003b88462000294565b62000275565b90508060208402830185811115620003db57620003da620002bd565b5b835b818110156200042957805167ffffffffffffffff811115620004045762000403620001fa565b5b80860162000413898262000374565b85526020850194505050602081019050620003dd565b5050509392505050565b600082601f8301126200044b576200044a620001fa565b5b60026200045a848285620003a7565b91505092915050565b600080604083850312156200047d576200047c620001f0565b5b600083015167ffffffffffffffff8111156200049e576200049d620001f5565b5b620004ac8582860162000433565b925050602083015167ffffffffffffffff811115620004d057620004cf620001f5565b5b620004de8582860162000433565b9150509250929050565b600081519050919050565b7f4e487b7100000000000000000000000000000000000000000000000000000000600052602260045260246000fd5b600060028204905060018216806200053b57607f821691505b602082108103620005515762000550620004f3565b5b50919050565b60008190508160005260206000209050919050565b60006020601f8301049050919050565b600082821b905092915050565b600060088302620005bb7fffffffffffffffffffffffffffffffffffffffffffffffffffffffffffffffff826200057c565b620005c786836200057c565b95508019841693508086168417925050509392505050565b6000819050919050565b6000819050919050565b6000620006146200060e6200060884620005df565b620005e9565b620005df565b9050919050565b6000819050919050565b6200063083620005f3565b620006486200063f826200061b565b84845462000589565b825550505050565b600090565b6200065f62000650565b6200066c81848462000625565b505050565b5b8181101562000694576200068860008262000655565b60018101905062000672565b5050565b601f821115620006e357620006ad8162000557565b620006b8846200056c565b81016020851015620006c8578190505b620006e0620006d7856200056c565b83018262000671565b50505b505050565b600082821c905092915050565b60006200070860001984600802620006e8565b1980831691505092915050565b6000620007238383620006f5565b9150826002028217905092915050565b6200073e82620004e8565b67ffffffffffffffff8111156200075a576200075962000210565b5b62000766825462000522565b6200077382828562000698565b600060209050601f831160018114620007ab576000841562000796578287015190505b620007a2858262000715565b86555062000812565b601f198416620007bb8662000557565b60005b82811015620007e557848901518255600182019150602085019450602081019050620007be565b8683101562000805578489015162000801601f891682620006f5565b8355505b6001600288020188555050505b505050505050565b7f4e487b7100000000000000000000000000000000000000000000000000000000600052603260045260246000fd5b7f4e487b7100000000000000000000000000000000000000000000000000000000600052601160045260246000fd5b60006200088582620005df565b91507fffffffffffffffffffffffffffffffffffffffffffffffffffffffffffffffff8203620008ba57620008b962000849565b5b600182019050919050565b613bba80620008d56000396000f3fe608060405234801561001057600080fd5b50600436106101585760003560e01c806373da8010116100c3578063c697a7c81161007c578063c697a7c8146103e9578063c87b56dd14610405578063d254c9fe14610435578063d8dc1e5e14610465578063e985e9c514610495578063f59a7c04146104c557610158565b806373da80101461032b5780638462151c14610347578063890cd4f31461037757806395d89b4114610393578063a22cb465146103b1578063b88d4fde146103cd57610158565b80632f745c59116101155780632f745c591461023157806342842e0e146102615780634f6ccce71461027d5780636352211e146102ad5780636e02007d146102dd57806370a08231146102fb57610158565b806301ffc9a71461015d57806306fdde031461018d578063081812fc146101ab578063095ea7b3146101db57806318160ddd146101f757806323b872dd14610215575b600080fd5b61017760048036038101906101729190612958565b6104f5565b60405161018491906129a0565b60405180910390f35b61019561056f565b6040516101a29190612a4b565b60405180910390f35b6101c560048036038101906101c09190612aa3565b610601565b6040516101d29190612b11565b60405180910390f35b6101f560048036038101906101f09190612b58565b61061d565b005b6101ff610633565b60405161020c9190612ba7565b60405180910390f35b61022f600480360381019061022a9190612bc2565b610640565b005b61024b60048036038101906102469190612b58565b610742565b6040516102589190612ba7565b60405180910390f35b61027b60048036038101906102769190612bc2565b6107eb565b005b61029760048036038101906102929190612aa3565b61080b565b6040516102a49190612ba7565b60405180910390f35b6102c760048036038101906102c29190612aa3565b610881565b6040516102d49190612b11565b60405180910390f35b6102e5610893565b6040516102f29190612ba7565b60405180910390f35b61031560048036038101906103109190612c15565b61089d565b6040516103229190612ba7565b60405180910390f35b61034560048036038101906103409190612b58565b610957565b005b610361600480360381019061035c9190612c15565b610b67565b60405161036e9190612d4e565b60405180910390f35b610391600480360381019061038c9190612b58565b610c5b565b005b61039b610e6b565b6040516103a89190612a4b565b60405180910390f35b6103cb60048036038101906103c69190612d9c565b610efd565b005b6103e760048036038101906103e29190612f11565b610f13565b005b61040360048036038101906103fe9190612f94565b610f30565b005b61041f600480360381019061041a9190612aa3565b611042565b60405161042c9190612a4b565b60405180910390f35b61044f600480360381019061044a9190613075565b6111c5565b60405161045c9190612a4b565b60405180910390f35b61047f600480360381019061047a9190612aa3565b6112a0565b60405161048c9190612a4b565b60405180910390f35b6104af60048036038101906104aa9190612f94565b611347565b6040516104bc91906129a0565b60405180910390f35b6104df60048036038101906104da9190612aa3565b6113db565b6040516104ec9190612a4b565b60405180910390f35b60007f780e9d63000000000000000000000000000000000000000000000000000000007bffffffffffffffffffffffffffffffffffffffffffffffffffffffff1916827bffffffffffffffffffffffffffffffffffffffffffffffffffffffff19161480610568575061056782611482565b5b9050919050565b60606000805461057e90613100565b80601f01602080910402602001604051908101604052809291908181526020018280546105aa90613100565b80156105f75780601f106105cc576101008083540402835291602001916105f7565b820191906000526020600020905b8154815290600101906020018083116105da57829003601f168201915b5050505050905090565b600061060c82611564565b50610616826115ec565b9050919050565b61062f828261062a611629565b611631565b5050565b6000600880549050905090565b600073ffffffffffffffffffffffffffffffffffffffff168273ffffffffffffffffffffffffffffffffffffffff16036106b25760006040517f64a0ae920000000000000000000000000000000000000000000000000000000081526004016106a99190612b11565b60405180910390fd5b60006106c683836106c1611629565b611643565b90508373ffffffffffffffffffffffffffffffffffffffff168173ffffffffffffffffffffffffffffffffffffffff161461073c578382826040517f64283d7b00000000000000000000000000000000000000000000000000000000815260040161073393929190613131565b60405180910390fd5b50505050565b600061074d8361089d565b82106107925782826040517fa57d13dc000000000000000000000000000000000000000000000000000000008152600401610789929190613168565b60405180910390fd5b600660008473ffffffffffffffffffffffffffffffffffffffff1673ffffffffffffffffffffffffffffffffffffffff168152602001908152602001600020600083815260200190815260200160002054905092915050565b61080683838360405180602001604052806000815250610f13565b505050565b6000610815610633565b821061085b576000826040517fa57d13dc000000000000000000000000000000000000000000000000000000008152600401610852929190613168565b60405180910390fd5b6008828154811061086f5761086e613191565b5b90600052602060002001549050919050565b600061088c82611564565b9050919050565b6000600a54905090565b60008073ffffffffffffffffffffffffffffffffffffffff168273ffffffffffffffffffffffffffffffffffffffff16036109105760006040517f89c62b640000000000000000000000000000000000000000000000000000000081526004016109079190612b11565b60405180910390fd5b600360008373ffffffffffffffffffffffffffffffffffffffff1673ffffffffffffffffffffffffffffffffffffffff168152602001908152602001600020549050919050565b600e60009054906101000a900473ffffffffffffffffffffffffffffffffffffffff1673ffffffffffffffffffffffffffffffffffffffff16600d60003373ffffffffffffffffffffffffffffffffffffffff1673ffffffffffffffffffffffffffffffffffffffff16815260200190815260200160002060009054906101000a900473ffffffffffffffffffffffffffffffffffffffff1673ffffffffffffffffffffffffffffffffffffffff1614610a3d576040517f89dbe6fb00000000000000000000000000000000000000000000000000000000815260040160405180910390fd5b6000600a549050610aeb60118360028110610a5b57610a5a613191565b5b018054610a6790613100565b80601f0160208091040260200160405190810160405280929190818152602001828054610a9390613100565b8015610ae05780601f10610ab557610100808354040283529160200191610ae0565b820191906000526020600020905b815481529060010190602001808311610ac357829003601f168201915b5050505050846111c5565b601360008381526020019081526020016000209081610b0a919061336c565b50610b158382611760565b6001600a54610b24919061346d565b600a81905550807fc76a7442b94f5bc85e3a9e1423e424c148d22bfda6eb92338da02b4219478b9783604051610b5a91906134ed565b60405180910390a2505050565b60606000610b748361089d565b905060008103610bb0576040517fa10a577d00000000000000000000000000000000000000000000000000000000815260040160405180910390fd5b60008167ffffffffffffffff811115610bcc57610bcb612de6565b5b604051908082528060200260200182016040528015610bff57816020015b6060815260200190600190039081610bea5790505b50905060005b82811015610c5057610c1f610c1a8683610742565b611042565b828281518110610c3257610c31613191565b5b60200260200101819052508080610c489061351b565b915050610c05565b508092505050919050565b600e60009054906101000a900473ffffffffffffffffffffffffffffffffffffffff1673ffffffffffffffffffffffffffffffffffffffff16600d60003373ffffffffffffffffffffffffffffffffffffffff1673ffffffffffffffffffffffffffffffffffffffff16815260200190815260200160002060009054906101000a900473ffffffffffffffffffffffffffffffffffffffff1673ffffffffffffffffffffffffffffffffffffffff1614610d41576040517f89dbe6fb00000000000000000000000000000000000000000000000000000000815260040160405180910390fd5b6000600a549050610def600f8360028110610d5f57610d5e613191565b5b018054610d6b90613100565b80601f0160208091040260200160405190810160405280929190818152602001828054610d9790613100565b8015610de45780601f10610db957610100808354040283529160200191610de4565b820191906000526020600020905b815481529060010190602001808311610dc757829003601f168201915b5050505050846111c5565b601360008381526020019081526020016000209081610e0e919061336c565b50610e198382611760565b6001600a54610e28919061346d565b600a81905550807fc76a7442b94f5bc85e3a9e1423e424c148d22bfda6eb92338da02b4219478b9783604051610e5e91906135af565b60405180910390a2505050565b606060018054610e7a90613100565b80601f0160208091040260200160405190810160405280929190818152602001828054610ea690613100565b8015610ef35780601f10610ec857610100808354040283529160200191610ef3565b820191906000526020600020905b815481529060010190602001808311610ed657829003601f168201915b5050505050905090565b610f0f610f08611629565b838361177e565b5050565b610f1e848484610640565b610f2a848484846118ed565b50505050565b600e60009054906101000a900473ffffffffffffffffffffffffffffffffffffffff1673ffffffffffffffffffffffffffffffffffffffff168173ffffffffffffffffffffffffffffffffffffffff1614610fc0576040517f08c379a0000000000000000000000000000000000000000000000000000000008152600401610fb79061364f565b60405180910390fd5b80600d60008473ffffffffffffffffffffffffffffffffffffffff1673ffffffffffffffffffffffffffffffffffffffff16815260200190815260200160002060006101000a81548173ffffffffffffffffffffffffffffffffffffffff021916908373ffffffffffffffffffffffffffffffffffffffff1602179055505050565b6060600073ffffffffffffffffffffffffffffffffffffffff1661106583611aa4565b73ffffffffffffffffffffffffffffffffffffffff16036110b2576040517f6df5edae00000000000000000000000000000000000000000000000000000000815260040160405180910390fd5b60006013600084815260200190815260200160002080546110d290613100565b80601f01602080910402602001604051908101604052809291908181526020018280546110fe90613100565b801561114b5780601f106111205761010080835404028352916020019161114b565b820191906000526020600020905b81548152906001019060200180831161112e57829003601f168201915b5050505050905061115a611ae1565b61119d61116561056f565b61117661117187611aa4565b611b1e565b846040516020016111899392919061384d565b604051602081830303815290604052611b4b565b6040516020016111ae9291906138b5565b604051602081830303815290604052915050919050565b606060006040518060400160405280600d81526020017f3c2f746578743e3c2f7376673e00000000000000000000000000000000000000815250905060006040518060400160405280601a81526020017f646174613a696d6167652f7376672b786d6c3b6261736536342c000000000000815250905060006112718661124a87611b1e565b8560405160200161125d939291906138d9565b604051602081830303815290604052611b4b565b905081816040516020016112869291906138b5565b604051602081830303815290604052935050505092915050565b6060600f82600281106112b6576112b5613191565b5b0180546112c290613100565b80601f01602080910402602001604051908101604052809291908181526020018280546112ee90613100565b801561133b5780601f106113105761010080835404028352916020019161133b565b820191906000526020600020905b81548152906001019060200180831161131e57829003601f168201915b50505050509050919050565b6000600560008473ffffffffffffffffffffffffffffffffffffffff1673ffffffffffffffffffffffffffffffffffffffff16815260200190815260200160002060008373ffffffffffffffffffffffffffffffffffffffff1673ffffffffffffffffffffffffffffffffffffffff16815260200190815260200160002060009054906101000a900460ff16905092915050565b6060601182600281106113f1576113f0613191565b5b0180546113fd90613100565b80601f016020809104026020016040519081016040528092919081815260200182805461142990613100565b80156114765780601f1061144b57610100808354040283529160200191611476565b820191906000526020600020905b81548152906001019060200180831161145957829003601f168201915b50505050509050919050565b60007f80ac58cd000000000000000000000000000000000000000000000000000000007bffffffffffffffffffffffffffffffffffffffffffffffffffffffff1916827bffffffffffffffffffffffffffffffffffffffffffffffffffffffff1916148061154d57507f5b5e139f000000000000000000000000000000000000000000000000000000007bffffffffffffffffffffffffffffffffffffffffffffffffffffffff1916827bffffffffffffffffffffffffffffffffffffffffffffffffffffffff1916145b8061155d575061155c82611cbd565b5b9050919050565b60008061157083611aa4565b9050600073ffffffffffffffffffffffffffffffffffffffff168173ffffffffffffffffffffffffffffffffffffffff16036115e357826040517f7e2732890000000000000000000000000000000000000000000000000000000081526004016115da9190612ba7565b60405180910390fd5b80915050919050565b60006004600083815260200190815260200160002060009054906101000a900473ffffffffffffffffffffffffffffffffffffffff169050919050565b600033905090565b61163e8383836001611d27565b505050565b600080611651858585611eec565b9050600073ffffffffffffffffffffffffffffffffffffffff168173ffffffffffffffffffffffffffffffffffffffff16036116955761169084612106565b6116d4565b8473ffffffffffffffffffffffffffffffffffffffff168173ffffffffffffffffffffffffffffffffffffffff16146116d3576116d2818561214f565b5b5b600073ffffffffffffffffffffffffffffffffffffffff168573ffffffffffffffffffffffffffffffffffffffff160361171657611711846122b0565b611755565b8473ffffffffffffffffffffffffffffffffffffffff168173ffffffffffffffffffffffffffffffffffffffff1614611754576117538585612381565b5b5b809150509392505050565b61177a82826040518060200160405280600081525061240c565b5050565b600073ffffffffffffffffffffffffffffffffffffffff168273ffffffffffffffffffffffffffffffffffffffff16036117ef57816040517f5b08ba180000000000000000000000000000000000000000000000000000000081526004016117e69190612b11565b60405180910390fd5b80600560008573ffffffffffffffffffffffffffffffffffffffff1673ffffffffffffffffffffffffffffffffffffffff16815260200190815260200160002060008473ffffffffffffffffffffffffffffffffffffffff1673ffffffffffffffffffffffffffffffffffffffff16815260200190815260200160002060006101000a81548160ff0219169083151502179055508173ffffffffffffffffffffffffffffffffffffffff168373ffffffffffffffffffffffffffffffffffffffff167f17307eab39ab6107e8899845ad3d59bd9653f200f220920489ca2b5937696c31836040516118e091906129a0565b60405180910390a3505050565b60008373ffffffffffffffffffffffffffffffffffffffff163b1115611a9e578273ffffffffffffffffffffffffffffffffffffffff1663150b7a02611931611629565b8685856040518563ffffffff1660e01b8152600401611953949392919061395f565b6020604051808303816000875af192505050801561198f57506040513d601f19601f8201168201806040525081019061198c91906139c0565b60015b611a13573d80600081146119bf576040519150601f19603f3d011682016040523d82523d6000602084013e6119c4565b606091505b506000815103611a0b57836040517f64a0ae92000000000000000000000000000000000000000000000000000000008152600401611a029190612b11565b60405180910390fd5b805181602001fd5b63150b7a0260e01b7bffffffffffffffffffffffffffffffffffffffffffffffffffffffff1916817bffffffffffffffffffffffffffffffffffffffffffffffffffffffff191614611a9c57836040517f64a0ae92000000000000000000000000000000000000000000000000000000008152600401611a939190612b11565b60405180910390fd5b505b50505050565b60006002600083815260200190815260200160002060009054906101000a900473ffffffffffffffffffffffffffffffffffffffff169050919050565b60606040518060400160405280601d81526020017f646174613a6170706c69636174696f6e2f6a736f6e3b6261736536342c000000815250905090565b6060611b448273ffffffffffffffffffffffffffffffffffffffff16601460ff16612428565b9050919050565b60606000825103611b6d57604051806020016040528060008152509050611cb8565b6000604051806060016040528060408152602001613b456040913990506000600360028551611b9c919061346d565b611ba69190613a1c565b6004611bb29190613a4d565b67ffffffffffffffff811115611bcb57611bca612de6565b5b6040519080825280601f01601f191660200182016040528015611bfd5781602001600182028036833780820191505090505b50905060018201602082018586518701602081018051600082525b82841015611c73576003840193508351603f8160121c168701518653600186019550603f81600c1c168701518653600186019550603f8160061c168701518653600186019550603f8116870151865360018601955050611c18565b80825260038a510660018114611c905760028114611ca357611cab565b603d6001870353603d6002870353611cab565b603d60018703535b5050505050505080925050505b919050565b60007f01ffc9a7000000000000000000000000000000000000000000000000000000007bffffffffffffffffffffffffffffffffffffffffffffffffffffffff1916827bffffffffffffffffffffffffffffffffffffffffffffffffffffffff1916149050919050565b8080611d605750600073ffffffffffffffffffffffffffffffffffffffff168273ffffffffffffffffffffffffffffffffffffffff1614155b15611e94576000611d7084611564565b9050600073ffffffffffffffffffffffffffffffffffffffff168373ffffffffffffffffffffffffffffffffffffffff1614158015611ddb57508273ffffffffffffffffffffffffffffffffffffffff168173ffffffffffffffffffffffffffffffffffffffff1614155b8015611dee5750611dec8184611347565b155b15611e3057826040517fa9fbf51f000000000000000000000000000000000000000000000000000000008152600401611e279190612b11565b60405180910390fd5b8115611e9257838573ffffffffffffffffffffffffffffffffffffffff168273ffffffffffffffffffffffffffffffffffffffff167f8c5be1e5ebec7d5bd14f71427d1e84f3dd0314c0f7b2291e5b200ac8c7c3b92560405160405180910390a45b505b836004600085815260200190815260200160002060006101000a81548173ffffffffffffffffffffffffffffffffffffffff021916908373ffffffffffffffffffffffffffffffffffffffff16021790555050505050565b600080611ef884611aa4565b9050600073ffffffffffffffffffffffffffffffffffffffff168373ffffffffffffffffffffffffffffffffffffffff1614611f3a57611f3981848661266e565b5b600073ffffffffffffffffffffffffffffffffffffffff168173ffffffffffffffffffffffffffffffffffffffff1614611fcb57611f7c600085600080611d27565b6001600360008373ffffffffffffffffffffffffffffffffffffffff1673ffffffffffffffffffffffffffffffffffffffff168152602001908152602001600020600082825403925050819055505b600073ffffffffffffffffffffffffffffffffffffffff168573ffffffffffffffffffffffffffffffffffffffff161461204e576001600360008773ffffffffffffffffffffffffffffffffffffffff1673ffffffffffffffffffffffffffffffffffffffff168152602001908152602001600020600082825401925050819055505b846002600086815260200190815260200160002060006101000a81548173ffffffffffffffffffffffffffffffffffffffff021916908373ffffffffffffffffffffffffffffffffffffffff160217905550838573ffffffffffffffffffffffffffffffffffffffff168273ffffffffffffffffffffffffffffffffffffffff167fddf252ad1be2c89b69c2b068fc378daa952ba7f163c4a11628f55a4df523b3ef60405160405180910390a4809150509392505050565b6008805490506009600083815260200190815260200160002081905550600881908060018154018082558091505060019003906000526020600020016000909190919091505550565b600061215a8361089d565b905060006007600084815260200190815260200160002054905081811461223f576000600660008673ffffffffffffffffffffffffffffffffffffffff1673ffffffffffffffffffffffffffffffffffffffff168152602001908152602001600020600084815260200190815260200160002054905080600660008773ffffffffffffffffffffffffffffffffffffffff1673ffffffffffffffffffffffffffffffffffffffff168152602001908152602001600020600084815260200190815260200160002081905550816007600083815260200190815260200160002081905550505b6007600084815260200190815260200160002060009055600660008573ffffffffffffffffffffffffffffffffffffffff1673ffffffffffffffffffffffffffffffffffffffff16815260200190815260200160002060008381526020019081526020016000206000905550505050565b600060016008805490506122c49190613a8f565b90506000600960008481526020019081526020016000205490506000600883815481106122f4576122f3613191565b5b90600052602060002001549050806008838154811061231657612315613191565b5b90600052602060002001819055508160096000838152602001908152602001600020819055506009600085815260200190815260200160002060009055600880548061236557612364613ac3565b5b6001900381819060005260206000200160009055905550505050565b6000600161238e8461089d565b6123989190613a8f565b905081600660008573ffffffffffffffffffffffffffffffffffffffff1673ffffffffffffffffffffffffffffffffffffffff168152602001908152602001600020600083815260200190815260200160002081905550806007600084815260200190815260200160002081905550505050565b6124168383612732565b61242360008484846118ed565b505050565b60606000839050600060028460026124409190613a4d565b61244a919061346d565b67ffffffffffffffff81111561246357612462612de6565b5b6040519080825280601f01601f1916602001820160405280156124955781602001600182028036833780820191505090505b5090507f3000000000000000000000000000000000000000000000000000000000000000816000815181106124cd576124cc613191565b5b60200101907effffffffffffffffffffffffffffffffffffffffffffffffffffffffffffff1916908160001a9053507f78000000000000000000000000000000000000000000000000000000000000008160018151811061253157612530613191565b5b60200101907effffffffffffffffffffffffffffffffffffffffffffffffffffffffffffff1916908160001a905350600060018560026125719190613a4d565b61257b919061346d565b90505b600181111561261b577f3031323334353637383961626364656600000000000000000000000000000000600f8416601081106125bd576125bc613191565b5b1a60f81b8282815181106125d4576125d3613191565b5b60200101907effffffffffffffffffffffffffffffffffffffffffffffffffffffffffffff1916908160001a905350600483901c92508061261490613af2565b905061257e565b50600082146126635784846040517fe22e27eb00000000000000000000000000000000000000000000000000000000815260040161265a929190613b1b565b60405180910390fd5b809250505092915050565b61267983838361282b565b61272d57600073ffffffffffffffffffffffffffffffffffffffff168373ffffffffffffffffffffffffffffffffffffffff16036126ee57806040517f7e2732890000000000000000000000000000000000000000000000000000000081526004016126e59190612ba7565b60405180910390fd5b81816040517f177e802f000000000000000000000000000000000000000000000000000000008152600401612724929190613168565b60405180910390fd5b505050565b600073ffffffffffffffffffffffffffffffffffffffff168273ffffffffffffffffffffffffffffffffffffffff16036127a45760006040517f64a0ae9200000000000000000000000000000000000000000000000000000000815260040161279b9190612b11565b60405180910390fd5b60006127b283836000611643565b9050600073ffffffffffffffffffffffffffffffffffffffff168173ffffffffffffffffffffffffffffffffffffffff16146128265760006040517f73c6ac6e00000000000000000000000000000000000000000000000000000000815260040161281d9190612b11565b60405180910390fd5b505050565b60008073ffffffffffffffffffffffffffffffffffffffff168373ffffffffffffffffffffffffffffffffffffffff16141580156128e357508273ffffffffffffffffffffffffffffffffffffffff168473ffffffffffffffffffffffffffffffffffffffff1614806128a457506128a38484611347565b5b806128e257508273ffffffffffffffffffffffffffffffffffffffff166128ca836115ec565b73ffffffffffffffffffffffffffffffffffffffff16145b5b90509392505050565b6000604051905090565b600080fd5b600080fd5b60007fffffffff0000000000000000000000000000000000000000000000000000000082169050919050565b61293581612900565b811461294057600080fd5b50565b6000813590506129528161292c565b92915050565b60006020828403121561296e5761296d6128f6565b5b600061297c84828501612943565b91505092915050565b60008115159050919050565b61299a81612985565b82525050565b60006020820190506129b56000830184612991565b92915050565b600081519050919050565b600082825260208201905092915050565b60005b838110156129f55780820151818401526020810190506129da565b60008484015250505050565b6000601f19601f8301169050919050565b6000612a1d826129bb565b612a2781856129c6565b9350612a378185602086016129d7565b612a4081612a01565b840191505092915050565b60006020820190508181036000830152612a658184612a12565b905092915050565b6000819050919050565b612a8081612a6d565b8114612a8b57600080fd5b50565b600081359050612a9d81612a77565b92915050565b600060208284031215612ab957612ab86128f6565b5b6000612ac784828501612a8e565b91505092915050565b600073ffffffffffffffffffffffffffffffffffffffff82169050919050565b6000612afb82612ad0565b9050919050565b612b0b81612af0565b82525050565b6000602082019050612b266000830184612b02565b92915050565b612b3581612af0565b8114612b4057600080fd5b50565b600081359050612b5281612b2c565b92915050565b60008060408385031215612b6f57612b6e6128f6565b5b6000612b7d85828601612b43565b9250506020612b8e85828601612a8e565b9150509250929050565b612ba181612a6d565b82525050565b6000602082019050612bbc6000830184612b98565b92915050565b600080600060608486031215612bdb57612bda6128f6565b5b6000612be986828701612b43565b9350506020612bfa86828701612b43565b9250506040612c0b86828701612a8e565b9150509250925092565b600060208284031215612c2b57612c2a6128f6565b5b6000612c3984828501612b43565b91505092915050565b600081519050919050565b600082825260208201905092915050565b6000819050602082019050919050565b600082825260208201905092915050565b6000612c8a826129bb565b612c948185612c6e565b9350612ca48185602086016129d7565b612cad81612a01565b840191505092915050565b6000612cc48383612c7f565b905092915050565b6000602082019050919050565b6000612ce482612c42565b612cee8185612c4d565b935083602082028501612d0085612c5e565b8060005b85811015612d3c5784840389528151612d1d8582612cb8565b9450612d2883612ccc565b925060208a01995050600181019050612d04565b50829750879550505050505092915050565b60006020820190508181036000830152612d688184612cd9565b905092915050565b612d7981612985565b8114612d8457600080fd5b50565b600081359050612d9681612d70565b92915050565b60008060408385031215612db357612db26128f6565b5b6000612dc185828601612b43565b9250506020612dd285828601612d87565b9150509250929050565b600080fd5b600080fd5b7f4e487b7100000000000000000000000000000000000000000000000000000000600052604160045260246000fd5b612e1e82612a01565b810181811067ffffffffffffffff82111715612e3d57612e3c612de6565b5b80604052505050565b6000612e506128ec565b9050612e5c8282612e15565b919050565b600067ffffffffffffffff821115612e7c57612e7b612de6565b5b612e8582612a01565b9050602081019050919050565b82818337600083830152505050565b6000612eb4612eaf84612e61565b612e46565b905082815260208101848484011115612ed057612ecf612de1565b5b612edb848285612e92565b509392505050565b600082601f830112612ef857612ef7612ddc565b5b8135612f08848260208601612ea1565b91505092915050565b60008060008060808587031215612f2b57612f2a6128f6565b5b6000612f3987828801612b43565b9450506020612f4a87828801612b43565b9350506040612f5b87828801612a8e565b925050606085013567ffffffffffffffff811115612f7c57612f7b6128fb565b5b612f8887828801612ee3565b91505092959194509250565b60008060408385031215612fab57612faa6128f6565b5b6000612fb985828601612b43565b9250506020612fca85828601612b43565b9150509250929050565b600067ffffffffffffffff821115612fef57612fee612de6565b5b612ff882612a01565b9050602081019050919050565b600061301861301384612fd4565b612e46565b90508281526020810184848401111561303457613033612de1565b5b61303f848285612e92565b509392505050565b600082601f83011261305c5761305b612ddc565b5b813561306c848260208601613005565b91505092915050565b6000806040838503121561308c5761308b6128f6565b5b600083013567ffffffffffffffff8111156130aa576130a96128fb565b5b6130b685828601613047565b92505060206130c785828601612b43565b9150509250929050565b7f4e487b7100000000000000000000000000000000000000000000000000000000600052602260045260246000fd5b6000600282049050600182168061311857607f821691505b60208210810361312b5761312a6130d1565b5b50919050565b60006060820190506131466000830186612b02565b6131536020830185612b98565b6131606040830184612b02565b949350505050565b600060408201905061317d6000830185612b02565b61318a6020830184612b98565b9392505050565b7f4e487b7100000000000000000000000000000000000000000000000000000000600052603260045260246000fd5b60008190508160005260206000209050919050565b60006020601f8301049050919050565b600082821b905092915050565b6000600883026132227fffffffffffffffffffffffffffffffffffffffffffffffffffffffffffffffff826131e5565b61322c86836131e5565b95508019841693508086168417925050509392505050565b6000819050919050565b600061326961326461325f84612a6d565b613244565b612a6d565b9050919050565b6000819050919050565b6132838361324e565b61329761328f82613270565b8484546131f2565b825550505050565b600090565b6132ac61329f565b6132b781848461327a565b505050565b5b818110156132db576132d06000826132a4565b6001810190506132bd565b5050565b601f821115613320576132f1816131c0565b6132fa846131d5565b81016020851015613309578190505b61331d613315856131d5565b8301826132bc565b50505b505050565b600082821c905092915050565b600061334360001984600802613325565b1980831691505092915050565b600061335c8383613332565b9150826002028217905092915050565b613375826129bb565b67ffffffffffffffff81111561338e5761338d612de6565b5b6133988254613100565b6133a38282856132df565b600060209050601f8311600181146133d657600084156133c4578287015190505b6133ce8582613350565b865550613436565b601f1984166133e4866131c0565b60005b8281101561340c578489015182556001820191506020850194506020810190506133e7565b868310156134295784890151613425601f891682613332565b8355505b6001600288020188555050505b505050505050565b7f4e487b7100000000000000000000000000000000000000000000000000000000600052601160045260246000fd5b600061347882612a6d565b915061348383612a6d565b925082820190508082111561349b5761349a61343e565b5b92915050565b7f636974697a656e00000000000000000000000000000000000000000000000000600082015250565b60006134d76007836129c6565b91506134e2826134a1565b602082019050919050565b60006040820190508181036000830152613506816134ca565b90506135156020830184612b98565b92915050565b600061352682612a6d565b91507fffffffffffffffffffffffffffffffffffffffffffffffffffffffffffffffff82036135585761355761343e565b5b600182019050919050565b7f696e647573747279000000000000000000000000000000000000000000000000600082015250565b60006135996008836129c6565b91506135a482613563565b602082019050919050565b600060408201905081810360008301526135c88161358c565b90506135d76020830184612b98565b92915050565b7f796f7520617265206e6f7420616c6c6f77656420746f20646f20746861742c2060008201527f796f7520617265206e6f74207468652061646d696e0000000000000000000000602082015250565b60006136396035836129c6565b9150613644826135dd565b604082019050919050565b600060208201905081810360008301526136688161362c565b9050919050565b600081905092915050565b7f7b226e616d65223a220000000000000000000000000000000000000000000000600082015250565b60006136b060098361366f565b91506136bb8261367a565b600982019050919050565b60006136d1826129bb565b6136db818561366f565b93506136eb8185602086016129d7565b80840191505092915050565b7f22206f726967696e616c206f776e657220616464726573733a22000000000000600082015250565b600061372d601a8361366f565b9150613738826136f7565b601a82019050919050565b7f222c20226465736372697074696f6e223a22416e204e465420666f722074686560008201527f2044534553206170706c69636174696f6e222c20000000000000000000000000602082015250565b600061379f60348361366f565b91506137aa82613743565b603482019050919050565b7f22696d616765223a220000000000000000000000000000000000000000000000600082015250565b60006137eb60098361366f565b91506137f6826137b5565b600982019050919050565b7f227d000000000000000000000000000000000000000000000000000000000000600082015250565b600061383760028361366f565b915061384282613801565b600282019050919050565b6000613858826136a3565b915061386482866136c6565b915061386f82613720565b915061387b82856136c6565b915061388682613792565b9150613891826137de565b915061389d82846136c6565b91506138a88261382a565b9150819050949350505050565b60006138c182856136c6565b91506138cd82846136c6565b91508190509392505050565b60006138e582866136c6565b91506138f182856136c6565b91506138fd82846136c6565b9150819050949350505050565b600081519050919050565b600082825260208201905092915050565b60006139318261390a565b61393b8185613915565b935061394b8185602086016129d7565b61395481612a01565b840191505092915050565b60006080820190506139746000830187612b02565b6139816020830186612b02565b61398e6040830185612b98565b81810360608301526139a08184613926565b905095945050505050565b6000815190506139ba8161292c565b92915050565b6000602082840312156139d6576139d56128f6565b5b60006139e4848285016139ab565b91505092915050565b7f4e487b7100000000000000000000000000000000000000000000000000000000600052601260045260246000fd5b6000613a2782612a6d565b9150613a3283612a6d565b925082613a4257613a416139ed565b5b828204905092915050565b6000613a5882612a6d565b9150613a6383612a6d565b9250828202613a7181612a6d565b91508282048414831517613a8857613a8761343e565b5b5092915050565b6000613a9a82612a6d565b9150613aa583612a6d565b9250828203905081811115613abd57613abc61343e565b5b92915050565b7f4e487b7100000000000000000000000000000000000000000000000000000000600052603160045260246000fd5b6000613afd82612a6d565b915060008203613b1057613b0f61343e565b5b600182039050919050565b6000604082019050613b306000830185612b98565b613b3d6020830184612b98565b939250505056fe4142434445464748494a4b4c4d4e4f505152535455565758595a6162636465666768696a6b6c6d6e6f707172737475767778797a303132333435363738392b2fa2646970667358221220914d2dad718ed339c5ccd664b4ce429ffed46c2cb5a5f815e59fef39021966fb64736f6c63430008150033",
  "devdoc": {
    "author": "Giuseppe La Vecchia",
    "custom:experimental": "This is an experimental contract.",
    "details": "ERC721Enumerable is used because of tokenOfOwnerByIndex method.",
    "errors": {
      "ERC721EnumerableForbiddenBatchMint()": [
        {
          "details": "Batch mint is not allowed."
        }
      ],
      "ERC721IncorrectOwner(address,uint256,address)": [
        {
          "details": "Indicates an error related to the ownership over a particular token. Used in transfers.",
          "params": {
            "owner": "Address of the current owner of a token.",
            "sender": "Address whose tokens are being transferred.",
            "tokenId": "Identifier number of a token."
          }
        }
      ],
      "ERC721InsufficientApproval(address,uint256)": [
        {
          "details": "Indicates a failure with the `operator`s approval. Used in transfers.",
          "params": {
            "operator": "Address that may be allowed to operate on tokens without being their owner.",
            "tokenId": "Identifier number of a token."
          }
        }
      ],
      "ERC721InvalidApprover(address)": [
        {
          "details": "Indicates a failure with the `approver` of a token to be approved. Used in approvals.",
          "params": {
            "approver": "Address initiating an approval operation."
          }
        }
      ],
      "ERC721InvalidOperator(address)": [
        {
          "details": "Indicates a failure with the `operator` to be approved. Used in approvals.",
          "params": {
            "operator": "Address that may be allowed to operate on tokens without being their owner."
          }
        }
      ],
      "ERC721InvalidOwner(address)": [
        {
          "details": "Indicates that an address can't be an owner. For example, `address(0)` is a forbidden owner in EIP-20. Used in balance queries.",
          "params": {
            "owner": "Address of the current owner of a token."
          }
        }
      ],
      "ERC721InvalidReceiver(address)": [
        {
          "details": "Indicates a failure with the token `receiver`. Used in transfers.",
          "params": {
            "receiver": "Address to which tokens are being transferred."
          }
        }
      ],
      "ERC721InvalidSender(address)": [
        {
          "details": "Indicates a failure with the token `sender`. Used in transfers.",
          "params": {
            "sender": "Address whose tokens are being transferred."
          }
        }
      ],
      "ERC721NonexistentToken(uint256)": [
        {
          "details": "Indicates a `tokenId` whose `owner` is the zero address.",
          "params": {
            "tokenId": "Identifier number of a token."
          }
        }
      ],
      "ERC721OutOfBoundsIndex(address,uint256)": [
        {
          "details": "An `owner`'s token query was out of bounds for `index`. NOTE: The owner being `address(0)` indicates a global out of bounds index."
        }
      ],
      "StringsInsufficientHexLength(uint256,uint256)": [
        {
          "details": "The `value` string doesn't fit in the specified `length`."
        }
      ]
    },
    "events": {
      "Approval(address,address,uint256)": {
        "details": "Emitted when `owner` enables `approved` to manage the `tokenId` token."
      },
      "ApprovalForAll(address,address,bool)": {
        "details": "Emitted when `owner` enables or disables (`approved`) `operator` to manage all of its assets."
      },
      "Transfer(address,address,uint256)": {
        "details": "Emitted when `tokenId` token is transferred from `from` to `to`."
      }
    },
    "kind": "dev",
    "methods": {
      "approve(address,uint256)": {
        "details": "See {IERC721-approve}."
      },
      "balanceOf(address)": {
        "details": "See {IERC721-balanceOf}."
      },
      "constructor": {
        "params": {
          "citizenSvg": "the SVGs used for the customized NFTs"
        }
      },
      "getApproved(uint256)": {
        "details": "See {IERC721-getApproved}."
      },
      "isApprovedForAll(address,address)": {
        "details": "See {IERC721-isApprovedForAll}."
      },
      "mintNftCitizen(address,uint256)": {
        "params": {
          "level": "the NFT level. The higher it is, the more the citizen has saved PollutionTokens.",
          "to": "the address of the citizen"
        }
      },
      "name()": {
        "details": "See {IERC721Metadata-name}."
      },
      "ownerOf(uint256)": {
        "details": "See {IERC721-ownerOf}."
      },
      "safeTransferFrom(address,address,uint256)": {
        "details": "See {IERC721-safeTransferFrom}."
      },
      "safeTransferFrom(address,address,uint256,bytes)": {
        "details": "See {IERC721-safeTransferFrom}."
      },
      "setApprovalForAll(address,bool)": {
        "details": "See {IERC721-setApprovalForAll}."
      },
      "storeContractAddress(address,address)": {
        "params": {
          "contractAddr": "The contract address authorized",
          "sender": "the admin address"
        }
      },
      "supportsInterface(bytes4)": {
        "details": "See {IERC165-supportsInterface}."
      },
      "svgToImageURI(string,address)": {
        "params": {
          "svg": "the standard svg format for DSES",
          "to": "used to add the address of the one who obtain the NFT, for personalization purpose. It will display the address of the one who obtain the nft."
        }
      },
      "symbol()": {
        "details": "See {IERC721Metadata-symbol}."
      },
      "tokenByIndex(uint256)": {
        "details": "See {IERC721Enumerable-tokenByIndex}."
      },
      "tokenOfOwnerByIndex(address,uint256)": {
        "details": "See {IERC721Enumerable-tokenOfOwnerByIndex}."
      },
      "tokenURI(uint256)": {
        "params": {
          "tokenId": "token id of the token that you want to visualize"
        }
      },
      "tokensOfOwner(address)": {
        "params": {
          "owner": "the address of the owner"
        },
        "returns": {
          "_0": "URIs list of tokens, useful for visualization purpose"
        }
      },
      "totalSupply()": {
        "details": "See {IERC721Enumerable-totalSupply}."
      },
      "transferFrom(address,address,uint256)": {
        "details": "See {IERC721-transferFrom}."
      }
    },
    "title": "An SVG NFT contract.",
    "version": 1
  },
  "userdoc": {
    "kind": "user",
    "methods": {
      "constructor": {
        "notice": "Adding SVG NFTs"
      },
      "mintNftCitizen(address,uint256)": {
        "notice": "Minting NFTs for Citizens \"Giving\" an NFT to a Citizen based on the level."
      },
      "storeContractAddress(address,address)": {
        "notice": "Store contract addresses that will interact with this contract Allows 'contractAddr' to call some special function on behalf of the original msg.sender user."
      },
      "svgToImageURI(string,address)": {
        "notice": "Building SVG image personalized"
      },
      "tokenURI(uint256)": {
        "notice": "Returning token uri by tokenId."
      },
      "tokensOfOwner(address)": {
        "notice": "Returning NFTs by owner's address"
      }
    },
    "notice": "Used for NFTs creation, assignment and visualization",
    "version": 1
  },
  "storageLayout": {
    "storage": [
      {
        "astId": 668,
        "contract": "contracts/PollutionNft.sol:PollutionNft",
        "label": "_name",
        "offset": 0,
        "slot": "0",
        "type": "t_string_storage"
      },
      {
        "astId": 670,
        "contract": "contracts/PollutionNft.sol:PollutionNft",
        "label": "_symbol",
        "offset": 0,
        "slot": "1",
        "type": "t_string_storage"
      },
      {
        "astId": 674,
        "contract": "contracts/PollutionNft.sol:PollutionNft",
        "label": "_owners",
        "offset": 0,
        "slot": "2",
        "type": "t_mapping(t_uint256,t_address)"
      },
      {
        "astId": 678,
        "contract": "contracts/PollutionNft.sol:PollutionNft",
        "label": "_balances",
        "offset": 0,
        "slot": "3",
        "type": "t_mapping(t_address,t_uint256)"
      },
      {
        "astId": 682,
        "contract": "contracts/PollutionNft.sol:PollutionNft",
        "label": "_tokenApprovals",
        "offset": 0,
        "slot": "4",
        "type": "t_mapping(t_uint256,t_address)"
      },
      {
        "astId": 688,
        "contract": "contracts/PollutionNft.sol:PollutionNft",
        "label": "_operatorApprovals",
        "offset": 0,
        "slot": "5",
        "type": "t_mapping(t_address,t_mapping(t_address,t_bool))"
      },
      {
        "astId": 1798,
        "contract": "contracts/PollutionNft.sol:PollutionNft",
        "label": "_ownedTokens",
        "offset": 0,
        "slot": "6",
        "type": "t_mapping(t_address,t_mapping(t_uint256,t_uint256))"
      },
      {
        "astId": 1802,
        "contract": "contracts/PollutionNft.sol:PollutionNft",
        "label": "_ownedTokensIndex",
        "offset": 0,
        "slot": "7",
        "type": "t_mapping(t_uint256,t_uint256)"
      },
      {
        "astId": 1805,
        "contract": "contracts/PollutionNft.sol:PollutionNft",
        "label": "_allTokens",
        "offset": 0,
        "slot": "8",
        "type": "t_array(t_uint256)dyn_storage"
      },
      {
        "astId": 1809,
        "contract": "contracts/PollutionNft.sol:PollutionNft",
        "label": "_allTokensIndex",
        "offset": 0,
        "slot": "9",
        "type": "t_mapping(t_uint256,t_uint256)"
      },
      {
        "astId": 4714,
        "contract": "contracts/PollutionNft.sol:PollutionNft",
        "label": "s_tokenCounter",
        "offset": 0,
        "slot": "10",
        "type": "t_uint256"
      },
      {
        "astId": 4718,
        "contract": "contracts/PollutionNft.sol:PollutionNft",
        "label": "industrySvgMap",
        "offset": 0,
        "slot": "11",
        "type": "t_mapping(t_string_memory_ptr,t_string_storage)"
      },
      {
        "astId": 4722,
        "contract": "contracts/PollutionNft.sol:PollutionNft",
        "label": "citizenSvgMap",
        "offset": 0,
        "slot": "12",
        "type": "t_mapping(t_string_memory_ptr,t_string_storage)"
      },
      {
        "astId": 4726,
        "contract": "contracts/PollutionNft.sol:PollutionNft",
        "label": "contractAddresses",
        "offset": 0,
        "slot": "13",
        "type": "t_mapping(t_address,t_address)"
      },
      {
        "astId": 4728,
        "contract": "contracts/PollutionNft.sol:PollutionNft",
        "label": "admin",
        "offset": 0,
        "slot": "14",
        "type": "t_address"
      },
      {
        "astId": 4732,
        "contract": "contracts/PollutionNft.sol:PollutionNft",
        "label": "industryBaseSvg",
        "offset": 0,
        "slot": "15",
        "type": "t_array(t_string_storage)2_storage"
      },
      {
        "astId": 4736,
        "contract": "contracts/PollutionNft.sol:PollutionNft",
        "label": "citizenBaseSvg",
        "offset": 0,
        "slot": "17",
        "type": "t_array(t_string_storage)2_storage"
      },
      {
        "astId": 4740,
        "contract": "contracts/PollutionNft.sol:PollutionNft",
        "label": "tIDtoImageURI",
        "offset": 0,
        "slot": "19",
        "type": "t_mapping(t_uint256,t_string_storage)"
      }
    ],
    "types": {
      "t_address": {
        "encoding": "inplace",
        "label": "address",
        "numberOfBytes": "20"
      },
      "t_array(t_string_storage)2_storage": {
        "base": "t_string_storage",
        "encoding": "inplace",
        "label": "string[2]",
        "numberOfBytes": "64"
      },
      "t_array(t_uint256)dyn_storage": {
        "base": "t_uint256",
        "encoding": "dynamic_array",
        "label": "uint256[]",
        "numberOfBytes": "32"
      },
      "t_bool": {
        "encoding": "inplace",
        "label": "bool",
        "numberOfBytes": "1"
      },
      "t_mapping(t_address,t_address)": {
        "encoding": "mapping",
        "key": "t_address",
        "label": "mapping(address => address)",
        "numberOfBytes": "32",
        "value": "t_address"
      },
      "t_mapping(t_address,t_bool)": {
        "encoding": "mapping",
        "key": "t_address",
        "label": "mapping(address => bool)",
        "numberOfBytes": "32",
        "value": "t_bool"
      },
      "t_mapping(t_address,t_mapping(t_address,t_bool))": {
        "encoding": "mapping",
        "key": "t_address",
        "label": "mapping(address => mapping(address => bool))",
        "numberOfBytes": "32",
        "value": "t_mapping(t_address,t_bool)"
      },
      "t_mapping(t_address,t_mapping(t_uint256,t_uint256))": {
        "encoding": "mapping",
        "key": "t_address",
        "label": "mapping(address => mapping(uint256 => uint256))",
        "numberOfBytes": "32",
        "value": "t_mapping(t_uint256,t_uint256)"
      },
      "t_mapping(t_address,t_uint256)": {
        "encoding": "mapping",
        "key": "t_address",
        "label": "mapping(address => uint256)",
        "numberOfBytes": "32",
        "value": "t_uint256"
      },
      "t_mapping(t_string_memory_ptr,t_string_storage)": {
        "encoding": "mapping",
        "key": "t_string_memory_ptr",
        "label": "mapping(string => string)",
        "numberOfBytes": "32",
        "value": "t_string_storage"
      },
      "t_mapping(t_uint256,t_address)": {
        "encoding": "mapping",
        "key": "t_uint256",
        "label": "mapping(uint256 => address)",
        "numberOfBytes": "32",
        "value": "t_address"
      },
      "t_mapping(t_uint256,t_string_storage)": {
        "encoding": "mapping",
        "key": "t_uint256",
        "label": "mapping(uint256 => string)",
        "numberOfBytes": "32",
        "value": "t_string_storage"
      },
      "t_mapping(t_uint256,t_uint256)": {
        "encoding": "mapping",
        "key": "t_uint256",
        "label": "mapping(uint256 => uint256)",
        "numberOfBytes": "32",
        "value": "t_uint256"
      },
      "t_string_memory_ptr": {
        "encoding": "bytes",
        "label": "string",
        "numberOfBytes": "32"
      },
      "t_string_storage": {
        "encoding": "bytes",
        "label": "string",
        "numberOfBytes": "32"
      },
      "t_uint256": {
        "encoding": "inplace",
        "label": "uint256",
        "numberOfBytes": "32"
      }
    }
  }
}