{
  "address": "0x9fE46736679d2D9a65F0992F2272dE9f3c7fa6e0",
  "abi": [
    {
      "inputs": [],
      "stateMutability": "nonpayable",
      "type": "constructor"
    },
    {
      "inputs": [],
      "name": "PollutionToken__Not_Enough_PT",
      "type": "error"
    },
    {
      "inputs": [],
      "name": "PollutionToken__Only_Allowed_Contracts",
      "type": "error"
    },
    {
      "anonymous": false,
      "inputs": [
        {
          "indexed": true,
          "internalType": "address",
          "name": "_owner",
          "type": "address"
        },
        {
          "indexed": true,
          "internalType": "address",
          "name": "_spender",
          "type": "address"
        },
        {
          "indexed": false,
          "internalType": "uint256",
          "name": "_value",
          "type": "uint256"
        }
      ],
      "name": "Approval",
      "type": "event"
    },
    {
      "anonymous": false,
      "inputs": [
        {
          "indexed": true,
          "internalType": "address",
          "name": "from",
          "type": "address"
        },
        {
          "indexed": false,
          "internalType": "uint256",
          "name": "value",
          "type": "uint256"
        }
      ],
      "name": "Burn",
      "type": "event"
    },
    {
      "anonymous": false,
      "inputs": [
        {
          "indexed": false,
          "internalType": "uint8",
          "name": "version",
          "type": "uint8"
        }
      ],
      "name": "Initialized",
      "type": "event"
    },
    {
      "anonymous": false,
      "inputs": [
        {
          "indexed": true,
          "internalType": "address",
          "name": "from",
          "type": "address"
        },
        {
          "indexed": true,
          "internalType": "address",
          "name": "to",
          "type": "address"
        },
        {
          "indexed": false,
          "internalType": "uint256",
          "name": "value",
          "type": "uint256"
        }
      ],
      "name": "Transfer",
      "type": "event"
    },
    {
      "inputs": [],
      "name": "_totalSupply",
      "outputs": [
        {
          "internalType": "uint256",
          "name": "",
          "type": "uint256"
        }
      ],
      "stateMutability": "view",
      "type": "function"
    },
    {
      "inputs": [
        {
          "internalType": "address",
          "name": "",
          "type": "address"
        },
        {
          "internalType": "address",
          "name": "",
          "type": "address"
        }
      ],
      "name": "allowance",
      "outputs": [
        {
          "internalType": "uint256",
          "name": "",
          "type": "uint256"
        }
      ],
      "stateMutability": "view",
      "type": "function"
    },
    {
      "inputs": [
        {
          "internalType": "address",
          "name": "_spender",
          "type": "address"
        },
        {
          "internalType": "uint256",
          "name": "_value",
          "type": "uint256"
        }
      ],
      "name": "approve",
      "outputs": [
        {
          "internalType": "bool",
          "name": "success",
          "type": "bool"
        }
      ],
      "stateMutability": "nonpayable",
      "type": "function"
    },
    {
      "inputs": [
        {
          "internalType": "address",
          "name": "_owner",
          "type": "address"
        }
      ],
      "name": "balanceOf",
      "outputs": [
        {
          "internalType": "uint256",
          "name": "balance",
          "type": "uint256"
        }
      ],
      "stateMutability": "view",
      "type": "function"
    },
    {
      "inputs": [
        {
          "internalType": "address",
          "name": "",
          "type": "address"
        }
      ],
      "name": "balances",
      "outputs": [
        {
          "internalType": "uint256",
          "name": "",
          "type": "uint256"
        }
      ],
      "stateMutability": "view",
      "type": "function"
    },
    {
      "inputs": [
        {
          "internalType": "uint256",
          "name": "_value",
          "type": "uint256"
        }
      ],
      "name": "burn",
      "outputs": [
        {
          "internalType": "bool",
          "name": "success",
          "type": "bool"
        }
      ],
      "stateMutability": "nonpayable",
      "type": "function"
    },
    {
      "inputs": [
        {
          "internalType": "address",
          "name": "_from",
          "type": "address"
        },
        {
          "internalType": "uint256",
          "name": "_value",
          "type": "uint256"
        }
      ],
      "name": "burnFrom",
      "outputs": [
        {
          "internalType": "bool",
          "name": "success",
          "type": "bool"
        }
      ],
      "stateMutability": "nonpayable",
      "type": "function"
    },
    {
      "inputs": [],
      "name": "decimals",
      "outputs": [
        {
          "internalType": "uint8",
          "name": "",
          "type": "uint8"
        }
      ],
      "stateMutability": "view",
      "type": "function"
    },
    {
      "inputs": [],
      "name": "getAdminAddress",
      "outputs": [
        {
          "internalType": "address",
          "name": "",
          "type": "address"
        }
      ],
      "stateMutability": "view",
      "type": "function"
    },
    {
      "inputs": [
        {
          "internalType": "address",
          "name": "master",
          "type": "address"
        },
        {
          "internalType": "address",
          "name": "slave",
          "type": "address"
        }
      ],
      "name": "getAllowance",
      "outputs": [
        {
          "internalType": "uint256",
          "name": "",
          "type": "uint256"
        }
      ],
      "stateMutability": "view",
      "type": "function"
    },
    {
      "inputs": [],
      "name": "getContractAddress",
      "outputs": [
        {
          "internalType": "address",
          "name": "",
          "type": "address"
        }
      ],
      "stateMutability": "view",
      "type": "function"
    },
    {
      "inputs": [],
      "name": "getPTtoEthRate",
      "outputs": [
        {
          "internalType": "uint256",
          "name": "",
          "type": "uint256"
        }
      ],
      "stateMutability": "view",
      "type": "function"
    },
    {
      "inputs": [
        {
          "internalType": "address",
          "name": "receiver",
          "type": "address"
        }
      ],
      "name": "getPreviousSender",
      "outputs": [
        {
          "internalType": "address",
          "name": "",
          "type": "address"
        }
      ],
      "stateMutability": "view",
      "type": "function"
    },
    {
      "inputs": [],
      "name": "getUserCount",
      "outputs": [
        {
          "internalType": "uint256",
          "name": "",
          "type": "uint256"
        }
      ],
      "stateMutability": "view",
      "type": "function"
    },
    {
      "inputs": [
        {
          "internalType": "uint256",
          "name": "initialSupply",
          "type": "uint256"
        },
        {
          "internalType": "string",
          "name": "_tokenName",
          "type": "string"
        },
        {
          "internalType": "string",
          "name": "_tokenSymbol",
          "type": "string"
        }
      ],
      "name": "initialize",
      "outputs": [],
      "stateMutability": "nonpayable",
      "type": "function"
    },
    {
      "inputs": [],
      "name": "name",
      "outputs": [
        {
          "internalType": "string",
          "name": "",
          "type": "string"
        }
      ],
      "stateMutability": "view",
      "type": "function"
    },
    {
      "inputs": [
        {
          "internalType": "address",
          "name": "",
          "type": "address"
        }
      ],
      "name": "reversePartecipants",
      "outputs": [
        {
          "internalType": "address",
          "name": "",
          "type": "address"
        }
      ],
      "stateMutability": "view",
      "type": "function"
    },
    {
      "inputs": [
        {
          "internalType": "uint256",
          "name": "newRate",
          "type": "uint256"
        }
      ],
      "name": "setPTtoEthRate",
      "outputs": [],
      "stateMutability": "nonpayable",
      "type": "function"
    },
    {
      "inputs": [
        {
          "internalType": "address",
          "name": "contractAddr",
          "type": "address"
        },
        {
          "internalType": "address",
          "name": "sender",
          "type": "address"
        }
      ],
      "name": "storeContractAddress",
      "outputs": [],
      "stateMutability": "nonpayable",
      "type": "function"
    },
    {
      "inputs": [],
      "name": "symbol",
      "outputs": [
        {
          "internalType": "string",
          "name": "",
          "type": "string"
        }
      ],
      "stateMutability": "view",
      "type": "function"
    },
    {
      "inputs": [],
      "name": "totalSupply",
      "outputs": [
        {
          "internalType": "uint256",
          "name": "",
          "type": "uint256"
        }
      ],
      "stateMutability": "view",
      "type": "function"
    },
    {
      "inputs": [
        {
          "internalType": "address",
          "name": "_to",
          "type": "address"
        },
        {
          "internalType": "uint256",
          "name": "_value",
          "type": "uint256"
        }
      ],
      "name": "transfer",
      "outputs": [
        {
          "internalType": "bool",
          "name": "success",
          "type": "bool"
        }
      ],
      "stateMutability": "nonpayable",
      "type": "function"
    },
    {
      "inputs": [
        {
          "internalType": "address",
          "name": "from",
          "type": "address"
        },
        {
          "internalType": "address",
          "name": "to",
          "type": "address"
        },
        {
          "internalType": "uint256",
          "name": "value",
          "type": "uint256"
        }
      ],
      "name": "transferExtended",
      "outputs": [],
      "stateMutability": "nonpayable",
      "type": "function"
    },
    {
      "inputs": [
        {
          "internalType": "address",
          "name": "from",
          "type": "address"
        },
        {
          "internalType": "address",
          "name": "to",
          "type": "address"
        },
        {
          "internalType": "uint256",
          "name": "value",
          "type": "uint256"
        }
      ],
      "name": "transferForAddingEntities",
      "outputs": [],
      "stateMutability": "nonpayable",
      "type": "function"
    },
    {
      "inputs": [
        {
          "internalType": "address",
          "name": "_from",
          "type": "address"
        },
        {
          "internalType": "address",
          "name": "_to",
          "type": "address"
        },
        {
          "internalType": "uint256",
          "name": "_value",
          "type": "uint256"
        }
      ],
      "name": "transferFrom",
      "outputs": [
        {
          "internalType": "bool",
          "name": "success",
          "type": "bool"
        }
      ],
      "stateMutability": "nonpayable",
      "type": "function"
    }
  ],
  "numDeployments": 1,
  "solcInputHash": "2715368bcb01da5e9cbc80cf17b4e254",
  "bytecode": "0x60806040523480156200001157600080fd5b50620000226200002860201b60201c565b620001d2565b600060019054906101000a900460ff16156200007b576040517f08c379a0000000000000000000000000000000000000000000000000000000008152600401620000729062000175565b60405180910390fd5b60ff801660008054906101000a900460ff1660ff1614620000ec5760ff6000806101000a81548160ff021916908360ff1602179055507f7f26b83ff96e1f2b6a682f133852f6798a09c465da95921460cefb384740249860ff604051620000e39190620001b5565b60405180910390a15b565b600082825260208201905092915050565b7f496e697469616c697a61626c653a20636f6e747261637420697320696e69746960008201527f616c697a696e6700000000000000000000000000000000000000000000000000602082015250565b60006200015d602783620000ee565b91506200016a82620000ff565b604082019050919050565b6000602082019050818103600083015262000190816200014e565b9050919050565b600060ff82169050919050565b620001af8162000197565b82525050565b6000602082019050620001cc6000830184620001a4565b92915050565b612b2680620001e26000396000f3fe608060405234801561001057600080fd5b50600436106101735760003560e01c8063434dd142116100de578063b2e6b91211610097578063dc5314f211610071578063dc5314f21461049e578063dd62ed3e146104ba578063ea64b234146104ea578063eedfca5f1461050657610173565b8063b2e6b91214610446578063b5cb15f714610464578063c697a7c81461048257610173565b8063434dd1421461034c5780635e94ac051461036857806370a082311461039857806379cc6790146103c857806395d89b41146103f8578063a9059cbb1461041657610173565b806323b872dd1161013057806323b872dd1461026257806327e235e314610292578063313ce567146102c257806332a2c5d0146102e05780633eaaf86b146102fe57806342966c681461031c57610173565b806306fdde0314610178578063095ea7b3146101965780630af4187d146101c657806315b317ac146101f657806315d17c1f1461022657806318160ddd14610244575b600080fd5b610180610522565b60405161018d9190611e9c565b60405180910390f35b6101b060048036038101906101ab9190611f66565b6105b4565b6040516101bd9190611fc1565b60405180910390f35b6101e060048036038101906101db9190611fdc565b610795565b6040516101ed919061202b565b60405180910390f35b610210600480360381019061020b9190612046565b61081c565b60405161021d9190612082565b60405180910390f35b61022e61084f565b60405161023b919061202b565b60405180910390f35b61024c610859565b604051610259919061202b565b60405180910390f35b61027c6004803603810190610277919061209d565b610863565b6040516102899190611fc1565b60405180910390f35b6102ac60048036038101906102a79190612046565b610a85565b6040516102b9919061202b565b60405180910390f35b6102ca610a9d565b6040516102d7919061210c565b60405180910390f35b6102e8610ab4565b6040516102f59190612082565b60405180910390f35b610306610abc565b604051610313919061202b565b60405180910390f35b61033660048036038101906103319190612127565b610ac2565b6040516103439190611fc1565b60405180910390f35b61036660048036038101906103619190612127565b610bd6565b005b610382600480360381019061037d9190612046565b610cc6565b60405161038f9190612082565b60405180910390f35b6103b260048036038101906103ad9190612046565b610d2f565b6040516103bf919061202b565b60405180910390f35b6103e260048036038101906103dd9190611f66565b610d78565b6040516103ef9190611fc1565b60405180910390f35b610400610fa9565b60405161040d9190611e9c565b60405180910390f35b610430600480360381019061042b9190611f66565b61103b565b60405161043d9190611fc1565b60405180910390f35b61044e611052565b60405161045b9190612082565b60405180910390f35b61046c61107c565b604051610479919061202b565b60405180910390f35b61049c60048036038101906104979190611fdc565b611086565b005b6104b860048036038101906104b3919061209d565b611198565b005b6104d460048036038101906104cf9190611fdc565b61128e565b6040516104e1919061202b565b60405180910390f35b61050460048036038101906104ff919061209d565b6112b3565b005b610520600480360381019061051b9190612289565b6114b4565b005b60606001805461053190612343565b80601f016020809104026020016040519081016040528092919081815260200182805461055d90612343565b80156105aa5780601f1061057f576101008083540402835291602001916105aa565b820191906000526020600020905b81548152906001019060200180831161058d57829003601f168201915b5050505050905090565b6000600560009054906101000a900473ffffffffffffffffffffffffffffffffffffffff1673ffffffffffffffffffffffffffffffffffffffff16600760003373ffffffffffffffffffffffffffffffffffffffff1673ffffffffffffffffffffffffffffffffffffffff16815260200190815260200160002060009054906101000a900473ffffffffffffffffffffffffffffffffffffffff1673ffffffffffffffffffffffffffffffffffffffff16146106a5576040517f08c379a000000000000000000000000000000000000000000000000000000000815260040161069c906123c0565b60405180910390fd5b81600960003373ffffffffffffffffffffffffffffffffffffffff1673ffffffffffffffffffffffffffffffffffffffff16815260200190815260200160002060008573ffffffffffffffffffffffffffffffffffffffff1673ffffffffffffffffffffffffffffffffffffffff168152602001908152602001600020819055508273ffffffffffffffffffffffffffffffffffffffff163373ffffffffffffffffffffffffffffffffffffffff167f8c5be1e5ebec7d5bd14f71427d1e84f3dd0314c0f7b2291e5b200ac8c7c3b92584604051610783919061202b565b60405180910390a36001905092915050565b6000600960008473ffffffffffffffffffffffffffffffffffffffff1673ffffffffffffffffffffffffffffffffffffffff16815260200190815260200160002060008373ffffffffffffffffffffffffffffffffffffffff1673ffffffffffffffffffffffffffffffffffffffff16815260200190815260200160002054905092915050565b600a6020528060005260406000206000915054906101000a900473ffffffffffffffffffffffffffffffffffffffff1681565b6000600b54905090565b6000600454905090565b6000600960008573ffffffffffffffffffffffffffffffffffffffff1673ffffffffffffffffffffffffffffffffffffffff16815260200190815260200160002060008473ffffffffffffffffffffffffffffffffffffffff1673ffffffffffffffffffffffffffffffffffffffff16815260200190815260200160002054821115801561099d5750600560009054906101000a900473ffffffffffffffffffffffffffffffffffffffff1673ffffffffffffffffffffffffffffffffffffffff16600760003373ffffffffffffffffffffffffffffffffffffffff1673ffffffffffffffffffffffffffffffffffffffff16815260200190815260200160002060009054906101000a900473ffffffffffffffffffffffffffffffffffffffff1673ffffffffffffffffffffffffffffffffffffffff16145b6109dc576040517f08c379a00000000000000000000000000000000000000000000000000000000081526004016109d390612452565b60405180910390fd5b81600960008673ffffffffffffffffffffffffffffffffffffffff1673ffffffffffffffffffffffffffffffffffffffff16815260200190815260200160002060008573ffffffffffffffffffffffffffffffffffffffff1673ffffffffffffffffffffffffffffffffffffffff1681526020019081526020016000206000828254610a6891906124a1565b92505081905550610a7a8484846116ed565b600190509392505050565b60086020528060005260406000206000915090505481565b6000600360009054906101000a900460ff16905090565b600033905090565b60045481565b600081600860003373ffffffffffffffffffffffffffffffffffffffff1673ffffffffffffffffffffffffffffffffffffffff168152602001908152602001600020541015610b1057600080fd5b81600860003373ffffffffffffffffffffffffffffffffffffffff1673ffffffffffffffffffffffffffffffffffffffff1681526020019081526020016000206000828254610b5f91906124a1565b925050819055508160046000828254610b7891906124a1565b925050819055503373ffffffffffffffffffffffffffffffffffffffff167fcc16f5dbb4873280815c1ee09dbd06736cffcc184412cf7a71a0fdb75d397ca583604051610bc5919061202b565b60405180910390a260019050919050565b600560009054906101000a900473ffffffffffffffffffffffffffffffffffffffff1673ffffffffffffffffffffffffffffffffffffffff16600760003373ffffffffffffffffffffffffffffffffffffffff1673ffffffffffffffffffffffffffffffffffffffff16815260200190815260200160002060009054906101000a900473ffffffffffffffffffffffffffffffffffffffff1673ffffffffffffffffffffffffffffffffffffffff1614610cbc576040517f15213d7d00000000000000000000000000000000000000000000000000000000815260040160405180910390fd5b80600b8190555050565b6000600a60008373ffffffffffffffffffffffffffffffffffffffff1673ffffffffffffffffffffffffffffffffffffffff16815260200190815260200160002060009054906101000a900473ffffffffffffffffffffffffffffffffffffffff169050919050565b6000600860008373ffffffffffffffffffffffffffffffffffffffff1673ffffffffffffffffffffffffffffffffffffffff168152602001908152602001600020549050919050565b600081600860008573ffffffffffffffffffffffffffffffffffffffff1673ffffffffffffffffffffffffffffffffffffffff168152602001908152602001600020541015610dc657600080fd5b600960008473ffffffffffffffffffffffffffffffffffffffff1673ffffffffffffffffffffffffffffffffffffffff16815260200190815260200160002060003373ffffffffffffffffffffffffffffffffffffffff1673ffffffffffffffffffffffffffffffffffffffff16815260200190815260200160002054821115610e4f57600080fd5b81600860008573ffffffffffffffffffffffffffffffffffffffff1673ffffffffffffffffffffffffffffffffffffffff1681526020019081526020016000206000828254610e9e91906124a1565b9250508190555081600960008573ffffffffffffffffffffffffffffffffffffffff1673ffffffffffffffffffffffffffffffffffffffff16815260200190815260200160002060003373ffffffffffffffffffffffffffffffffffffffff1673ffffffffffffffffffffffffffffffffffffffff1681526020019081526020016000206000828254610f3191906124a1565b925050819055508160046000828254610f4a91906124a1565b925050819055508273ffffffffffffffffffffffffffffffffffffffff167fcc16f5dbb4873280815c1ee09dbd06736cffcc184412cf7a71a0fdb75d397ca583604051610f97919061202b565b60405180910390a26001905092915050565b606060028054610fb890612343565b80601f0160208091040260200160405190810160405280929190818152602001828054610fe490612343565b80156110315780601f1061100657610100808354040283529160200191611031565b820191906000526020600020905b81548152906001019060200180831161101457829003601f168201915b5050505050905090565b60006110483384846116ed565b6001905092915050565b6000600560009054906101000a900473ffffffffffffffffffffffffffffffffffffffff16905090565b6000600654905090565b600560009054906101000a900473ffffffffffffffffffffffffffffffffffffffff1673ffffffffffffffffffffffffffffffffffffffff168173ffffffffffffffffffffffffffffffffffffffff1614611116576040517f08c379a000000000000000000000000000000000000000000000000000000000815260040161110d90612547565b60405180910390fd5b80600760008473ffffffffffffffffffffffffffffffffffffffff1673ffffffffffffffffffffffffffffffffffffffff16815260200190815260200160002060006101000a81548173ffffffffffffffffffffffffffffffffffffffff021916908373ffffffffffffffffffffffffffffffffffffffff1602179055505050565b600560009054906101000a900473ffffffffffffffffffffffffffffffffffffffff1673ffffffffffffffffffffffffffffffffffffffff16600760003373ffffffffffffffffffffffffffffffffffffffff1673ffffffffffffffffffffffffffffffffffffffff16815260200190815260200160002060009054906101000a900473ffffffffffffffffffffffffffffffffffffffff1673ffffffffffffffffffffffffffffffffffffffff161461127e576040517f15213d7d00000000000000000000000000000000000000000000000000000000815260040160405180910390fd5b6112898383836116ed565b505050565b6009602052816000526040600020602052806000526040600020600091509150505481565b600560009054906101000a900473ffffffffffffffffffffffffffffffffffffffff1673ffffffffffffffffffffffffffffffffffffffff16600760003373ffffffffffffffffffffffffffffffffffffffff1673ffffffffffffffffffffffffffffffffffffffff16815260200190815260200160002060009054906101000a900473ffffffffffffffffffffffffffffffffffffffff1673ffffffffffffffffffffffffffffffffffffffff1614611399576040517f15213d7d00000000000000000000000000000000000000000000000000000000815260040160405180910390fd5b80600860008573ffffffffffffffffffffffffffffffffffffffff1673ffffffffffffffffffffffffffffffffffffffff1681526020019081526020016000205411611411576040517f50b9b74800000000000000000000000000000000000000000000000000000000815260040160405180910390fd5b82600a60008473ffffffffffffffffffffffffffffffffffffffff1673ffffffffffffffffffffffffffffffffffffffff16815260200190815260200160002060006101000a81548173ffffffffffffffffffffffffffffffffffffffff021916908373ffffffffffffffffffffffffffffffffffffffff160217905550600160065461149e9190612567565b6006819055506114af838383611198565b505050565b60008060019054906101000a900460ff161590508080156114e55750600160008054906101000a900460ff1660ff16105b8061151257506114f430611de9565b1580156115115750600160008054906101000a900460ff1660ff16145b5b611551576040517f08c379a00000000000000000000000000000000000000000000000000000000081526004016115489061260d565b60405180910390fd5b60016000806101000a81548160ff021916908360ff160217905550801561158e576001600060016101000a81548160ff0219169083151502179055505b6012600360006101000a81548160ff021916908360ff160217905550600360009054906101000a900460ff1660ff16600a6115c99190612760565b846115d491906127ab565b600481905550600454600860003373ffffffffffffffffffffffffffffffffffffffff1673ffffffffffffffffffffffffffffffffffffffff1681526020019081526020016000208190555033600560006101000a81548173ffffffffffffffffffffffffffffffffffffffff021916908373ffffffffffffffffffffffffffffffffffffffff16021790555082600190816116709190612999565b5081600290816116809190612999565b506514eb1ad47000600b8190555080156116e75760008060016101000a81548160ff0219169083151502179055507f7f26b83ff96e1f2b6a682f133852f6798a09c465da95921460cefb384740249860016040516116de9190612aa6565b60405180910390a15b50505050565b600073ffffffffffffffffffffffffffffffffffffffff168273ffffffffffffffffffffffffffffffffffffffff160361172657600080fd5b80600860008573ffffffffffffffffffffffffffffffffffffffff1673ffffffffffffffffffffffffffffffffffffffff16815260200190815260200160002054111580156118225750600560009054906101000a900473ffffffffffffffffffffffffffffffffffffffff1673ffffffffffffffffffffffffffffffffffffffff16600760003373ffffffffffffffffffffffffffffffffffffffff1673ffffffffffffffffffffffffffffffffffffffff16815260200190815260200160002060009054906101000a900473ffffffffffffffffffffffffffffffffffffffff1673ffffffffffffffffffffffffffffffffffffffff1614155b15611859576040517f50b9b74800000000000000000000000000000000000000000000000000000000815260040160405180910390fd5b600860008373ffffffffffffffffffffffffffffffffffffffff1673ffffffffffffffffffffffffffffffffffffffff1681526020019081526020016000205481600860008573ffffffffffffffffffffffffffffffffffffffff1673ffffffffffffffffffffffffffffffffffffffff168152602001908152602001600020546118e49190612567565b10156118ef57600080fd5b6000600860008473ffffffffffffffffffffffffffffffffffffffff1673ffffffffffffffffffffffffffffffffffffffff16815260200190815260200160002054600860008673ffffffffffffffffffffffffffffffffffffffff1673ffffffffffffffffffffffffffffffffffffffff1681526020019081526020016000205461197b9190612567565b905081600860008673ffffffffffffffffffffffffffffffffffffffff1673ffffffffffffffffffffffffffffffffffffffff1681526020019081526020016000205411158015611a785750600560009054906101000a900473ffffffffffffffffffffffffffffffffffffffff1673ffffffffffffffffffffffffffffffffffffffff16600760003373ffffffffffffffffffffffffffffffffffffffff1673ffffffffffffffffffffffffffffffffffffffff16815260200190815260200160002060009054906101000a900473ffffffffffffffffffffffffffffffffffffffff1673ffffffffffffffffffffffffffffffffffffffff16145b15611c3857600860008573ffffffffffffffffffffffffffffffffffffffff1673ffffffffffffffffffffffffffffffffffffffff16815260200190815260200160002054600860008573ffffffffffffffffffffffffffffffffffffffff1673ffffffffffffffffffffffffffffffffffffffff16815260200190815260200160002054611b079190612567565b600860008573ffffffffffffffffffffffffffffffffffffffff1673ffffffffffffffffffffffffffffffffffffffff168152602001908152602001600020819055508273ffffffffffffffffffffffffffffffffffffffff168473ffffffffffffffffffffffffffffffffffffffff167fddf252ad1be2c89b69c2b068fc378daa952ba7f163c4a11628f55a4df523b3ef600860008873ffffffffffffffffffffffffffffffffffffffff1673ffffffffffffffffffffffffffffffffffffffff16815260200190815260200160002054604051611be6919061202b565b60405180910390a36000600860008673ffffffffffffffffffffffffffffffffffffffff1673ffffffffffffffffffffffffffffffffffffffff16815260200190815260200160002081905550611d4a565b81600860008673ffffffffffffffffffffffffffffffffffffffff1673ffffffffffffffffffffffffffffffffffffffff1681526020019081526020016000206000828254611c8791906124a1565b9250508190555081600860008573ffffffffffffffffffffffffffffffffffffffff1673ffffffffffffffffffffffffffffffffffffffff1681526020019081526020016000206000828254611cdd9190612567565b925050819055508273ffffffffffffffffffffffffffffffffffffffff168473ffffffffffffffffffffffffffffffffffffffff167fddf252ad1be2c89b69c2b068fc378daa952ba7f163c4a11628f55a4df523b3ef84604051611d41919061202b565b60405180910390a35b80600860008573ffffffffffffffffffffffffffffffffffffffff1673ffffffffffffffffffffffffffffffffffffffff16815260200190815260200160002054600860008773ffffffffffffffffffffffffffffffffffffffff1673ffffffffffffffffffffffffffffffffffffffff16815260200190815260200160002054611dd59190612567565b14611de357611de2612ac1565b5b50505050565b6000808273ffffffffffffffffffffffffffffffffffffffff163b119050919050565b600081519050919050565b600082825260208201905092915050565b60005b83811015611e46578082015181840152602081019050611e2b565b60008484015250505050565b6000601f19601f8301169050919050565b6000611e6e82611e0c565b611e788185611e17565b9350611e88818560208601611e28565b611e9181611e52565b840191505092915050565b60006020820190508181036000830152611eb68184611e63565b905092915050565b6000604051905090565b600080fd5b600080fd5b600073ffffffffffffffffffffffffffffffffffffffff82169050919050565b6000611efd82611ed2565b9050919050565b611f0d81611ef2565b8114611f1857600080fd5b50565b600081359050611f2a81611f04565b92915050565b6000819050919050565b611f4381611f30565b8114611f4e57600080fd5b50565b600081359050611f6081611f3a565b92915050565b60008060408385031215611f7d57611f7c611ec8565b5b6000611f8b85828601611f1b565b9250506020611f9c85828601611f51565b9150509250929050565b60008115159050919050565b611fbb81611fa6565b82525050565b6000602082019050611fd66000830184611fb2565b92915050565b60008060408385031215611ff357611ff2611ec8565b5b600061200185828601611f1b565b925050602061201285828601611f1b565b9150509250929050565b61202581611f30565b82525050565b6000602082019050612040600083018461201c565b92915050565b60006020828403121561205c5761205b611ec8565b5b600061206a84828501611f1b565b91505092915050565b61207c81611ef2565b82525050565b60006020820190506120976000830184612073565b92915050565b6000806000606084860312156120b6576120b5611ec8565b5b60006120c486828701611f1b565b93505060206120d586828701611f1b565b92505060406120e686828701611f51565b9150509250925092565b600060ff82169050919050565b612106816120f0565b82525050565b600060208201905061212160008301846120fd565b92915050565b60006020828403121561213d5761213c611ec8565b5b600061214b84828501611f51565b91505092915050565b600080fd5b600080fd5b7f4e487b7100000000000000000000000000000000000000000000000000000000600052604160045260246000fd5b61219682611e52565b810181811067ffffffffffffffff821117156121b5576121b461215e565b5b80604052505050565b60006121c8611ebe565b90506121d4828261218d565b919050565b600067ffffffffffffffff8211156121f4576121f361215e565b5b6121fd82611e52565b9050602081019050919050565b82818337600083830152505050565b600061222c612227846121d9565b6121be565b90508281526020810184848401111561224857612247612159565b5b61225384828561220a565b509392505050565b600082601f8301126122705761226f612154565b5b8135612280848260208601612219565b91505092915050565b6000806000606084860312156122a2576122a1611ec8565b5b60006122b086828701611f51565b935050602084013567ffffffffffffffff8111156122d1576122d0611ecd565b5b6122dd8682870161225b565b925050604084013567ffffffffffffffff8111156122fe576122fd611ecd565b5b61230a8682870161225b565b9150509250925092565b7f4e487b7100000000000000000000000000000000000000000000000000000000600052602260045260246000fd5b6000600282049050600182168061235b57607f821691505b60208210810361236e5761236d612314565b5b50919050565b7f796f7520617265206e6f7420617070726f766564000000000000000000000000600082015250565b60006123aa601483611e17565b91506123b582612374565b602082019050919050565b600060208201905081810360008301526123d98161239d565b9050919050565b7f796f7520617265206e6f7420616c6c6f77656420746f20646f207472616e736660008201527f657246726f6d2066756e6374696f6e0000000000000000000000000000000000602082015250565b600061243c602f83611e17565b9150612447826123e0565b604082019050919050565b6000602082019050818103600083015261246b8161242f565b9050919050565b7f4e487b7100000000000000000000000000000000000000000000000000000000600052601160045260246000fd5b60006124ac82611f30565b91506124b783611f30565b92508282039050818111156124cf576124ce612472565b5b92915050565b7f796f7520617265206e6f7420616c6c6f77656420746f20646f20746861742c2060008201527f796f7520617265206e6f74207468652061646d696e0000000000000000000000602082015250565b6000612531603583611e17565b915061253c826124d5565b604082019050919050565b6000602082019050818103600083015261256081612524565b9050919050565b600061257282611f30565b915061257d83611f30565b925082820190508082111561259557612594612472565b5b92915050565b7f496e697469616c697a61626c653a20636f6e747261637420697320616c72656160008201527f647920696e697469616c697a6564000000000000000000000000000000000000602082015250565b60006125f7602e83611e17565b91506126028261259b565b604082019050919050565b60006020820190508181036000830152612626816125ea565b9050919050565b60008160011c9050919050565b6000808291508390505b6001851115612684578086048111156126605761265f612472565b5b600185161561266f5780820291505b808102905061267d8561262d565b9450612644565b94509492505050565b60008261269d5760019050612759565b816126ab5760009050612759565b81600181146126c157600281146126cb576126fa565b6001915050612759565b60ff8411156126dd576126dc612472565b5b8360020a9150848211156126f4576126f3612472565b5b50612759565b5060208310610133831016604e8410600b841016171561272f5782820a90508381111561272a57612729612472565b5b612759565b61273c848484600161263a565b9250905081840481111561275357612752612472565b5b81810290505b9392505050565b600061276b82611f30565b915061277683611f30565b92506127a37fffffffffffffffffffffffffffffffffffffffffffffffffffffffffffffffff848461268d565b905092915050565b60006127b682611f30565b91506127c183611f30565b92508282026127cf81611f30565b915082820484148315176127e6576127e5612472565b5b5092915050565b60008190508160005260206000209050919050565b60006020601f8301049050919050565b600082821b905092915050565b60006008830261284f7fffffffffffffffffffffffffffffffffffffffffffffffffffffffffffffffff82612812565b6128598683612812565b95508019841693508086168417925050509392505050565b6000819050919050565b600061289661289161288c84611f30565b612871565b611f30565b9050919050565b6000819050919050565b6128b08361287b565b6128c46128bc8261289d565b84845461281f565b825550505050565b600090565b6128d96128cc565b6128e48184846128a7565b505050565b5b81811015612908576128fd6000826128d1565b6001810190506128ea565b5050565b601f82111561294d5761291e816127ed565b61292784612802565b81016020851015612936578190505b61294a61294285612802565b8301826128e9565b50505b505050565b600082821c905092915050565b600061297060001984600802612952565b1980831691505092915050565b6000612989838361295f565b9150826002028217905092915050565b6129a282611e0c565b67ffffffffffffffff8111156129bb576129ba61215e565b5b6129c58254612343565b6129d082828561290c565b600060209050601f831160018114612a0357600084156129f1578287015190505b6129fb858261297d565b865550612a63565b601f198416612a11866127ed565b60005b82811015612a3957848901518255600182019150602085019450602081019050612a14565b86831015612a565784890151612a52601f89168261295f565b8355505b6001600288020188555050505b505050505050565b6000819050919050565b6000612a90612a8b612a8684612a6b565b612871565b6120f0565b9050919050565b612aa081612a75565b82525050565b6000602082019050612abb6000830184612a97565b92915050565b7f4e487b7100000000000000000000000000000000000000000000000000000000600052600160045260246000fdfea264697066735822122066f988004ef88785bc8418b37335b0d557e697244a6d60fac76fbf0105ee6cc064736f6c63430008150033",
  "devdoc": {
    "author": "Giuseppe La Vecchia",
    "custom:experimental": "This is an experimental contract.",
    "details": "ERC721Enumerable is used because of tokenOfOwnerByIndex method.",
    "events": {
      "Initialized(uint8)": {
        "details": "Triggered when the contract has been initialized or reinitialized."
      }
    },
    "kind": "dev",
    "methods": {
      "approve(address,uint256)": {
        "params": {
          "_spender": "The address authorized to spend",
          "_value": "the max amount they can spend"
        }
      },
      "burn(uint256)": {
        "params": {
          "_value": "the amount of money to burn"
        }
      },
      "burnFrom(address,uint256)": {
        "params": {
          "_from": "the address of the sender",
          "_value": "the amount of money to burn"
        }
      },
      "constructor": {
        "custom:oz-upgrades-unsafe-allow": "constructor"
      },
      "getPreviousSender(address)": {
        "params": {
          "receiver": "the address of the one who received tokens in transferForAddingEntities function"
        }
      },
      "initialize(uint256,string,string)": {
        "params": {
          "_tokenName": "token name",
          "_tokenSymbol": "token symbol",
          "initialSupply": "the initial supply number of tokens"
        }
      },
      "storeContractAddress(address,address)": {
        "params": {
          "contractAddr": "The contract address authorized",
          "sender": "the admin address"
        }
      },
      "transfer(address,uint256)": {
        "params": {
          "_to": "The address of the recipient",
          "_value": "the amount to send"
        }
      },
      "transferExtended(address,address,uint256)": {
        "params": {
          "from": "the address of the sender. This is added to allow this contract to forward transactions from other contracts, like from DSESCenter.sol or CityCitizen.sol",
          "to": "The address of the recipient",
          "value": "the amount to send"
        }
      },
      "transferForAddingEntities(address,address,uint256)": {
        "params": {
          "from": "the address of the sender. This is added to allow this contract to forward transactions from other contracts, like from DSESCenter.sol or CityCitizen.sol",
          "to": "The address of the recipient",
          "value": "the amount to send"
        }
      },
      "transferFrom(address,address,uint256)": {
        "params": {
          "_from": "The address of the sender",
          "_to": "The address of the recipient",
          "_value": "the amount to send"
        }
      }
    },
    "title": "ERC-20 Contract for Pollution Tokens",
    "version": 1
  },
  "userdoc": {
    "kind": "user",
    "methods": {
      "approve(address,uint256)": {
        "notice": "Set allowance for other address Allows `_spender` to spend no more than `_value` tokens on your behalf"
      },
      "burn(uint256)": {
        "notice": "Destroy tokens Remove `_value` tokens from the system irreversibly"
      },
      "burnFrom(address,uint256)": {
        "notice": "Destroy tokens from other account Remove `_value` tokens from the system irreversibly on behalf of `_from`."
      },
      "getPreviousSender(address)": {
        "notice": "Set allowance for other address Allows `_spender` to spend no more than `_value` tokens on your behalf"
      },
      "initialize(uint256,string,string)": {
        "notice": "Initialize function for the proxy upgradable pattern by OpenZeppelinInitialize variables"
      },
      "storeContractAddress(address,address)": {
        "notice": "Store contract addresses that will interact with this contractAllows 'contractAddr' to call some special function on behalf of the original msg.sender user."
      },
      "transfer(address,uint256)": {
        "notice": "Transfer tokens Send `_value` tokens to `_to` from your account"
      },
      "transferExtended(address,address,uint256)": {
        "notice": "Transfer tokens with the \"from\" parameter Send `value` tokens to `to` 'from' your account"
      },
      "transferForAddingEntities(address,address,uint256)": {
        "notice": "Transfer tokens with the \"from\" parameter, used only for adding new entities to the system, like States,Cities or Citizens. Send `value` tokens to `to` 'from' your accountuserCount is used to count how many entities get registered to the system. It is used also for Citizens to generate a wallet for them with BIP44. ReversePartecipants is used to map the added entity (like Citizen) with the adding entity (like City) for rollback purpose, like giving back tokens to the \"from\" entity from the \"to\" entity."
      },
      "transferFrom(address,address,uint256)": {
        "notice": "Transfer tokens from other address Send `_value` tokens to `_to` on behalf of `_from`"
      }
    },
    "notice": "It contains ERC-20 methods to maintain interoperability with other contracts or users, but it implement some methods for use in DSES dApp",
    "version": 1
  },
  "storageLayout": {
    "storage": [
      {
        "astId": 6,
        "contract": "contracts/PollutionToken.sol:PollutionToken",
        "label": "_initialized",
        "offset": 0,
        "slot": "0",
        "type": "t_uint8"
      },
      {
        "astId": 9,
        "contract": "contracts/PollutionToken.sol:PollutionToken",
        "label": "_initializing",
        "offset": 1,
        "slot": "0",
        "type": "t_bool"
      },
      {
        "astId": 1517,
        "contract": "contracts/PollutionToken.sol:PollutionToken",
        "label": "tokenName",
        "offset": 0,
        "slot": "1",
        "type": "t_string_storage"
      },
      {
        "astId": 1519,
        "contract": "contracts/PollutionToken.sol:PollutionToken",
        "label": "tokenSymbol",
        "offset": 0,
        "slot": "2",
        "type": "t_string_storage"
      },
      {
        "astId": 1521,
        "contract": "contracts/PollutionToken.sol:PollutionToken",
        "label": "tokenDecimals",
        "offset": 0,
        "slot": "3",
        "type": "t_uint8"
      },
      {
        "astId": 1523,
        "contract": "contracts/PollutionToken.sol:PollutionToken",
        "label": "_totalSupply",
        "offset": 0,
        "slot": "4",
        "type": "t_uint256"
      },
      {
        "astId": 1525,
        "contract": "contracts/PollutionToken.sol:PollutionToken",
        "label": "admin",
        "offset": 0,
        "slot": "5",
        "type": "t_address"
      },
      {
        "astId": 1527,
        "contract": "contracts/PollutionToken.sol:PollutionToken",
        "label": "userCount",
        "offset": 0,
        "slot": "6",
        "type": "t_uint256"
      },
      {
        "astId": 1531,
        "contract": "contracts/PollutionToken.sol:PollutionToken",
        "label": "contractAddresses",
        "offset": 0,
        "slot": "7",
        "type": "t_mapping(t_address,t_address)"
      },
      {
        "astId": 1535,
        "contract": "contracts/PollutionToken.sol:PollutionToken",
        "label": "balances",
        "offset": 0,
        "slot": "8",
        "type": "t_mapping(t_address,t_uint256)"
      },
      {
        "astId": 1541,
        "contract": "contracts/PollutionToken.sol:PollutionToken",
        "label": "allowance",
        "offset": 0,
        "slot": "9",
        "type": "t_mapping(t_address,t_mapping(t_address,t_uint256))"
      },
      {
        "astId": 1545,
        "contract": "contracts/PollutionToken.sol:PollutionToken",
        "label": "reversePartecipants",
        "offset": 0,
        "slot": "10",
        "type": "t_mapping(t_address,t_address)"
      },
      {
        "astId": 1569,
        "contract": "contracts/PollutionToken.sol:PollutionToken",
        "label": "ptInEthRate",
        "offset": 0,
        "slot": "11",
        "type": "t_uint256"
      }
    ],
    "types": {
      "t_address": {
        "encoding": "inplace",
        "label": "address",
        "numberOfBytes": "20"
      },
      "t_bool": {
        "encoding": "inplace",
        "label": "bool",
        "numberOfBytes": "1"
      },
      "t_mapping(t_address,t_address)": {
        "encoding": "mapping",
        "key": "t_address",
        "label": "mapping(address => address)",
        "numberOfBytes": "32",
        "value": "t_address"
      },
      "t_mapping(t_address,t_mapping(t_address,t_uint256))": {
        "encoding": "mapping",
        "key": "t_address",
        "label": "mapping(address => mapping(address => uint256))",
        "numberOfBytes": "32",
        "value": "t_mapping(t_address,t_uint256)"
      },
      "t_mapping(t_address,t_uint256)": {
        "encoding": "mapping",
        "key": "t_address",
        "label": "mapping(address => uint256)",
        "numberOfBytes": "32",
        "value": "t_uint256"
      },
      "t_string_storage": {
        "encoding": "bytes",
        "label": "string",
        "numberOfBytes": "32"
      },
      "t_uint256": {
        "encoding": "inplace",
        "label": "uint256",
        "numberOfBytes": "32"
      },
      "t_uint8": {
        "encoding": "inplace",
        "label": "uint8",
        "numberOfBytes": "1"
      }
    }
  }
}