{
  "address": "0x71C1eBcF5755cd3428D972880C7E42614631EE65",
  "abi": [
    {
      "inputs": [],
      "stateMutability": "nonpayable",
      "type": "constructor"
    },
    {
      "anonymous": false,
      "inputs": [
        {
          "indexed": true,
          "internalType": "bytes32",
          "name": "id",
          "type": "bytes32"
        }
      ],
      "name": "ChainlinkCancelled",
      "type": "event"
    },
    {
      "anonymous": false,
      "inputs": [
        {
          "indexed": true,
          "internalType": "bytes32",
          "name": "id",
          "type": "bytes32"
        }
      ],
      "name": "ChainlinkFulfilled",
      "type": "event"
    },
    {
      "anonymous": false,
      "inputs": [
        {
          "indexed": true,
          "internalType": "bytes32",
          "name": "id",
          "type": "bytes32"
        }
      ],
      "name": "ChainlinkRequested",
      "type": "event"
    },
    {
      "anonymous": false,
      "inputs": [
        {
          "indexed": true,
          "internalType": "address",
          "name": "from",
          "type": "address"
        },
        {
          "indexed": true,
          "internalType": "address",
          "name": "to",
          "type": "address"
        }
      ],
      "name": "OwnershipTransferRequested",
      "type": "event"
    },
    {
      "anonymous": false,
      "inputs": [
        {
          "indexed": true,
          "internalType": "address",
          "name": "from",
          "type": "address"
        },
        {
          "indexed": true,
          "internalType": "address",
          "name": "to",
          "type": "address"
        }
      ],
      "name": "OwnershipTransferred",
      "type": "event"
    },
    {
      "anonymous": false,
      "inputs": [
        {
          "indexed": true,
          "internalType": "bytes32",
          "name": "requestId",
          "type": "bytes32"
        },
        {
          "indexed": false,
          "internalType": "uint256",
          "name": "volume",
          "type": "uint256"
        }
      ],
      "name": "RequestPopulation",
      "type": "event"
    },
    {
      "inputs": [
        {
          "internalType": "string",
          "name": "apiUrl",
          "type": "string"
        }
      ],
      "name": "RequestPopulationData",
      "outputs": [
        {
          "internalType": "bytes32",
          "name": "requestId",
          "type": "bytes32"
        }
      ],
      "stateMutability": "nonpayable",
      "type": "function"
    },
    {
      "inputs": [],
      "name": "acceptOwnership",
      "outputs": [],
      "stateMutability": "nonpayable",
      "type": "function"
    },
    {
      "inputs": [],
      "name": "balanceof",
      "outputs": [
        {
          "internalType": "uint256",
          "name": "",
          "type": "uint256"
        }
      ],
      "stateMutability": "view",
      "type": "function"
    },
    {
      "inputs": [
        {
          "internalType": "bytes32",
          "name": "_requestId",
          "type": "bytes32"
        },
        {
          "internalType": "uint256",
          "name": "_volume",
          "type": "uint256"
        }
      ],
      "name": "fulfill",
      "outputs": [],
      "stateMutability": "nonpayable",
      "type": "function"
    },
    {
      "inputs": [],
      "name": "fundContract",
      "outputs": [],
      "stateMutability": "nonpayable",
      "type": "function"
    },
    {
      "inputs": [],
      "name": "owner",
      "outputs": [
        {
          "internalType": "address",
          "name": "",
          "type": "address"
        }
      ],
      "stateMutability": "view",
      "type": "function"
    },
    {
      "inputs": [
        {
          "internalType": "address",
          "name": "to",
          "type": "address"
        }
      ],
      "name": "transferOwnership",
      "outputs": [],
      "stateMutability": "nonpayable",
      "type": "function"
    },
    {
      "inputs": [],
      "name": "volume",
      "outputs": [
        {
          "internalType": "uint256",
          "name": "",
          "type": "uint256"
        }
      ],
      "stateMutability": "view",
      "type": "function"
    },
    {
      "inputs": [],
      "name": "withdrawLink",
      "outputs": [],
      "stateMutability": "nonpayable",
      "type": "function"
    }
  ],
  "transactionHash": "0x8f3d7607028fd4624870bc157491825b2822b92441d0e7e690c6c8318bfec3df",
  "args": [],
  "numDeployments": 10,
  "solcInputHash": "d3761d6f9089119bb890b25bf8513efb",
  "bytecode": "0x608060405260016004553480156200001657600080fd5b50338060008073ffffffffffffffffffffffffffffffffffffffff168273ffffffffffffffffffffffffffffffffffffffff1614156200008d576040517f08c379a00000000000000000000000000000000000000000000000000000000081526004016200008490620003c2565b60405180910390fd5b81600660006101000a81548173ffffffffffffffffffffffffffffffffffffffff021916908373ffffffffffffffffffffffffffffffffffffffff160217905550600073ffffffffffffffffffffffffffffffffffffffff168173ffffffffffffffffffffffffffffffffffffffff161462000115576200011481620001ba60201b60201c565b5b5050506200013d73779877a7b0d9e8603169ddbd7836e478b4624789620002ec60201b60201c565b62000162736090149792daaee9d1d568c9f9a6f6b46aa29efd6200033060201b60201c565b7f6361393833363663633733313439353762386330313263373266303561656562600981905550600a670de0b6b3a76400006001620001a291906200044f565b620001ae919062000417565b600a819055506200056a565b3373ffffffffffffffffffffffffffffffffffffffff168173ffffffffffffffffffffffffffffffffffffffff1614156200022c576040517f08c379a00000000000000000000000000000000000000000000000000000000081526004016200022390620003e4565b60405180910390fd5b80600760006101000a81548173ffffffffffffffffffffffffffffffffffffffff021916908373ffffffffffffffffffffffffffffffffffffffff1602179055508073ffffffffffffffffffffffffffffffffffffffff16600660009054906101000a900473ffffffffffffffffffffffffffffffffffffffff1673ffffffffffffffffffffffffffffffffffffffff167fed8889f560326eb138920d842192f0eb3dd22b4f139c87a2c57538e05bae127860405160405180910390a350565b80600260006101000a81548173ffffffffffffffffffffffffffffffffffffffff021916908373ffffffffffffffffffffffffffffffffffffffff16021790555050565b80600360006101000a81548173ffffffffffffffffffffffffffffffffffffffff021916908373ffffffffffffffffffffffffffffffffffffffff16021790555050565b60006200038360188362000406565b9150620003908262000518565b602082019050919050565b6000620003aa60178362000406565b9150620003b78262000541565b602082019050919050565b60006020820190508181036000830152620003dd8162000374565b9050919050565b60006020820190508181036000830152620003ff816200039b565b9050919050565b600082825260208201905092915050565b60006200042482620004b0565b91506200043183620004b0565b925082620004445762000443620004e9565b5b828204905092915050565b60006200045c82620004b0565b91506200046983620004b0565b9250817fffffffffffffffffffffffffffffffffffffffffffffffffffffffffffffffff0483118215151615620004a557620004a4620004ba565b5b828202905092915050565b6000819050919050565b7f4e487b7100000000000000000000000000000000000000000000000000000000600052601160045260246000fd5b7f4e487b7100000000000000000000000000000000000000000000000000000000600052601260045260246000fd5b7f43616e6e6f7420736574206f776e657220746f207a65726f0000000000000000600082015250565b7f43616e6e6f74207472616e7366657220746f2073656c66000000000000000000600082015250565b612270806200057a6000396000f3fe608060405234801561001057600080fd5b50600436106100935760003560e01c80638da5cb5b116100665780638da5cb5b1461010c5780638dc654a21461012a578063bd097e2114610134578063c618a1e41461013e578063f2fde38b1461015c57610093565b80632980a5d3146100985780634357855e146100b657806375219681146100d257806379ba509714610102575b600080fd5b6100a0610178565b6040516100ad9190611aa7565b60405180910390f35b6100d060048036038101906100cb9190611636565b610214565b005b6100ec60048036038101906100e79190611676565b61035d565b6040516100f991906119cc565b60405180910390f35b61010a61049e565b005b610114610635565b604051610121919061189c565b60405180910390f35b61013261065f565b005b61013c6107ca565b005b610146610868565b6040516101539190611aa7565b60405180910390f35b610176600480360381019061017191906115dc565b61086e565b005b600080610183610882565b90508073ffffffffffffffffffffffffffffffffffffffff166370a08231336040518263ffffffff1660e01b81526004016101be919061189c565b60206040518083038186803b1580156101d657600080fd5b505afa1580156101ea573d6000803e3d6000fd5b505050506040513d601f19601f8201168201806040525081019061020e91906116bf565b91505090565b816005600082815260200190815260200160002060009054906101000a900473ffffffffffffffffffffffffffffffffffffffff1673ffffffffffffffffffffffffffffffffffffffff163373ffffffffffffffffffffffffffffffffffffffff16146102b6576040517f08c379a00000000000000000000000000000000000000000000000000000000081526004016102ad90611a87565b60405180910390fd5b6005600082815260200190815260200160002060006101000a81549073ffffffffffffffffffffffffffffffffffffffff0219169055807f7cc135e0cebb02c3480ae5d74d377283180a2601f8f644edf7987b009316c63a60405160405180910390a2827f5cca1609b1a446c1b662bc1abab8487d3c6767d002f39d2881ff531b92f9cfe4836040516103499190611aa7565b60405180910390a281600881905550505050565b60008061037460095430634357855e60e01b6108ac565b90506103c06040518060400160405280600381526020017f676574000000000000000000000000000000000000000000000000000000000081525084836108dd9092919063ffffffff16565b61043f6040518060400160405280600481526020017f70617468000000000000000000000000000000000000000000000000000000008152506040518060400160405280600981526020017f312c302c76616c75650000000000000000000000000000000000000000000000815250836108dd9092919063ffffffff16565b61048a6040518060400160405280600581526020017f74696d65730000000000000000000000000000000000000000000000000000008152506001836109109092919063ffffffff16565b61049681600a54610943565b915050919050565b600760009054906101000a900473ffffffffffffffffffffffffffffffffffffffff1673ffffffffffffffffffffffffffffffffffffffff163373ffffffffffffffffffffffffffffffffffffffff161461052e576040517f08c379a0000000000000000000000000000000000000000000000000000000008152600401610525906119e7565b60405180910390fd5b6000600660009054906101000a900473ffffffffffffffffffffffffffffffffffffffff16905033600660006101000a81548173ffffffffffffffffffffffffffffffffffffffff021916908373ffffffffffffffffffffffffffffffffffffffff1602179055506000600760006101000a81548173ffffffffffffffffffffffffffffffffffffffff021916908373ffffffffffffffffffffffffffffffffffffffff1602179055503373ffffffffffffffffffffffffffffffffffffffff168173ffffffffffffffffffffffffffffffffffffffff167f8be0079c531659141344cd1fd0a4f28419497f9722a3daafe3b4186f6b6457e060405160405180910390a350565b6000600660009054906101000a900473ffffffffffffffffffffffffffffffffffffffff16905090565b61066761097a565b6000610671610882565b90508073ffffffffffffffffffffffffffffffffffffffff1663a9059cbb338373ffffffffffffffffffffffffffffffffffffffff166370a08231306040518263ffffffff1660e01b81526004016106c9919061189c565b60206040518083038186803b1580156106e157600080fd5b505afa1580156106f5573d6000803e3d6000fd5b505050506040513d601f19601f8201168201806040525081019061071991906116bf565b6040518363ffffffff1660e01b81526004016107369291906118e0565b602060405180830381600087803b15801561075057600080fd5b505af1158015610764573d6000803e3d6000fd5b505050506040513d601f19601f820116820180604052508101906107889190611609565b6107c7576040517f08c379a00000000000000000000000000000000000000000000000000000000081526004016107be90611a47565b60405180910390fd5b50565b60006107d4610882565b90508073ffffffffffffffffffffffffffffffffffffffff1663a9059cbb3060016040518363ffffffff1660e01b81526004016108129291906118b7565b602060405180830381600087803b15801561082c57600080fd5b505af1158015610840573d6000803e3d6000fd5b505050506040513d601f19601f820116820180604052508101906108649190611609565b5050565b60085481565b61087661097a565b61087f81610a0c565b50565b6000600260009054906101000a900473ffffffffffffffffffffffffffffffffffffffff16905090565b6108b461147c565b6108bc61147c565b6108d385858584610b3b909392919063ffffffff16565b9150509392505050565b6108f4828460800151610beb90919063ffffffff16565b61090b818460800151610beb90919063ffffffff16565b505050565b610927828460800151610beb90919063ffffffff16565b61093e818460800151610c1090919063ffffffff16565b505050565b6000610972600360009054906101000a900473ffffffffffffffffffffffffffffffffffffffff168484610cbd565b905092915050565b600660009054906101000a900473ffffffffffffffffffffffffffffffffffffffff1673ffffffffffffffffffffffffffffffffffffffff163373ffffffffffffffffffffffffffffffffffffffff1614610a0a576040517f08c379a0000000000000000000000000000000000000000000000000000000008152600401610a0190611a27565b60405180910390fd5b565b3373ffffffffffffffffffffffffffffffffffffffff168173ffffffffffffffffffffffffffffffffffffffff161415610a7b576040517f08c379a0000000000000000000000000000000000000000000000000000000008152600401610a7290611a67565b60405180910390fd5b80600760006101000a81548173ffffffffffffffffffffffffffffffffffffffff021916908373ffffffffffffffffffffffffffffffffffffffff1602179055508073ffffffffffffffffffffffffffffffffffffffff16600660009054906101000a900473ffffffffffffffffffffffffffffffffffffffff1673ffffffffffffffffffffffffffffffffffffffff167fed8889f560326eb138920d842192f0eb3dd22b4f139c87a2c57538e05bae127860405160405180910390a350565b610b4361147c565b610b538560800151610100610d89565b508385600001818152505082856020019073ffffffffffffffffffffffffffffffffffffffff16908173ffffffffffffffffffffffffffffffffffffffff16815250508185604001907bffffffffffffffffffffffffffffffffffffffffffffffffffffffff191690817bffffffffffffffffffffffffffffffffffffffffffffffffffffffff191681525050849050949350505050565b610bf88260038351610df3565b610c0b8183610f7890919063ffffffff16565b505050565b7fffffffffffffffffffffffffffffffffffffffffffffffff0000000000000000811215610c4757610c428282610f9a565b610cb9565b67ffffffffffffffff811315610c6657610c618282611011565b610cb8565b60008112610c7f57610c7a82600083610df3565b610cb7565b610cb6826001837fffffffffffffffffffffffffffffffffffffffffffffffffffffffffffffffff610cb19190611d66565b610df3565b5b5b5b5050565b6000806004549050600181610cd29190611b45565b6004819055506000634042994660e01b60008087600001513089604001518760018c6080015160000151604051602401610d13989796959493929190611909565b604051602081830303815290604052907bffffffffffffffffffffffffffffffffffffffffffffffffffffffff19166020820180517bffffffffffffffffffffffffffffffffffffffffffffffffffffffff83818316178352505050509050610d7e8683868461105d565b925050509392505050565b610d916114e9565b6000602083610da09190611f9f565b14610dcc57602082610db29190611f9f565b6020610dbe9190611dfa565b82610dc99190611b45565b91505b81836020018181525050604051808452600081528281016020016040525082905092915050565b60178167ffffffffffffffff1611610e2a57610e248160058460ff16901b60ff16178461120190919063ffffffff16565b50610f73565b60ff8167ffffffffffffffff1611610e8057610e59601860058460ff16901b178461120190919063ffffffff16565b50610e7a8167ffffffffffffffff166001856112219092919063ffffffff16565b50610f72565b61ffff8167ffffffffffffffff1611610ed757610eb0601960058460ff16901b178461120190919063ffffffff16565b50610ed18167ffffffffffffffff166002856112219092919063ffffffff16565b50610f71565b63ffffffff8167ffffffffffffffff1611610f3057610f09601a60058460ff16901b178461120190919063ffffffff16565b50610f2a8167ffffffffffffffff166004856112219092919063ffffffff16565b50610f70565b610f4d601b60058460ff16901b178461120190919063ffffffff16565b50610f6e8167ffffffffffffffff166008856112219092919063ffffffff16565b505b5b5b5b505050565b610f806114e9565b610f9283846000015151848551611243565b905092915050565b610fb860036005600660ff16901b178361120190919063ffffffff16565b5061100d82827fffffffffffffffffffffffffffffffffffffffffffffffffffffffffffffffff610fe99190611d66565b604051602001610ff99190611aa7565b604051602081830303815290604052611332565b5050565b61102f60026005600660ff16901b178361120190919063ffffffff16565b5061105982826040516020016110459190611aa7565b604051602081830303815290604052611332565b5050565b60003084604051602001611072929190611870565b604051602081830303815290604052805190602001209050846005600083815260200190815260200160002060006101000a81548173ffffffffffffffffffffffffffffffffffffffff021916908373ffffffffffffffffffffffffffffffffffffffff160217905550807fb5e6e01e79f91267dc17b4e6314d5d4d03593d2ceee0fbb452b750bd70ea5af960405160405180910390a2600260009054906101000a900473ffffffffffffffffffffffffffffffffffffffff1673ffffffffffffffffffffffffffffffffffffffff16634000aea08685856040518463ffffffff1660e01b81526004016111689392919061198e565b602060405180830381600087803b15801561118257600080fd5b505af1158015611196573d6000803e3d6000fd5b505050506040513d601f19601f820116820180604052508101906111ba9190611609565b6111f9576040517f08c379a00000000000000000000000000000000000000000000000000000000081526004016111f090611a07565b60405180910390fd5b949350505050565b6112096114e9565b6112198384600001515184611357565b905092915050565b6112296114e9565b61123a8485600001515185856113ae565b90509392505050565b61124b6114e9565b825182111561125957600080fd5b8460200151828561126a9190611b45565b111561129f5761129e85600261128f8860200151888761128a9190611b45565b61143c565b6112999190611d0c565b611458565b5b6000808651805187602083010193508088870111156112be5787860182525b60208701925050505b6020841061130557805182526020826112e09190611b45565b91506020816112ef9190611b45565b90506020846112fe9190611dfa565b93506112c7565b60006001856020036101000a03905080198251168184511681811785525050508692505050949350505050565b61133f8260028351610df3565b6113528183610f7890919063ffffffff16565b505050565b61135f6114e9565b8360200151831061138557611384846002866020015161137f9190611d0c565b611458565b5b83518051602085830101848153818614156113a1576001820183525b5050508390509392505050565b6113b66114e9565b846020015184836113c79190611b45565b11156113ef576113ee85600286856113df9190611b45565b6113e99190611d0c565b611458565b5b60006001836101006114019190611bee565b61140b9190611dfa565b9050855183868201018583198251161781528151858801111561142e5784870182525b505085915050949350505050565b60008183111561144e57829050611452565b8190505b92915050565b60008260000151905061146b8383610d89565b506114768382610f78565b50505050565b6040518060a0016040528060008019168152602001600073ffffffffffffffffffffffffffffffffffffffff16815260200160007bffffffffffffffffffffffffffffffffffffffffffffffffffffffff19168152602001600081526020016114e36114e9565b81525090565b604051806040016040528060608152602001600081525090565b600061151661151184611ae7565b611ac2565b90508281526020810184848401111561153257611531612062565b5b61153d848285611efe565b509392505050565b600081359050611554816121de565b92915050565b600081519050611569816121f5565b92915050565b60008135905061157e8161220c565b92915050565b600082601f8301126115995761159861205d565b5b81356115a9848260208601611503565b91505092915050565b6000813590506115c181612223565b92915050565b6000815190506115d681612223565b92915050565b6000602082840312156115f2576115f161206c565b5b600061160084828501611545565b91505092915050565b60006020828403121561161f5761161e61206c565b5b600061162d8482850161155a565b91505092915050565b6000806040838503121561164d5761164c61206c565b5b600061165b8582860161156f565b925050602061166c858286016115b2565b9150509250929050565b60006020828403121561168c5761168b61206c565b5b600082013567ffffffffffffffff8111156116aa576116a9612067565b5b6116b684828501611584565b91505092915050565b6000602082840312156116d5576116d461206c565b5b60006116e3848285016115c7565b91505092915050565b6116f581611e2e565b82525050565b61170481611e4c565b82525050565b61171381611e56565b82525050565b600061172482611b18565b61172e8185611b23565b935061173e818560208601611f0d565b61174781612071565b840191505092915050565b61176361175e82611eb6565b611f71565b82525050565b61177281611ec8565b82525050565b6000611785601683611b34565b91506117908261209c565b602082019050919050565b60006117a8602383611b34565b91506117b3826120c5565b604082019050919050565b60006117cb601683611b34565b91506117d682612114565b602082019050919050565b60006117ee601283611b34565b91506117f98261213d565b602082019050919050565b6000611811601783611b34565b915061181c82612166565b602082019050919050565b6000611834602883611b34565b915061183f8261218f565b604082019050919050565b61185381611eac565b82525050565b61186a61186582611eac565b611f95565b82525050565b600061187c8285611752565b60148201915061188c8284611859565b6020820191508190509392505050565b60006020820190506118b160008301846116ec565b92915050565b60006040820190506118cc60008301856116ec565b6118d96020830184611769565b9392505050565b60006040820190506118f560008301856116ec565b611902602083018461184a565b9392505050565b60006101008201905061191f600083018b6116ec565b61192c602083018a61184a565b61193960408301896116fb565b61194660608301886116ec565b611953608083018761170a565b61196060a083018661184a565b61196d60c083018561184a565b81810360e083015261197f8184611719565b90509998505050505050505050565b60006060820190506119a360008301866116ec565b6119b0602083018561184a565b81810360408301526119c28184611719565b9050949350505050565b60006020820190506119e160008301846116fb565b92915050565b60006020820190508181036000830152611a0081611778565b9050919050565b60006020820190508181036000830152611a208161179b565b9050919050565b60006020820190508181036000830152611a40816117be565b9050919050565b60006020820190508181036000830152611a60816117e1565b9050919050565b60006020820190508181036000830152611a8081611804565b9050919050565b60006020820190508181036000830152611aa081611827565b9050919050565b6000602082019050611abc600083018461184a565b92915050565b6000611acc611add565b9050611ad88282611f40565b919050565b6000604051905090565b600067ffffffffffffffff821115611b0257611b0161202e565b5b611b0b82612071565b9050602081019050919050565b600081519050919050565b600082825260208201905092915050565b600082825260208201905092915050565b6000611b5082611eac565b9150611b5b83611eac565b9250827fffffffffffffffffffffffffffffffffffffffffffffffffffffffffffffffff03821115611b9057611b8f611fd0565b5b828201905092915050565b6000808291508390505b6001851115611be557808604811115611bc157611bc0611fd0565b5b6001851615611bd05780820291505b8081029050611bde8561208f565b9450611ba5565b94509492505050565b6000611bf982611eac565b9150611c0483611eac565b9250611c317fffffffffffffffffffffffffffffffffffffffffffffffffffffffffffffffff8484611c39565b905092915050565b600082611c495760019050611d05565b81611c575760009050611d05565b8160018114611c6d5760028114611c7757611ca6565b6001915050611d05565b60ff841115611c8957611c88611fd0565b5b8360020a915084821115611ca057611c9f611fd0565b5b50611d05565b5060208310610133831016604e8410600b8410161715611cdb5782820a905083811115611cd657611cd5611fd0565b5b611d05565b611ce88484846001611b9b565b92509050818404811115611cff57611cfe611fd0565b5b81810290505b9392505050565b6000611d1782611eac565b9150611d2283611eac565b9250817fffffffffffffffffffffffffffffffffffffffffffffffffffffffffffffffff0483118215151615611d5b57611d5a611fd0565b5b828202905092915050565b6000611d7182611e82565b9150611d7c83611e82565b9250827f800000000000000000000000000000000000000000000000000000000000000001821260008412151615611db757611db6611fd0565b5b827f7fffffffffffffffffffffffffffffffffffffffffffffffffffffffffffffff018213600084121615611def57611dee611fd0565b5b828203905092915050565b6000611e0582611eac565b9150611e1083611eac565b925082821015611e2357611e22611fd0565b5b828203905092915050565b6000611e3982611e8c565b9050919050565b60008115159050919050565b6000819050919050565b60007fffffffff0000000000000000000000000000000000000000000000000000000082169050919050565b6000819050919050565b600073ffffffffffffffffffffffffffffffffffffffff82169050919050565b6000819050919050565b6000611ec182611eda565b9050919050565b6000611ed382611eac565b9050919050565b6000611ee582611eec565b9050919050565b6000611ef782611e8c565b9050919050565b82818337600083830152505050565b60005b83811015611f2b578082015181840152602081019050611f10565b83811115611f3a576000848401525b50505050565b611f4982612071565b810181811067ffffffffffffffff82111715611f6857611f6761202e565b5b80604052505050565b6000611f7c82611f83565b9050919050565b6000611f8e82612082565b9050919050565b6000819050919050565b6000611faa82611eac565b9150611fb583611eac565b925082611fc557611fc4611fff565b5b828206905092915050565b7f4e487b7100000000000000000000000000000000000000000000000000000000600052601160045260246000fd5b7f4e487b7100000000000000000000000000000000000000000000000000000000600052601260045260246000fd5b7f4e487b7100000000000000000000000000000000000000000000000000000000600052604160045260246000fd5b600080fd5b600080fd5b600080fd5b600080fd5b6000601f19601f8301169050919050565b60008160601b9050919050565b60008160011c9050919050565b7f4d7573742062652070726f706f736564206f776e657200000000000000000000600082015250565b7f756e61626c6520746f207472616e73666572416e6443616c6c20746f206f726160008201527f636c650000000000000000000000000000000000000000000000000000000000602082015250565b7f4f6e6c792063616c6c61626c65206279206f776e657200000000000000000000600082015250565b7f556e61626c6520746f207472616e736665720000000000000000000000000000600082015250565b7f43616e6e6f74207472616e7366657220746f2073656c66000000000000000000600082015250565b7f536f75726365206d75737420626520746865206f7261636c65206f662074686560008201527f2072657175657374000000000000000000000000000000000000000000000000602082015250565b6121e781611e2e565b81146121f257600080fd5b50565b6121fe81611e40565b811461220957600080fd5b50565b61221581611e4c565b811461222057600080fd5b50565b61222c81611eac565b811461223757600080fd5b5056fea26469706673582212203ca6b307f9ad1b56c83a093842f07c443a5cb3df6b07b4f556fb928a1dd220dd64736f6c63430008070033",
  "devdoc": {
    "kind": "dev",
    "methods": {},
    "version": 1
  },
  "userdoc": {
    "kind": "user",
    "methods": {
      "acceptOwnership()": {
        "notice": "Allows an ownership transfer to be completed by the recipient."
      },
      "owner()": {
        "notice": "Get the current owner"
      },
      "transferOwnership(address)": {
        "notice": "Allows an owner to begin transferring ownership to a new address."
      }
    },
    "version": 1
  },
  "storageLayout": {
    "storage": [
      {
        "astId": 325,
        "contract": "contracts/ChainlinkTools.sol:ChainlinkTools",
        "label": "s_ens",
        "offset": 0,
        "slot": "0",
        "type": "t_contract(ENSInterface)982"
      },
      {
        "astId": 327,
        "contract": "contracts/ChainlinkTools.sol:ChainlinkTools",
        "label": "s_ensNode",
        "offset": 0,
        "slot": "1",
        "type": "t_bytes32"
      },
      {
        "astId": 330,
        "contract": "contracts/ChainlinkTools.sol:ChainlinkTools",
        "label": "s_link",
        "offset": 0,
        "slot": "2",
        "type": "t_contract(LinkTokenInterface)1382"
      },
      {
        "astId": 333,
        "contract": "contracts/ChainlinkTools.sol:ChainlinkTools",
        "label": "s_oracle",
        "offset": 0,
        "slot": "3",
        "type": "t_contract(OperatorInterface)1047"
      },
      {
        "astId": 336,
        "contract": "contracts/ChainlinkTools.sol:ChainlinkTools",
        "label": "s_requestCount",
        "offset": 0,
        "slot": "4",
        "type": "t_uint256"
      },
      {
        "astId": 340,
        "contract": "contracts/ChainlinkTools.sol:ChainlinkTools",
        "label": "s_pendingRequests",
        "offset": 0,
        "slot": "5",
        "type": "t_mapping(t_bytes32,t_address)"
      },
      {
        "astId": 1117,
        "contract": "contracts/ChainlinkTools.sol:ChainlinkTools",
        "label": "s_owner",
        "offset": 0,
        "slot": "6",
        "type": "t_address"
      },
      {
        "astId": 1119,
        "contract": "contracts/ChainlinkTools.sol:ChainlinkTools",
        "label": "s_pendingOwner",
        "offset": 0,
        "slot": "7",
        "type": "t_address"
      },
      {
        "astId": 2380,
        "contract": "contracts/ChainlinkTools.sol:ChainlinkTools",
        "label": "volume",
        "offset": 0,
        "slot": "8",
        "type": "t_uint256"
      },
      {
        "astId": 2382,
        "contract": "contracts/ChainlinkTools.sol:ChainlinkTools",
        "label": "jobId",
        "offset": 0,
        "slot": "9",
        "type": "t_bytes32"
      },
      {
        "astId": 2384,
        "contract": "contracts/ChainlinkTools.sol:ChainlinkTools",
        "label": "fee",
        "offset": 0,
        "slot": "10",
        "type": "t_uint256"
      }
    ],
    "types": {
      "t_address": {
        "encoding": "inplace",
        "label": "address",
        "numberOfBytes": "20"
      },
      "t_bytes32": {
        "encoding": "inplace",
        "label": "bytes32",
        "numberOfBytes": "32"
      },
      "t_contract(ENSInterface)982": {
        "encoding": "inplace",
        "label": "contract ENSInterface",
        "numberOfBytes": "20"
      },
      "t_contract(LinkTokenInterface)1382": {
        "encoding": "inplace",
        "label": "contract LinkTokenInterface",
        "numberOfBytes": "20"
      },
      "t_contract(OperatorInterface)1047": {
        "encoding": "inplace",
        "label": "contract OperatorInterface",
        "numberOfBytes": "20"
      },
      "t_mapping(t_bytes32,t_address)": {
        "encoding": "mapping",
        "key": "t_bytes32",
        "label": "mapping(bytes32 => address)",
        "numberOfBytes": "32",
        "value": "t_address"
      },
      "t_uint256": {
        "encoding": "inplace",
        "label": "uint256",
        "numberOfBytes": "32"
      }
    }
  }
}