{
  "address": "0xF9C0Eb9dCb5E7eC83Af9b3A01167844583eb5E0C",
  "abi": [
    {
      "inputs": [],
      "stateMutability": "nonpayable",
      "type": "constructor"
    },
    {
      "anonymous": false,
      "inputs": [
        {
          "indexed": false,
          "internalType": "uint8",
          "name": "version",
          "type": "uint8"
        }
      ],
      "name": "Initialized",
      "type": "event"
    },
    {
      "anonymous": false,
      "inputs": [
        {
          "indexed": true,
          "internalType": "address",
          "name": "industryAddr",
          "type": "address"
        }
      ],
      "name": "NoTokenIndustry",
      "type": "event"
    },
    {
      "inputs": [
        {
          "internalType": "string",
          "name": "name",
          "type": "string"
        },
        {
          "internalType": "address",
          "name": "industryAddr",
          "type": "address"
        },
        {
          "internalType": "uint256",
          "name": "registrationTimestamp",
          "type": "uint256"
        }
      ],
      "name": "addIndustry",
      "outputs": [],
      "stateMutability": "nonpayable",
      "type": "function"
    },
    {
      "inputs": [
        {
          "internalType": "address",
          "name": "industryAddr",
          "type": "address"
        }
      ],
      "name": "checkExistingIndustry",
      "outputs": [
        {
          "internalType": "bool",
          "name": "",
          "type": "bool"
        }
      ],
      "stateMutability": "view",
      "type": "function"
    },
    {
      "inputs": [],
      "name": "checkForCity",
      "outputs": [
        {
          "internalType": "uint256",
          "name": "",
          "type": "uint256"
        }
      ],
      "stateMutability": "view",
      "type": "function"
    },
    {
      "inputs": [],
      "name": "checkForNft",
      "outputs": [],
      "stateMutability": "nonpayable",
      "type": "function"
    },
    {
      "inputs": [
        {
          "internalType": "uint256",
          "name": "amountUsed",
          "type": "uint256"
        }
      ],
      "name": "consumePTFromIndustry",
      "outputs": [],
      "stateMutability": "nonpayable",
      "type": "function"
    },
    {
      "inputs": [
        {
          "internalType": "address",
          "name": "industryAddr",
          "type": "address"
        }
      ],
      "name": "deleteIndustry",
      "outputs": [],
      "stateMutability": "nonpayable",
      "type": "function"
    },
    {
      "inputs": [],
      "name": "getAdminAddress",
      "outputs": [
        {
          "internalType": "address",
          "name": "",
          "type": "address"
        }
      ],
      "stateMutability": "view",
      "type": "function"
    },
    {
      "inputs": [],
      "name": "getContractAddress",
      "outputs": [
        {
          "internalType": "address",
          "name": "",
          "type": "address"
        }
      ],
      "stateMutability": "view",
      "type": "function"
    },
    {
      "inputs": [],
      "name": "getThisAddress",
      "outputs": [
        {
          "internalType": "address",
          "name": "",
          "type": "address"
        }
      ],
      "stateMutability": "view",
      "type": "function"
    },
    {
      "inputs": [
        {
          "internalType": "contract IPollutionToken",
          "name": "ptContractAddress",
          "type": "address"
        },
        {
          "internalType": "contract IDSESCenter",
          "name": "dsesCenterAddress",
          "type": "address"
        },
        {
          "internalType": "contract IPollutionNft",
          "name": "pnftAddress",
          "type": "address"
        }
      ],
      "name": "initialize",
      "outputs": [],
      "stateMutability": "nonpayable",
      "type": "function"
    },
    {
      "inputs": [],
      "name": "tokensToBeAssigned",
      "outputs": [
        {
          "internalType": "uint256",
          "name": "",
          "type": "uint256"
        }
      ],
      "stateMutability": "view",
      "type": "function"
    }
  ],
  "numDeployments": 1,
  "solcInputHash": "6246357c6666943825883f94555e2e3e",
  "bytecode": "0x60806040523480156200001157600080fd5b50620000226200002860201b60201c565b620001d2565b600060019054906101000a900460ff16156200007b576040517f08c379a0000000000000000000000000000000000000000000000000000000008152600401620000729062000175565b60405180910390fd5b60ff801660008054906101000a900460ff1660ff1614620000ec5760ff6000806101000a81548160ff021916908360ff1602179055507f7f26b83ff96e1f2b6a682f133852f6798a09c465da95921460cefb384740249860ff604051620000e39190620001b5565b60405180910390a15b565b600082825260208201905092915050565b7f496e697469616c697a61626c653a20636f6e747261637420697320696e69746960008201527f616c697a696e6700000000000000000000000000000000000000000000000000602082015250565b60006200015d602783620000ee565b91506200016a82620000ff565b604082019050919050565b6000602082019050818103600083015262000190816200014e565b9050919050565b600060ff82169050919050565b620001af8162000197565b82525050565b6000602082019050620001cc6000830184620001a4565b92915050565b611feb80620001e26000396000f3fe608060405234801561001057600080fd5b50600436106100a95760003560e01c8063b2e6b91211610071578063b2e6b9121461013e578063c0c53b8b1461015c578063c1ca209614610178578063c86b73bd14610196578063d3953822146101b2578063e8ebdba8146101d0576100a9565b80630382db6e146100ae5780632c5901c0146100de57806332a2c5d0146100fa57806373a3b3ee146101185780639930272b14610134575b600080fd5b6100c860048036038101906100c3919061114f565b6101ee565b6040516100d59190611197565b60405180910390f35b6100f860048036038101906100f391906111e8565b610248565b005b610102610463565b60405161010f9190611224565b60405180910390f35b610132600480360381019061012d919061114f565b61048d565b005b61013c6105c5565b005b610146610867565b6040516101539190611224565b60405180910390f35b610176600480360381019061017191906112f9565b610891565b005b610180610bec565b60405161018d919061135b565b60405180910390f35b6101b060048036038101906101ab91906114bc565b610c98565b005b6101ba610eac565b6040516101c79190611224565b60405180910390f35b6101d8610eb4565b6040516101e5919061135b565b60405180910390f35b600080600160008473ffffffffffffffffffffffffffffffffffffffff1673ffffffffffffffffffffffffffffffffffffffff168152602001908152602001600020600001805461023e9061155a565b9050119050919050565b6000600260009054906101000a900473ffffffffffffffffffffffffffffffffffffffff1673ffffffffffffffffffffffffffffffffffffffff16639b96eece336040518263ffffffff1660e01b81526004016102a59190611224565b602060405180830381865afa1580156102c2573d6000803e3d6000fd5b505050506040513d601f19601f820116820180604052508101906102e691906115a0565b1461041c57600260009054906101000a900473ffffffffffffffffffffffffffffffffffffffff1673ffffffffffffffffffffffffffffffffffffffff1663dc5314f233600260009054906101000a900473ffffffffffffffffffffffffffffffffffffffff1673ffffffffffffffffffffffffffffffffffffffff16635e94ac05336040518263ffffffff1660e01b81526004016103859190611224565b602060405180830381865afa1580156103a2573d6000803e3d6000fd5b505050506040513d601f19601f820116820180604052508101906103c691906115e2565b846040518463ffffffff1660e01b81526004016103e59392919061160f565b600060405180830381600087803b1580156103ff57600080fd5b505af1158015610413573d6000803e3d6000fd5b50505050610460565b3373ffffffffffffffffffffffffffffffffffffffff167fc9faa43a0cf9f11d06a4f856b7ae6eb03286b04a69cdbbdb74ea90288d4a431a60405160405180910390a25b50565b6000600260009054906101000a900473ffffffffffffffffffffffffffffffffffffffff16905090565b600460009054906101000a900473ffffffffffffffffffffffffffffffffffffffff1673ffffffffffffffffffffffffffffffffffffffff1663a376e4d8336040518263ffffffff1660e01b81526004016104e89190611224565b602060405180830381865afa158015610505573d6000803e3d6000fd5b505050506040513d601f19601f820116820180604052508101906105299190611672565b610568576040517f08c379a000000000000000000000000000000000000000000000000000000000815260040161055f90611722565b60405180910390fd5b600160008273ffffffffffffffffffffffffffffffffffffffff1673ffffffffffffffffffffffffffffffffffffffff168152602001908152602001600020600080820160006105b89190611080565b6001820160009055505050565b6105cf601e611045565b600160003373ffffffffffffffffffffffffffffffffffffffff1673ffffffffffffffffffffffffffffffffffffffff168152602001908152602001600020600101544261061d9190611771565b10610865576000600260009054906101000a900473ffffffffffffffffffffffffffffffffffffffff1673ffffffffffffffffffffffffffffffffffffffff16639b96eece336040518263ffffffff1660e01b815260040161067f9190611224565b602060405180830381865afa15801561069c573d6000803e3d6000fd5b505050506040513d601f19601f820116820180604052508101906106c091906115a0565b9050670de0b6b3a764000060056106d791906117a5565b81101580156106fa5750670de0b6b3a7640000600a6106f691906117a5565b8111155b1561079457600560009054906101000a900473ffffffffffffffffffffffffffffffffffffffff1673ffffffffffffffffffffffffffffffffffffffff1663890cd4f33360016040518363ffffffff1660e01b815260040161075d92919061182c565b600060405180830381600087803b15801561077757600080fd5b505af115801561078b573d6000803e3d6000fd5b50505050610863565b670de0b6b3a7640000600b6107a991906117a5565b81101580156107cc5750670de0b6b3a7640000601e6107c891906117a5565b8111155b1561086257600560009054906101000a900473ffffffffffffffffffffffffffffffffffffffff1673ffffffffffffffffffffffffffffffffffffffff1663890cd4f33360026040518363ffffffff1660e01b815260040161082f929190611890565b600060405180830381600087803b15801561084957600080fd5b505af115801561085d573d6000803e3d6000fd5b505050505b5b505b565b6000600360009054906101000a900473ffffffffffffffffffffffffffffffffffffffff16905090565b60008060019054906101000a900460ff161590508080156108c25750600160008054906101000a900460ff1660ff16105b806108ef57506108d13061105d565b1580156108ee5750600160008054906101000a900460ff1660ff16145b5b61092e576040517f08c379a00000000000000000000000000000000000000000000000000000000081526004016109259061192b565b60405180910390fd5b60016000806101000a81548160ff021916908360ff160217905550801561096b576001600060016101000a81548160ff0219169083151502179055505b33600360006101000a81548173ffffffffffffffffffffffffffffffffffffffff021916908373ffffffffffffffffffffffffffffffffffffffff16021790555083600260006101000a81548173ffffffffffffffffffffffffffffffffffffffff021916908373ffffffffffffffffffffffffffffffffffffffff16021790555081600560006101000a81548173ffffffffffffffffffffffffffffffffffffffff021916908373ffffffffffffffffffffffffffffffffffffffff16021790555082600460006101000a81548173ffffffffffffffffffffffffffffffffffffffff021916908373ffffffffffffffffffffffffffffffffffffffff160217905550600560009054906101000a900473ffffffffffffffffffffffffffffffffffffffff1673ffffffffffffffffffffffffffffffffffffffff1663c697a7c830336040518363ffffffff1660e01b8152600401610acc92919061194b565b600060405180830381600087803b158015610ae657600080fd5b505af1158015610afa573d6000803e3d6000fd5b50505050600260009054906101000a900473ffffffffffffffffffffffffffffffffffffffff1673ffffffffffffffffffffffffffffffffffffffff1663c697a7c830336040518363ffffffff1660e01b8152600401610b5b92919061194b565b600060405180830381600087803b158015610b7557600080fd5b505af1158015610b89573d6000803e3d6000fd5b505050508015610be65760008060016101000a81548160ff0219169083151502179055507f7f26b83ff96e1f2b6a682f133852f6798a09c465da95921460cefb38474024986001604051610bdd91906119b2565b60405180910390a15b50505050565b6000600460009054906101000a900473ffffffffffffffffffffffffffffffffffffffff1673ffffffffffffffffffffffffffffffffffffffff166352a3ca02336040518263ffffffff1660e01b8152600401610c499190611224565b600060405180830381865afa158015610c66573d6000803e3d6000fd5b505050506040513d6000823e3d601f19601f82011682018060405250810190610c8f9190611bc7565b60200151905090565b600460009054906101000a900473ffffffffffffffffffffffffffffffffffffffff1673ffffffffffffffffffffffffffffffffffffffff1663a376e4d8336040518263ffffffff1660e01b8152600401610cf39190611224565b602060405180830381865afa158015610d10573d6000803e3d6000fd5b505050506040513d601f19601f82011682018060405250810190610d349190611672565b8015610d465750610d44826101ee565b155b610d85576040517f08c379a0000000000000000000000000000000000000000000000000000000008152600401610d7c90611c82565b60405180910390fd5b604051806040016040528084815260200182815250600160008473ffffffffffffffffffffffffffffffffffffffff1673ffffffffffffffffffffffffffffffffffffffff1681526020019081526020016000206000820151816000019081610dee9190611e4f565b50602082015181600101559050506000670de0b6b3a76400006032610e1391906117a5565b9050600260009054906101000a900473ffffffffffffffffffffffffffffffffffffffff1673ffffffffffffffffffffffffffffffffffffffff1663dc5314f23385846040518463ffffffff1660e01b8152600401610e749392919061160f565b600060405180830381600087803b158015610e8e57600080fd5b505af1158015610ea2573d6000803e3d6000fd5b5050505050505050565b600030905090565b600080600460009054906101000a900473ffffffffffffffffffffffffffffffffffffffff1673ffffffffffffffffffffffffffffffffffffffff166352a3ca02336040518263ffffffff1660e01b8152600401610f129190611224565b600060405180830381865afa158015610f2f573d6000803e3d6000fd5b505050506040513d6000823e3d601f19601f82011682018060405250810190610f589190611bc7565b9050670de0b6b3a764000081604001516014610f7491906117a5565b8260200151610f839190611f21565b600260009054906101000a900473ffffffffffffffffffffffffffffffffffffffff1673ffffffffffffffffffffffffffffffffffffffff16639b96eece336040518263ffffffff1660e01b8152600401610fde9190611224565b602060405180830381865afa158015610ffb573d6000803e3d6000fd5b505050506040513d601f19601f8201168201806040525081019061101f91906115a0565b601461102b91906117a5565b6110359190611f84565b61103f91906117a5565b91505090565b6000620151808261105691906117a5565b9050919050565b6000808273ffffffffffffffffffffffffffffffffffffffff163b119050919050565b50805461108c9061155a565b6000825580601f1061109e57506110bd565b601f0160209004906000526020600020908101906110bc91906110c0565b5b50565b5b808211156110d95760008160009055506001016110c1565b5090565b6000604051905090565b600080fd5b600080fd5b600073ffffffffffffffffffffffffffffffffffffffff82169050919050565b600061111c826110f1565b9050919050565b61112c81611111565b811461113757600080fd5b50565b60008135905061114981611123565b92915050565b600060208284031215611165576111646110e7565b5b60006111738482850161113a565b91505092915050565b60008115159050919050565b6111918161117c565b82525050565b60006020820190506111ac6000830184611188565b92915050565b6000819050919050565b6111c5816111b2565b81146111d057600080fd5b50565b6000813590506111e2816111bc565b92915050565b6000602082840312156111fe576111fd6110e7565b5b600061120c848285016111d3565b91505092915050565b61121e81611111565b82525050565b60006020820190506112396000830184611215565b92915050565b600061124a82611111565b9050919050565b61125a8161123f565b811461126557600080fd5b50565b60008135905061127781611251565b92915050565b600061128882611111565b9050919050565b6112988161127d565b81146112a357600080fd5b50565b6000813590506112b58161128f565b92915050565b60006112c682611111565b9050919050565b6112d6816112bb565b81146112e157600080fd5b50565b6000813590506112f3816112cd565b92915050565b600080600060608486031215611312576113116110e7565b5b600061132086828701611268565b9350506020611331868287016112a6565b9250506040611342868287016112e4565b9150509250925092565b611355816111b2565b82525050565b6000602082019050611370600083018461134c565b92915050565b600080fd5b600080fd5b6000601f19601f8301169050919050565b7f4e487b7100000000000000000000000000000000000000000000000000000000600052604160045260246000fd5b6113c982611380565b810181811067ffffffffffffffff821117156113e8576113e7611391565b5b80604052505050565b60006113fb6110dd565b905061140782826113c0565b919050565b600067ffffffffffffffff82111561142757611426611391565b5b61143082611380565b9050602081019050919050565b82818337600083830152505050565b600061145f61145a8461140c565b6113f1565b90508281526020810184848401111561147b5761147a61137b565b5b61148684828561143d565b509392505050565b600082601f8301126114a3576114a2611376565b5b81356114b384826020860161144c565b91505092915050565b6000806000606084860312156114d5576114d46110e7565b5b600084013567ffffffffffffffff8111156114f3576114f26110ec565b5b6114ff8682870161148e565b93505060206115108682870161113a565b9250506040611521868287016111d3565b9150509250925092565b7f4e487b7100000000000000000000000000000000000000000000000000000000600052602260045260246000fd5b6000600282049050600182168061157257607f821691505b6020821081036115855761158461152b565b5b50919050565b60008151905061159a816111bc565b92915050565b6000602082840312156115b6576115b56110e7565b5b60006115c48482850161158b565b91505092915050565b6000815190506115dc81611123565b92915050565b6000602082840312156115f8576115f76110e7565b5b6000611606848285016115cd565b91505092915050565b60006060820190506116246000830186611215565b6116316020830185611215565b61163e604083018461134c565b949350505050565b61164f8161117c565b811461165a57600080fd5b50565b60008151905061166c81611646565b92915050565b600060208284031215611688576116876110e7565b5b60006116968482850161165d565b91505092915050565b600082825260208201905092915050565b7f596f7520617265206e6f7420616c6c6f77656420746f20646f20746861742e2060008201527f596f7520617265206e6f74206120436974790000000000000000000000000000602082015250565b600061170c60328361169f565b9150611717826116b0565b604082019050919050565b6000602082019050818103600083015261173b816116ff565b9050919050565b7f4e487b7100000000000000000000000000000000000000000000000000000000600052601160045260246000fd5b600061177c826111b2565b9150611787836111b2565b925082820390508181111561179f5761179e611742565b5b92915050565b60006117b0826111b2565b91506117bb836111b2565b92508282026117c9816111b2565b915082820484148315176117e0576117df611742565b5b5092915050565b6000819050919050565b6000819050919050565b600061181661181161180c846117e7565b6117f1565b6111b2565b9050919050565b611826816117fb565b82525050565b60006040820190506118416000830185611215565b61184e602083018461181d565b9392505050565b6000819050919050565b600061187a61187561187084611855565b6117f1565b6111b2565b9050919050565b61188a8161185f565b82525050565b60006040820190506118a56000830185611215565b6118b26020830184611881565b9392505050565b7f496e697469616c697a61626c653a20636f6e747261637420697320616c72656160008201527f647920696e697469616c697a6564000000000000000000000000000000000000602082015250565b6000611915602e8361169f565b9150611920826118b9565b604082019050919050565b6000602082019050818103600083015261194481611908565b9050919050565b60006040820190506119606000830185611215565b61196d6020830184611215565b9392505050565b600060ff82169050919050565b600061199c611997611992846117e7565b6117f1565b611974565b9050919050565b6119ac81611981565b82525050565b60006020820190506119c760008301846119a3565b92915050565b600080fd5b600080fd5b60005b838110156119f55780820151818401526020810190506119da565b60008484015250505050565b6000611a14611a0f8461140c565b6113f1565b905082815260208101848484011115611a3057611a2f61137b565b5b611a3b8482856119d7565b509392505050565b600082601f830112611a5857611a57611376565b5b8151611a68848260208601611a01565b91505092915050565b60006101008284031215611a8857611a876119cd565b5b611a936101006113f1565b9050600082015167ffffffffffffffff811115611ab357611ab26119d2565b5b611abf84828501611a43565b6000830152506020611ad38482850161158b565b6020830152506040611ae78482850161158b565b604083015250606082015167ffffffffffffffff811115611b0b57611b0a6119d2565b5b611b1784828501611a43565b606083015250608082015167ffffffffffffffff811115611b3b57611b3a6119d2565b5b611b4784828501611a43565b60808301525060a082015167ffffffffffffffff811115611b6b57611b6a6119d2565b5b611b7784828501611a43565b60a08301525060c0611b8b8482850161158b565b60c08301525060e082015167ffffffffffffffff811115611baf57611bae6119d2565b5b611bbb84828501611a43565b60e08301525092915050565b600060208284031215611bdd57611bdc6110e7565b5b600082015167ffffffffffffffff811115611bfb57611bfa6110ec565b5b611c0784828501611a71565b91505092915050565b7f596f7520617265206e6f7420612063697479206f7220696e647573747279206160008201527f6c72656164792065786973740000000000000000000000000000000000000000602082015250565b6000611c6c602c8361169f565b9150611c7782611c10565b604082019050919050565b60006020820190508181036000830152611c9b81611c5f565b9050919050565b600081519050919050565b60008190508160005260206000209050919050565b60006020601f8301049050919050565b600082821b905092915050565b600060088302611d0f7fffffffffffffffffffffffffffffffffffffffffffffffffffffffffffffffff82611cd2565b611d198683611cd2565b95508019841693508086168417925050509392505050565b6000611d4c611d47611d42846111b2565b6117f1565b6111b2565b9050919050565b6000819050919050565b611d6683611d31565b611d7a611d7282611d53565b848454611cdf565b825550505050565b600090565b611d8f611d82565b611d9a818484611d5d565b505050565b5b81811015611dbe57611db3600082611d87565b600181019050611da0565b5050565b601f821115611e0357611dd481611cad565b611ddd84611cc2565b81016020851015611dec578190505b611e00611df885611cc2565b830182611d9f565b50505b505050565b600082821c905092915050565b6000611e2660001984600802611e08565b1980831691505092915050565b6000611e3f8383611e15565b9150826002028217905092915050565b611e5882611ca2565b67ffffffffffffffff811115611e7157611e70611391565b5b611e7b825461155a565b611e86828285611dc2565b600060209050601f831160018114611eb95760008415611ea7578287015190505b611eb18582611e33565b865550611f19565b601f198416611ec786611cad565b60005b82811015611eef57848901518255600182019150602085019450602081019050611eca565b86831015611f0c5784890151611f08601f891682611e15565b8355505b6001600288020188555050505b505050505050565b6000611f2c826111b2565b9150611f37836111b2565b9250828201905080821115611f4f57611f4e611742565b5b92915050565b7f4e487b7100000000000000000000000000000000000000000000000000000000600052601260045260246000fd5b6000611f8f826111b2565b9150611f9a836111b2565b925082611faa57611fa9611f55565b5b82820490509291505056fea2646970667358221220b84662e56a666e4e1b7cc5798f662dcd044349c424755322dea03563c0b936a464736f6c63430008150033",
  "devdoc": {
    "events": {
      "Initialized(uint8)": {
        "details": "Triggered when the contract has been initialized or reinitialized."
      }
    },
    "kind": "dev",
    "methods": {
      "constructor": {
        "custom:oz-upgrades-unsafe-allow": "constructor"
      }
    },
    "version": 1
  },
  "userdoc": {
    "kind": "user",
    "methods": {},
    "version": 1
  },
  "storageLayout": {
    "storage": [
      {
        "astId": 2369,
        "contract": "contracts/CityIndustry.sol:CityIndustry",
        "label": "_initialized",
        "offset": 0,
        "slot": "0",
        "type": "t_uint8"
      },
      {
        "astId": 2372,
        "contract": "contracts/CityIndustry.sol:CityIndustry",
        "label": "_initializing",
        "offset": 1,
        "slot": "0",
        "type": "t_bool"
      },
      {
        "astId": 3665,
        "contract": "contracts/CityIndustry.sol:CityIndustry",
        "label": "industries",
        "offset": 0,
        "slot": "1",
        "type": "t_mapping(t_address,t_struct(Industry)4153_storage)"
      },
      {
        "astId": 3673,
        "contract": "contracts/CityIndustry.sol:CityIndustry",
        "label": "pt",
        "offset": 0,
        "slot": "2",
        "type": "t_contract(IPollutionToken)5413"
      },
      {
        "astId": 3675,
        "contract": "contracts/CityIndustry.sol:CityIndustry",
        "label": "admin",
        "offset": 0,
        "slot": "3",
        "type": "t_address"
      },
      {
        "astId": 3678,
        "contract": "contracts/CityIndustry.sol:CityIndustry",
        "label": "dsesCenter",
        "offset": 0,
        "slot": "4",
        "type": "t_contract(IDSESCenter)5342"
      },
      {
        "astId": 3681,
        "contract": "contracts/CityIndustry.sol:CityIndustry",
        "label": "pnft",
        "offset": 0,
        "slot": "5",
        "type": "t_contract(IPollutionNft)5366"
      }
    ],
    "types": {
      "t_address": {
        "encoding": "inplace",
        "label": "address",
        "numberOfBytes": "20"
      },
      "t_bool": {
        "encoding": "inplace",
        "label": "bool",
        "numberOfBytes": "1"
      },
      "t_contract(IDSESCenter)5342": {
        "encoding": "inplace",
        "label": "contract IDSESCenter",
        "numberOfBytes": "20"
      },
      "t_contract(IPollutionNft)5366": {
        "encoding": "inplace",
        "label": "contract IPollutionNft",
        "numberOfBytes": "20"
      },
      "t_contract(IPollutionToken)5413": {
        "encoding": "inplace",
        "label": "contract IPollutionToken",
        "numberOfBytes": "20"
      },
      "t_mapping(t_address,t_struct(Industry)4153_storage)": {
        "encoding": "mapping",
        "key": "t_address",
        "label": "mapping(address => struct classes.Industry)",
        "numberOfBytes": "32",
        "value": "t_struct(Industry)4153_storage"
      },
      "t_string_storage": {
        "encoding": "bytes",
        "label": "string",
        "numberOfBytes": "32"
      },
      "t_struct(Industry)4153_storage": {
        "encoding": "inplace",
        "label": "struct classes.Industry",
        "members": [
          {
            "astId": 4150,
            "contract": "contracts/CityIndustry.sol:CityIndustry",
            "label": "name",
            "offset": 0,
            "slot": "0",
            "type": "t_string_storage"
          },
          {
            "astId": 4152,
            "contract": "contracts/CityIndustry.sol:CityIndustry",
            "label": "registrationTimestamp",
            "offset": 0,
            "slot": "1",
            "type": "t_uint256"
          }
        ],
        "numberOfBytes": "64"
      },
      "t_uint256": {
        "encoding": "inplace",
        "label": "uint256",
        "numberOfBytes": "32"
      },
      "t_uint8": {
        "encoding": "inplace",
        "label": "uint8",
        "numberOfBytes": "1"
      }
    }
  }
}