{
  "address": "0x9ca56C9d98fE885dF5D6677A196f51d464F410fE",
  "abi": [
    {
      "inputs": [],
      "stateMutability": "nonpayable",
      "type": "constructor"
    },
    {
      "inputs": [],
      "name": "CityCitizen__Citizen_Not_Found",
      "type": "error"
    },
    {
      "anonymous": false,
      "inputs": [
        {
          "indexed": false,
          "internalType": "uint8",
          "name": "version",
          "type": "uint8"
        }
      ],
      "name": "Initialized",
      "type": "event"
    },
    {
      "anonymous": false,
      "inputs": [
        {
          "indexed": true,
          "internalType": "address",
          "name": "citizenAddr",
          "type": "address"
        },
        {
          "indexed": false,
          "internalType": "uint256",
          "name": "timestamp",
          "type": "uint256"
        }
      ],
      "name": "NoTokenCitizen",
      "type": "event"
    },
    {
      "inputs": [
        {
          "internalType": "string",
          "name": "name",
          "type": "string"
        },
        {
          "internalType": "address",
          "name": "citizenAddr",
          "type": "address"
        },
        {
          "internalType": "uint256",
          "name": "checkedTimestamp",
          "type": "uint256"
        },
        {
          "internalType": "string",
          "name": "surname",
          "type": "string"
        },
        {
          "internalType": "string",
          "name": "email",
          "type": "string"
        },
        {
          "internalType": "string",
          "name": "dateOfBirth",
          "type": "string"
        },
        {
          "internalType": "uint256",
          "name": "telephone",
          "type": "uint256"
        },
        {
          "internalType": "string",
          "name": "physicalAddress",
          "type": "string"
        },
        {
          "internalType": "string",
          "name": "id",
          "type": "string"
        },
        {
          "internalType": "bool",
          "name": "isModify",
          "type": "bool"
        }
      ],
      "name": "addCitizen",
      "outputs": [],
      "stateMutability": "nonpayable",
      "type": "function"
    },
    {
      "inputs": [
        {
          "internalType": "address",
          "name": "citizenAddr",
          "type": "address"
        }
      ],
      "name": "checkExistingCitizen",
      "outputs": [
        {
          "internalType": "bool",
          "name": "",
          "type": "bool"
        }
      ],
      "stateMutability": "view",
      "type": "function"
    },
    {
      "inputs": [
        {
          "internalType": "address",
          "name": "citizenAddr",
          "type": "address"
        },
        {
          "internalType": "address",
          "name": "cityAddr",
          "type": "address"
        }
      ],
      "name": "checkExistingCitizenOfACity",
      "outputs": [
        {
          "internalType": "bool",
          "name": "",
          "type": "bool"
        }
      ],
      "stateMutability": "view",
      "type": "function"
    },
    {
      "inputs": [
        {
          "internalType": "uint256",
          "name": "balanceOfCitizen",
          "type": "uint256"
        }
      ],
      "name": "checkForNft",
      "outputs": [],
      "stateMutability": "nonpayable",
      "type": "function"
    },
    {
      "inputs": [
        {
          "internalType": "uint256",
          "name": "amountUsed",
          "type": "uint256"
        }
      ],
      "name": "consumePTFromCitizen",
      "outputs": [],
      "stateMutability": "nonpayable",
      "type": "function"
    },
    {
      "inputs": [
        {
          "internalType": "address",
          "name": "citizenAddr",
          "type": "address"
        }
      ],
      "name": "deleteCitizen",
      "outputs": [],
      "stateMutability": "nonpayable",
      "type": "function"
    },
    {
      "inputs": [],
      "name": "getAdminAddress",
      "outputs": [
        {
          "internalType": "address",
          "name": "",
          "type": "address"
        }
      ],
      "stateMutability": "view",
      "type": "function"
    },
    {
      "inputs": [
        {
          "internalType": "address",
          "name": "citizenAddr",
          "type": "address"
        }
      ],
      "name": "getCitizen",
      "outputs": [
        {
          "components": [
            {
              "internalType": "string",
              "name": "name",
              "type": "string"
            },
            {
              "internalType": "uint256",
              "name": "checkedTimestamp",
              "type": "uint256"
            },
            {
              "internalType": "string",
              "name": "surname",
              "type": "string"
            },
            {
              "internalType": "string",
              "name": "email",
              "type": "string"
            },
            {
              "internalType": "string",
              "name": "dateOfBirth",
              "type": "string"
            },
            {
              "internalType": "uint256",
              "name": "telephone",
              "type": "uint256"
            },
            {
              "internalType": "string",
              "name": "physicalAddress",
              "type": "string"
            },
            {
              "internalType": "string",
              "name": "id",
              "type": "string"
            }
          ],
          "internalType": "struct classes.Citizen",
          "name": "",
          "type": "tuple"
        }
      ],
      "stateMutability": "view",
      "type": "function"
    },
    {
      "inputs": [
        {
          "internalType": "contract IPollutionToken",
          "name": "ptContractAddress",
          "type": "address"
        },
        {
          "internalType": "contract IDSESCenter",
          "name": "dsesCenterAddress",
          "type": "address"
        },
        {
          "internalType": "contract IPollutionNft",
          "name": "pnftAddress",
          "type": "address"
        }
      ],
      "name": "initialize",
      "outputs": [],
      "stateMutability": "nonpayable",
      "type": "function"
    },
    {
      "inputs": [],
      "name": "tokenToBeAssigned",
      "outputs": [
        {
          "internalType": "uint256",
          "name": "",
          "type": "uint256"
        }
      ],
      "stateMutability": "pure",
      "type": "function"
    }
  ],
  "numDeployments": 5,
  "solcInputHash": "fafdab91064a86f3191743fbcfa11ea6",
  "bytecode": "0x60806040523480156200001157600080fd5b50620000226200002860201b60201c565b620001d2565b600060019054906101000a900460ff16156200007b576040517f08c379a0000000000000000000000000000000000000000000000000000000008152600401620000729062000175565b60405180910390fd5b60ff801660008054906101000a900460ff1660ff1614620000ec5760ff6000806101000a81548160ff021916908360ff1602179055507f7f26b83ff96e1f2b6a682f133852f6798a09c465da95921460cefb384740249860ff604051620000e39190620001b5565b60405180910390a15b565b600082825260208201905092915050565b7f496e697469616c697a61626c653a20636f6e747261637420697320696e69746960008201527f616c697a696e6700000000000000000000000000000000000000000000000000602082015250565b60006200015d602783620000ee565b91506200016a82620000ff565b604082019050919050565b6000602082019050818103600083015262000190816200014e565b9050919050565b600060ff82169050919050565b620001af8162000197565b82525050565b6000602082019050620001cc6000830184620001a4565b92915050565b6126cd80620001e26000396000f3fe608060405234801561001057600080fd5b506004361061009e5760003560e01c8063c0c53b8b11610066578063c0c53b8b14610147578063c2411dab14610163578063c335963d14610193578063c6e92e6a146101c3578063f907306e146101df5761009e565b806301487ecc146100a35780638d68d807146100bf578063b2e6b912146100db578063b6325b15146100f9578063b7e39a4314610129575b600080fd5b6100bd60048036038101906100b89190611a69565b6101fb565b005b6100d960048036038101906100d49190611bf0565b6105c5565b005b6100e3610935565b6040516100f09190611c2c565b60405180910390f35b610113600480360381019061010e9190611c47565b61095f565b6040516101209190611c96565b60405180910390f35b610131610a43565b60405161013e9190611cc0565b60405180910390f35b610161600480360381019061015c9190611d95565b610a5f565b005b61017d60048036038101906101789190611bf0565b610dba565b60405161018a9190611f49565b60405180910390f35b6101ad60048036038101906101a89190611bf0565b6111d3565b6040516101ba9190611c96565b60405180910390f35b6101dd60048036038101906101d89190611f6b565b61122d565b005b6101f960048036038101906101f49190611f6b565b6113cf565b005b6000600460009054906101000a900473ffffffffffffffffffffffffffffffffffffffff1673ffffffffffffffffffffffffffffffffffffffff1663a376e4d8336040518263ffffffff1660e01b81526004016102589190611c2c565b602060405180830381865afa158015610275573d6000803e3d6000fd5b505050506040513d601f19601f820116820180604052508101906102999190611fad565b90506000600260009054906101000a900473ffffffffffffffffffffffffffffffffffffffff1673ffffffffffffffffffffffffffffffffffffffff16635e94ac058c6040518263ffffffff1660e01b81526004016102f89190611c2c565b602060405180830381865afa158015610315573d6000803e3d6000fd5b505050506040513d601f19601f820116820180604052508101906103399190611fef565b90508180156103455750825b801561037c57503373ffffffffffffffffffffffffffffffffffffffff168173ffffffffffffffffffffffffffffffffffffffff16145b806103c6575081801561038d575082155b80156103c55750600073ffffffffffffffffffffffffffffffffffffffff168173ffffffffffffffffffffffffffffffffffffffff16145b5b610405576040517f08c379a00000000000000000000000000000000000000000000000000000000081526004016103fc9061209f565b60405180910390fd5b826104a357600260009054906101000a900473ffffffffffffffffffffffffffffffffffffffff1673ffffffffffffffffffffffffffffffffffffffff1663ea64b234338d610452610a43565b6040518463ffffffff1660e01b8152600401610470939291906120bf565b600060405180830381600087803b15801561048a57600080fd5b505af115801561049e573d6000803e3d6000fd5b505050505b6040518061010001604052808d81526020018b81526020018a815260200189815260200188815260200187815260200186815260200185815250600160008d73ffffffffffffffffffffffffffffffffffffffff1673ffffffffffffffffffffffffffffffffffffffff16815260200190815260200160002060008201518160000190816105319190612302565b506020820151816001015560408201518160020190816105519190612302565b5060608201518160030190816105679190612302565b50608082015181600401908161057d9190612302565b5060a0820151816005015560c082015181600601908161059d9190612302565b5060e08201518160070190816105b39190612302565b50905050505050505050505050505050565b803373ffffffffffffffffffffffffffffffffffffffff16600260009054906101000a900473ffffffffffffffffffffffffffffffffffffffff1673ffffffffffffffffffffffffffffffffffffffff16635e94ac05836040518263ffffffff1660e01b81526004016106389190611c2c565b602060405180830381865afa158015610655573d6000803e3d6000fd5b505050506040513d601f19601f820116820180604052508101906106799190611fef565b73ffffffffffffffffffffffffffffffffffffffff16146106c6576040517f54a6a82f00000000000000000000000000000000000000000000000000000000815260040160405180910390fd5b600260009054906101000a900473ffffffffffffffffffffffffffffffffffffffff1673ffffffffffffffffffffffffffffffffffffffff1663dc5314f28333600260009054906101000a900473ffffffffffffffffffffffffffffffffffffffff1673ffffffffffffffffffffffffffffffffffffffff166370a08231876040518263ffffffff1660e01b81526004016107619190611c2c565b602060405180830381865afa15801561077e573d6000803e3d6000fd5b505050506040513d601f19601f820116820180604052508101906107a291906123e9565b6040518463ffffffff1660e01b81526004016107c0939291906120bf565b600060405180830381600087803b1580156107da57600080fd5b505af11580156107ee573d6000803e3d6000fd5b50505050600160008373ffffffffffffffffffffffffffffffffffffffff1673ffffffffffffffffffffffffffffffffffffffff1681526020019081526020016000206000808201600061084291906117a1565b600182016000905560028201600061085a91906117a1565b60038201600061086a91906117a1565b60048201600061087a91906117a1565b600582016000905560068201600061089291906117a1565b6007820160006108a291906117a1565b5050600260009054906101000a900473ffffffffffffffffffffffffffffffffffffffff1673ffffffffffffffffffffffffffffffffffffffff1663e1cd7e43836040518263ffffffff1660e01b81526004016108ff9190611c2c565b600060405180830381600087803b15801561091957600080fd5b505af115801561092d573d6000803e3d6000fd5b505050505050565b6000600360009054906101000a900473ffffffffffffffffffffffffffffffffffffffff16905090565b60008173ffffffffffffffffffffffffffffffffffffffff16600260009054906101000a900473ffffffffffffffffffffffffffffffffffffffff1673ffffffffffffffffffffffffffffffffffffffff16635e94ac05856040518263ffffffff1660e01b81526004016109d39190611c2c565b602060405180830381865afa1580156109f0573d6000803e3d6000fd5b505050506040513d601f19601f82011682018060405250810190610a149190611fef565b73ffffffffffffffffffffffffffffffffffffffff1603610a385760019050610a3d565b600090505b92915050565b6000670de0b6b3a7640000601e610a5a9190612445565b905090565b60008060019054906101000a900460ff16159050808015610a905750600160008054906101000a900460ff1660ff16105b80610abd5750610a9f30611611565b158015610abc5750600160008054906101000a900460ff1660ff16145b5b610afc576040517f08c379a0000000000000000000000000000000000000000000000000000000008152600401610af3906124f9565b60405180910390fd5b60016000806101000a81548160ff021916908360ff1602179055508015610b39576001600060016101000a81548160ff0219169083151502179055505b33600360006101000a81548173ffffffffffffffffffffffffffffffffffffffff021916908373ffffffffffffffffffffffffffffffffffffffff16021790555083600260006101000a81548173ffffffffffffffffffffffffffffffffffffffff021916908373ffffffffffffffffffffffffffffffffffffffff16021790555081600560006101000a81548173ffffffffffffffffffffffffffffffffffffffff021916908373ffffffffffffffffffffffffffffffffffffffff16021790555082600460006101000a81548173ffffffffffffffffffffffffffffffffffffffff021916908373ffffffffffffffffffffffffffffffffffffffff160217905550600560009054906101000a900473ffffffffffffffffffffffffffffffffffffffff1673ffffffffffffffffffffffffffffffffffffffff1663c697a7c830336040518363ffffffff1660e01b8152600401610c9a929190612519565b600060405180830381600087803b158015610cb457600080fd5b505af1158015610cc8573d6000803e3d6000fd5b50505050600260009054906101000a900473ffffffffffffffffffffffffffffffffffffffff1673ffffffffffffffffffffffffffffffffffffffff1663c697a7c830336040518363ffffffff1660e01b8152600401610d29929190612519565b600060405180830381600087803b158015610d4357600080fd5b505af1158015610d57573d6000803e3d6000fd5b505050508015610db45760008060016101000a81548160ff0219169083151502179055507f7f26b83ff96e1f2b6a682f133852f6798a09c465da95921460cefb38474024986001604051610dab919061258a565b60405180910390a15b50505050565b610dc26117e1565b610dcb826111d3565b610e01576040517f54a6a82f00000000000000000000000000000000000000000000000000000000815260040160405180910390fd5b600160008373ffffffffffffffffffffffffffffffffffffffff1673ffffffffffffffffffffffffffffffffffffffff16815260200190815260200160002060405180610100016040529081600082018054610e5c90612125565b80601f0160208091040260200160405190810160405280929190818152602001828054610e8890612125565b8015610ed55780601f10610eaa57610100808354040283529160200191610ed5565b820191906000526020600020905b815481529060010190602001808311610eb857829003601f168201915b5050505050815260200160018201548152602001600282018054610ef890612125565b80601f0160208091040260200160405190810160405280929190818152602001828054610f2490612125565b8015610f715780601f10610f4657610100808354040283529160200191610f71565b820191906000526020600020905b815481529060010190602001808311610f5457829003601f168201915b50505050508152602001600382018054610f8a90612125565b80601f0160208091040260200160405190810160405280929190818152602001828054610fb690612125565b80156110035780601f10610fd857610100808354040283529160200191611003565b820191906000526020600020905b815481529060010190602001808311610fe657829003601f168201915b5050505050815260200160048201805461101c90612125565b80601f016020809104026020016040519081016040528092919081815260200182805461104890612125565b80156110955780601f1061106a57610100808354040283529160200191611095565b820191906000526020600020905b81548152906001019060200180831161107857829003601f168201915b50505050508152602001600582015481526020016006820180546110b890612125565b80601f01602080910402602001604051908101604052809291908181526020018280546110e490612125565b80156111315780601f1061110657610100808354040283529160200191611131565b820191906000526020600020905b81548152906001019060200180831161111457829003601f168201915b5050505050815260200160078201805461114a90612125565b80601f016020809104026020016040519081016040528092919081815260200182805461117690612125565b80156111c35780601f10611198576101008083540402835291602001916111c3565b820191906000526020600020905b8154815290600101906020018083116111a657829003601f168201915b5050505050815250509050919050565b600080600160008473ffffffffffffffffffffffffffffffffffffffff1673ffffffffffffffffffffffffffffffffffffffff168152602001908152602001600020600001805461122390612125565b9050119050919050565b670de0b6b3a764000060056112429190612445565b811180156112645750670de0b6b3a7640000600a6112609190612445565b8111155b156112fe57600560009054906101000a900473ffffffffffffffffffffffffffffffffffffffff1673ffffffffffffffffffffffffffffffffffffffff166373da80103360006040518363ffffffff1660e01b81526004016112c79291906125e0565b600060405180830381600087803b1580156112e157600080fd5b505af11580156112f5573d6000803e3d6000fd5b505050506113cc565b670de0b6b3a7640000600a6113139190612445565b811180156113355750670de0b6b3a7640000601d6113319190612445565b8111155b156113cb57600560009054906101000a900473ffffffffffffffffffffffffffffffffffffffff1673ffffffffffffffffffffffffffffffffffffffff166373da80103360016040518363ffffffff1660e01b815260040161139892919061263a565b600060405180830381600087803b1580156113b257600080fd5b505af11580156113c6573d6000803e3d6000fd5b505050505b5b50565b6000600260009054906101000a900473ffffffffffffffffffffffffffffffffffffffff1673ffffffffffffffffffffffffffffffffffffffff166370a08231336040518263ffffffff1660e01b815260040161142c9190611c2c565b602060405180830381865afa158015611449573d6000803e3d6000fd5b505050506040513d601f19601f8201168201806040525081019061146d91906123e9565b90506000600260009054906101000a900473ffffffffffffffffffffffffffffffffffffffff1673ffffffffffffffffffffffffffffffffffffffff16635e94ac05336040518263ffffffff1660e01b81526004016114cc9190611c2c565b602060405180830381865afa1580156114e9573d6000803e3d6000fd5b505050506040513d601f19601f8201168201806040525081019061150d9190611fef565b90506115198282611634565b600082146115b757600260009054906101000a900473ffffffffffffffffffffffffffffffffffffffff1673ffffffffffffffffffffffffffffffffffffffff1663dc5314f23383866040518463ffffffff1660e01b8152600401611580939291906120bf565b600060405180830381600087803b15801561159a57600080fd5b505af11580156115ae573d6000803e3d6000fd5b5050505061160c565b60004290503373ffffffffffffffffffffffffffffffffffffffff167fc4ce9a02dc70fc3595f43e3c08ce1e5b880f4be6f33a04831ea249077ece6077826040516116029190611cc0565b60405180910390a2505b505050565b6000808273ffffffffffffffffffffffffffffffffffffffff163b119050919050565b61163e601e611789565b600160003373ffffffffffffffffffffffffffffffffffffffff1673ffffffffffffffffffffffffffffffffffffffff168152602001908152602001600020600101544261168c9190612663565b106117855761169a8261122d565b600260009054906101000a900473ffffffffffffffffffffffffffffffffffffffff1673ffffffffffffffffffffffffffffffffffffffff1663dc5314f28233856116e3610a43565b6116ed9190612663565b6040518463ffffffff1660e01b815260040161170b939291906120bf565b600060405180830381600087803b15801561172557600080fd5b505af1158015611739573d6000803e3d6000fd5b5050505042600160003373ffffffffffffffffffffffffffffffffffffffff1673ffffffffffffffffffffffffffffffffffffffff168152602001908152602001600020600101819055505b5050565b6000620151808261179a9190612445565b9050919050565b5080546117ad90612125565b6000825580601f106117bf57506117de565b601f0160209004906000526020600020908101906117dd9190611826565b5b50565b60405180610100016040528060608152602001600081526020016060815260200160608152602001606081526020016000815260200160608152602001606081525090565b5b8082111561183f576000816000905550600101611827565b5090565b6000604051905090565b600080fd5b600080fd5b600080fd5b600080fd5b6000601f19601f8301169050919050565b7f4e487b7100000000000000000000000000000000000000000000000000000000600052604160045260246000fd5b6118aa82611861565b810181811067ffffffffffffffff821117156118c9576118c8611872565b5b80604052505050565b60006118dc611843565b90506118e882826118a1565b919050565b600067ffffffffffffffff82111561190857611907611872565b5b61191182611861565b9050602081019050919050565b82818337600083830152505050565b600061194061193b846118ed565b6118d2565b90508281526020810184848401111561195c5761195b61185c565b5b61196784828561191e565b509392505050565b600082601f83011261198457611983611857565b5b813561199484826020860161192d565b91505092915050565b600073ffffffffffffffffffffffffffffffffffffffff82169050919050565b60006119c88261199d565b9050919050565b6119d8816119bd565b81146119e357600080fd5b50565b6000813590506119f5816119cf565b92915050565b6000819050919050565b611a0e816119fb565b8114611a1957600080fd5b50565b600081359050611a2b81611a05565b92915050565b60008115159050919050565b611a4681611a31565b8114611a5157600080fd5b50565b600081359050611a6381611a3d565b92915050565b6000806000806000806000806000806101408b8d031215611a8d57611a8c61184d565b5b60008b013567ffffffffffffffff811115611aab57611aaa611852565b5b611ab78d828e0161196f565b9a50506020611ac88d828e016119e6565b9950506040611ad98d828e01611a1c565b98505060608b013567ffffffffffffffff811115611afa57611af9611852565b5b611b068d828e0161196f565b97505060808b013567ffffffffffffffff811115611b2757611b26611852565b5b611b338d828e0161196f565b96505060a08b013567ffffffffffffffff811115611b5457611b53611852565b5b611b608d828e0161196f565b95505060c0611b718d828e01611a1c565b94505060e08b013567ffffffffffffffff811115611b9257611b91611852565b5b611b9e8d828e0161196f565b9350506101008b013567ffffffffffffffff811115611bc057611bbf611852565b5b611bcc8d828e0161196f565b925050610120611bde8d828e01611a54565b9150509295989b9194979a5092959850565b600060208284031215611c0657611c0561184d565b5b6000611c14848285016119e6565b91505092915050565b611c26816119bd565b82525050565b6000602082019050611c416000830184611c1d565b92915050565b60008060408385031215611c5e57611c5d61184d565b5b6000611c6c858286016119e6565b9250506020611c7d858286016119e6565b9150509250929050565b611c9081611a31565b82525050565b6000602082019050611cab6000830184611c87565b92915050565b611cba816119fb565b82525050565b6000602082019050611cd56000830184611cb1565b92915050565b6000611ce6826119bd565b9050919050565b611cf681611cdb565b8114611d0157600080fd5b50565b600081359050611d1381611ced565b92915050565b6000611d24826119bd565b9050919050565b611d3481611d19565b8114611d3f57600080fd5b50565b600081359050611d5181611d2b565b92915050565b6000611d62826119bd565b9050919050565b611d7281611d57565b8114611d7d57600080fd5b50565b600081359050611d8f81611d69565b92915050565b600080600060608486031215611dae57611dad61184d565b5b6000611dbc86828701611d04565b9350506020611dcd86828701611d42565b9250506040611dde86828701611d80565b9150509250925092565b600081519050919050565b600082825260208201905092915050565b60005b83811015611e22578082015181840152602081019050611e07565b60008484015250505050565b6000611e3982611de8565b611e438185611df3565b9350611e53818560208601611e04565b611e5c81611861565b840191505092915050565b611e70816119fb565b82525050565b6000610100830160008301518482036000860152611e948282611e2e565b9150506020830151611ea96020860182611e67565b5060408301518482036040860152611ec18282611e2e565b91505060608301518482036060860152611edb8282611e2e565b91505060808301518482036080860152611ef58282611e2e565b91505060a0830151611f0a60a0860182611e67565b5060c083015184820360c0860152611f228282611e2e565b91505060e083015184820360e0860152611f3c8282611e2e565b9150508091505092915050565b60006020820190508181036000830152611f638184611e76565b905092915050565b600060208284031215611f8157611f8061184d565b5b6000611f8f84828501611a1c565b91505092915050565b600081519050611fa781611a3d565b92915050565b600060208284031215611fc357611fc261184d565b5b6000611fd184828501611f98565b91505092915050565b600081519050611fe9816119cf565b92915050565b6000602082840312156120055761200461184d565b5b600061201384828501611fda565b91505092915050565b600082825260208201905092915050565b7f596f7520617265206e6f7420612063697479206f7220636974697a656e20616c60008201527f7265616479206578697374000000000000000000000000000000000000000000602082015250565b6000612089602b8361201c565b91506120948261202d565b604082019050919050565b600060208201905081810360008301526120b88161207c565b9050919050565b60006060820190506120d46000830186611c1d565b6120e16020830185611c1d565b6120ee6040830184611cb1565b949350505050565b7f4e487b7100000000000000000000000000000000000000000000000000000000600052602260045260246000fd5b6000600282049050600182168061213d57607f821691505b6020821081036121505761214f6120f6565b5b50919050565b60008190508160005260206000209050919050565b60006020601f8301049050919050565b600082821b905092915050565b6000600883026121b87fffffffffffffffffffffffffffffffffffffffffffffffffffffffffffffffff8261217b565b6121c2868361217b565b95508019841693508086168417925050509392505050565b6000819050919050565b60006121ff6121fa6121f5846119fb565b6121da565b6119fb565b9050919050565b6000819050919050565b612219836121e4565b61222d61222582612206565b848454612188565b825550505050565b600090565b612242612235565b61224d818484612210565b505050565b5b818110156122715761226660008261223a565b600181019050612253565b5050565b601f8211156122b65761228781612156565b6122908461216b565b8101602085101561229f578190505b6122b36122ab8561216b565b830182612252565b50505b505050565b600082821c905092915050565b60006122d9600019846008026122bb565b1980831691505092915050565b60006122f283836122c8565b9150826002028217905092915050565b61230b82611de8565b67ffffffffffffffff81111561232457612323611872565b5b61232e8254612125565b612339828285612275565b600060209050601f83116001811461236c576000841561235a578287015190505b61236485826122e6565b8655506123cc565b601f19841661237a86612156565b60005b828110156123a25784890151825560018201915060208501945060208101905061237d565b868310156123bf57848901516123bb601f8916826122c8565b8355505b6001600288020188555050505b505050505050565b6000815190506123e381611a05565b92915050565b6000602082840312156123ff576123fe61184d565b5b600061240d848285016123d4565b91505092915050565b7f4e487b7100000000000000000000000000000000000000000000000000000000600052601160045260246000fd5b6000612450826119fb565b915061245b836119fb565b9250828202612469816119fb565b915082820484148315176124805761247f612416565b5b5092915050565b7f496e697469616c697a61626c653a20636f6e747261637420697320616c72656160008201527f647920696e697469616c697a6564000000000000000000000000000000000000602082015250565b60006124e3602e8361201c565b91506124ee82612487565b604082019050919050565b60006020820190508181036000830152612512816124d6565b9050919050565b600060408201905061252e6000830185611c1d565b61253b6020830184611c1d565b9392505050565b6000819050919050565b600060ff82169050919050565b600061257461256f61256a84612542565b6121da565b61254c565b9050919050565b61258481612559565b82525050565b600060208201905061259f600083018461257b565b92915050565b6000819050919050565b60006125ca6125c56125c0846125a5565b6121da565b6119fb565b9050919050565b6125da816125af565b82525050565b60006040820190506125f56000830185611c1d565b61260260208301846125d1565b9392505050565b600061262461261f61261a84612542565b6121da565b6119fb565b9050919050565b61263481612609565b82525050565b600060408201905061264f6000830185611c1d565b61265c602083018461262b565b9392505050565b600061266e826119fb565b9150612679836119fb565b925082820390508181111561269157612690612416565b5b9291505056fea2646970667358221220017015b89e2d6bf1eacd8c736ec1530529e6fca50dc3fb73f54827bc8c9e030864736f6c63430008150033",
  "devdoc": {
    "author": "Giuseppe La Vecchia",
    "custom:experimental": "This is an experimental contract.",
    "details": "for testing the checkingForExpiredToken function, it is needed to the \"if\" statement, because it will trigger the content only once every 30 days",
    "events": {
      "Initialized(uint8)": {
        "details": "Triggered when the contract has been initialized or reinitialized."
      }
    },
    "kind": "dev",
    "methods": {
      "addCitizen(string,address,uint256,string,string,string,uint256,string,string,bool)": {
        "details": "all the require means that you can enter the function in 2 cases: 1)if you are a city and you are going to modify an existing citizen (added previously by the city) 2)If you are a city and you want to add a non-existing citizen, so you are not going to modify",
        "params": {
          "isModify": "if true, it means that the caller of this function want to change something in a Citizen. Otherwise it is an addition operation."
        }
      },
      "checkExistingCitizenOfACity(address,address)": {
        "params": {
          "citizenAddr": "address of that citizen to check"
        }
      },
      "constructor": {
        "custom:oz-upgrades-unsafe-allow": "constructor"
      },
      "consumePTFromCitizen(uint256)": {
        "params": {
          "amountUsed": "the contract address of the PollutionToken contract, used by this contract."
        }
      },
      "initialize(address,address,address)": {
        "params": {
          "dsesCenterAddress": "the contract address of the DSESCenter contract, used by this contract.",
          "pnftAddress": "the contract address of the PollutionNft contract, used by this contract.",
          "ptContractAddress": "the contract address of the PollutionToken contract, used by this contract."
        }
      }
    },
    "title": "A contract to be used by Cities and Citizens",
    "version": 1
  },
  "userdoc": {
    "kind": "user",
    "methods": {
      "addCitizen(string,address,uint256,string,string,string,uint256,string,string,bool)": {
        "notice": "Add a new citizen instanceAllows a City to add a new citizen giving an initial amount of PollutionTokens. It can also be used for editing purpose of the Citizen's parameters."
      },
      "checkExistingCitizenOfACity(address,address)": {
        "notice": "This will return true if citizen was added by a city, otherwise false. getPreviousSender contains a mapping(addressOfEntityChildren=>addressOfEntityFather) where father is the entity that add the children, like city add citizen."
      },
      "consumePTFromCitizen(uint256)": {
        "notice": "Consume PollutionToken by Citizena Citizen equipped with a sensor will send a certain amount of data produced ('amountUsed') periodically. If its PollutionToken balance is not 0, he send back to the City that amountUsed of PT, otherwise he emit an Event notifying States that he finished his tokens. Before doing that,it is necessary to check that 1 month has not passed since the beginning of a new cycle (Start of the cycle->consumingPT->end of a month->give back to city the remaining PT->if any, give NFTs to Citizen)."
      },
      "initialize(address,address,address)": {
        "notice": "Initialize function for the proxy upgradable pattern by OpenZeppelinInitialize variables. The address of this contract is passed to the storeContractAddress function of the ptContract and pollution nft contract, allowing this contract to call its functions"
      }
    },
    "notice": "Used for CRUD operations and for consuming PT by the Citizen",
    "version": 1
  },
  "storageLayout": {
    "storage": [
      {
        "astId": 6,
        "contract": "contracts/CityCitizen.sol:CityCitizen",
        "label": "_initialized",
        "offset": 0,
        "slot": "0",
        "type": "t_uint8"
      },
      {
        "astId": 9,
        "contract": "contracts/CityCitizen.sol:CityCitizen",
        "label": "_initializing",
        "offset": 1,
        "slot": "0",
        "type": "t_bool"
      },
      {
        "astId": 515,
        "contract": "contracts/CityCitizen.sol:CityCitizen",
        "label": "citizens",
        "offset": 0,
        "slot": "1",
        "type": "t_mapping(t_address,t_struct(Citizen)1057_storage)"
      },
      {
        "astId": 523,
        "contract": "contracts/CityCitizen.sol:CityCitizen",
        "label": "pt",
        "offset": 0,
        "slot": "2",
        "type": "t_contract(IPollutionToken)1847"
      },
      {
        "astId": 525,
        "contract": "contracts/CityCitizen.sol:CityCitizen",
        "label": "admin",
        "offset": 0,
        "slot": "3",
        "type": "t_address"
      },
      {
        "astId": 528,
        "contract": "contracts/CityCitizen.sol:CityCitizen",
        "label": "dsesCenter",
        "offset": 0,
        "slot": "4",
        "type": "t_contract(IDSESCenter)1766"
      },
      {
        "astId": 531,
        "contract": "contracts/CityCitizen.sol:CityCitizen",
        "label": "pnft",
        "offset": 0,
        "slot": "5",
        "type": "t_contract(IPollutionNft)1790"
      },
      {
        "astId": 541,
        "contract": "contracts/CityCitizen.sol:CityCitizen",
        "label": "locked",
        "offset": 20,
        "slot": "5",
        "type": "t_bool"
      }
    ],
    "types": {
      "t_address": {
        "encoding": "inplace",
        "label": "address",
        "numberOfBytes": "20"
      },
      "t_bool": {
        "encoding": "inplace",
        "label": "bool",
        "numberOfBytes": "1"
      },
      "t_contract(IDSESCenter)1766": {
        "encoding": "inplace",
        "label": "contract IDSESCenter",
        "numberOfBytes": "20"
      },
      "t_contract(IPollutionNft)1790": {
        "encoding": "inplace",
        "label": "contract IPollutionNft",
        "numberOfBytes": "20"
      },
      "t_contract(IPollutionToken)1847": {
        "encoding": "inplace",
        "label": "contract IPollutionToken",
        "numberOfBytes": "20"
      },
      "t_mapping(t_address,t_struct(Citizen)1057_storage)": {
        "encoding": "mapping",
        "key": "t_address",
        "label": "mapping(address => struct classes.Citizen)",
        "numberOfBytes": "32",
        "value": "t_struct(Citizen)1057_storage"
      },
      "t_string_storage": {
        "encoding": "bytes",
        "label": "string",
        "numberOfBytes": "32"
      },
      "t_struct(Citizen)1057_storage": {
        "encoding": "inplace",
        "label": "struct classes.Citizen",
        "members": [
          {
            "astId": 1042,
            "contract": "contracts/CityCitizen.sol:CityCitizen",
            "label": "name",
            "offset": 0,
            "slot": "0",
            "type": "t_string_storage"
          },
          {
            "astId": 1044,
            "contract": "contracts/CityCitizen.sol:CityCitizen",
            "label": "checkedTimestamp",
            "offset": 0,
            "slot": "1",
            "type": "t_uint256"
          },
          {
            "astId": 1046,
            "contract": "contracts/CityCitizen.sol:CityCitizen",
            "label": "surname",
            "offset": 0,
            "slot": "2",
            "type": "t_string_storage"
          },
          {
            "astId": 1048,
            "contract": "contracts/CityCitizen.sol:CityCitizen",
            "label": "email",
            "offset": 0,
            "slot": "3",
            "type": "t_string_storage"
          },
          {
            "astId": 1050,
            "contract": "contracts/CityCitizen.sol:CityCitizen",
            "label": "dateOfBirth",
            "offset": 0,
            "slot": "4",
            "type": "t_string_storage"
          },
          {
            "astId": 1052,
            "contract": "contracts/CityCitizen.sol:CityCitizen",
            "label": "telephone",
            "offset": 0,
            "slot": "5",
            "type": "t_uint256"
          },
          {
            "astId": 1054,
            "contract": "contracts/CityCitizen.sol:CityCitizen",
            "label": "physicalAddress",
            "offset": 0,
            "slot": "6",
            "type": "t_string_storage"
          },
          {
            "astId": 1056,
            "contract": "contracts/CityCitizen.sol:CityCitizen",
            "label": "id",
            "offset": 0,
            "slot": "7",
            "type": "t_string_storage"
          }
        ],
        "numberOfBytes": "256"
      },
      "t_uint256": {
        "encoding": "inplace",
        "label": "uint256",
        "numberOfBytes": "32"
      },
      "t_uint8": {
        "encoding": "inplace",
        "label": "uint8",
        "numberOfBytes": "1"
      }
    }
  }
}