{
  "address": "0x00ef3F5eBcF2306423B4dB60c264831131eE410B",
  "abi": [
    {
      "inputs": [],
      "stateMutability": "nonpayable",
      "type": "constructor"
    },
    {
      "inputs": [],
      "name": "DSESCenter__City_Not_Found",
      "type": "error"
    },
    {
      "inputs": [],
      "name": "DSESCenter__Only_Admin_Allowed",
      "type": "error"
    },
    {
      "inputs": [],
      "name": "DSESCenter__Only_State_Allowed",
      "type": "error"
    },
    {
      "inputs": [],
      "name": "DSESCenter__State_Not_Found",
      "type": "error"
    },
    {
      "anonymous": false,
      "inputs": [
        {
          "indexed": false,
          "internalType": "uint8",
          "name": "version",
          "type": "uint8"
        }
      ],
      "name": "Initialized",
      "type": "event"
    },
    {
      "inputs": [
        {
          "internalType": "string",
          "name": "name",
          "type": "string"
        },
        {
          "internalType": "uint256",
          "name": "population",
          "type": "uint256"
        },
        {
          "internalType": "uint256",
          "name": "numberOfIndustries",
          "type": "uint256"
        },
        {
          "internalType": "address",
          "name": "cityAddr",
          "type": "address"
        },
        {
          "internalType": "string",
          "name": "attorneyName",
          "type": "string"
        },
        {
          "internalType": "string",
          "name": "attorneySurname",
          "type": "string"
        },
        {
          "internalType": "string",
          "name": "attorneyEmail",
          "type": "string"
        },
        {
          "internalType": "uint256",
          "name": "telephone",
          "type": "uint256"
        },
        {
          "internalType": "string",
          "name": "physicalAddress",
          "type": "string"
        },
        {
          "internalType": "bool",
          "name": "isModify",
          "type": "bool"
        }
      ],
      "name": "addCity",
      "outputs": [],
      "stateMutability": "nonpayable",
      "type": "function"
    },
    {
      "inputs": [
        {
          "internalType": "string",
          "name": "name",
          "type": "string"
        },
        {
          "internalType": "string",
          "name": "iso",
          "type": "string"
        },
        {
          "internalType": "address",
          "name": "stateAddr",
          "type": "address"
        },
        {
          "internalType": "uint256",
          "name": "numberOfCities",
          "type": "uint256"
        },
        {
          "internalType": "string",
          "name": "attorneyName",
          "type": "string"
        },
        {
          "internalType": "string",
          "name": "attorneySurname",
          "type": "string"
        },
        {
          "internalType": "string",
          "name": "attorneyEmail",
          "type": "string"
        },
        {
          "internalType": "uint256",
          "name": "telephone",
          "type": "uint256"
        },
        {
          "internalType": "string",
          "name": "physicalAddress",
          "type": "string"
        },
        {
          "internalType": "bool",
          "name": "isModify",
          "type": "bool"
        }
      ],
      "name": "addState",
      "outputs": [],
      "stateMutability": "nonpayable",
      "type": "function"
    },
    {
      "inputs": [
        {
          "internalType": "address",
          "name": "addr",
          "type": "address"
        }
      ],
      "name": "checkExistingAdmin",
      "outputs": [
        {
          "internalType": "bool",
          "name": "",
          "type": "bool"
        }
      ],
      "stateMutability": "view",
      "type": "function"
    },
    {
      "inputs": [
        {
          "internalType": "address",
          "name": "cityAddr",
          "type": "address"
        }
      ],
      "name": "checkExistingCity",
      "outputs": [
        {
          "internalType": "bool",
          "name": "",
          "type": "bool"
        }
      ],
      "stateMutability": "view",
      "type": "function"
    },
    {
      "inputs": [
        {
          "internalType": "address",
          "name": "addr",
          "type": "address"
        }
      ],
      "name": "checkExistingState",
      "outputs": [
        {
          "internalType": "bool",
          "name": "",
          "type": "bool"
        }
      ],
      "stateMutability": "view",
      "type": "function"
    },
    {
      "inputs": [
        {
          "internalType": "address",
          "name": "cityAddr",
          "type": "address"
        }
      ],
      "name": "deleteCity",
      "outputs": [],
      "stateMutability": "nonpayable",
      "type": "function"
    },
    {
      "inputs": [
        {
          "internalType": "address",
          "name": "stateAddr",
          "type": "address"
        }
      ],
      "name": "deleteState",
      "outputs": [],
      "stateMutability": "nonpayable",
      "type": "function"
    },
    {
      "inputs": [
        {
          "internalType": "address",
          "name": "cityAddr",
          "type": "address"
        }
      ],
      "name": "getCity",
      "outputs": [
        {
          "components": [
            {
              "internalType": "string",
              "name": "name",
              "type": "string"
            },
            {
              "internalType": "uint256",
              "name": "population",
              "type": "uint256"
            },
            {
              "internalType": "uint256",
              "name": "numberOfIndustries",
              "type": "uint256"
            },
            {
              "internalType": "string",
              "name": "attorneyName",
              "type": "string"
            },
            {
              "internalType": "string",
              "name": "attorneySurname",
              "type": "string"
            },
            {
              "internalType": "string",
              "name": "attorneyEmail",
              "type": "string"
            },
            {
              "internalType": "uint256",
              "name": "telephone",
              "type": "uint256"
            },
            {
              "internalType": "string",
              "name": "physicalAddress",
              "type": "string"
            }
          ],
          "internalType": "struct classes.City",
          "name": "",
          "type": "tuple"
        }
      ],
      "stateMutability": "view",
      "type": "function"
    },
    {
      "inputs": [
        {
          "internalType": "address",
          "name": "cityAddr",
          "type": "address"
        }
      ],
      "name": "getCityByAddr",
      "outputs": [
        {
          "components": [
            {
              "internalType": "string",
              "name": "name",
              "type": "string"
            },
            {
              "internalType": "uint256",
              "name": "population",
              "type": "uint256"
            },
            {
              "internalType": "uint256",
              "name": "numberOfIndustries",
              "type": "uint256"
            },
            {
              "internalType": "string",
              "name": "attorneyName",
              "type": "string"
            },
            {
              "internalType": "string",
              "name": "attorneySurname",
              "type": "string"
            },
            {
              "internalType": "string",
              "name": "attorneyEmail",
              "type": "string"
            },
            {
              "internalType": "uint256",
              "name": "telephone",
              "type": "uint256"
            },
            {
              "internalType": "string",
              "name": "physicalAddress",
              "type": "string"
            }
          ],
          "internalType": "struct classes.City",
          "name": "",
          "type": "tuple"
        }
      ],
      "stateMutability": "view",
      "type": "function"
    },
    {
      "inputs": [],
      "name": "getContractAddress",
      "outputs": [
        {
          "internalType": "address",
          "name": "",
          "type": "address"
        }
      ],
      "stateMutability": "view",
      "type": "function"
    },
    {
      "inputs": [
        {
          "internalType": "address",
          "name": "stateAddr",
          "type": "address"
        }
      ],
      "name": "getState",
      "outputs": [
        {
          "components": [
            {
              "internalType": "string",
              "name": "name",
              "type": "string"
            },
            {
              "internalType": "string",
              "name": "iso",
              "type": "string"
            },
            {
              "internalType": "uint256",
              "name": "numberOfCities",
              "type": "uint256"
            },
            {
              "internalType": "string",
              "name": "attorneyName",
              "type": "string"
            },
            {
              "internalType": "string",
              "name": "attorneySurname",
              "type": "string"
            },
            {
              "internalType": "string",
              "name": "attorneyEmail",
              "type": "string"
            },
            {
              "internalType": "uint256",
              "name": "telephone",
              "type": "uint256"
            },
            {
              "internalType": "string",
              "name": "physicalAddress",
              "type": "string"
            }
          ],
          "internalType": "struct classes.State",
          "name": "",
          "type": "tuple"
        }
      ],
      "stateMutability": "view",
      "type": "function"
    },
    {
      "inputs": [
        {
          "internalType": "contract IPollutionToken",
          "name": "ptContractAddress",
          "type": "address"
        }
      ],
      "name": "initialize",
      "outputs": [],
      "stateMutability": "nonpayable",
      "type": "function"
    }
  ],
  "numDeployments": 12,
  "solcInputHash": "0b2be86d781d605a3b06ecf54940460f",
  "bytecode": "0x60806040523480156200001157600080fd5b50620000226200002860201b60201c565b620001d2565b600060019054906101000a900460ff16156200007b576040517f08c379a0000000000000000000000000000000000000000000000000000000008152600401620000729062000175565b60405180910390fd5b60ff801660008054906101000a900460ff1660ff1614620000ec5760ff6000806101000a81548160ff021916908360ff1602179055507f7f26b83ff96e1f2b6a682f133852f6798a09c465da95921460cefb384740249860ff604051620000e39190620001b5565b60405180910390a15b565b600082825260208201905092915050565b7f496e697469616c697a61626c653a20636f6e747261637420697320696e69746960008201527f616c697a696e6700000000000000000000000000000000000000000000000000602082015250565b60006200015d602783620000ee565b91506200016a82620000ff565b604082019050919050565b6000602082019050818103600083015262000190816200014e565b9050919050565b600060ff82169050919050565b620001af8162000197565b82525050565b6000602082019050620001cc6000830184620001a4565b92915050565b612a5580620001e26000396000f3fe608060405234801561001057600080fd5b50600436106100b45760003560e01c806352a3ca021161007157806352a3ca021461019f5780635a9c0e8c146101cf578063a0e3720a146101eb578063a376e4d814610207578063b8f2eac114610237578063c4d66de814610267576100b4565b80631142bd4e146100b95780631bab58f5146100d55780631fef660914610105578063259ed8a11461013557806332a2c5d01461016557806338a2b9f914610183575b600080fd5b6100d360048036038101906100ce9190611d5a565b610283565b005b6100ef60048036038101906100ea9190611ee1565b6104fa565b6040516100fc919061206f565b60405180910390f35b61011f600480360381019061011a9190611ee1565b6108d4565b60405161012c91906120a0565b60405180910390f35b61014f600480360381019061014a9190611ee1565b61092e565b60405161015c9190612187565b60405180910390f35b61016d610c80565b60405161017a91906121b8565b60405180910390f35b61019d60048036038101906101989190611ee1565b610caa565b005b6101b960048036038101906101b49190611ee1565b610f07565b6040516101c69190612187565b60405180910390f35b6101e960048036038101906101e491906121d3565b611259565b005b61020560048036038101906102009190611ee1565b611481565b005b610221600480360381019061021c9190611ee1565b61172e565b60405161022e91906120a0565b60405180910390f35b610251600480360381019061024c9190611ee1565b611788565b60405161025e91906120a0565b60405180910390f35b610281600480360381019061027c919061237c565b6117e2565b005b600060029054906101000a900473ffffffffffffffffffffffffffffffffffffffff1673ffffffffffffffffffffffffffffffffffffffff163373ffffffffffffffffffffffffffffffffffffffff161480156102ee57506102e488611788565b15806102ed5750805b5b61032d576040517f08c379a000000000000000000000000000000000000000000000000000000000815260040161032490612452565b60405180910390fd5b6040518061010001604052808b81526020018a815260200188815260200187815260200186815260200185815260200184815260200183815250600260008a73ffffffffffffffffffffffffffffffffffffffff1673ffffffffffffffffffffffffffffffffffffffff16815260200190815260200160002060008201518160000190816103bb919061267e565b5060208201518160010190816103d1919061267e565b506040820151816002015560608201518160030190816103f1919061267e565b506080820151816004019081610407919061267e565b5060a082015181600501908161041d919061267e565b5060c0820151816006015560e082015181600701908161043d919061267e565b50905050806104ee57600160009054906101000a900473ffffffffffffffffffffffffffffffffffffffff1673ffffffffffffffffffffffffffffffffffffffff1663ea64b234338a670de0b6b3a7640000620493e061049d919061277f565b6040518463ffffffff1660e01b81526004016104bb939291906127d0565b600060405180830381600087803b1580156104d557600080fd5b505af11580156104e9573d6000803e3d6000fd5b505050505b50505050505050505050565b610502611a4d565b600260008373ffffffffffffffffffffffffffffffffffffffff1673ffffffffffffffffffffffffffffffffffffffff1681526020019081526020016000206040518061010001604052908160008201805461055d906124a1565b80601f0160208091040260200160405190810160405280929190818152602001828054610589906124a1565b80156105d65780601f106105ab576101008083540402835291602001916105d6565b820191906000526020600020905b8154815290600101906020018083116105b957829003601f168201915b505050505081526020016001820180546105ef906124a1565b80601f016020809104026020016040519081016040528092919081815260200182805461061b906124a1565b80156106685780601f1061063d57610100808354040283529160200191610668565b820191906000526020600020905b81548152906001019060200180831161064b57829003601f168201915b505050505081526020016002820154815260200160038201805461068b906124a1565b80601f01602080910402602001604051908101604052809291908181526020018280546106b7906124a1565b80156107045780601f106106d957610100808354040283529160200191610704565b820191906000526020600020905b8154815290600101906020018083116106e757829003601f168201915b5050505050815260200160048201805461071d906124a1565b80601f0160208091040260200160405190810160405280929190818152602001828054610749906124a1565b80156107965780601f1061076b57610100808354040283529160200191610796565b820191906000526020600020905b81548152906001019060200180831161077957829003601f168201915b505050505081526020016005820180546107af906124a1565b80601f01602080910402602001604051908101604052809291908181526020018280546107db906124a1565b80156108285780601f106107fd57610100808354040283529160200191610828565b820191906000526020600020905b81548152906001019060200180831161080b57829003601f168201915b505050505081526020016006820154815260200160078201805461084b906124a1565b80601f0160208091040260200160405190810160405280929190818152602001828054610877906124a1565b80156108c45780601f10610899576101008083540402835291602001916108c4565b820191906000526020600020905b8154815290600101906020018083116108a757829003601f168201915b5050505050815250509050919050565b60008173ffffffffffffffffffffffffffffffffffffffff16600060029054906101000a900473ffffffffffffffffffffffffffffffffffffffff1673ffffffffffffffffffffffffffffffffffffffff16149050919050565b610936611a92565b600360008373ffffffffffffffffffffffffffffffffffffffff1673ffffffffffffffffffffffffffffffffffffffff16815260200190815260200160002060405180610100016040529081600082018054610991906124a1565b80601f01602080910402602001604051908101604052809291908181526020018280546109bd906124a1565b8015610a0a5780601f106109df57610100808354040283529160200191610a0a565b820191906000526020600020905b8154815290600101906020018083116109ed57829003601f168201915b505050505081526020016001820154815260200160028201548152602001600382018054610a37906124a1565b80601f0160208091040260200160405190810160405280929190818152602001828054610a63906124a1565b8015610ab05780601f10610a8557610100808354040283529160200191610ab0565b820191906000526020600020905b815481529060010190602001808311610a9357829003601f168201915b50505050508152602001600482018054610ac9906124a1565b80601f0160208091040260200160405190810160405280929190818152602001828054610af5906124a1565b8015610b425780601f10610b1757610100808354040283529160200191610b42565b820191906000526020600020905b815481529060010190602001808311610b2557829003601f168201915b50505050508152602001600582018054610b5b906124a1565b80601f0160208091040260200160405190810160405280929190818152602001828054610b87906124a1565b8015610bd45780601f10610ba957610100808354040283529160200191610bd4565b820191906000526020600020905b815481529060010190602001808311610bb757829003601f168201915b5050505050815260200160068201548152602001600782018054610bf7906124a1565b80601f0160208091040260200160405190810160405280929190818152602001828054610c23906124a1565b8015610c705780601f10610c4557610100808354040283529160200191610c70565b820191906000526020600020905b815481529060010190602001808311610c5357829003601f168201915b5050505050815250509050919050565b6000600160009054906101000a900473ffffffffffffffffffffffffffffffffffffffff16905090565b610cb333611788565b610ce9576040517fddbd314a00000000000000000000000000000000000000000000000000000000815260040160405180910390fd5b610cf28161172e565b15610ed257600160009054906101000a900473ffffffffffffffffffffffffffffffffffffffff1673ffffffffffffffffffffffffffffffffffffffff1663dc5314f28233600160009054906101000a900473ffffffffffffffffffffffffffffffffffffffff1673ffffffffffffffffffffffffffffffffffffffff166370a08231866040518263ffffffff1660e01b8152600401610d9291906121b8565b602060405180830381865afa158015610daf573d6000803e3d6000fd5b505050506040513d601f19601f82011682018060405250810190610dd3919061281c565b6040518463ffffffff1660e01b8152600401610df1939291906127d0565b600060405180830381600087803b158015610e0b57600080fd5b505af1158015610e1f573d6000803e3d6000fd5b50505050600360008273ffffffffffffffffffffffffffffffffffffffff1673ffffffffffffffffffffffffffffffffffffffff16815260200190815260200160002060008082016000610e739190611ad7565b60018201600090556002820160009055600382016000610e939190611ad7565b600482016000610ea39190611ad7565b600582016000610eb39190611ad7565b6006820160009055600782016000610ecb9190611ad7565b5050610f04565b6040517ffba73c2600000000000000000000000000000000000000000000000000000000815260040160405180910390fd5b50565b610f0f611a92565b600360008373ffffffffffffffffffffffffffffffffffffffff1673ffffffffffffffffffffffffffffffffffffffff16815260200190815260200160002060405180610100016040529081600082018054610f6a906124a1565b80601f0160208091040260200160405190810160405280929190818152602001828054610f96906124a1565b8015610fe35780601f10610fb857610100808354040283529160200191610fe3565b820191906000526020600020905b815481529060010190602001808311610fc657829003601f168201915b505050505081526020016001820154815260200160028201548152602001600382018054611010906124a1565b80601f016020809104026020016040519081016040528092919081815260200182805461103c906124a1565b80156110895780601f1061105e57610100808354040283529160200191611089565b820191906000526020600020905b81548152906001019060200180831161106c57829003601f168201915b505050505081526020016004820180546110a2906124a1565b80601f01602080910402602001604051908101604052809291908181526020018280546110ce906124a1565b801561111b5780601f106110f05761010080835404028352916020019161111b565b820191906000526020600020905b8154815290600101906020018083116110fe57829003601f168201915b50505050508152602001600582018054611134906124a1565b80601f0160208091040260200160405190810160405280929190818152602001828054611160906124a1565b80156111ad5780601f10611182576101008083540402835291602001916111ad565b820191906000526020600020905b81548152906001019060200180831161119057829003601f168201915b50505050508152602001600682015481526020016007820180546111d0906124a1565b80601f01602080910402602001604051908101604052809291908181526020018280546111fc906124a1565b80156112495780601f1061121e57610100808354040283529160200191611249565b820191906000526020600020905b81548152906001019060200180831161122c57829003601f168201915b5050505050815250509050919050565b61126233611788565b801561127c57506112728761172e565b158061127b5750805b5b6112bb576040517f08c379a00000000000000000000000000000000000000000000000000000000081526004016112b2906128e1565b60405180910390fd5b6040518061010001604052808b81526020018a815260200189815260200187815260200186815260200185815260200184815260200183815250600360008973ffffffffffffffffffffffffffffffffffffffff1673ffffffffffffffffffffffffffffffffffffffff1681526020019081526020016000206000820151816000019081611349919061267e565b5060208201518160010155604082015181600201556060820151816003019081611373919061267e565b506080820151816004019081611389919061267e565b5060a082015181600501908161139f919061267e565b5060c0820151816006015560e08201518160070190816113bf919061267e565b5090505080611475576000670de0b6b3a76400006127106113e0919061277f565b9050600160009054906101000a900473ffffffffffffffffffffffffffffffffffffffff1673ffffffffffffffffffffffffffffffffffffffff1663ea64b234338a846040518463ffffffff1660e01b8152600401611441939291906127d0565b600060405180830381600087803b15801561145b57600080fd5b505af115801561146f573d6000803e3d6000fd5b50505050505b50505050505050505050565b600060029054906101000a900473ffffffffffffffffffffffffffffffffffffffff1673ffffffffffffffffffffffffffffffffffffffff163373ffffffffffffffffffffffffffffffffffffffff1614611508576040517ffc7b657100000000000000000000000000000000000000000000000000000000815260040160405180910390fd5b61151181611788565b156116f957600160009054906101000a900473ffffffffffffffffffffffffffffffffffffffff1673ffffffffffffffffffffffffffffffffffffffff1663dc5314f28233600160009054906101000a900473ffffffffffffffffffffffffffffffffffffffff1673ffffffffffffffffffffffffffffffffffffffff166370a08231866040518263ffffffff1660e01b81526004016115b191906121b8565b602060405180830381865afa1580156115ce573d6000803e3d6000fd5b505050506040513d601f19601f820116820180604052508101906115f2919061281c565b6040518463ffffffff1660e01b8152600401611610939291906127d0565b600060405180830381600087803b15801561162a57600080fd5b505af115801561163e573d6000803e3d6000fd5b50505050600260008273ffffffffffffffffffffffffffffffffffffffff1673ffffffffffffffffffffffffffffffffffffffff168152602001908152602001600020600080820160006116929190611ad7565b6001820160006116a29190611ad7565b60028201600090556003820160006116ba9190611ad7565b6004820160006116ca9190611ad7565b6005820160006116da9190611ad7565b60068201600090556007820160006116f29190611ad7565b505061172b565b6040517f70f1a5c200000000000000000000000000000000000000000000000000000000815260040160405180910390fd5b50565b600080600360008473ffffffffffffffffffffffffffffffffffffffff1673ffffffffffffffffffffffffffffffffffffffff168152602001908152602001600020600001805461177e906124a1565b9050119050919050565b600080600260008473ffffffffffffffffffffffffffffffffffffffff1673ffffffffffffffffffffffffffffffffffffffff16815260200190815260200160002060000180546117d8906124a1565b9050119050919050565b60008060019054906101000a900460ff161590508080156118135750600160008054906101000a900460ff1660ff16105b80611840575061182230611a2a565b15801561183f5750600160008054906101000a900460ff1660ff16145b5b61187f576040517f08c379a000000000000000000000000000000000000000000000000000000000815260040161187690612973565b60405180910390fd5b60016000806101000a81548160ff021916908360ff16021790555080156118bc576001600060016101000a81548160ff0219169083151502179055505b33600060026101000a81548173ffffffffffffffffffffffffffffffffffffffff021916908373ffffffffffffffffffffffffffffffffffffffff16021790555081600160006101000a81548173ffffffffffffffffffffffffffffffffffffffff021916908373ffffffffffffffffffffffffffffffffffffffff160217905550600160009054906101000a900473ffffffffffffffffffffffffffffffffffffffff1673ffffffffffffffffffffffffffffffffffffffff1663c697a7c830336040518363ffffffff1660e01b815260040161199b929190612993565b600060405180830381600087803b1580156119b557600080fd5b505af11580156119c9573d6000803e3d6000fd5b505050508015611a265760008060016101000a81548160ff0219169083151502179055507f7f26b83ff96e1f2b6a682f133852f6798a09c465da95921460cefb38474024986001604051611a1d9190612a04565b60405180910390a15b5050565b6000808273ffffffffffffffffffffffffffffffffffffffff163b119050919050565b60405180610100016040528060608152602001606081526020016000815260200160608152602001606081526020016060815260200160008152602001606081525090565b60405180610100016040528060608152602001600081526020016000815260200160608152602001606081526020016060815260200160008152602001606081525090565b508054611ae3906124a1565b6000825580601f10611af55750611b14565b601f016020900490600052602060002090810190611b139190611b17565b5b50565b5b80821115611b30576000816000905550600101611b18565b5090565b6000604051905090565b600080fd5b600080fd5b600080fd5b600080fd5b6000601f19601f8301169050919050565b7f4e487b7100000000000000000000000000000000000000000000000000000000600052604160045260246000fd5b611b9b82611b52565b810181811067ffffffffffffffff82111715611bba57611bb9611b63565b5b80604052505050565b6000611bcd611b34565b9050611bd98282611b92565b919050565b600067ffffffffffffffff821115611bf957611bf8611b63565b5b611c0282611b52565b9050602081019050919050565b82818337600083830152505050565b6000611c31611c2c84611bde565b611bc3565b905082815260208101848484011115611c4d57611c4c611b4d565b5b611c58848285611c0f565b509392505050565b600082601f830112611c7557611c74611b48565b5b8135611c85848260208601611c1e565b91505092915050565b600073ffffffffffffffffffffffffffffffffffffffff82169050919050565b6000611cb982611c8e565b9050919050565b611cc981611cae565b8114611cd457600080fd5b50565b600081359050611ce681611cc0565b92915050565b6000819050919050565b611cff81611cec565b8114611d0a57600080fd5b50565b600081359050611d1c81611cf6565b92915050565b60008115159050919050565b611d3781611d22565b8114611d4257600080fd5b50565b600081359050611d5481611d2e565b92915050565b6000806000806000806000806000806101408b8d031215611d7e57611d7d611b3e565b5b60008b013567ffffffffffffffff811115611d9c57611d9b611b43565b5b611da88d828e01611c60565b9a505060208b013567ffffffffffffffff811115611dc957611dc8611b43565b5b611dd58d828e01611c60565b9950506040611de68d828e01611cd7565b9850506060611df78d828e01611d0d565b97505060808b013567ffffffffffffffff811115611e1857611e17611b43565b5b611e248d828e01611c60565b96505060a08b013567ffffffffffffffff811115611e4557611e44611b43565b5b611e518d828e01611c60565b95505060c08b013567ffffffffffffffff811115611e7257611e71611b43565b5b611e7e8d828e01611c60565b94505060e0611e8f8d828e01611d0d565b9350506101008b013567ffffffffffffffff811115611eb157611eb0611b43565b5b611ebd8d828e01611c60565b925050610120611ecf8d828e01611d45565b9150509295989b9194979a5092959850565b600060208284031215611ef757611ef6611b3e565b5b6000611f0584828501611cd7565b91505092915050565b600081519050919050565b600082825260208201905092915050565b60005b83811015611f48578082015181840152602081019050611f2d565b60008484015250505050565b6000611f5f82611f0e565b611f698185611f19565b9350611f79818560208601611f2a565b611f8281611b52565b840191505092915050565b611f9681611cec565b82525050565b6000610100830160008301518482036000860152611fba8282611f54565b91505060208301518482036020860152611fd48282611f54565b9150506040830151611fe96040860182611f8d565b50606083015184820360608601526120018282611f54565b9150506080830151848203608086015261201b8282611f54565b91505060a083015184820360a08601526120358282611f54565b91505060c083015161204a60c0860182611f8d565b5060e083015184820360e08601526120628282611f54565b9150508091505092915050565b600060208201905081810360008301526120898184611f9c565b905092915050565b61209a81611d22565b82525050565b60006020820190506120b56000830184612091565b92915050565b60006101008301600083015184820360008601526120d98282611f54565b91505060208301516120ee6020860182611f8d565b5060408301516121016040860182611f8d565b50606083015184820360608601526121198282611f54565b915050608083015184820360808601526121338282611f54565b91505060a083015184820360a086015261214d8282611f54565b91505060c083015161216260c0860182611f8d565b5060e083015184820360e086015261217a8282611f54565b9150508091505092915050565b600060208201905081810360008301526121a181846120bb565b905092915050565b6121b281611cae565b82525050565b60006020820190506121cd60008301846121a9565b92915050565b6000806000806000806000806000806101408b8d0312156121f7576121f6611b3e565b5b60008b013567ffffffffffffffff81111561221557612214611b43565b5b6122218d828e01611c60565b9a505060206122328d828e01611d0d565b99505060406122438d828e01611d0d565b98505060606122548d828e01611cd7565b97505060808b013567ffffffffffffffff81111561227557612274611b43565b5b6122818d828e01611c60565b96505060a08b013567ffffffffffffffff8111156122a2576122a1611b43565b5b6122ae8d828e01611c60565b95505060c08b013567ffffffffffffffff8111156122cf576122ce611b43565b5b6122db8d828e01611c60565b94505060e06122ec8d828e01611d0d565b9350506101008b013567ffffffffffffffff81111561230e5761230d611b43565b5b61231a8d828e01611c60565b92505061012061232c8d828e01611d45565b9150509295989b9194979a5092959850565b600061234982611cae565b9050919050565b6123598161233e565b811461236457600080fd5b50565b60008135905061237681612350565b92915050565b60006020828403121561239257612391611b3e565b5b60006123a084828501612367565b91505092915050565b600082825260208201905092915050565b7f4572726f72207768696c6520616464696e672061206e65772073746174652e2060008201527f4d6179626520796f7520617265206e6f7420746865206f776e6572206f72207460208201527f686520737461746520616c726561647920657869737400000000000000000000604082015250565b600061243c6056836123a9565b9150612447826123ba565b606082019050919050565b6000602082019050818103600083015261246b8161242f565b9050919050565b7f4e487b7100000000000000000000000000000000000000000000000000000000600052602260045260246000fd5b600060028204905060018216806124b957607f821691505b6020821081036124cc576124cb612472565b5b50919050565b60008190508160005260206000209050919050565b60006020601f8301049050919050565b600082821b905092915050565b6000600883026125347fffffffffffffffffffffffffffffffffffffffffffffffffffffffffffffffff826124f7565b61253e86836124f7565b95508019841693508086168417925050509392505050565b6000819050919050565b600061257b61257661257184611cec565b612556565b611cec565b9050919050565b6000819050919050565b61259583612560565b6125a96125a182612582565b848454612504565b825550505050565b600090565b6125be6125b1565b6125c981848461258c565b505050565b5b818110156125ed576125e26000826125b6565b6001810190506125cf565b5050565b601f82111561263257612603816124d2565b61260c846124e7565b8101602085101561261b578190505b61262f612627856124e7565b8301826125ce565b50505b505050565b600082821c905092915050565b600061265560001984600802612637565b1980831691505092915050565b600061266e8383612644565b9150826002028217905092915050565b61268782611f0e565b67ffffffffffffffff8111156126a05761269f611b63565b5b6126aa82546124a1565b6126b58282856125f1565b600060209050601f8311600181146126e857600084156126d6578287015190505b6126e08582612662565b865550612748565b601f1984166126f6866124d2565b60005b8281101561271e578489015182556001820191506020850194506020810190506126f9565b8683101561273b5784890151612737601f891682612644565b8355505b6001600288020188555050505b505050505050565b7f4e487b7100000000000000000000000000000000000000000000000000000000600052601160045260246000fd5b600061278a82611cec565b915061279583611cec565b92508282026127a381611cec565b915082820484148315176127ba576127b9612750565b5b5092915050565b6127ca81611cec565b82525050565b60006060820190506127e560008301866121a9565b6127f260208301856121a9565b6127ff60408301846127c1565b949350505050565b60008151905061281681611cf6565b92915050565b60006020828403121561283257612831611b3e565b5b600061284084828501612807565b91505092915050565b7f4572726f72207768696c6520616464696e672061206e657720636974792e204d60008201527f6179626520796f7520617265206e6f742061207374617465206f72207468652060208201527f6369747920616c72656164792065786973740000000000000000000000000000604082015250565b60006128cb6052836123a9565b91506128d682612849565b606082019050919050565b600060208201905081810360008301526128fa816128be565b9050919050565b7f496e697469616c697a61626c653a20636f6e747261637420697320616c72656160008201527f647920696e697469616c697a6564000000000000000000000000000000000000602082015250565b600061295d602e836123a9565b915061296882612901565b604082019050919050565b6000602082019050818103600083015261298c81612950565b9050919050565b60006040820190506129a860008301856121a9565b6129b560208301846121a9565b9392505050565b6000819050919050565b600060ff82169050919050565b60006129ee6129e96129e4846129bc565b612556565b6129c6565b9050919050565b6129fe816129d3565b82525050565b6000602082019050612a1960008301846129f5565b9291505056fea264697066735822122060869a05d949c04e0aae64f3bbc1f4a1009215bad38b0f7cc5e4b91c9ca5b40264736f6c63430008150033",
  "devdoc": {
    "author": "Giuseppe La Vecchia",
    "custom:experimental": "This is an experimental contract.",
    "events": {
      "Initialized(uint8)": {
        "details": "Triggered when the contract has been initialized or reinitialized."
      }
    },
    "kind": "dev",
    "methods": {
      "addCity(string,uint256,uint256,address,string,string,string,uint256,string,bool)": {
        "params": {
          "isModify": "if true, it means that the caller of this function want to change something in a City. Otherwise it is an addition operation."
        }
      },
      "addState(string,string,address,uint256,string,string,string,uint256,string,bool)": {
        "params": {
          "isModify": "if true, it means that the caller of this function want to change something in a State. Otherwise it is an addition operation."
        }
      },
      "constructor": {
        "custom:oz-upgrades-unsafe-allow": "constructor"
      },
      "initialize(address)": {
        "params": {
          "ptContractAddress": "the contract address of the PollutionToken contract, used by this contract."
        }
      }
    },
    "title": "A contract to be used by Admin(deployer) and States",
    "version": 1
  },
  "userdoc": {
    "kind": "user",
    "methods": {
      "addCity(string,uint256,uint256,address,string,string,string,uint256,string,bool)": {
        "notice": "Add a new city instanceAllows a State to add a new city giving an initial amount of PollutionTokens.It can also be used for editing purpose of the City's parameters."
      },
      "addState(string,string,address,uint256,string,string,string,uint256,string,bool)": {
        "notice": "Add a new state instanceAllows an Admin to add a new state giving an initial amount of PollutionTokens.It can also be used for editing purpose of the State's parameters."
      },
      "initialize(address)": {
        "notice": "Initialize function for the proxy upgradable pattern by OpenZeppelinInitialize variables. The address of this contract is passed to the storeContractAddress function of the ptContract, allowing this contract to call its functions"
      }
    },
    "notice": "Used for CRUD operations by States and Admin",
    "version": 1
  },
  "storageLayout": {
    "storage": [
      {
        "astId": 6,
        "contract": "contracts/DSESCenter.sol:DSESCenter",
        "label": "_initialized",
        "offset": 0,
        "slot": "0",
        "type": "t_uint8"
      },
      {
        "astId": 9,
        "contract": "contracts/DSESCenter.sol:DSESCenter",
        "label": "_initializing",
        "offset": 1,
        "slot": "0",
        "type": "t_bool"
      },
      {
        "astId": 562,
        "contract": "contracts/DSESCenter.sol:DSESCenter",
        "label": "admin",
        "offset": 2,
        "slot": "0",
        "type": "t_address"
      },
      {
        "astId": 565,
        "contract": "contracts/DSESCenter.sol:DSESCenter",
        "label": "pt",
        "offset": 0,
        "slot": "1",
        "type": "t_contract(IPollutionToken)1024"
      },
      {
        "astId": 575,
        "contract": "contracts/DSESCenter.sol:DSESCenter",
        "label": "states",
        "offset": 0,
        "slot": "2",
        "type": "t_mapping(t_address,t_struct(State)517_storage)"
      },
      {
        "astId": 580,
        "contract": "contracts/DSESCenter.sol:DSESCenter",
        "label": "cities",
        "offset": 0,
        "slot": "3",
        "type": "t_mapping(t_address,t_struct(City)534_storage)"
      }
    ],
    "types": {
      "t_address": {
        "encoding": "inplace",
        "label": "address",
        "numberOfBytes": "20"
      },
      "t_bool": {
        "encoding": "inplace",
        "label": "bool",
        "numberOfBytes": "1"
      },
      "t_contract(IPollutionToken)1024": {
        "encoding": "inplace",
        "label": "contract IPollutionToken",
        "numberOfBytes": "20"
      },
      "t_mapping(t_address,t_struct(City)534_storage)": {
        "encoding": "mapping",
        "key": "t_address",
        "label": "mapping(address => struct classes.City)",
        "numberOfBytes": "32",
        "value": "t_struct(City)534_storage"
      },
      "t_mapping(t_address,t_struct(State)517_storage)": {
        "encoding": "mapping",
        "key": "t_address",
        "label": "mapping(address => struct classes.State)",
        "numberOfBytes": "32",
        "value": "t_struct(State)517_storage"
      },
      "t_string_storage": {
        "encoding": "bytes",
        "label": "string",
        "numberOfBytes": "32"
      },
      "t_struct(City)534_storage": {
        "encoding": "inplace",
        "label": "struct classes.City",
        "members": [
          {
            "astId": 519,
            "contract": "contracts/DSESCenter.sol:DSESCenter",
            "label": "name",
            "offset": 0,
            "slot": "0",
            "type": "t_string_storage"
          },
          {
            "astId": 521,
            "contract": "contracts/DSESCenter.sol:DSESCenter",
            "label": "population",
            "offset": 0,
            "slot": "1",
            "type": "t_uint256"
          },
          {
            "astId": 523,
            "contract": "contracts/DSESCenter.sol:DSESCenter",
            "label": "numberOfIndustries",
            "offset": 0,
            "slot": "2",
            "type": "t_uint256"
          },
          {
            "astId": 525,
            "contract": "contracts/DSESCenter.sol:DSESCenter",
            "label": "attorneyName",
            "offset": 0,
            "slot": "3",
            "type": "t_string_storage"
          },
          {
            "astId": 527,
            "contract": "contracts/DSESCenter.sol:DSESCenter",
            "label": "attorneySurname",
            "offset": 0,
            "slot": "4",
            "type": "t_string_storage"
          },
          {
            "astId": 529,
            "contract": "contracts/DSESCenter.sol:DSESCenter",
            "label": "attorneyEmail",
            "offset": 0,
            "slot": "5",
            "type": "t_string_storage"
          },
          {
            "astId": 531,
            "contract": "contracts/DSESCenter.sol:DSESCenter",
            "label": "telephone",
            "offset": 0,
            "slot": "6",
            "type": "t_uint256"
          },
          {
            "astId": 533,
            "contract": "contracts/DSESCenter.sol:DSESCenter",
            "label": "physicalAddress",
            "offset": 0,
            "slot": "7",
            "type": "t_string_storage"
          }
        ],
        "numberOfBytes": "256"
      },
      "t_struct(State)517_storage": {
        "encoding": "inplace",
        "label": "struct classes.State",
        "members": [
          {
            "astId": 502,
            "contract": "contracts/DSESCenter.sol:DSESCenter",
            "label": "name",
            "offset": 0,
            "slot": "0",
            "type": "t_string_storage"
          },
          {
            "astId": 504,
            "contract": "contracts/DSESCenter.sol:DSESCenter",
            "label": "iso",
            "offset": 0,
            "slot": "1",
            "type": "t_string_storage"
          },
          {
            "astId": 506,
            "contract": "contracts/DSESCenter.sol:DSESCenter",
            "label": "numberOfCities",
            "offset": 0,
            "slot": "2",
            "type": "t_uint256"
          },
          {
            "astId": 508,
            "contract": "contracts/DSESCenter.sol:DSESCenter",
            "label": "attorneyName",
            "offset": 0,
            "slot": "3",
            "type": "t_string_storage"
          },
          {
            "astId": 510,
            "contract": "contracts/DSESCenter.sol:DSESCenter",
            "label": "attorneySurname",
            "offset": 0,
            "slot": "4",
            "type": "t_string_storage"
          },
          {
            "astId": 512,
            "contract": "contracts/DSESCenter.sol:DSESCenter",
            "label": "attorneyEmail",
            "offset": 0,
            "slot": "5",
            "type": "t_string_storage"
          },
          {
            "astId": 514,
            "contract": "contracts/DSESCenter.sol:DSESCenter",
            "label": "telephone",
            "offset": 0,
            "slot": "6",
            "type": "t_uint256"
          },
          {
            "astId": 516,
            "contract": "contracts/DSESCenter.sol:DSESCenter",
            "label": "physicalAddress",
            "offset": 0,
            "slot": "7",
            "type": "t_string_storage"
          }
        ],
        "numberOfBytes": "256"
      },
      "t_uint256": {
        "encoding": "inplace",
        "label": "uint256",
        "numberOfBytes": "32"
      },
      "t_uint8": {
        "encoding": "inplace",
        "label": "uint8",
        "numberOfBytes": "1"
      }
    }
  }
}