{
  "address": "0x0479e6B5f782216541851C2EdE7cE0Ac37A7cE61",
  "abi": [
    {
      "inputs": [],
      "stateMutability": "nonpayable",
      "type": "constructor"
    },
    {
      "inputs": [],
      "name": "PollutionToken__Not_Enough_PT",
      "type": "error"
    },
    {
      "inputs": [],
      "name": "PollutionToken__Only_Allowed_Contracts",
      "type": "error"
    },
    {
      "anonymous": false,
      "inputs": [
        {
          "indexed": true,
          "internalType": "address",
          "name": "_owner",
          "type": "address"
        },
        {
          "indexed": true,
          "internalType": "address",
          "name": "_spender",
          "type": "address"
        },
        {
          "indexed": false,
          "internalType": "uint256",
          "name": "_value",
          "type": "uint256"
        }
      ],
      "name": "Approval",
      "type": "event"
    },
    {
      "anonymous": false,
      "inputs": [
        {
          "indexed": true,
          "internalType": "address",
          "name": "from",
          "type": "address"
        },
        {
          "indexed": false,
          "internalType": "uint256",
          "name": "value",
          "type": "uint256"
        }
      ],
      "name": "Burn",
      "type": "event"
    },
    {
      "anonymous": false,
      "inputs": [
        {
          "indexed": false,
          "internalType": "uint8",
          "name": "version",
          "type": "uint8"
        }
      ],
      "name": "Initialized",
      "type": "event"
    },
    {
      "anonymous": false,
      "inputs": [
        {
          "indexed": true,
          "internalType": "address",
          "name": "from",
          "type": "address"
        },
        {
          "indexed": true,
          "internalType": "address",
          "name": "to",
          "type": "address"
        },
        {
          "indexed": false,
          "internalType": "uint256",
          "name": "value",
          "type": "uint256"
        }
      ],
      "name": "Transfer",
      "type": "event"
    },
    {
      "inputs": [],
      "name": "_totalSupply",
      "outputs": [
        {
          "internalType": "uint256",
          "name": "",
          "type": "uint256"
        }
      ],
      "stateMutability": "view",
      "type": "function"
    },
    {
      "inputs": [
        {
          "internalType": "address",
          "name": "",
          "type": "address"
        },
        {
          "internalType": "address",
          "name": "",
          "type": "address"
        }
      ],
      "name": "allowance",
      "outputs": [
        {
          "internalType": "uint256",
          "name": "",
          "type": "uint256"
        }
      ],
      "stateMutability": "view",
      "type": "function"
    },
    {
      "inputs": [
        {
          "internalType": "address",
          "name": "_spender",
          "type": "address"
        },
        {
          "internalType": "uint256",
          "name": "_value",
          "type": "uint256"
        }
      ],
      "name": "approve",
      "outputs": [
        {
          "internalType": "bool",
          "name": "success",
          "type": "bool"
        }
      ],
      "stateMutability": "nonpayable",
      "type": "function"
    },
    {
      "inputs": [
        {
          "internalType": "address",
          "name": "_owner",
          "type": "address"
        }
      ],
      "name": "balanceOf",
      "outputs": [
        {
          "internalType": "uint256",
          "name": "balance",
          "type": "uint256"
        }
      ],
      "stateMutability": "view",
      "type": "function"
    },
    {
      "inputs": [
        {
          "internalType": "address",
          "name": "",
          "type": "address"
        }
      ],
      "name": "balances",
      "outputs": [
        {
          "internalType": "uint256",
          "name": "",
          "type": "uint256"
        }
      ],
      "stateMutability": "view",
      "type": "function"
    },
    {
      "inputs": [
        {
          "internalType": "uint256",
          "name": "_value",
          "type": "uint256"
        }
      ],
      "name": "burn",
      "outputs": [
        {
          "internalType": "bool",
          "name": "success",
          "type": "bool"
        }
      ],
      "stateMutability": "nonpayable",
      "type": "function"
    },
    {
      "inputs": [
        {
          "internalType": "address",
          "name": "_from",
          "type": "address"
        },
        {
          "internalType": "uint256",
          "name": "_value",
          "type": "uint256"
        }
      ],
      "name": "burnFrom",
      "outputs": [
        {
          "internalType": "bool",
          "name": "success",
          "type": "bool"
        }
      ],
      "stateMutability": "nonpayable",
      "type": "function"
    },
    {
      "inputs": [],
      "name": "decimals",
      "outputs": [
        {
          "internalType": "uint8",
          "name": "",
          "type": "uint8"
        }
      ],
      "stateMutability": "view",
      "type": "function"
    },
    {
      "inputs": [
        {
          "internalType": "address",
          "name": "receiver",
          "type": "address"
        }
      ],
      "name": "deletePreviousSender",
      "outputs": [],
      "stateMutability": "nonpayable",
      "type": "function"
    },
    {
      "inputs": [],
      "name": "getAdminAddress",
      "outputs": [
        {
          "internalType": "address",
          "name": "",
          "type": "address"
        }
      ],
      "stateMutability": "view",
      "type": "function"
    },
    {
      "inputs": [
        {
          "internalType": "address",
          "name": "master",
          "type": "address"
        },
        {
          "internalType": "address",
          "name": "slave",
          "type": "address"
        }
      ],
      "name": "getAllowance",
      "outputs": [
        {
          "internalType": "uint256",
          "name": "",
          "type": "uint256"
        }
      ],
      "stateMutability": "view",
      "type": "function"
    },
    {
      "inputs": [],
      "name": "getContractAddress",
      "outputs": [
        {
          "internalType": "address",
          "name": "",
          "type": "address"
        }
      ],
      "stateMutability": "view",
      "type": "function"
    },
    {
      "inputs": [],
      "name": "getPTtoEthRate",
      "outputs": [
        {
          "internalType": "uint256",
          "name": "",
          "type": "uint256"
        }
      ],
      "stateMutability": "view",
      "type": "function"
    },
    {
      "inputs": [
        {
          "internalType": "address",
          "name": "receiver",
          "type": "address"
        }
      ],
      "name": "getPreviousSender",
      "outputs": [
        {
          "internalType": "address",
          "name": "",
          "type": "address"
        }
      ],
      "stateMutability": "view",
      "type": "function"
    },
    {
      "inputs": [
        {
          "internalType": "uint256",
          "name": "initialSupply",
          "type": "uint256"
        },
        {
          "internalType": "string",
          "name": "_tokenName",
          "type": "string"
        },
        {
          "internalType": "string",
          "name": "_tokenSymbol",
          "type": "string"
        }
      ],
      "name": "initialize",
      "outputs": [],
      "stateMutability": "nonpayable",
      "type": "function"
    },
    {
      "inputs": [],
      "name": "name",
      "outputs": [
        {
          "internalType": "string",
          "name": "",
          "type": "string"
        }
      ],
      "stateMutability": "view",
      "type": "function"
    },
    {
      "inputs": [
        {
          "internalType": "address",
          "name": "",
          "type": "address"
        }
      ],
      "name": "reversePartecipants",
      "outputs": [
        {
          "internalType": "address",
          "name": "",
          "type": "address"
        }
      ],
      "stateMutability": "view",
      "type": "function"
    },
    {
      "inputs": [
        {
          "internalType": "uint256",
          "name": "newRate",
          "type": "uint256"
        }
      ],
      "name": "setPTtoEthRate",
      "outputs": [],
      "stateMutability": "nonpayable",
      "type": "function"
    },
    {
      "inputs": [
        {
          "internalType": "address",
          "name": "contractAddr",
          "type": "address"
        },
        {
          "internalType": "address",
          "name": "sender",
          "type": "address"
        }
      ],
      "name": "storeContractAddress",
      "outputs": [],
      "stateMutability": "nonpayable",
      "type": "function"
    },
    {
      "inputs": [],
      "name": "symbol",
      "outputs": [
        {
          "internalType": "string",
          "name": "",
          "type": "string"
        }
      ],
      "stateMutability": "view",
      "type": "function"
    },
    {
      "inputs": [],
      "name": "totalSupply",
      "outputs": [
        {
          "internalType": "uint256",
          "name": "",
          "type": "uint256"
        }
      ],
      "stateMutability": "view",
      "type": "function"
    },
    {
      "inputs": [
        {
          "internalType": "address",
          "name": "_to",
          "type": "address"
        },
        {
          "internalType": "uint256",
          "name": "_value",
          "type": "uint256"
        }
      ],
      "name": "transfer",
      "outputs": [
        {
          "internalType": "bool",
          "name": "success",
          "type": "bool"
        }
      ],
      "stateMutability": "nonpayable",
      "type": "function"
    },
    {
      "inputs": [
        {
          "internalType": "address",
          "name": "from",
          "type": "address"
        },
        {
          "internalType": "address",
          "name": "to",
          "type": "address"
        },
        {
          "internalType": "uint256",
          "name": "value",
          "type": "uint256"
        }
      ],
      "name": "transferExtended",
      "outputs": [],
      "stateMutability": "nonpayable",
      "type": "function"
    },
    {
      "inputs": [
        {
          "internalType": "address",
          "name": "from",
          "type": "address"
        },
        {
          "internalType": "address",
          "name": "to",
          "type": "address"
        },
        {
          "internalType": "uint256",
          "name": "value",
          "type": "uint256"
        }
      ],
      "name": "transferForAddingEntities",
      "outputs": [],
      "stateMutability": "nonpayable",
      "type": "function"
    },
    {
      "inputs": [
        {
          "internalType": "address",
          "name": "_from",
          "type": "address"
        },
        {
          "internalType": "address",
          "name": "_to",
          "type": "address"
        },
        {
          "internalType": "uint256",
          "name": "_value",
          "type": "uint256"
        }
      ],
      "name": "transferFrom",
      "outputs": [
        {
          "internalType": "bool",
          "name": "success",
          "type": "bool"
        }
      ],
      "stateMutability": "nonpayable",
      "type": "function"
    }
  ],
  "numDeployments": 7,
  "solcInputHash": "fafdab91064a86f3191743fbcfa11ea6",
  "bytecode": "0x60806040523480156200001157600080fd5b50620000226200002860201b60201c565b620001d2565b600060019054906101000a900460ff16156200007b576040517f08c379a0000000000000000000000000000000000000000000000000000000008152600401620000729062000175565b60405180910390fd5b60ff801660008054906101000a900460ff1660ff1614620000ec5760ff6000806101000a81548160ff021916908360ff1602179055507f7f26b83ff96e1f2b6a682f133852f6798a09c465da95921460cefb384740249860ff604051620000e39190620001b5565b60405180910390a15b565b600082825260208201905092915050565b7f496e697469616c697a61626c653a20636f6e747261637420697320696e69746960008201527f616c697a696e6700000000000000000000000000000000000000000000000000602082015250565b60006200015d602783620000ee565b91506200016a82620000ff565b604082019050919050565b6000602082019050818103600083015262000190816200014e565b9050919050565b600060ff82169050919050565b620001af8162000197565b82525050565b6000602082019050620001cc6000830184620001a4565b92915050565b612c5080620001e26000396000f3fe608060405234801561001057600080fd5b50600436106101735760003560e01c8063434dd142116100de578063b2e6b91211610097578063dd62ed3e11610071578063dd62ed3e1461049c578063e1cd7e43146104cc578063ea64b234146104e8578063eedfca5f1461050457610173565b8063b2e6b91214610446578063c697a7c814610464578063dc5314f21461048057610173565b8063434dd1421461034c5780635e94ac051461036857806370a082311461039857806379cc6790146103c857806395d89b41146103f8578063a9059cbb1461041657610173565b806323b872dd1161013057806323b872dd1461026257806327e235e314610292578063313ce567146102c257806332a2c5d0146102e05780633eaaf86b146102fe57806342966c681461031c57610173565b806306fdde0314610178578063095ea7b3146101965780630af4187d146101c657806315b317ac146101f657806315d17c1f1461022657806318160ddd14610244575b600080fd5b610180610520565b60405161018d9190611fc6565b60405180910390f35b6101b060048036038101906101ab9190612090565b6105b2565b6040516101bd91906120eb565b60405180910390f35b6101e060048036038101906101db9190612106565b610793565b6040516101ed9190612155565b60405180910390f35b610210600480360381019061020b9190612170565b61081a565b60405161021d91906121ac565b60405180910390f35b61022e61084d565b60405161023b9190612155565b60405180910390f35b61024c610857565b6040516102599190612155565b60405180910390f35b61027c600480360381019061027791906121c7565b610861565b60405161028991906120eb565b60405180910390f35b6102ac60048036038101906102a79190612170565b610a83565b6040516102b99190612155565b60405180910390f35b6102ca610a9b565b6040516102d79190612236565b60405180910390f35b6102e8610ab2565b6040516102f591906121ac565b60405180910390f35b610306610aba565b6040516103139190612155565b60405180910390f35b61033660048036038101906103319190612251565b610ac0565b60405161034391906120eb565b60405180910390f35b61036660048036038101906103619190612251565b610bd4565b005b610382600480360381019061037d9190612170565b610cc4565b60405161038f91906121ac565b60405180910390f35b6103b260048036038101906103ad9190612170565b610d2d565b6040516103bf9190612155565b60405180910390f35b6103e260048036038101906103dd9190612090565b610d76565b6040516103ef91906120eb565b60405180910390f35b610400610fa7565b60405161040d9190611fc6565b60405180910390f35b610430600480360381019061042b9190612090565b611039565b60405161043d91906120eb565b60405180910390f35b61044e611050565b60405161045b91906121ac565b60405180910390f35b61047e60048036038101906104799190612106565b61107a565b005b61049a600480360381019061049591906121c7565b61118c565b005b6104b660048036038101906104b19190612106565b611282565b6040516104c39190612155565b60405180910390f35b6104e660048036038101906104e19190612170565b6112a7565b005b61050260048036038101906104fd91906121c7565b6113f2565b005b61051e600480360381019061051991906123b3565b6115de565b005b60606001805461052f9061246d565b80601f016020809104026020016040519081016040528092919081815260200182805461055b9061246d565b80156105a85780601f1061057d576101008083540402835291602001916105a8565b820191906000526020600020905b81548152906001019060200180831161058b57829003601f168201915b5050505050905090565b6000600560009054906101000a900473ffffffffffffffffffffffffffffffffffffffff1673ffffffffffffffffffffffffffffffffffffffff16600660003373ffffffffffffffffffffffffffffffffffffffff1673ffffffffffffffffffffffffffffffffffffffff16815260200190815260200160002060009054906101000a900473ffffffffffffffffffffffffffffffffffffffff1673ffffffffffffffffffffffffffffffffffffffff16146106a3576040517f08c379a000000000000000000000000000000000000000000000000000000000815260040161069a906124ea565b60405180910390fd5b81600860003373ffffffffffffffffffffffffffffffffffffffff1673ffffffffffffffffffffffffffffffffffffffff16815260200190815260200160002060008573ffffffffffffffffffffffffffffffffffffffff1673ffffffffffffffffffffffffffffffffffffffff168152602001908152602001600020819055508273ffffffffffffffffffffffffffffffffffffffff163373ffffffffffffffffffffffffffffffffffffffff167f8c5be1e5ebec7d5bd14f71427d1e84f3dd0314c0f7b2291e5b200ac8c7c3b925846040516107819190612155565b60405180910390a36001905092915050565b6000600860008473ffffffffffffffffffffffffffffffffffffffff1673ffffffffffffffffffffffffffffffffffffffff16815260200190815260200160002060008373ffffffffffffffffffffffffffffffffffffffff1673ffffffffffffffffffffffffffffffffffffffff16815260200190815260200160002054905092915050565b60096020528060005260406000206000915054906101000a900473ffffffffffffffffffffffffffffffffffffffff1681565b6000600a54905090565b6000600454905090565b6000600860008573ffffffffffffffffffffffffffffffffffffffff1673ffffffffffffffffffffffffffffffffffffffff16815260200190815260200160002060008473ffffffffffffffffffffffffffffffffffffffff1673ffffffffffffffffffffffffffffffffffffffff16815260200190815260200160002054821115801561099b5750600560009054906101000a900473ffffffffffffffffffffffffffffffffffffffff1673ffffffffffffffffffffffffffffffffffffffff16600660003373ffffffffffffffffffffffffffffffffffffffff1673ffffffffffffffffffffffffffffffffffffffff16815260200190815260200160002060009054906101000a900473ffffffffffffffffffffffffffffffffffffffff1673ffffffffffffffffffffffffffffffffffffffff16145b6109da576040517f08c379a00000000000000000000000000000000000000000000000000000000081526004016109d19061257c565b60405180910390fd5b81600860008673ffffffffffffffffffffffffffffffffffffffff1673ffffffffffffffffffffffffffffffffffffffff16815260200190815260200160002060008573ffffffffffffffffffffffffffffffffffffffff1673ffffffffffffffffffffffffffffffffffffffff1681526020019081526020016000206000828254610a6691906125cb565b92505081905550610a78848484611817565b600190509392505050565b60076020528060005260406000206000915090505481565b6000600360009054906101000a900460ff16905090565b600033905090565b60045481565b600081600760003373ffffffffffffffffffffffffffffffffffffffff1673ffffffffffffffffffffffffffffffffffffffff168152602001908152602001600020541015610b0e57600080fd5b81600760003373ffffffffffffffffffffffffffffffffffffffff1673ffffffffffffffffffffffffffffffffffffffff1681526020019081526020016000206000828254610b5d91906125cb565b925050819055508160046000828254610b7691906125cb565b925050819055503373ffffffffffffffffffffffffffffffffffffffff167fcc16f5dbb4873280815c1ee09dbd06736cffcc184412cf7a71a0fdb75d397ca583604051610bc39190612155565b60405180910390a260019050919050565b600560009054906101000a900473ffffffffffffffffffffffffffffffffffffffff1673ffffffffffffffffffffffffffffffffffffffff16600660003373ffffffffffffffffffffffffffffffffffffffff1673ffffffffffffffffffffffffffffffffffffffff16815260200190815260200160002060009054906101000a900473ffffffffffffffffffffffffffffffffffffffff1673ffffffffffffffffffffffffffffffffffffffff1614610cba576040517f15213d7d00000000000000000000000000000000000000000000000000000000815260040160405180910390fd5b80600a8190555050565b6000600960008373ffffffffffffffffffffffffffffffffffffffff1673ffffffffffffffffffffffffffffffffffffffff16815260200190815260200160002060009054906101000a900473ffffffffffffffffffffffffffffffffffffffff169050919050565b6000600760008373ffffffffffffffffffffffffffffffffffffffff1673ffffffffffffffffffffffffffffffffffffffff168152602001908152602001600020549050919050565b600081600760008573ffffffffffffffffffffffffffffffffffffffff1673ffffffffffffffffffffffffffffffffffffffff168152602001908152602001600020541015610dc457600080fd5b600860008473ffffffffffffffffffffffffffffffffffffffff1673ffffffffffffffffffffffffffffffffffffffff16815260200190815260200160002060003373ffffffffffffffffffffffffffffffffffffffff1673ffffffffffffffffffffffffffffffffffffffff16815260200190815260200160002054821115610e4d57600080fd5b81600760008573ffffffffffffffffffffffffffffffffffffffff1673ffffffffffffffffffffffffffffffffffffffff1681526020019081526020016000206000828254610e9c91906125cb565b9250508190555081600860008573ffffffffffffffffffffffffffffffffffffffff1673ffffffffffffffffffffffffffffffffffffffff16815260200190815260200160002060003373ffffffffffffffffffffffffffffffffffffffff1673ffffffffffffffffffffffffffffffffffffffff1681526020019081526020016000206000828254610f2f91906125cb565b925050819055508160046000828254610f4891906125cb565b925050819055508273ffffffffffffffffffffffffffffffffffffffff167fcc16f5dbb4873280815c1ee09dbd06736cffcc184412cf7a71a0fdb75d397ca583604051610f959190612155565b60405180910390a26001905092915050565b606060028054610fb69061246d565b80601f0160208091040260200160405190810160405280929190818152602001828054610fe29061246d565b801561102f5780601f106110045761010080835404028352916020019161102f565b820191906000526020600020905b81548152906001019060200180831161101257829003601f168201915b5050505050905090565b6000611046338484611817565b6001905092915050565b6000600560009054906101000a900473ffffffffffffffffffffffffffffffffffffffff16905090565b600560009054906101000a900473ffffffffffffffffffffffffffffffffffffffff1673ffffffffffffffffffffffffffffffffffffffff168173ffffffffffffffffffffffffffffffffffffffff161461110a576040517f08c379a000000000000000000000000000000000000000000000000000000000815260040161110190612671565b60405180910390fd5b80600660008473ffffffffffffffffffffffffffffffffffffffff1673ffffffffffffffffffffffffffffffffffffffff16815260200190815260200160002060006101000a81548173ffffffffffffffffffffffffffffffffffffffff021916908373ffffffffffffffffffffffffffffffffffffffff1602179055505050565b600560009054906101000a900473ffffffffffffffffffffffffffffffffffffffff1673ffffffffffffffffffffffffffffffffffffffff16600660003373ffffffffffffffffffffffffffffffffffffffff1673ffffffffffffffffffffffffffffffffffffffff16815260200190815260200160002060009054906101000a900473ffffffffffffffffffffffffffffffffffffffff1673ffffffffffffffffffffffffffffffffffffffff1614611272576040517f15213d7d00000000000000000000000000000000000000000000000000000000815260040160405180910390fd5b61127d838383611817565b505050565b6008602052816000526040600020602052806000526040600020600091509150505481565b600560009054906101000a900473ffffffffffffffffffffffffffffffffffffffff1673ffffffffffffffffffffffffffffffffffffffff16600660003373ffffffffffffffffffffffffffffffffffffffff1673ffffffffffffffffffffffffffffffffffffffff16815260200190815260200160002060009054906101000a900473ffffffffffffffffffffffffffffffffffffffff1673ffffffffffffffffffffffffffffffffffffffff161461138d576040517f15213d7d00000000000000000000000000000000000000000000000000000000815260040160405180910390fd5b600960008273ffffffffffffffffffffffffffffffffffffffff1673ffffffffffffffffffffffffffffffffffffffff16815260200190815260200160002060006101000a81549073ffffffffffffffffffffffffffffffffffffffff021916905550565b600560009054906101000a900473ffffffffffffffffffffffffffffffffffffffff1673ffffffffffffffffffffffffffffffffffffffff16600660003373ffffffffffffffffffffffffffffffffffffffff1673ffffffffffffffffffffffffffffffffffffffff16815260200190815260200160002060009054906101000a900473ffffffffffffffffffffffffffffffffffffffff1673ffffffffffffffffffffffffffffffffffffffff16146114d8576040517f15213d7d00000000000000000000000000000000000000000000000000000000815260040160405180910390fd5b80600760008573ffffffffffffffffffffffffffffffffffffffff1673ffffffffffffffffffffffffffffffffffffffff1681526020019081526020016000205411611550576040517f50b9b74800000000000000000000000000000000000000000000000000000000815260040160405180910390fd5b82600960008473ffffffffffffffffffffffffffffffffffffffff1673ffffffffffffffffffffffffffffffffffffffff16815260200190815260200160002060006101000a81548173ffffffffffffffffffffffffffffffffffffffff021916908373ffffffffffffffffffffffffffffffffffffffff1602179055506115d983838361118c565b505050565b60008060019054906101000a900460ff1615905080801561160f5750600160008054906101000a900460ff1660ff16105b8061163c575061161e30611f13565b15801561163b5750600160008054906101000a900460ff1660ff16145b5b61167b576040517f08c379a000000000000000000000000000000000000000000000000000000000815260040161167290612703565b60405180910390fd5b60016000806101000a81548160ff021916908360ff16021790555080156116b8576001600060016101000a81548160ff0219169083151502179055505b6012600360006101000a81548160ff021916908360ff160217905550600360009054906101000a900460ff1660ff16600a6116f39190612856565b846116fe91906128a1565b600481905550600454600760003373ffffffffffffffffffffffffffffffffffffffff1673ffffffffffffffffffffffffffffffffffffffff1681526020019081526020016000208190555033600560006101000a81548173ffffffffffffffffffffffffffffffffffffffff021916908373ffffffffffffffffffffffffffffffffffffffff160217905550826001908161179a9190612a8f565b5081600290816117aa9190612a8f565b506514eb1ad47000600a8190555080156118115760008060016101000a81548160ff0219169083151502179055507f7f26b83ff96e1f2b6a682f133852f6798a09c465da95921460cefb384740249860016040516118089190612b9c565b60405180910390a15b50505050565b600073ffffffffffffffffffffffffffffffffffffffff168273ffffffffffffffffffffffffffffffffffffffff160361185057600080fd5b80600760008573ffffffffffffffffffffffffffffffffffffffff1673ffffffffffffffffffffffffffffffffffffffff168152602001908152602001600020541115801561194c5750600560009054906101000a900473ffffffffffffffffffffffffffffffffffffffff1673ffffffffffffffffffffffffffffffffffffffff16600660003373ffffffffffffffffffffffffffffffffffffffff1673ffffffffffffffffffffffffffffffffffffffff16815260200190815260200160002060009054906101000a900473ffffffffffffffffffffffffffffffffffffffff1673ffffffffffffffffffffffffffffffffffffffff1614155b15611983576040517f50b9b74800000000000000000000000000000000000000000000000000000000815260040160405180910390fd5b600760008373ffffffffffffffffffffffffffffffffffffffff1673ffffffffffffffffffffffffffffffffffffffff1681526020019081526020016000205481600760008573ffffffffffffffffffffffffffffffffffffffff1673ffffffffffffffffffffffffffffffffffffffff16815260200190815260200160002054611a0e9190612bb7565b1015611a1957600080fd5b6000600760008473ffffffffffffffffffffffffffffffffffffffff1673ffffffffffffffffffffffffffffffffffffffff16815260200190815260200160002054600760008673ffffffffffffffffffffffffffffffffffffffff1673ffffffffffffffffffffffffffffffffffffffff16815260200190815260200160002054611aa59190612bb7565b905081600760008673ffffffffffffffffffffffffffffffffffffffff1673ffffffffffffffffffffffffffffffffffffffff1681526020019081526020016000205411158015611ba25750600560009054906101000a900473ffffffffffffffffffffffffffffffffffffffff1673ffffffffffffffffffffffffffffffffffffffff16600660003373ffffffffffffffffffffffffffffffffffffffff1673ffffffffffffffffffffffffffffffffffffffff16815260200190815260200160002060009054906101000a900473ffffffffffffffffffffffffffffffffffffffff1673ffffffffffffffffffffffffffffffffffffffff16145b15611d6257600760008573ffffffffffffffffffffffffffffffffffffffff1673ffffffffffffffffffffffffffffffffffffffff16815260200190815260200160002054600760008573ffffffffffffffffffffffffffffffffffffffff1673ffffffffffffffffffffffffffffffffffffffff16815260200190815260200160002054611c319190612bb7565b600760008573ffffffffffffffffffffffffffffffffffffffff1673ffffffffffffffffffffffffffffffffffffffff168152602001908152602001600020819055508273ffffffffffffffffffffffffffffffffffffffff168473ffffffffffffffffffffffffffffffffffffffff167fddf252ad1be2c89b69c2b068fc378daa952ba7f163c4a11628f55a4df523b3ef600760008873ffffffffffffffffffffffffffffffffffffffff1673ffffffffffffffffffffffffffffffffffffffff16815260200190815260200160002054604051611d109190612155565b60405180910390a36000600760008673ffffffffffffffffffffffffffffffffffffffff1673ffffffffffffffffffffffffffffffffffffffff16815260200190815260200160002081905550611e74565b81600760008673ffffffffffffffffffffffffffffffffffffffff1673ffffffffffffffffffffffffffffffffffffffff1681526020019081526020016000206000828254611db191906125cb565b9250508190555081600760008573ffffffffffffffffffffffffffffffffffffffff1673ffffffffffffffffffffffffffffffffffffffff1681526020019081526020016000206000828254611e079190612bb7565b925050819055508273ffffffffffffffffffffffffffffffffffffffff168473ffffffffffffffffffffffffffffffffffffffff167fddf252ad1be2c89b69c2b068fc378daa952ba7f163c4a11628f55a4df523b3ef84604051611e6b9190612155565b60405180910390a35b80600760008573ffffffffffffffffffffffffffffffffffffffff1673ffffffffffffffffffffffffffffffffffffffff16815260200190815260200160002054600760008773ffffffffffffffffffffffffffffffffffffffff1673ffffffffffffffffffffffffffffffffffffffff16815260200190815260200160002054611eff9190612bb7565b14611f0d57611f0c612beb565b5b50505050565b6000808273ffffffffffffffffffffffffffffffffffffffff163b119050919050565b600081519050919050565b600082825260208201905092915050565b60005b83811015611f70578082015181840152602081019050611f55565b60008484015250505050565b6000601f19601f8301169050919050565b6000611f9882611f36565b611fa28185611f41565b9350611fb2818560208601611f52565b611fbb81611f7c565b840191505092915050565b60006020820190508181036000830152611fe08184611f8d565b905092915050565b6000604051905090565b600080fd5b600080fd5b600073ffffffffffffffffffffffffffffffffffffffff82169050919050565b600061202782611ffc565b9050919050565b6120378161201c565b811461204257600080fd5b50565b6000813590506120548161202e565b92915050565b6000819050919050565b61206d8161205a565b811461207857600080fd5b50565b60008135905061208a81612064565b92915050565b600080604083850312156120a7576120a6611ff2565b5b60006120b585828601612045565b92505060206120c68582860161207b565b9150509250929050565b60008115159050919050565b6120e5816120d0565b82525050565b600060208201905061210060008301846120dc565b92915050565b6000806040838503121561211d5761211c611ff2565b5b600061212b85828601612045565b925050602061213c85828601612045565b9150509250929050565b61214f8161205a565b82525050565b600060208201905061216a6000830184612146565b92915050565b60006020828403121561218657612185611ff2565b5b600061219484828501612045565b91505092915050565b6121a68161201c565b82525050565b60006020820190506121c1600083018461219d565b92915050565b6000806000606084860312156121e0576121df611ff2565b5b60006121ee86828701612045565b93505060206121ff86828701612045565b92505060406122108682870161207b565b9150509250925092565b600060ff82169050919050565b6122308161221a565b82525050565b600060208201905061224b6000830184612227565b92915050565b60006020828403121561226757612266611ff2565b5b60006122758482850161207b565b91505092915050565b600080fd5b600080fd5b7f4e487b7100000000000000000000000000000000000000000000000000000000600052604160045260246000fd5b6122c082611f7c565b810181811067ffffffffffffffff821117156122df576122de612288565b5b80604052505050565b60006122f2611fe8565b90506122fe82826122b7565b919050565b600067ffffffffffffffff82111561231e5761231d612288565b5b61232782611f7c565b9050602081019050919050565b82818337600083830152505050565b600061235661235184612303565b6122e8565b90508281526020810184848401111561237257612371612283565b5b61237d848285612334565b509392505050565b600082601f83011261239a5761239961227e565b5b81356123aa848260208601612343565b91505092915050565b6000806000606084860312156123cc576123cb611ff2565b5b60006123da8682870161207b565b935050602084013567ffffffffffffffff8111156123fb576123fa611ff7565b5b61240786828701612385565b925050604084013567ffffffffffffffff81111561242857612427611ff7565b5b61243486828701612385565b9150509250925092565b7f4e487b7100000000000000000000000000000000000000000000000000000000600052602260045260246000fd5b6000600282049050600182168061248557607f821691505b6020821081036124985761249761243e565b5b50919050565b7f796f7520617265206e6f7420617070726f766564000000000000000000000000600082015250565b60006124d4601483611f41565b91506124df8261249e565b602082019050919050565b60006020820190508181036000830152612503816124c7565b9050919050565b7f796f7520617265206e6f7420616c6c6f77656420746f20646f207472616e736660008201527f657246726f6d2066756e6374696f6e0000000000000000000000000000000000602082015250565b6000612566602f83611f41565b91506125718261250a565b604082019050919050565b6000602082019050818103600083015261259581612559565b9050919050565b7f4e487b7100000000000000000000000000000000000000000000000000000000600052601160045260246000fd5b60006125d68261205a565b91506125e18361205a565b92508282039050818111156125f9576125f861259c565b5b92915050565b7f796f7520617265206e6f7420616c6c6f77656420746f20646f20746861742c2060008201527f796f7520617265206e6f74207468652061646d696e0000000000000000000000602082015250565b600061265b603583611f41565b9150612666826125ff565b604082019050919050565b6000602082019050818103600083015261268a8161264e565b9050919050565b7f496e697469616c697a61626c653a20636f6e747261637420697320616c72656160008201527f647920696e697469616c697a6564000000000000000000000000000000000000602082015250565b60006126ed602e83611f41565b91506126f882612691565b604082019050919050565b6000602082019050818103600083015261271c816126e0565b9050919050565b60008160011c9050919050565b6000808291508390505b600185111561277a578086048111156127565761275561259c565b5b60018516156127655780820291505b808102905061277385612723565b945061273a565b94509492505050565b600082612793576001905061284f565b816127a1576000905061284f565b81600181146127b757600281146127c1576127f0565b600191505061284f565b60ff8411156127d3576127d261259c565b5b8360020a9150848211156127ea576127e961259c565b5b5061284f565b5060208310610133831016604e8410600b84101617156128255782820a9050838111156128205761281f61259c565b5b61284f565b6128328484846001612730565b925090508184048111156128495761284861259c565b5b81810290505b9392505050565b60006128618261205a565b915061286c8361205a565b92506128997fffffffffffffffffffffffffffffffffffffffffffffffffffffffffffffffff8484612783565b905092915050565b60006128ac8261205a565b91506128b78361205a565b92508282026128c58161205a565b915082820484148315176128dc576128db61259c565b5b5092915050565b60008190508160005260206000209050919050565b60006020601f8301049050919050565b600082821b905092915050565b6000600883026129457fffffffffffffffffffffffffffffffffffffffffffffffffffffffffffffffff82612908565b61294f8683612908565b95508019841693508086168417925050509392505050565b6000819050919050565b600061298c6129876129828461205a565b612967565b61205a565b9050919050565b6000819050919050565b6129a683612971565b6129ba6129b282612993565b848454612915565b825550505050565b600090565b6129cf6129c2565b6129da81848461299d565b505050565b5b818110156129fe576129f36000826129c7565b6001810190506129e0565b5050565b601f821115612a4357612a14816128e3565b612a1d846128f8565b81016020851015612a2c578190505b612a40612a38856128f8565b8301826129df565b50505b505050565b600082821c905092915050565b6000612a6660001984600802612a48565b1980831691505092915050565b6000612a7f8383612a55565b9150826002028217905092915050565b612a9882611f36565b67ffffffffffffffff811115612ab157612ab0612288565b5b612abb825461246d565b612ac6828285612a02565b600060209050601f831160018114612af95760008415612ae7578287015190505b612af18582612a73565b865550612b59565b601f198416612b07866128e3565b60005b82811015612b2f57848901518255600182019150602085019450602081019050612b0a565b86831015612b4c5784890151612b48601f891682612a55565b8355505b6001600288020188555050505b505050505050565b6000819050919050565b6000612b86612b81612b7c84612b61565b612967565b61221a565b9050919050565b612b9681612b6b565b82525050565b6000602082019050612bb16000830184612b8d565b92915050565b6000612bc28261205a565b9150612bcd8361205a565b9250828201905080821115612be557612be461259c565b5b92915050565b7f4e487b7100000000000000000000000000000000000000000000000000000000600052600160045260246000fdfea264697066735822122036122b998549b91f8b8c642bf258103c618f55e465e64465d8ec4ed2c8515e8a64736f6c63430008150033",
  "devdoc": {
    "author": "Giuseppe La Vecchia",
    "custom:experimental": "This is an experimental contract.",
    "details": "ERC721Enumerable is used because of tokenOfOwnerByIndex method.",
    "events": {
      "Initialized(uint8)": {
        "details": "Triggered when the contract has been initialized or reinitialized."
      }
    },
    "kind": "dev",
    "methods": {
      "approve(address,uint256)": {
        "params": {
          "_spender": "The address authorized to spend",
          "_value": "the max amount they can spend"
        }
      },
      "burn(uint256)": {
        "params": {
          "_value": "the amount of money to burn"
        }
      },
      "burnFrom(address,uint256)": {
        "params": {
          "_from": "the address of the sender",
          "_value": "the amount of money to burn"
        }
      },
      "constructor": {
        "custom:oz-upgrades-unsafe-allow": "constructor"
      },
      "getPreviousSender(address)": {
        "params": {
          "receiver": "the address of the one who received tokens in transferForAddingEntities function"
        }
      },
      "initialize(uint256,string,string)": {
        "params": {
          "_tokenName": "token name",
          "_tokenSymbol": "token symbol",
          "initialSupply": "the initial supply number of tokens"
        }
      },
      "storeContractAddress(address,address)": {
        "params": {
          "contractAddr": "The contract address authorized",
          "sender": "the admin address"
        }
      },
      "transfer(address,uint256)": {
        "params": {
          "_to": "The address of the recipient",
          "_value": "the amount to send"
        }
      },
      "transferExtended(address,address,uint256)": {
        "params": {
          "from": "the address of the sender. This is added to allow this contract to forward transactions from other contracts, like from DSESCenter.sol or CityCitizen.sol",
          "to": "The address of the recipient",
          "value": "the amount to send"
        }
      },
      "transferForAddingEntities(address,address,uint256)": {
        "params": {
          "from": "the address of the sender. This is added to allow this contract to forward transactions from other contracts, like from DSESCenter.sol or CityCitizen.sol",
          "to": "The address of the recipient",
          "value": "the amount to send"
        }
      },
      "transferFrom(address,address,uint256)": {
        "params": {
          "_from": "The address of the sender",
          "_to": "The address of the recipient",
          "_value": "the amount to send"
        }
      }
    },
    "title": "ERC-20 Contract for Pollution Tokens",
    "version": 1
  },
  "userdoc": {
    "kind": "user",
    "methods": {
      "approve(address,uint256)": {
        "notice": "Set allowance for other address Allows `_spender` to spend no more than `_value` tokens on your behalf"
      },
      "burn(uint256)": {
        "notice": "Destroy tokens Remove `_value` tokens from the system irreversibly"
      },
      "burnFrom(address,uint256)": {
        "notice": "Destroy tokens from other account Remove `_value` tokens from the system irreversibly on behalf of `_from`."
      },
      "getPreviousSender(address)": {
        "notice": "Set allowance for other address Allows `_spender` to spend no more than `_value` tokens on your behalf"
      },
      "initialize(uint256,string,string)": {
        "notice": "Initialize function for the proxy upgradable pattern by OpenZeppelinInitialize variables"
      },
      "storeContractAddress(address,address)": {
        "notice": "Store contract addresses that will interact with this contractAllows 'contractAddr' to call some special function on behalf of the original msg.sender user."
      },
      "transfer(address,uint256)": {
        "notice": "Transfer tokens Send `_value` tokens to `_to` from your account"
      },
      "transferExtended(address,address,uint256)": {
        "notice": "Transfer tokens with the \"from\" parameter Send `value` tokens to `to` 'from' your account"
      },
      "transferForAddingEntities(address,address,uint256)": {
        "notice": "Transfer tokens with the \"from\" parameter, used only for adding new entities to the system, like States,Cities or Citizens. Send `value` tokens to `to` 'from' your accountReversePartecipants is used to map the added entity (like Citizen) with the adding entity (like City) for rollback purpose, like giving back tokens to the \"from\" entity from the \"to\" entity."
      },
      "transferFrom(address,address,uint256)": {
        "notice": "Transfer tokens from other address Send `_value` tokens to `_to` on behalf of `_from`"
      }
    },
    "notice": "It contains ERC-20 methods to maintain interoperability with other contracts or users, but it implement some methods for use in DSES dApp",
    "version": 1
  },
  "storageLayout": {
    "storage": [
      {
        "astId": 6,
        "contract": "contracts/PollutionToken.sol:PollutionToken",
        "label": "_initialized",
        "offset": 0,
        "slot": "0",
        "type": "t_uint8"
      },
      {
        "astId": 9,
        "contract": "contracts/PollutionToken.sol:PollutionToken",
        "label": "_initializing",
        "offset": 1,
        "slot": "0",
        "type": "t_bool"
      },
      {
        "astId": 1088,
        "contract": "contracts/PollutionToken.sol:PollutionToken",
        "label": "tokenName",
        "offset": 0,
        "slot": "1",
        "type": "t_string_storage"
      },
      {
        "astId": 1090,
        "contract": "contracts/PollutionToken.sol:PollutionToken",
        "label": "tokenSymbol",
        "offset": 0,
        "slot": "2",
        "type": "t_string_storage"
      },
      {
        "astId": 1092,
        "contract": "contracts/PollutionToken.sol:PollutionToken",
        "label": "tokenDecimals",
        "offset": 0,
        "slot": "3",
        "type": "t_uint8"
      },
      {
        "astId": 1094,
        "contract": "contracts/PollutionToken.sol:PollutionToken",
        "label": "_totalSupply",
        "offset": 0,
        "slot": "4",
        "type": "t_uint256"
      },
      {
        "astId": 1096,
        "contract": "contracts/PollutionToken.sol:PollutionToken",
        "label": "admin",
        "offset": 0,
        "slot": "5",
        "type": "t_address"
      },
      {
        "astId": 1100,
        "contract": "contracts/PollutionToken.sol:PollutionToken",
        "label": "contractAddresses",
        "offset": 0,
        "slot": "6",
        "type": "t_mapping(t_address,t_address)"
      },
      {
        "astId": 1104,
        "contract": "contracts/PollutionToken.sol:PollutionToken",
        "label": "balances",
        "offset": 0,
        "slot": "7",
        "type": "t_mapping(t_address,t_uint256)"
      },
      {
        "astId": 1110,
        "contract": "contracts/PollutionToken.sol:PollutionToken",
        "label": "allowance",
        "offset": 0,
        "slot": "8",
        "type": "t_mapping(t_address,t_mapping(t_address,t_uint256))"
      },
      {
        "astId": 1114,
        "contract": "contracts/PollutionToken.sol:PollutionToken",
        "label": "reversePartecipants",
        "offset": 0,
        "slot": "9",
        "type": "t_mapping(t_address,t_address)"
      },
      {
        "astId": 1138,
        "contract": "contracts/PollutionToken.sol:PollutionToken",
        "label": "ptInEthRate",
        "offset": 0,
        "slot": "10",
        "type": "t_uint256"
      }
    ],
    "types": {
      "t_address": {
        "encoding": "inplace",
        "label": "address",
        "numberOfBytes": "20"
      },
      "t_bool": {
        "encoding": "inplace",
        "label": "bool",
        "numberOfBytes": "1"
      },
      "t_mapping(t_address,t_address)": {
        "encoding": "mapping",
        "key": "t_address",
        "label": "mapping(address => address)",
        "numberOfBytes": "32",
        "value": "t_address"
      },
      "t_mapping(t_address,t_mapping(t_address,t_uint256))": {
        "encoding": "mapping",
        "key": "t_address",
        "label": "mapping(address => mapping(address => uint256))",
        "numberOfBytes": "32",
        "value": "t_mapping(t_address,t_uint256)"
      },
      "t_mapping(t_address,t_uint256)": {
        "encoding": "mapping",
        "key": "t_address",
        "label": "mapping(address => uint256)",
        "numberOfBytes": "32",
        "value": "t_uint256"
      },
      "t_string_storage": {
        "encoding": "bytes",
        "label": "string",
        "numberOfBytes": "32"
      },
      "t_uint256": {
        "encoding": "inplace",
        "label": "uint256",
        "numberOfBytes": "32"
      },
      "t_uint8": {
        "encoding": "inplace",
        "label": "uint8",
        "numberOfBytes": "1"
      }
    }
  }
}