{
  "address": "0x4f8e614B2ab55127950f49e1863D50a65dfFBfcb",
  "abi": [
    {
      "inputs": [
        {
          "internalType": "contract IPollutionToken",
          "name": "_tokenAddress",
          "type": "address"
        }
      ],
      "stateMutability": "nonpayable",
      "type": "constructor"
    },
    {
      "inputs": [],
      "name": "Trade__Need_Receiver_Differ_From_Sender",
      "type": "error"
    },
    {
      "inputs": [],
      "name": "Trade__Only_Receiver_Allowed",
      "type": "error"
    },
    {
      "anonymous": false,
      "inputs": [
        {
          "indexed": true,
          "internalType": "uint256",
          "name": "id",
          "type": "uint256"
        },
        {
          "indexed": false,
          "internalType": "bool",
          "name": "hasSucceded",
          "type": "bool"
        }
      ],
      "name": "TradeCompleted",
      "type": "event"
    },
    {
      "inputs": [
        {
          "internalType": "uint256",
          "name": "_id",
          "type": "uint256"
        },
        {
          "internalType": "address",
          "name": "receiver",
          "type": "address"
        },
        {
          "internalType": "bool",
          "name": "isSucceded",
          "type": "bool"
        }
      ],
      "name": "endTrade",
      "outputs": [],
      "stateMutability": "payable",
      "type": "function"
    },
    {
      "inputs": [
        {
          "internalType": "uint256",
          "name": "_id",
          "type": "uint256"
        },
        {
          "internalType": "address",
          "name": "receiver",
          "type": "address"
        }
      ],
      "name": "getTradeById",
      "outputs": [
        {
          "components": [
            {
              "internalType": "address",
              "name": "sender",
              "type": "address"
            },
            {
              "internalType": "address",
              "name": "receiver",
              "type": "address"
            },
            {
              "internalType": "uint256",
              "name": "ptAmount",
              "type": "uint256"
            },
            {
              "internalType": "uint256",
              "name": "id",
              "type": "uint256"
            }
          ],
          "internalType": "struct TradeToken.TradeData",
          "name": "",
          "type": "tuple"
        }
      ],
      "stateMutability": "view",
      "type": "function"
    },
    {
      "inputs": [
        {
          "internalType": "address",
          "name": "receiver",
          "type": "address"
        }
      ],
      "name": "returnTrades",
      "outputs": [
        {
          "components": [
            {
              "internalType": "address",
              "name": "sender",
              "type": "address"
            },
            {
              "internalType": "address",
              "name": "receiver",
              "type": "address"
            },
            {
              "internalType": "uint256",
              "name": "ptAmount",
              "type": "uint256"
            },
            {
              "internalType": "uint256",
              "name": "id",
              "type": "uint256"
            }
          ],
          "internalType": "struct TradeToken.TradeData[]",
          "name": "",
          "type": "tuple[]"
        }
      ],
      "stateMutability": "view",
      "type": "function"
    },
    {
      "inputs": [
        {
          "internalType": "uint256",
          "name": "ptAmount",
          "type": "uint256"
        },
        {
          "internalType": "address",
          "name": "receiver",
          "type": "address"
        }
      ],
      "name": "startTrade",
      "outputs": [],
      "stateMutability": "nonpayable",
      "type": "function"
    }
  ],
  "transactionHash": "0xdbbe9abc64df6ec9f0cb08244563af2fcd79e5411a01b07f1c116afe6b4fca0a",
  "args": [
    "0x19e54acDC8bAd93A47747d88e00f913D37223c8D"
  ],
  "numDeployments": 1,
  "solcInputHash": "bd4ce233a854cf9bd22b45333879fffb",
  "bytecode": "0x60a0604052600180553480156200001557600080fd5b50604051620017593803806200175983398181016040528101906200003b919062000167565b8073ffffffffffffffffffffffffffffffffffffffff1660808173ffffffffffffffffffffffffffffffffffffffff168152505060805173ffffffffffffffffffffffffffffffffffffffff1663c697a7c830336040518363ffffffff1660e01b8152600401620000ae929190620001aa565b600060405180830381600087803b158015620000c957600080fd5b505af1158015620000de573d6000803e3d6000fd5b5050505050620001d7565b600080fd5b600073ffffffffffffffffffffffffffffffffffffffff82169050919050565b60006200011b82620000ee565b9050919050565b60006200012f826200010e565b9050919050565b620001418162000122565b81146200014d57600080fd5b50565b600081519050620001618162000136565b92915050565b60006020828403121562000180576200017f620000e9565b5b6000620001908482850162000150565b91505092915050565b620001a4816200010e565b82525050565b6000604082019050620001c1600083018562000199565b620001d0602083018462000199565b9392505050565b60805161155f620001fa600039600081816107660152610899015261155f6000f3fe60806040526004361061003f5760003560e01c8063477f9e341461004457806369bbabe6146100815780636f07a535146100be578063b6368eda146100da575b600080fd5b34801561005057600080fd5b5061006b60048036038101906100669190610ebd565b610103565b6040516100789190611016565b60405180910390f35b34801561008d57600080fd5b506100a860048036038101906100a39190611064565b610266565b6040516100b591906110f9565b60405180910390f35b6100d860048036038101906100d3919061114c565b610478565b005b3480156100e657600080fd5b5061010160048036038101906100fc9190611064565b610896565b005b606060008060008473ffffffffffffffffffffffffffffffffffffffff1673ffffffffffffffffffffffffffffffffffffffff168152602001908152602001600020805480602002602001604051908101604052809291908181526020016000905b8282101561025757838290600052602060002090600402016040518060800160405290816000820160009054906101000a900473ffffffffffffffffffffffffffffffffffffffff1673ffffffffffffffffffffffffffffffffffffffff1673ffffffffffffffffffffffffffffffffffffffff1681526020016001820160009054906101000a900473ffffffffffffffffffffffffffffffffffffffff1673ffffffffffffffffffffffffffffffffffffffff1673ffffffffffffffffffffffffffffffffffffffff1681526020016002820154815260200160038201548152505081526020019060010190610165565b50505050905080915050919050565b61026e610e06565b610276610e06565b60005b6000808573ffffffffffffffffffffffffffffffffffffffff1673ffffffffffffffffffffffffffffffffffffffff1681526020019081526020016000208054905081101561046d57846000808673ffffffffffffffffffffffffffffffffffffffff1673ffffffffffffffffffffffffffffffffffffffff16815260200190815260200160002082815481106103135761031261119f565b5b9060005260206000209060040201600301540361045a576000808573ffffffffffffffffffffffffffffffffffffffff1673ffffffffffffffffffffffffffffffffffffffff168152602001908152602001600020818154811061037a5761037961119f565b5b90600052602060002090600402016040518060800160405290816000820160009054906101000a900473ffffffffffffffffffffffffffffffffffffffff1673ffffffffffffffffffffffffffffffffffffffff1673ffffffffffffffffffffffffffffffffffffffff1681526020016001820160009054906101000a900473ffffffffffffffffffffffffffffffffffffffff1673ffffffffffffffffffffffffffffffffffffffff1673ffffffffffffffffffffffffffffffffffffffff16815260200160028201548152602001600382015481525050915061046d565b8080610465906111fd565b915050610279565b508091505092915050565b3373ffffffffffffffffffffffffffffffffffffffff168273ffffffffffffffffffffffffffffffffffffffff16146104dd576040517ff78b4ebc00000000000000000000000000000000000000000000000000000000815260040160405180910390fd5b60008060008473ffffffffffffffffffffffffffffffffffffffff1673ffffffffffffffffffffffffffffffffffffffff168152602001908152602001600020805480602002602001604051908101604052809291908181526020016000905b8282101561062f57838290600052602060002090600402016040518060800160405290816000820160009054906101000a900473ffffffffffffffffffffffffffffffffffffffff1673ffffffffffffffffffffffffffffffffffffffff1673ffffffffffffffffffffffffffffffffffffffff1681526020016001820160009054906101000a900473ffffffffffffffffffffffffffffffffffffffff1673ffffffffffffffffffffffffffffffffffffffff1673ffffffffffffffffffffffffffffffffffffffff168152602001600282015481526020016003820154815250508152602001906001019061053d565b50505050905061063d610e06565b60005b82518110156106ad578583828151811061065d5761065c61119f565b5b6020026020010151606001510361069a578281815181106106815761068061119f565b5b602002602001015191506106958186610b4f565b6106ad565b80806106a5906111fd565b915050610640565b508215610851576000816000015173ffffffffffffffffffffffffffffffffffffffff16346040516106de90611276565b60006040518083038185875af1925050503d806000811461071b576040519150601f19603f3d011682016040523d82523d6000602084013e610720565b606091505b5050905080610764576040517f08c379a000000000000000000000000000000000000000000000000000000000815260040161075b906112e8565b60405180910390fd5b7f000000000000000000000000000000000000000000000000000000000000000073ffffffffffffffffffffffffffffffffffffffff1663dc5314f2836000015187670de0b6b3a764000086604001516107be9190611308565b6040518463ffffffff1660e01b81526004016107dc93929190611368565b600060405180830381600087803b1580156107f657600080fd5b505af115801561080a573d6000803e3d6000fd5b5050505081606001517f28d4259847c7163ce37fc67a0fbf41b63b8431ba070e54818ad971f075ed053b600160405161084391906113ae565b60405180910390a25061088f565b80606001517f28d4259847c7163ce37fc67a0fbf41b63b8431ba070e54818ad971f075ed053b600060405161088691906113ae565b60405180910390a25b5050505050565b817f000000000000000000000000000000000000000000000000000000000000000073ffffffffffffffffffffffffffffffffffffffff166370a08231336040518263ffffffff1660e01b81526004016108f091906113c9565b602060405180830381865afa15801561090d573d6000803e3d6000fd5b505050506040513d601f19601f8201168201806040525081019061093191906113f9565b1015610972576040517f08c379a000000000000000000000000000000000000000000000000000000000815260040161096990611472565b60405180910390fd5b8073ffffffffffffffffffffffffffffffffffffffff163373ffffffffffffffffffffffffffffffffffffffff16036109d7576040517fca32050000000000000000000000000000000000000000000000000000000000815260040160405180910390fd5b600060405180608001604052803373ffffffffffffffffffffffffffffffffffffffff1681526020018373ffffffffffffffffffffffffffffffffffffffff168152602001848152602001600154815250905060018054610a389190611492565b6001819055506000808373ffffffffffffffffffffffffffffffffffffffff1673ffffffffffffffffffffffffffffffffffffffff16815260200190815260200160002081908060018154018082558091505060019003906000526020600020906004020160009091909190915060008201518160000160006101000a81548173ffffffffffffffffffffffffffffffffffffffff021916908373ffffffffffffffffffffffffffffffffffffffff16021790555060208201518160010160006101000a81548173ffffffffffffffffffffffffffffffffffffffff021916908373ffffffffffffffffffffffffffffffffffffffff16021790555060408201518160020155606082015181600301555050505050565b6000808273ffffffffffffffffffffffffffffffffffffffff1673ffffffffffffffffffffffffffffffffffffffff16815260200190815260200160002060016000808473ffffffffffffffffffffffffffffffffffffffff1673ffffffffffffffffffffffffffffffffffffffff16815260200190815260200160002080549050610bdb91906114c6565b81548110610bec57610beb61119f565b5b90600052602060002090600402016000808373ffffffffffffffffffffffffffffffffffffffff1673ffffffffffffffffffffffffffffffffffffffff1681526020019081526020016000208381548110610c4a57610c4961119f565b5b90600052602060002090600402016000820160009054906101000a900473ffffffffffffffffffffffffffffffffffffffff168160000160006101000a81548173ffffffffffffffffffffffffffffffffffffffff021916908373ffffffffffffffffffffffffffffffffffffffff1602179055506001820160009054906101000a900473ffffffffffffffffffffffffffffffffffffffff168160010160006101000a81548173ffffffffffffffffffffffffffffffffffffffff021916908373ffffffffffffffffffffffffffffffffffffffff16021790555060028201548160020155600382015481600301559050506000808273ffffffffffffffffffffffffffffffffffffffff1673ffffffffffffffffffffffffffffffffffffffff168152602001908152602001600020805480610d8b57610d8a6114fa565b5b6001900381819060005260206000209060040201600080820160006101000a81549073ffffffffffffffffffffffffffffffffffffffff02191690556001820160006101000a81549073ffffffffffffffffffffffffffffffffffffffff021916905560028201600090556003820160009055505090555050565b6040518060800160405280600073ffffffffffffffffffffffffffffffffffffffff168152602001600073ffffffffffffffffffffffffffffffffffffffff16815260200160008152602001600081525090565b600080fd5b600073ffffffffffffffffffffffffffffffffffffffff82169050919050565b6000610e8a82610e5f565b9050919050565b610e9a81610e7f565b8114610ea557600080fd5b50565b600081359050610eb781610e91565b92915050565b600060208284031215610ed357610ed2610e5a565b5b6000610ee184828501610ea8565b91505092915050565b600081519050919050565b600082825260208201905092915050565b6000819050602082019050919050565b610f1f81610e7f565b82525050565b6000819050919050565b610f3881610f25565b82525050565b608082016000820151610f546000850182610f16565b506020820151610f676020850182610f16565b506040820151610f7a6040850182610f2f565b506060820151610f8d6060850182610f2f565b50505050565b6000610f9f8383610f3e565b60808301905092915050565b6000602082019050919050565b6000610fc382610eea565b610fcd8185610ef5565b9350610fd883610f06565b8060005b83811015611009578151610ff08882610f93565b9750610ffb83610fab565b925050600181019050610fdc565b5085935050505092915050565b600060208201905081810360008301526110308184610fb8565b905092915050565b61104181610f25565b811461104c57600080fd5b50565b60008135905061105e81611038565b92915050565b6000806040838503121561107b5761107a610e5a565b5b60006110898582860161104f565b925050602061109a85828601610ea8565b9150509250929050565b6080820160008201516110ba6000850182610f16565b5060208201516110cd6020850182610f16565b5060408201516110e06040850182610f2f565b5060608201516110f36060850182610f2f565b50505050565b600060808201905061110e60008301846110a4565b92915050565b60008115159050919050565b61112981611114565b811461113457600080fd5b50565b60008135905061114681611120565b92915050565b60008060006060848603121561116557611164610e5a565b5b60006111738682870161104f565b935050602061118486828701610ea8565b925050604061119586828701611137565b9150509250925092565b7f4e487b7100000000000000000000000000000000000000000000000000000000600052603260045260246000fd5b7f4e487b7100000000000000000000000000000000000000000000000000000000600052601160045260246000fd5b600061120882610f25565b91507fffffffffffffffffffffffffffffffffffffffffffffffffffffffffffffffff820361123a576112396111ce565b5b600182019050919050565b600081905092915050565b50565b6000611260600083611245565b915061126b82611250565b600082019050919050565b600061128182611253565b9150819050919050565b600082825260208201905092915050565b7f4661696c656420746f2073656e64204574686572000000000000000000000000600082015250565b60006112d260148361128b565b91506112dd8261129c565b602082019050919050565b60006020820190508181036000830152611301816112c5565b9050919050565b600061131382610f25565b915061131e83610f25565b925082820261132c81610f25565b91508282048414831517611343576113426111ce565b5b5092915050565b61135381610e7f565b82525050565b61136281610f25565b82525050565b600060608201905061137d600083018661134a565b61138a602083018561134a565b6113976040830184611359565b949350505050565b6113a881611114565b82525050565b60006020820190506113c3600083018461139f565b92915050565b60006020820190506113de600083018461134a565b92915050565b6000815190506113f381611038565b92915050565b60006020828403121561140f5761140e610e5a565b5b600061141d848285016113e4565b91505092915050565b7f4e6f7420656e6f75676820746f6b656e73000000000000000000000000000000600082015250565b600061145c60118361128b565b915061146782611426565b602082019050919050565b6000602082019050818103600083015261148b8161144f565b9050919050565b600061149d82610f25565b91506114a883610f25565b92508282019050808211156114c0576114bf6111ce565b5b92915050565b60006114d182610f25565b91506114dc83610f25565b92508282039050818111156114f4576114f36111ce565b5b92915050565b7f4e487b7100000000000000000000000000000000000000000000000000000000600052603160045260246000fdfea26469706673582212207905ae869631897d0a41a48746fdc642816daa67a66b8f4b447d7fd086a49bf364736f6c63430008150033",
  "devdoc": {
    "author": "Giuseppe La Vecchia",
    "custom:experimental": "This is an experimental contract.",
    "kind": "dev",
    "methods": {
      "endTrade(uint256,address,bool)": {
        "params": {
          "_id": "the trade identificator",
          "isSucceded": "true if 'receiver' accept the trade, false if he refuse",
          "receiver": "the receiver address"
        }
      },
      "returnTrades(address)": {
        "params": {
          "receiver": "the receiver address"
        }
      },
      "startTrade(uint256,address)": {
        "params": {
          "ptAmount": "amount of PollutionToken that you want to trade",
          "receiver": "the receiver address"
        }
      }
    },
    "title": "Contract for trading PollutionTokens for ETH",
    "version": 1
  },
  "userdoc": {
    "kind": "user",
    "methods": {
      "endTrade(uint256,address,bool)": {
        "notice": "Ending the trade instance This follow the startTrade execution. When a startTrade is called by a sender, the receiver must respond to the request, accepting and paying in ETH that ptAmount. or refusing, simply emitting an event. In both cases the trade instance will be removed from the trade list."
      },
      "returnTrades(address)": {
        "notice": "Returning instances of all the trades of the 'receiver'"
      },
      "startTrade(uint256,address)": {
        "notice": "Begin a PollutionToken trade Allows 'sender' to start a trade of 'ptAmount' of tokens with the 'receiver'"
      }
    },
    "notice": "It can be possible to start a new trade by a sender, accept or refuse it by a receiver.",
    "version": 1
  },
  "storageLayout": {
    "storage": [
      {
        "astId": 5848,
        "contract": "contracts/TradeToken.sol:TradeToken",
        "label": "receiverTrades",
        "offset": 0,
        "slot": "0",
        "type": "t_mapping(t_address,t_array(t_struct(TradeData)5842_storage)dyn_storage)"
      },
      {
        "astId": 5854,
        "contract": "contracts/TradeToken.sol:TradeToken",
        "label": "id",
        "offset": 0,
        "slot": "1",
        "type": "t_uint256"
      }
    ],
    "types": {
      "t_address": {
        "encoding": "inplace",
        "label": "address",
        "numberOfBytes": "20"
      },
      "t_array(t_struct(TradeData)5842_storage)dyn_storage": {
        "base": "t_struct(TradeData)5842_storage",
        "encoding": "dynamic_array",
        "label": "struct TradeToken.TradeData[]",
        "numberOfBytes": "32"
      },
      "t_mapping(t_address,t_array(t_struct(TradeData)5842_storage)dyn_storage)": {
        "encoding": "mapping",
        "key": "t_address",
        "label": "mapping(address => struct TradeToken.TradeData[])",
        "numberOfBytes": "32",
        "value": "t_array(t_struct(TradeData)5842_storage)dyn_storage"
      },
      "t_struct(TradeData)5842_storage": {
        "encoding": "inplace",
        "label": "struct TradeToken.TradeData",
        "members": [
          {
            "astId": 5835,
            "contract": "contracts/TradeToken.sol:TradeToken",
            "label": "sender",
            "offset": 0,
            "slot": "0",
            "type": "t_address"
          },
          {
            "astId": 5837,
            "contract": "contracts/TradeToken.sol:TradeToken",
            "label": "receiver",
            "offset": 0,
            "slot": "1",
            "type": "t_address"
          },
          {
            "astId": 5839,
            "contract": "contracts/TradeToken.sol:TradeToken",
            "label": "ptAmount",
            "offset": 0,
            "slot": "2",
            "type": "t_uint256"
          },
          {
            "astId": 5841,
            "contract": "contracts/TradeToken.sol:TradeToken",
            "label": "id",
            "offset": 0,
            "slot": "3",
            "type": "t_uint256"
          }
        ],
        "numberOfBytes": "128"
      },
      "t_uint256": {
        "encoding": "inplace",
        "label": "uint256",
        "numberOfBytes": "32"
      }
    }
  }
}